{
  "_format": "hh-sol-artifact-1",
  "contractName": "EnterTheChainlinkNFTMultiverse",
  "sourceName": "contracts/EnterTheChainlinkNFTMultiverse.sol",
  "abi": [
    {
      "inputs": [],
      "stateMutability": "nonpayable",
      "type": "constructor"
    },
    {
      "inputs": [
        {
          "internalType": "address",
          "name": "sender",
          "type": "address"
        },
        {
          "internalType": "uint256",
          "name": "tokenId",
          "type": "uint256"
        },
        {
          "internalType": "address",
          "name": "owner",
          "type": "address"
        }
      ],
      "name": "ERC721IncorrectOwner",
      "type": "error"
    },
    {
      "inputs": [
        {
          "internalType": "address",
          "name": "operator",
          "type": "address"
        },
        {
          "internalType": "uint256",
          "name": "tokenId",
          "type": "uint256"
        }
      ],
      "name": "ERC721InsufficientApproval",
      "type": "error"
    },
    {
      "inputs": [
        {
          "internalType": "address",
          "name": "approver",
          "type": "address"
        }
      ],
      "name": "ERC721InvalidApprover",
      "type": "error"
    },
    {
      "inputs": [
        {
          "internalType": "address",
          "name": "operator",
          "type": "address"
        }
      ],
      "name": "ERC721InvalidOperator",
      "type": "error"
    },
    {
      "inputs": [
        {
          "internalType": "address",
          "name": "owner",
          "type": "address"
        }
      ],
      "name": "ERC721InvalidOwner",
      "type": "error"
    },
    {
      "inputs": [
        {
          "internalType": "address",
          "name": "receiver",
          "type": "address"
        }
      ],
      "name": "ERC721InvalidReceiver",
      "type": "error"
    },
    {
      "inputs": [
        {
          "internalType": "address",
          "name": "sender",
          "type": "address"
        }
      ],
      "name": "ERC721InvalidSender",
      "type": "error"
    },
    {
      "inputs": [
        {
          "internalType": "uint256",
          "name": "tokenId",
          "type": "uint256"
        }
      ],
      "name": "ERC721NonexistentToken",
      "type": "error"
    },
    {
      "inputs": [],
      "name": "EmptySource",
      "type": "error"
    },
    {
      "inputs": [],
      "name": "NoInlineSecrets",
      "type": "error"
    },
    {
      "inputs": [
        {
          "internalType": "address",
          "name": "have",
          "type": "address"
        },
        {
          "internalType": "address",
          "name": "want",
          "type": "address"
        }
      ],
      "name": "OnlyCoordinatorCanFulfill",
      "type": "error"
    },
    {
      "inputs": [
        {
          "internalType": "address",
          "name": "have",
          "type": "address"
        },
        {
          "internalType": "address",
          "name": "owner",
          "type": "address"
        },
        {
          "internalType": "address",
          "name": "coordinator",
          "type": "address"
        }
      ],
      "name": "OnlyOwnerOrCoordinator",
      "type": "error"
    },
    {
      "inputs": [],
      "name": "OnlyRouterCanFulfill",
      "type": "error"
    },
    {
      "inputs": [
        {
          "internalType": "bytes32",
          "name": "requestId",
          "type": "bytes32"
        }
      ],
      "name": "UnexpectedRequestID",
      "type": "error"
    },
    {
      "inputs": [],
      "name": "ZeroAddress",
      "type": "error"
    },
    {
      "anonymous": false,
      "inputs": [
        {
          "indexed": true,
          "internalType": "address",
          "name": "owner",
          "type": "address"
        },
        {
          "indexed": true,
          "internalType": "address",
          "name": "approved",
          "type": "address"
        },
        {
          "indexed": true,
          "internalType": "uint256",
          "name": "tokenId",
          "type": "uint256"
        }
      ],
      "name": "Approval",
      "type": "event"
    },
    {
      "anonymous": false,
      "inputs": [
        {
          "indexed": true,
          "internalType": "address",
          "name": "owner",
          "type": "address"
        },
        {
          "indexed": true,
          "internalType": "address",
          "name": "operator",
          "type": "address"
        },
        {
          "indexed": false,
          "internalType": "bool",
          "name": "approved",
          "type": "bool"
        }
      ],
      "name": "ApprovalForAll",
      "type": "event"
    },
    {
      "anonymous": false,
      "inputs": [
        {
          "indexed": false,
          "internalType": "address",
          "name": "vrfCoordinator",
          "type": "address"
        }
      ],
      "name": "CoordinatorSet",
      "type": "event"
    },
    {
      "anonymous": false,
      "inputs": [
        {
          "indexed": true,
          "internalType": "address",
          "name": "from",
          "type": "address"
        },
        {
          "indexed": true,
          "internalType": "address",
          "name": "to",
          "type": "address"
        }
      ],
      "name": "OwnershipTransferRequested",
      "type": "event"
    },
    {
      "anonymous": false,
      "inputs": [
        {
          "indexed": true,
          "internalType": "address",
          "name": "from",
          "type": "address"
        },
        {
          "indexed": true,
          "internalType": "address",
          "name": "to",
          "type": "address"
        }
      ],
      "name": "OwnershipTransferred",
      "type": "event"
    },
    {
      "anonymous": false,
      "inputs": [
        {
          "indexed": true,
          "internalType": "bytes32",
          "name": "id",
          "type": "bytes32"
        }
      ],
      "name": "RequestFulfilled",
      "type": "event"
    },
    {
      "anonymous": false,
      "inputs": [
        {
          "indexed": false,
          "internalType": "uint256",
          "name": "requestId",
          "type": "uint256"
        },
        {
          "indexed": false,
          "internalType": "uint256[]",
          "name": "randomWords",
          "type": "uint256[]"
        }
      ],
      "name": "RequestFulfilled",
      "type": "event"
    },
    {
      "anonymous": false,
      "inputs": [
        {
          "indexed": true,
          "internalType": "bytes32",
          "name": "id",
          "type": "bytes32"
        }
      ],
      "name": "RequestSent",
      "type": "event"
    },
    {
      "anonymous": false,
      "inputs": [
        {
          "indexed": false,
          "internalType": "uint256",
          "name": "requestId",
          "type": "uint256"
        },
        {
          "indexed": false,
          "internalType": "uint32",
          "name": "numWords",
          "type": "uint32"
        }
      ],
      "name": "RequestSent",
      "type": "event"
    },
    {
      "anonymous": false,
      "inputs": [
        {
          "indexed": true,
          "internalType": "address",
          "name": "from",
          "type": "address"
        },
        {
          "indexed": true,
          "internalType": "address",
          "name": "to",
          "type": "address"
        },
        {
          "indexed": true,
          "internalType": "uint256",
          "name": "tokenId",
          "type": "uint256"
        }
      ],
      "name": "Transfer",
      "type": "event"
    },
    {
      "inputs": [],
      "name": "acceptOwnership",
      "outputs": [],
      "stateMutability": "nonpayable",
      "type": "function"
    },
    {
      "inputs": [
        {
          "internalType": "string",
          "name": "apiSource",
          "type": "string"
        }
      ],
      "name": "appendApiSource",
      "outputs": [],
      "stateMutability": "nonpayable",
      "type": "function"
    },
    {
      "inputs": [
        {
          "internalType": "address",
          "name": "to",
          "type": "address"
        },
        {
          "internalType": "uint256",
          "name": "tokenId",
          "type": "uint256"
        }
      ],
      "name": "approve",
      "outputs": [],
      "stateMutability": "nonpayable",
      "type": "function"
    },
    {
      "inputs": [],
      "name": "arbitrumSepoliaKeyHash",
      "outputs": [
        {
          "internalType": "bytes32",
          "name": "",
          "type": "bytes32"
        }
      ],
      "stateMutability": "view",
      "type": "function"
    },
    {
      "inputs": [
        {
          "internalType": "address",
          "name": "owner",
          "type": "address"
        }
      ],
      "name": "balanceOf",
      "outputs": [
        {
          "internalType": "uint256",
          "name": "",
          "type": "uint256"
        }
      ],
      "stateMutability": "view",
      "type": "function"
    },
    {
      "inputs": [
        {
          "internalType": "bytes32",
          "name": "",
          "type": "bytes32"
        }
      ],
      "name": "chainlinkFunctionsRequestIdTracker",
      "outputs": [
        {
          "internalType": "uint256",
          "name": "tokenId",
          "type": "uint256"
        },
        {
          "internalType": "address",
          "name": "userWallet",
          "type": "address"
        },
        {
          "internalType": "bool",
          "name": "isPending",
          "type": "bool"
        }
      ],
      "stateMutability": "view",
      "type": "function"
    },
    {
      "inputs": [
        {
          "internalType": "uint256",
          "name": "",
          "type": "uint256"
        }
      ],
      "name": "chainlinkVRFRequestIdTracker",
      "outputs": [
        {
          "internalType": "bool",
          "name": "fulfilled",
          "type": "bool"
        },
        {
          "internalType": "bool",
          "name": "exists",
          "type": "bool"
        },
        {
          "internalType": "uint256",
          "name": "tokenId",
          "type": "uint256"
        },
        {
          "internalType": "address",
          "name": "userWallet",
          "type": "address"
        }
      ],
      "stateMutability": "view",
      "type": "function"
    },
    {
      "inputs": [],
      "name": "disneySource",
      "outputs": [
        {
          "internalType": "string",
          "name": "",
          "type": "string"
        }
      ],
      "stateMutability": "view",
      "type": "function"
    },
    {
      "inputs": [],
      "name": "functionCallbackLastError",
      "outputs": [
        {
          "internalType": "bytes",
          "name": "",
          "type": "bytes"
        }
      ],
      "stateMutability": "view",
      "type": "function"
    },
    {
      "inputs": [],
      "name": "functionCallbackLastRequestId",
      "outputs": [
        {
          "internalType": "bytes32",
          "name": "",
          "type": "bytes32"
        }
      ],
      "stateMutability": "view",
      "type": "function"
    },
    {
      "inputs": [],
      "name": "functionCallbackLastResponse",
      "outputs": [
        {
          "internalType": "bytes",
          "name": "",
          "type": "bytes"
        }
      ],
      "stateMutability": "view",
      "type": "function"
    },
    {
      "inputs": [],
      "name": "functionGasLimit",
      "outputs": [
        {
          "internalType": "uint32",
          "name": "",
          "type": "uint32"
        }
      ],
      "stateMutability": "view",
      "type": "function"
    },
    {
      "inputs": [],
      "name": "gameOfThronesSource",
      "outputs": [
        {
          "internalType": "string",
          "name": "",
          "type": "string"
        }
      ],
      "stateMutability": "view",
      "type": "function"
    },
    {
      "inputs": [
        {
          "internalType": "uint256",
          "name": "tokenId",
          "type": "uint256"
        }
      ],
      "name": "getApproved",
      "outputs": [
        {
          "internalType": "address",
          "name": "",
          "type": "address"
        }
      ],
      "stateMutability": "view",
      "type": "function"
    },
    {
      "inputs": [
        {
          "internalType": "bytes32",
          "name": "requestId",
          "type": "bytes32"
        },
        {
          "internalType": "bytes",
          "name": "response",
          "type": "bytes"
        },
        {
          "internalType": "bytes",
          "name": "err",
          "type": "bytes"
        }
      ],
      "name": "handleOracleFulfillment",
      "outputs": [],
      "stateMutability": "nonpayable",
      "type": "function"
    },
    {
      "inputs": [],
      "name": "hpSource",
      "outputs": [
        {
          "internalType": "string",
          "name": "",
          "type": "string"
        }
      ],
      "stateMutability": "view",
      "type": "function"
    },
    {
      "inputs": [
        {
          "internalType": "address",
          "name": "owner",
          "type": "address"
        },
        {
          "internalType": "address",
          "name": "operator",
          "type": "address"
        }
      ],
      "name": "isApprovedForAll",
      "outputs": [
        {
          "internalType": "bool",
          "name": "",
          "type": "bool"
        }
      ],
      "stateMutability": "view",
      "type": "function"
    },
    {
      "inputs": [],
      "name": "isPaused",
      "outputs": [
        {
          "internalType": "bool",
          "name": "",
          "type": "bool"
        }
      ],
      "stateMutability": "view",
      "type": "function"
    },
    {
      "inputs": [],
      "name": "lastFunctionCallbackStringResult",
      "outputs": [
        {
          "internalType": "string",
          "name": "",
          "type": "string"
        }
      ],
      "stateMutability": "view",
      "type": "function"
    },
    {
      "inputs": [
        {
          "internalType": "address",
          "name": "userWallet",
          "type": "address"
        }
      ],
      "name": "mintRandomNFTRequest",
      "outputs": [],
      "stateMutability": "nonpayable",
      "type": "function"
    },
    {
      "inputs": [
        {
          "internalType": "uint256",
          "name": "",
          "type": "uint256"
        }
      ],
      "name": "multiverseApiSources",
      "outputs": [
        {
          "internalType": "string",
          "name": "",
          "type": "string"
        }
      ],
      "stateMutability": "view",
      "type": "function"
    },
    {
      "inputs": [],
      "name": "name",
      "outputs": [
        {
          "internalType": "string",
          "name": "",
          "type": "string"
        }
      ],
      "stateMutability": "view",
      "type": "function"
    },
    {
      "inputs": [],
      "name": "owner",
      "outputs": [
        {
          "internalType": "address",
          "name": "",
          "type": "address"
        }
      ],
      "stateMutability": "view",
      "type": "function"
    },
    {
      "inputs": [
        {
          "internalType": "uint256",
          "name": "tokenId",
          "type": "uint256"
        }
      ],
      "name": "ownerOf",
      "outputs": [
        {
          "internalType": "address",
          "name": "",
          "type": "address"
        }
      ],
      "stateMutability": "view",
      "type": "function"
    },
    {
      "inputs": [],
      "name": "pause",
      "outputs": [],
      "stateMutability": "nonpayable",
      "type": "function"
    },
    {
      "inputs": [],
      "name": "pokeSource",
      "outputs": [
        {
          "internalType": "string",
          "name": "",
          "type": "string"
        }
      ],
      "stateMutability": "view",
      "type": "function"
    },
    {
      "inputs": [
        {
          "internalType": "uint256",
          "name": "requestId",
          "type": "uint256"
        },
        {
          "internalType": "uint256[]",
          "name": "randomWords",
          "type": "uint256[]"
        }
      ],
      "name": "rawFulfillRandomWords",
      "outputs": [],
      "stateMutability": "nonpayable",
      "type": "function"
    },
    {
      "inputs": [
        {
          "internalType": "uint256",
          "name": "index",
          "type": "uint256"
        }
      ],
      "name": "removeApiSource",
      "outputs": [],
      "stateMutability": "nonpayable",
      "type": "function"
    },
    {
      "inputs": [],
      "name": "router",
      "outputs": [
        {
          "internalType": "address",
          "name": "",
          "type": "address"
        }
      ],
      "stateMutability": "view",
      "type": "function"
    },
    {
      "inputs": [],
      "name": "s_vrfCoordinator",
      "outputs": [
        {
          "internalType": "contract IVRFCoordinatorV2Plus",
          "name": "",
          "type": "address"
        }
      ],
      "stateMutability": "view",
      "type": "function"
    },
    {
      "inputs": [
        {
          "internalType": "address",
          "name": "from",
          "type": "address"
        },
        {
          "internalType": "address",
          "name": "to",
          "type": "address"
        },
        {
          "internalType": "uint256",
          "name": "tokenId",
          "type": "uint256"
        }
      ],
      "name": "safeTransferFrom",
      "outputs": [],
      "stateMutability": "nonpayable",
      "type": "function"
    },
    {
      "inputs": [
        {
          "internalType": "address",
          "name": "from",
          "type": "address"
        },
        {
          "internalType": "address",
          "name": "to",
          "type": "address"
        },
        {
          "internalType": "uint256",
          "name": "tokenId",
          "type": "uint256"
        },
        {
          "internalType": "bytes",
          "name": "data",
          "type": "bytes"
        }
      ],
      "name": "safeTransferFrom",
      "outputs": [],
      "stateMutability": "nonpayable",
      "type": "function"
    },
    {
      "inputs": [
        {
          "internalType": "address",
          "name": "operator",
          "type": "address"
        },
        {
          "internalType": "bool",
          "name": "approved",
          "type": "bool"
        }
      ],
      "name": "setApprovalForAll",
      "outputs": [],
      "stateMutability": "nonpayable",
      "type": "function"
    },
    {
      "inputs": [
        {
          "internalType": "address",
          "name": "_vrfCoordinator",
          "type": "address"
        }
      ],
      "name": "setCoordinator",
      "outputs": [],
      "stateMutability": "nonpayable",
      "type": "function"
    },
    {
      "inputs": [
        {
          "internalType": "bytes4",
          "name": "interfaceId",
          "type": "bytes4"
        }
      ],
      "name": "supportsInterface",
      "outputs": [
        {
          "internalType": "bool",
          "name": "",
          "type": "bool"
        }
      ],
      "stateMutability": "view",
      "type": "function"
    },
    {
      "inputs": [],
      "name": "symbol",
      "outputs": [
        {
          "internalType": "string",
          "name": "",
          "type": "string"
        }
      ],
      "stateMutability": "view",
      "type": "function"
    },
    {
      "inputs": [],
      "name": "tokenIdCounter",
      "outputs": [
        {
          "internalType": "uint256",
          "name": "",
          "type": "uint256"
        }
      ],
      "stateMutability": "view",
      "type": "function"
    },
    {
      "inputs": [
        {
          "internalType": "uint256",
          "name": "",
          "type": "uint256"
        }
      ],
      "name": "tokenIdToNFTData",
      "outputs": [
        {
          "internalType": "string",
          "name": "",
          "type": "string"
        }
      ],
      "stateMutability": "view",
      "type": "function"
    },
    {
      "inputs": [
        {
          "internalType": "uint256",
          "name": "tokenId",
          "type": "uint256"
        }
      ],
      "name": "tokenURI",
      "outputs": [
        {
          "internalType": "string",
          "name": "",
          "type": "string"
        }
      ],
      "stateMutability": "view",
      "type": "function"
    },
    {
      "inputs": [
        {
          "internalType": "address",
          "name": "from",
          "type": "address"
        },
        {
          "internalType": "address",
          "name": "to",
          "type": "address"
        },
        {
          "internalType": "uint256",
          "name": "tokenId",
          "type": "uint256"
        }
      ],
      "name": "transferFrom",
      "outputs": [],
      "stateMutability": "nonpayable",
      "type": "function"
    },
    {
      "inputs": [
        {
          "internalType": "address",
          "name": "to",
          "type": "address"
        }
      ],
      "name": "transferOwnership",
      "outputs": [],
      "stateMutability": "nonpayable",
      "type": "function"
    },
    {
      "inputs": [],
      "name": "unpause",
      "outputs": [],
      "stateMutability": "nonpayable",
      "type": "function"
    },
    {
      "inputs": [
        {
          "internalType": "uint256",
          "name": "index",
          "type": "uint256"
        },
        {
          "internalType": "string",
          "name": "apiSource",
          "type": "string"
        }
      ],
      "name": "updateApiSource",
      "outputs": [],
      "stateMutability": "nonpayable",
      "type": "function"
    },
    {
      "inputs": [],
      "name": "vrfCallbackGasLimit",
      "outputs": [
        {
          "internalType": "uint32",
          "name": "",
          "type": "uint32"
        }
      ],
      "stateMutability": "view",
      "type": "function"
    },
    {
      "inputs": [],
      "name": "vrfCoordinator",
      "outputs": [
        {
          "internalType": "address",
          "name": "",
          "type": "address"
        }
      ],
      "stateMutability": "view",
      "type": "function"
    },
    {
      "inputs": [],
      "name": "vrfLastRequestId",
      "outputs": [
        {
          "internalType": "uint256",
          "name": "",
          "type": "uint256"
        }
      ],
      "stateMutability": "view",
      "type": "function"
    },
    {
      "inputs": [],
      "name": "vrfNumWords",
      "outputs": [
        {
          "internalType": "uint32",
          "name": "",
          "type": "uint32"
        }
      ],
      "stateMutability": "view",
      "type": "function"
    },
    {
      "inputs": [
        {
          "internalType": "uint256",
          "name": "",
          "type": "uint256"
        }
      ],
      "name": "vrfRequestIds",
      "outputs": [
        {
          "internalType": "uint256",
          "name": "",
          "type": "uint256"
        }
      ],
      "stateMutability": "view",
      "type": "function"
    },
    {
      "inputs": [],
      "name": "vrfSubscriptionId",
      "outputs": [
        {
          "internalType": "uint256",
          "name": "",
          "type": "uint256"
        }
      ],
      "stateMutability": "view",
      "type": "function"
    }
  ],
  "bytecode": "0x600d80546001600160401b0319166043179055600f80546001600160a01b03191673234a5fb5bd614a7aa2ffab244d603abfa0ac5c5c1790557f66756e2d617262697472756d2d7365706f6c69612d31000000000000000000006010556014805463ffffffff19908116620493e0179091557f58de34bee78940f0673162df37bd0f493469af1e12e4df31fb7dba1c650a0a7f6015557f1770bdc7eec7771f7ba4ffd640f34260d7f095b79c92d34a5b2551d6f6cfd2be601755601880549091166001179055601b8054775ce8d5a2bc84beb22a398cca51996f7930313d61000186a06001600160c01b031990911617905561024060405261017a60a08181529062003ad060c039601c9062000116908262000532565b506040518061020001604052806101c281526020016200390e6101c29139601d9062000143908262000532565b50604051806101c0016040528061019181526020016200377d6101919139601e9062000170908262000532565b50604051806101a0016040528061016c815260200162003c4a61016c9139601f906200019d908262000532565b50348015620001ab57600080fd5b50601b54600f54604080518082018252601381527f436861696e6c696e6b4d756c746976657273650000000000000000000000000060208083019190915282518084019093526003835262434c4d60e81b908301526001600160a01b03640100000000909404841693339384936000939190921691836200022d838262000532565b5060016200023c828262000532565b5050506001600160a01b039081166080528216620002a15760405162461bcd60e51b815260206004820152601860248201527f43616e6e6f7420736574206f776e657220746f207a65726f000000000000000060448201526064015b60405180910390fd5b600680546001600160a01b0319166001600160a01b0384811691909117909155811615620002d457620002d481620003e1565b5050506001600160a01b038116620002ff5760405163d92e233d60e01b815260040160405180910390fd5b600880546001600160a01b0319166001600160a01b0392909216919091179055600a80546001810182556000919091526000805160206200375d833981519152016200034d601c82620005fe565b50600a80546001810182556000919091526000805160206200375d833981519152016200037c601d82620005fe565b50600a80546001810182556000919091526000805160206200375d83398151915201620003ab601e82620005fe565b50600a80546001810182556000919091526000805160206200375d83398151915201620003da601f82620005fe565b50620006e7565b336001600160a01b038216036200043b5760405162461bcd60e51b815260206004820152601760248201527f43616e6e6f74207472616e7366657220746f2073656c66000000000000000000604482015260640162000298565b600780546001600160a01b0319166001600160a01b03838116918217909255600654604051919216907fed8889f560326eb138920d842192f0eb3dd22b4f139c87a2c57538e05bae127890600090a350565b634e487b7160e01b600052604160045260246000fd5b600181811c90821680620004b857607f821691505b602082108103620004d957634e487b7160e01b600052602260045260246000fd5b50919050565b601f8211156200052d57600081815260208120601f850160051c81016020861015620005085750805b601f850160051c820191505b81811015620005295782815560010162000514565b5050505b505050565b81516001600160401b038111156200054e576200054e6200048d565b62000566816200055f8454620004a3565b84620004df565b602080601f8311600181146200059e5760008415620005855750858301515b600019600386901b1c1916600185901b17855562000529565b600085815260208120601f198616915b82811015620005cf57888601518255948401946001909101908401620005ae565b5085821015620005ee5787850151600019600388901b60f8161c191681555b5050505050600190811b01905550565b8181036200060a575050565b620006168254620004a3565b6001600160401b038111156200063057620006306200048d565b62000641816200055f8454620004a3565b6000601f8211600181146200067857600083156200065f5750848201545b600019600385901b1c1916600184901b178455620006e0565b600085815260209020601f19841690600086815260209020845b83811015620006b4578286015482556001958601959091019060200162000692565b5085831015620006d35781850154600019600388901b60f8161c191681555b50505060018360011b0184555b5050505050565b6080516130536200070a600039600081816107db0152611dbe01526130536000f3fe608060405234801561001057600080fd5b50600436106102bb5760003560e01c8063813ce42d11610182578063a969a403116100e9578063cfd30a6e116100a2578063ed647d211161007c578063ed647d2114610624578063f2fde38b1461062d578063f887ea4014610640578063ff712d021461065357600080fd5b8063cfd30a6e146105f5578063e1e1637914610608578063e985e9c51461061157600080fd5b8063a969a4031461059b578063ab6eef52146105a3578063b187bd26146105ab578063b88d4fde146105bf578063c87b56dd146105d2578063cf2a1a0e146105e557600080fd5b80639443dec11161013b5780639443dec11461053657806395d89b411461054957806398bdf6f5146105515780639eccacf61461055a578063a22cb4651461056d578063a3e56fa81461058057600080fd5b8063813ce42d146104e75780638456cb59146104fa578063849e0312146105025780638a0ec9d21461050a5780638da5cb5b146105125780638ea981171461052357600080fd5b8063425c9fa2116102265780636250fb2b116101df5780636250fb2b146104955780636352211e1461049d5780636f2f418e146104b057806370a08231146104c357806379ba5097146104d65780637d058d4f146104de57600080fd5b8063425c9fa2146103ca57806342842e0e146103dd57806348e9687a146103f05780635151804a1461040357806353cd456f146104135780635846d6821461042657600080fd5b806323b872dd1161027857806323b872dd14610363578063265d1fa3146103765780632af605231461037e57806335d46d5c146103955780633b7ed7341461039d5780633f4ba83a146103c257600080fd5b806301ffc9a7146102c057806306fdde03146102e8578063081812fc146102fd578063095ea7b3146103285780630ca761751461033d5780631fe543e314610350575b600080fd5b6102d36102ce3660046126a7565b6106b4565b60405190151581526020015b60405180910390f35b6102f0610706565b6040516102df9190612714565b61031061030b366004612727565b610798565b6040516001600160a01b0390911681526020016102df565b61033b61033636600461275c565b6107c1565b005b61033b61034b366004612828565b6107d0565b61033b61035e366004612894565b610854565b61033b610371366004612912565b6108a9565b6102f0610934565b61038760175481565b6040519081526020016102df565b6102f06109c2565b601b546103ad9063ffffffff1681565b60405163ffffffff90911681526020016102df565b61033b6109cf565b6103876103d8366004612727565b6109e6565b61033b6103eb366004612912565b610a07565b61033b6103fe36600461294e565b610a22565b6018546103ad9063ffffffff1681565b61033b610421366004612727565b610c8a565b61046a610434366004612727565b60166020526000908152604090208054600182015460029092015460ff808316936101009093041691906001600160a01b031684565b6040805194151585529215156020850152918301526001600160a01b031660608201526080016102df565b6102f0610d5f565b6103106104ab366004612727565b610d6c565b6102f06104be366004612727565b610d77565b6103876104d136600461294e565b610d90565b61033b610dd8565b610387601a5481565b61033b6104f5366004612969565b610e86565b61033b610eff565b6102f0610f1c565b6102f0610f29565b6006546001600160a01b0316610310565b61033b61053136600461294e565b610f36565b61033b6105443660046129af565b611028565b6102f061106c565b61038760095481565b600854610310906001600160a01b031681565b61033b61057b3660046129e3565b61107b565b601b546103109064010000000090046001600160a01b031681565b6102f0611086565b6102f0611093565b6008546102d390600160a01b900460ff1681565b61033b6105cd366004612a1f565b6110a0565b6102f06105e0366004612727565b6110b7565b6014546103ad9063ffffffff1681565b6102f0610603366004612727565b61112c565b61038760115481565b6102d361061f366004612a86565b611157565b61038760155481565b61033b61063b36600461294e565b611185565b600f54610310906001600160a01b031681565b61068f610661366004612727565b600e60205260009081526040902080546001909101546001600160a01b03811690600160a01b900460ff1683565b604080519384526001600160a01b0390921660208401521515908201526060016102df565b60006001600160e01b031982166380ac58cd60e01b14806106e557506001600160e01b03198216635b5e139f60e01b145b8061070057506301ffc9a760e01b6001600160e01b03198316145b92915050565b60606000805461071590612ab9565b80601f016020809104026020016040519081016040528092919081815260200182805461074190612ab9565b801561078e5780601f106107635761010080835404028352916020019161078e565b820191906000526020600020905b81548152906001019060200180831161077157829003601f168201915b5050505050905090565b60006107a382611199565b506000828152600460205260409020546001600160a01b0316610700565b6107cc8282336111d2565b5050565b336001600160a01b037f000000000000000000000000000000000000000000000000000000000000000016146108195760405163c6829f8360e01b815260040160405180910390fd5b6108248383836111df565b60405183907f85e1543bf2f84fe80c6badbce3648c8539ad1df4d2b3d822938ca0538be727e690600090a2505050565b6008546001600160a01b031633146108995760085460405163073e64fd60e21b81523360048201526001600160a01b0390911660248201526044015b60405180910390fd5b6108a48383836112c6565b505050565b6001600160a01b0382166108d357604051633250574960e11b815260006004820152602401610890565b60006108e08383336114f1565b9050836001600160a01b0316816001600160a01b03161461092e576040516364283d7b60e01b81526001600160a01b0380861660048301526024820184905282166044820152606401610890565b50505050565b6012805461094190612ab9565b80601f016020809104026020016040519081016040528092919081815260200182805461096d90612ab9565b80156109ba5780601f1061098f576101008083540402835291602001916109ba565b820191906000526020600020905b81548152906001019060200180831161099d57829003601f168201915b505050505081565b601e805461094190612ab9565b6109d76115ea565b6008805460ff60a01b19169055565b601981815481106109f657600080fd5b600091825260209091200154905081565b6108a4838383604051806020016040528060008152506110a0565b600854600160a01b900460ff1615610a715760405162461bcd60e51b815260206004820152601260248201527110dbdb9d1c9858dd081a5cc81c185d5cd95960721b6044820152606401610890565b60098054906000610a8183612b09565b90915550506008546040805160c0810182526017548152601554602080830191909152600182840152601b5463ffffffff908116606084015260185416608083015282519081019092526000808352926001600160a01b031691639b1c385e919060a0820190610af09061163f565b8152506040518263ffffffff1660e01b8152600401610b0f9190612b22565b6020604051808303816000875af1158015610b2e573d6000803e3d6000fd5b505050506040513d601f19601f82011682018060405250810190610b529190612b7f565b6040805160a0810182526000808252600160208084018281526009548587019081526001600160a01b038a81166060880190815288518781528086018a52608089019081528a8852601686529890962087518154945161ffff1990951690151561ff001916176101009415159490940293909317835590519382019390935592516002840180546001600160a01b03191691909316179091559251805194955091939092610c07926003850192910190612587565b5050601980546001810182556000919091527f944998273e477b495144fb8794c914197f3ccb46be2900f4698fd0ef743c96950182905550601a8190556018546040805183815263ffffffff90921660208301527fcc58b13ad3eab50626c6a6300b1d139cd6ebb1688a7cced9461c2f7e762665ee910160405180910390a15050565b610c926115ea565b600a548110610cd95760405162461bcd60e51b8152602060048201526013602482015272496e646578206f7574206f6620626f756e647360681b6044820152606401610890565b600a8054610ce990600190612b98565b81548110610cf957610cf9612bab565b90600052602060002001600a8281548110610d1657610d16612bab565b906000526020600020019081610d2c9190612c0f565b50600a805480610d3e57610d3e612ceb565b600190038181906000526020600020016000610d5a91906125d2565b905550565b6013805461094190612ab9565b600061070082611199565b600c602052600090815260409020805461094190612ab9565b60006001600160a01b038216610dbc576040516322718ad960e21b815260006004820152602401610890565b506001600160a01b031660009081526003602052604090205490565b6007546001600160a01b03163314610e2b5760405162461bcd60e51b815260206004820152601660248201527526bab9ba10313290383937b837b9b2b21037bbb732b960511b6044820152606401610890565b600680546001600160a01b0319808216339081179093556007805490911690556040516001600160a01b03909116919082907f8be0079c531659141344cd1fd0a4f28419497f9722a3daafe3b4186f6b6457e090600090a350565b610e8e6115ea565b600a548210610ed55760405162461bcd60e51b8152602060048201526013602482015272496e646578206f7574206f6620626f756e647360681b6044820152606401610890565b80600a8381548110610ee957610ee9612bab565b9060005260206000200190816108a49190612d01565b610f076115ea565b6008805460ff60a01b1916600160a01b179055565b600b805461094190612ab9565b601f805461094190612ab9565b6006546001600160a01b03163314801590610f5c57506008546001600160a01b03163314155b15610fad5733610f746006546001600160a01b031690565b60085460405163061db9c160e01b81526001600160a01b0393841660048201529183166024830152919091166044820152606401610890565b6001600160a01b038116610fd45760405163d92e233d60e01b815260040160405180910390fd5b600880546001600160a01b0319166001600160a01b0383169081179091556040519081527fd1a6a14209a385a964d036e404cb5cfb71f4000cdb03c9366292430787261be69060200160405180910390a150565b6110306115ea565b600a80546001810182556000919091527fc65a7bb8d6351c1cf70c95a316cc6a92839c986682d98bc35f958f4883f9d2a8016107cc8282612d01565b60606001805461071590612ab9565b6107cc3383836116b0565b601c805461094190612ab9565b601d805461094190612ab9565b6110ab8484846108a9565b61092e8484848461174f565b60606110c282611199565b5060006110da60408051602081019091526000815290565b905060008151116110fa5760405180602001604052806000815250611125565b8061110484611878565b604051602001611115929190612db8565b6040516020818303038152906040525b9392505050565b600a818154811061113c57600080fd5b90600052602060002001600091509050805461094190612ab9565b6001600160a01b03918216600090815260056020908152604080832093909416825291909152205460ff1690565b61118d6115ea565b6111968161190a565b50565b6000818152600260205260408120546001600160a01b03168061070057604051637e27328960e01b815260048101849052602401610890565b6108a483838360016119b4565b6000838152600e60205260409020600190810154600160a01b900460ff161515146112415760405162461bcd60e51b8152602060048201526012602482015271125b9d985b1a59081c995c5d595cdd081a5960721b6044820152606401610890565b601361124d8282612d01565b50601261125a8382612d01565b50600b6112678382612d01565b506000838152600e6020908152604080832060018101805460ff60a01b19169055548352600c909152902061129d600b82612c0f565b506000838152600e60205260409020600181015490546108a4916001600160a01b031690611aba565b60008381526016602052604090206112e260038201848461260c565b50805460ff19166001178155600a546000908484838161130457611304612bab565b905060200201356113159190612de7565b90506000600a828154811061132c5761132c612bab565b90600052602060002001805461134190612ab9565b80601f016020809104026020016040519081016040528092919081815260200182805461136d90612ab9565b80156113ba5780601f1061138f576101008083540402835291602001916113ba565b820191906000526020600020905b81548152906001019060200180831161139d57829003601f168201915b505050505090506114026040805160e0810190915280600081526020016000815260200160008152602001606081526020016060815260200160608152602001606081525090565b61140c8183611ad4565b61143b61141882611ae1565b600d546014546010546001600160401b039092169163ffffffff90911690611db9565b601181905560408051606081018252600180880154825260028801546001600160a01b0390811660208085019182528486018481526000978852600e90915295859020935184555192909101805494511515600160a01b026001600160a81b0319909516929091169190911792909217909155517ffe2e2d779dba245964d4e3ef9b994be63856fd568bf7d3ca9e224755cb1bd54d906114e090899089908990612e09565b60405180910390a150505050505050565b6000828152600260205260408120546001600160a01b039081169083161561151e5761151e818486611e8b565b6001600160a01b0381161561155c5761153b6000856000806119b4565b6001600160a01b038116600090815260036020526040902080546000190190555b6001600160a01b0385161561158b576001600160a01b0385166000908152600360205260409020805460010190555b60008481526002602052604080822080546001600160a01b0319166001600160a01b0389811691821790925591518793918516917fddf252ad1be2c89b69c2b068fc378daa952ba7f163c4a11628f55a4df523b3ef91a4949350505050565b6006546001600160a01b0316331461163d5760405162461bcd60e51b815260206004820152601660248201527527b7363c9031b0b63630b1363290313c9037bbb732b960511b6044820152606401610890565b565b60607f92fd13387c7fe7befbc38d303d6468778fb9731bc4583f17d92989c6fcfdeaaa8260405160240161167891511515815260200190565b60408051601f198184030181529190526020810180516001600160e01b03166001600160e01b03199093169290921790915292915050565b6001600160a01b0382166116e257604051630b61174360e31b81526001600160a01b0383166004820152602401610890565b6001600160a01b03838116600081815260056020908152604080832094871680845294825291829020805460ff191686151590811790915591519182527f17307eab39ab6107e8899845ad3d59bd9653f200f220920489ca2b5937696c31910160405180910390a3505050565b6001600160a01b0383163b1561092e57604051630a85bd0160e11b81526001600160a01b0384169063150b7a0290611791903390889087908790600401612e4a565b6020604051808303816000875af19250505080156117cc575060408051601f3d908101601f191682019092526117c991810190612e87565b60015b611835573d8080156117fa576040519150601f19603f3d011682016040523d82523d6000602084013e6117ff565b606091505b50805160000361182d57604051633250574960e11b81526001600160a01b0385166004820152602401610890565b805181602001fd5b6001600160e01b03198116630a85bd0160e11b1461187157604051633250574960e11b81526001600160a01b0385166004820152602401610890565b5050505050565b6060600061188583611eef565b60010190506000816001600160401b038111156118a4576118a4612786565b6040519080825280601f01601f1916602001820160405280156118ce576020820181803683370190505b5090508181016020015b600019016f181899199a1a9b1b9c1cb0b131b232b360811b600a86061a8153600a85049450846118d857509392505050565b336001600160a01b038216036119625760405162461bcd60e51b815260206004820152601760248201527f43616e6e6f74207472616e7366657220746f2073656c660000000000000000006044820152606401610890565b600780546001600160a01b0319166001600160a01b03838116918217909255600654604051919216907fed8889f560326eb138920d842192f0eb3dd22b4f139c87a2c57538e05bae127890600090a350565b80806119c857506001600160a01b03821615155b15611a8a5760006119d884611199565b90506001600160a01b03831615801590611a045750826001600160a01b0316816001600160a01b031614155b8015611a175750611a158184611157565b155b15611a405760405163a9fbf51f60e01b81526001600160a01b0384166004820152602401610890565b8115611a885783856001600160a01b0316826001600160a01b03167f8c5be1e5ebec7d5bd14f71427d1e84f3dd0314c0f7b2291e5b200ac8c7c3b92560405160405180910390a45b505b5050600090815260046020526040902080546001600160a01b0319166001600160a01b0392909216919091179055565b6107cc828260405180602001604052806000815250611fc7565b6107cc8260008084611fde565b60606000611af061010061205c565b9050611b296040518060400160405280600c81526020016b31b7b232a637b1b0ba34b7b760a11b8152508261207d90919063ffffffff16565b8251611b47906002811115611b4057611b40612ea4565b8290612096565b6040805180820190915260088152676c616e677561676560c01b6020820152611b7190829061207d565b6040830151611b88908015611b4057611b40612ea4565b604080518082019091526006815265736f7572636560d01b6020820152611bb090829061207d565b6060830151611bc090829061207d565b60a08301515115611c54576040805180820190915260048152636172677360e01b6020820152611bf190829061207d565b611bfa816120cf565b60005b8360a0015151811015611c4a57611c3a8460a001518281518110611c2357611c23612bab565b60200260200101518361207d90919063ffffffff16565b611c4381612b09565b9050611bfd565b50611c54816120f3565b60808301515115611d1857600083602001516002811115611c7757611c77612ea4565b03611c955760405163a80d31f760e01b815260040160405180910390fd5b60408051808201909152600f81526e39b2b1b932ba39a637b1b0ba34b7b760891b6020820152611cc690829061207d565b611cdf83602001516002811115611b4057611b40612ea4565b6040805180820190915260078152667365637265747360c81b6020820152611d0890829061207d565b6080830151611d18908290612111565b60c08301515115611db15760408051808201909152600981526862797465734172677360b81b6020820152611d4e90829061207d565b611d57816120cf565b60005b8360c0015151811015611da757611d978460c001518281518110611d8057611d80612bab565b60200260200101518361211190919063ffffffff16565b611da081612b09565b9050611d5a565b50611db1816120f3565b515192915050565b6000807f00000000000000000000000000000000000000000000000000000000000000006001600160a01b031663461d27628688600188886040518663ffffffff1660e01b8152600401611e11959493929190612eba565b6020604051808303816000875af1158015611e30573d6000803e3d6000fd5b505050506040513d601f19601f82011682018060405250810190611e549190612b7f565b60405190915081907f1131472297a800fee664d1d89cfa8f7676ff07189ecc53f80bbb5f4969099db890600090a295945050505050565b611e9683838361211e565b6108a4576001600160a01b038316611ec457604051637e27328960e01b815260048101829052602401610890565b60405163177e802f60e01b81526001600160a01b038316600482015260248101829052604401610890565b60008072184f03e93ff9f4daa797ed6e38ed64bf6a1f0160401b8310611f2e5772184f03e93ff9f4daa797ed6e38ed64bf6a1f0160401b830492506040015b6d04ee2d6d415b85acef81000000008310611f5a576d04ee2d6d415b85acef8100000000830492506020015b662386f26fc100008310611f7857662386f26fc10000830492506010015b6305f5e1008310611f90576305f5e100830492506008015b6127108310611fa457612710830492506004015b60648310611fb6576064830492506002015b600a83106107005760010192915050565b611fd18383612184565b6108a4600084848461174f565b8051600003612000576040516322ce3edd60e01b815260040160405180910390fd5b8383600281111561201357612013612ea4565b9081600281111561202657612026612ea4565b9052506040840182801561203c5761203c612ea4565b9081801561204c5761204c612ea4565b9052506060909301929092525050565b612064612647565b805161207090836121e9565b5060006020820152919050565b61208a8260038351612260565b81516108a49082612379565b81516120a39060c261239a565b506107cc82826040516020016120bb91815260200190565b604051602081830303815290604052612111565b6120da816004612403565b6001816020018181516120ed9190612f03565b90525050565b6120fe816007612403565b6001816020018181516120ed9190612b98565b61208a8260028351612260565b60006001600160a01b0383161580159061217c5750826001600160a01b0316846001600160a01b0316148061215857506121588484611157565b8061217c57506000828152600460205260409020546001600160a01b038481169116145b949350505050565b6001600160a01b0382166121ae57604051633250574960e11b815260006004820152602401610890565b60006121bc838360006114f1565b90506001600160a01b038116156108a4576040516339e3563760e11b815260006004820152602401610890565b604080518082019091526060815260006020820152612209602083612de7565b1561223157612219602083612de7565b612224906020612b98565b61222e9083612f03565b91505b60208084018390526040518085526000815290818401018181101561225557600080fd5b604052509192915050565b6017816001600160401b03161161228657825161092e9060e0600585901b16831761239a565b60ff816001600160401b0316116122c65782516122ae906018611fe0600586901b161761239a565b50825161092e906001600160401b038316600161241a565b61ffff816001600160401b0316116123075782516122ef906019611fe0600586901b161761239a565b50825161092e906001600160401b038316600261241a565b63ffffffff816001600160401b03161161234a57825161233290601a611fe0600586901b161761239a565b50825161092e906001600160401b038316600461241a565b825161236190601b611fe0600586901b161761239a565b50825161092e906001600160401b038316600861241a565b6040805180820190915260608152600060208201526111258383845161249f565b60408051808201909152606081526000602082015282515160006123bf826001612f03565b9050846020015182106123e0576123e0856123db836002612f16565b612570565b84516020838201018581535080518211156123f9578181525b5093949350505050565b81516108a490601f611fe0600585901b161761239a565b604080518082019091526060815260006020820152835151600061243e8285612f03565b9050856020015181111561245b5761245b866123db836002612f16565b6000600161246b86610100613011565b6124759190612b98565b90508651828101878319825116178152508051831115612493578281525b50959695505050505050565b60408051808201909152606081526000602082015282518211156124c257600080fd5b83515160006124d18483612f03565b905085602001518111156124ee576124ee866123db836002612f16565b855180518382016020019160009180851115612508578482525b505050602086015b602086106125485780518252612527602083612f03565b9150612534602082612f03565b9050612541602087612b98565b9550612510565b51815160001960208890036101000a0190811690199190911617905250849150509392505050565b815161257c83836121e9565b5061092e8382612379565b8280548282559060005260206000209081019282156125c2579160200282015b828111156125c25782518255916020019190600101906125a7565b506125ce92915061267c565b5090565b5080546125de90612ab9565b6000825580601f106125ee575050565b601f016020900490600052602060002090810190611196919061267c565b8280548282559060005260206000209081019282156125c2579160200282015b828111156125c257823582559160200191906001019061262c565b604051806040016040528061266f604051806040016040528060608152602001600081525090565b8152602001600081525090565b5b808211156125ce576000815560010161267d565b6001600160e01b03198116811461119657600080fd5b6000602082840312156126b957600080fd5b813561112581612691565b60005b838110156126df5781810151838201526020016126c7565b50506000910152565b600081518084526127008160208601602086016126c4565b601f01601f19169290920160200192915050565b60208152600061112560208301846126e8565b60006020828403121561273957600080fd5b5035919050565b80356001600160a01b038116811461275757600080fd5b919050565b6000806040838503121561276f57600080fd5b61277883612740565b946020939093013593505050565b634e487b7160e01b600052604160045260246000fd5b600082601f8301126127ad57600080fd5b81356001600160401b03808211156127c7576127c7612786565b604051601f8301601f19908116603f011681019082821181831017156127ef576127ef612786565b8160405283815286602085880101111561280857600080fd5b836020870160208301376000602085830101528094505050505092915050565b60008060006060848603121561283d57600080fd5b8335925060208401356001600160401b038082111561285b57600080fd5b6128678783880161279c565b9350604086013591508082111561287d57600080fd5b5061288a8682870161279c565b9150509250925092565b6000806000604084860312156128a957600080fd5b8335925060208401356001600160401b03808211156128c757600080fd5b818601915086601f8301126128db57600080fd5b8135818111156128ea57600080fd5b8760208260051b85010111156128ff57600080fd5b6020830194508093505050509250925092565b60008060006060848603121561292757600080fd5b61293084612740565b925061293e60208501612740565b9150604084013590509250925092565b60006020828403121561296057600080fd5b61112582612740565b6000806040838503121561297c57600080fd5b8235915060208301356001600160401b0381111561299957600080fd5b6129a58582860161279c565b9150509250929050565b6000602082840312156129c157600080fd5b81356001600160401b038111156129d757600080fd5b61217c8482850161279c565b600080604083850312156129f657600080fd5b6129ff83612740565b915060208301358015158114612a1457600080fd5b809150509250929050565b60008060008060808587031215612a3557600080fd5b612a3e85612740565b9350612a4c60208601612740565b92506040850135915060608501356001600160401b03811115612a6e57600080fd5b612a7a8782880161279c565b91505092959194509250565b60008060408385031215612a9957600080fd5b612aa283612740565b9150612ab060208401612740565b90509250929050565b600181811c90821680612acd57607f821691505b602082108103612aed57634e487b7160e01b600052602260045260246000fd5b50919050565b634e487b7160e01b600052601160045260246000fd5b600060018201612b1b57612b1b612af3565b5060010190565b60208152815160208201526020820151604082015261ffff60408301511660608201526000606083015163ffffffff80821660808501528060808601511660a0850152505060a083015160c08084015261217c60e08401826126e8565b600060208284031215612b9157600080fd5b5051919050565b8181038181111561070057610700612af3565b634e487b7160e01b600052603260045260246000fd5b601f8211156108a457600081815260208120601f850160051c81016020861015612be85750805b601f850160051c820191505b81811015612c0757828155600101612bf4565b505050505050565b818103612c1a575050565b612c248254612ab9565b6001600160401b03811115612c3b57612c3b612786565b612c4f81612c498454612ab9565b84612bc1565b6000601f821160018114612c835760008315612c6b5750848201545b600019600385901b1c1916600184901b178455611871565b600085815260209020601f19841690600086815260209020845b83811015612cbd5782860154825560019586019590910190602001612c9d565b5085831015612cdb5781850154600019600388901b60f8161c191681555b5050505050600190811b01905550565b634e487b7160e01b600052603160045260246000fd5b81516001600160401b03811115612d1a57612d1a612786565b612d2881612c498454612ab9565b602080601f831160018114612d5d5760008415612d455750858301515b600019600386901b1c1916600185901b178555612c07565b600085815260208120601f198616915b82811015612d8c57888601518255948401946001909101908401612d6d565b5085821015612cdb57939096015160001960f8600387901b161c19169092555050600190811b01905550565b60008351612dca8184602088016126c4565b835190830190612dde8183602088016126c4565b01949350505050565b600082612e0457634e487b7160e01b600052601260045260246000fd5b500690565b838152604060208201819052810182905260006001600160fb1b03831115612e3057600080fd5b8260051b8085606085013791909101606001949350505050565b6001600160a01b0385811682528416602082015260408101839052608060608201819052600090612e7d908301846126e8565b9695505050505050565b600060208284031215612e9957600080fd5b815161112581612691565b634e487b7160e01b600052602160045260246000fd5b6001600160401b038616815260a060208201526000612edc60a08301876126e8565b61ffff9590951660408301525063ffffffff92909216606083015260809091015292915050565b8082018082111561070057610700612af3565b808202811582820484141761070057610700612af3565b600181815b80851115612f68578160001904821115612f4e57612f4e612af3565b80851615612f5b57918102915b93841c9390800290612f32565b509250929050565b600082612f7f57506001610700565b81612f8c57506000610700565b8160018114612fa25760028114612fac57612fc8565b6001915050610700565b60ff841115612fbd57612fbd612af3565b50506001821b610700565b5060208310610133831016604e8410600b8410161715612feb575081810a610700565b612ff58383612f2d565b806000190482111561300957613009612af3565b029392505050565b60006111258383612f7056fea2646970667358221220a6d234d096c4073ea6379dfa4258e6e9a636802572a842d58b5b5491b827219264736f6c63430008140033c65a7bb8d6351c1cf70c95a316cc6a92839c986682d98bc35f958f4883f9d2a8636f6e7374206469736e657955524c203d206068747470733a2f2f6170692e6469736e65796170692e6465762f636861726163746572603b636f6e73742072616e64203d204d6174682e666c6f6f72284d6174682e72616e646f6d2829202a203530293b636f6e7374206469736e657952657175657374203d2046756e6374696f6e732e6d616b654874747052657175657374287b75726c3a206469736e657955524c2c6d6574686f643a2060474554602c7d293b636f6e7374206469736e6579526573706f6e7365203d206177616974206469736e6579526571756573743b636f6e7374206469736e657944617461203d206469736e6579526573706f6e73652e646174612e646174613b636f6e7374206d7944617461203d207b6e616d653a206469736e6579446174615b72616e645d2e6e616d652c696d6167653a206469736e6579446174615b72616e645d2e696d61676555726c2c7d3b72657475726e2046756e6374696f6e732e656e636f6465537472696e67284a534f4e2e737472696e67696679286d794461746129293b636f6e737420706f6b6955524c203d206068747470733a2f2f706f6b656170692e636f2f6170692f76322f706f6b656d6f6e603b636f6e73742072616e64203d204d6174682e666c6f6f72284d6174682e72616e646f6d2829202a2031303030293b636f6e737420706f6b656d6f6e436861726163746572203d2072616e643b636f6e737420706f6b6952657175657374203d2046756e6374696f6e732e6d616b654874747052657175657374287b75726c3a2060247b706f6b6955524c7d2f247b706f6b656d6f6e4368617261637465727d602c6d6574686f643a2060474554602c7d293b636f6e737420706f6b69526573706f6e7365203d20617761697420706f6b69526571756573743b636f6e73742072657144617461203d20706f6b69526573706f6e73652e646174613b636f6e7374206d7944617461203d207b6e616d653a20726571446174612e737065636965732e6e616d652c696d6167653a20726571446174612e737072697465732e6f746865722e686f6d652e66726f6e745f64656661756c742c7d3b72657475726e2046756e6374696f6e732e656e636f6465537472696e67284a534f4e2e737472696e67696679286d794461746129293b636f6e737420676f7455524c203d206068747470733a2f2f7468726f6e65736170692e636f6d2f6170692f76322f43686172616374657273603b636f6e73742072616e64203d204d6174682e666c6f6f72284d6174682e72616e646f6d2829202a203530293b636f6e737420676f7452657175657374203d2046756e6374696f6e732e6d616b654874747052657175657374287b75726c3a20676f7455524c2c6d6574686f643a2060474554602c7d293b636f6e737420676f74526573706f6e7365203d20617761697420676f74526571756573743b636f6e737420676f7444617461203d20676f74526573706f6e73652e646174613b636f6e7374206d7944617461203d207b6e616d653a20676f74446174615b72616e645d2e66756c6c4e616d652c696d6167653a20676f74446174615b72616e645d2e696d61676555726c2c7d3b72657475726e2046756e6374696f6e732e656e636f6465537472696e67284a534f4e2e737472696e67696679286d794461746129293b636f6e737420687055524c203d206068747470733a2f2f68702d6170692e6f6e72656e6465722e636f6d2f6170692f63686172616374657273603b636f6e73742072616e64203d204d6174682e666c6f6f72284d6174682e72616e646f6d2829202a203230293b636f6e737420687052657175657374203d2046756e6374696f6e732e6d616b654874747052657175657374287b75726c3a20687055524c2c6d6574686f643a2060474554602c7d293b636f6e7374206870526573706f6e7365203d206177616974206870526571756573743b636f6e737420687044617461203d206870526573706f6e73652e646174613b636f6e7374206d7944617461203d207b6e616d653a206870446174615b72616e645d2e6e616d652c696d6167653a206870446174615b72616e645d2e696d6167652c7d3b72657475726e2046756e6374696f6e732e656e636f6465537472696e67284a534f4e2e737472696e67696679286d794461746129293b",
  "linkReferences": {},
  "deployedLinkReferences": {}
}