{"contracts/EnterTheChainlinkNFTMultiverse.sol":{"EnterTheChainlinkNFTMultiverse":{"abi":[{"inputs":[],"stateMutability":"nonpayable","type":"constructor"},{"inputs":[{"internalType":"address","name":"sender","type":"address"},{"internalType":"uint256","name":"tokenId","type":"uint256"},{"internalType":"address","name":"owner","type":"address"}],"name":"ERC721IncorrectOwner","type":"error"},{"inputs":[{"internalType":"address","name":"operator","type":"address"},{"internalType":"uint256","name":"tokenId","type":"uint256"}],"name":"ERC721InsufficientApproval","type":"error"},{"inputs":[{"internalType":"address","name":"approver","type":"address"}],"name":"ERC721InvalidApprover","type":"error"},{"inputs":[{"internalType":"address","name":"operator","type":"address"}],"name":"ERC721InvalidOperator","type":"error"},{"inputs":[{"internalType":"address","name":"owner","type":"address"}],"name":"ERC721InvalidOwner","type":"error"},{"inputs":[{"internalType":"address","name":"receiver","type":"address"}],"name":"ERC721InvalidReceiver","type":"error"},{"inputs":[{"internalType":"address","name":"sender","type":"address"}],"name":"ERC721InvalidSender","type":"error"},{"inputs":[{"internalType":"uint256","name":"tokenId","type":"uint256"}],"name":"ERC721NonexistentToken","type":"error"},{"inputs":[],"name":"EmptySource","type":"error"},{"inputs":[],"name":"NoInlineSecrets","type":"error"},{"inputs":[{"internalType":"address","name":"have","type":"address"},{"internalType":"address","name":"want","type":"address"}],"name":"OnlyCoordinatorCanFulfill","type":"error"},{"inputs":[{"internalType":"address","name":"have","type":"address"},{"internalType":"address","name":"owner","type":"address"},{"internalType":"address","name":"coordinator","type":"address"}],"name":"OnlyOwnerOrCoordinator","type":"error"},{"inputs":[],"name":"OnlyRouterCanFulfill","type":"error"},{"inputs":[{"internalType":"bytes32","name":"requestId","type":"bytes32"}],"name":"UnexpectedRequestID","type":"error"},{"inputs":[],"name":"ZeroAddress","type":"error"},{"anonymous":false,"inputs":[{"indexed":true,"internalType":"address","name":"owner","type":"address"},{"indexed":true,"internalType":"address","name":"approved","type":"address"},{"indexed":true,"internalType":"uint256","name":"tokenId","type":"uint256"}],"name":"Approval","type":"event"},{"anonymous":false,"inputs":[{"indexed":true,"internalType":"address","name":"owner","type":"address"},{"indexed":true,"internalType":"address","name":"operator","type":"address"},{"indexed":false,"internalType":"bool","name":"approved","type":"bool"}],"name":"ApprovalForAll","type":"event"},{"anonymous":false,"inputs":[{"indexed":false,"internalType":"address","name":"vrfCoordinator","type":"address"}],"name":"CoordinatorSet","type":"event"},{"anonymous":false,"inputs":[{"indexed":true,"internalType":"address","name":"from","type":"address"},{"indexed":true,"internalType":"address","name":"to","type":"address"}],"name":"OwnershipTransferRequested","type":"event"},{"anonymous":false,"inputs":[{"indexed":true,"internalType":"address","name":"from","type":"address"},{"indexed":true,"internalType":"address","name":"to","type":"address"}],"name":"OwnershipTransferred","type":"event"},{"anonymous":false,"inputs":[{"indexed":true,"internalType":"bytes32","name":"id","type":"bytes32"}],"name":"RequestFulfilled","type":"event"},{"anonymous":false,"inputs":[{"indexed":false,"internalType":"uint256","name":"requestId","type":"uint256"},{"indexed":false,"internalType":"uint256[]","name":"randomWords","type":"uint256[]"}],"name":"RequestFulfilled","type":"event"},{"anonymous":false,"inputs":[{"indexed":true,"internalType":"bytes32","name":"id","type":"bytes32"}],"name":"RequestSent","type":"event"},{"anonymous":false,"inputs":[{"indexed":false,"internalType":"uint256","name":"requestId","type":"uint256"},{"indexed":false,"internalType":"uint32","name":"numWords","type":"uint32"}],"name":"RequestSent","type":"event"},{"anonymous":false,"inputs":[{"indexed":true,"internalType":"address","name":"from","type":"address"},{"indexed":true,"internalType":"address","name":"to","type":"address"},{"indexed":true,"internalType":"uint256","name":"tokenId","type":"uint256"}],"name":"Transfer","type":"event"},{"inputs":[],"name":"acceptOwnership","outputs":[],"stateMutability":"nonpayable","type":"function"},{"inputs":[{"internalType":"string","name":"apiSource","type":"string"}],"name":"appendApiSource","outputs":[],"stateMutability":"nonpayable","type":"function"},{"inputs":[{"internalType":"address","name":"to","type":"address"},{"internalType":"uint256","name":"tokenId","type":"uint256"}],"name":"approve","outputs":[],"stateMutability":"nonpayable","type":"function"},{"inputs":[],"name":"arbitrumSepoliaKeyHash","outputs":[{"internalType":"bytes32","name":"","type":"bytes32"}],"stateMutability":"view","type":"function"},{"inputs":[{"internalType":"address","name":"owner","type":"address"}],"name":"balanceOf","outputs":[{"internalType":"uint256","name":"","type":"uint256"}],"stateMutability":"view","type":"function"},{"inputs":[{"internalType":"bytes32","name":"","type":"bytes32"}],"name":"chainlinkFunctionsRequestIdTracker","outputs":[{"internalType":"uint256","name":"tokenId","type":"uint256"},{"internalType":"address","name":"userWallet","type":"address"},{"internalType":"bool","name":"isPending","type":"bool"}],"stateMutability":"view","type":"function"},{"inputs":[{"internalType":"uint256","name":"","type":"uint256"}],"name":"chainlinkVRFRequestIdTracker","outputs":[{"internalType":"bool","name":"fulfilled","type":"bool"},{"internalType":"bool","name":"exists","type":"bool"},{"internalType":"uint256","name":"tokenId","type":"uint256"},{"internalType":"address","name":"userWallet","type":"address"}],"stateMutability":"view","type":"function"},{"inputs":[],"name":"disneySource","outputs":[{"internalType":"string","name":"","type":"string"}],"stateMutability":"view","type":"function"},{"inputs":[],"name":"functionCallbackLastError","outputs":[{"internalType":"bytes","name":"","type":"bytes"}],"stateMutability":"view","type":"function"},{"inputs":[],"name":"functionCallbackLastRequestId","outputs":[{"internalType":"bytes32","name":"","type":"bytes32"}],"stateMutability":"view","type":"function"},{"inputs":[],"name":"functionCallbackLastResponse","outputs":[{"internalType":"bytes","name":"","type":"bytes"}],"stateMutability":"view","type":"function"},{"inputs":[],"name":"functionGasLimit","outputs":[{"internalType":"uint32","name":"","type":"uint32"}],"stateMutability":"view","type":"function"},{"inputs":[],"name":"gameOfThronesSource","outputs":[{"internalType":"string","name":"","type":"string"}],"stateMutability":"view","type":"function"},{"inputs":[{"internalType":"uint256","name":"tokenId","type":"uint256"}],"name":"getApproved","outputs":[{"internalType":"address","name":"","type":"address"}],"stateMutability":"view","type":"function"},{"inputs":[{"internalType":"bytes32","name":"requestId","type":"bytes32"},{"internalType":"bytes","name":"response","type":"bytes"},{"internalType":"bytes","name":"err","type":"bytes"}],"name":"handleOracleFulfillment","outputs":[],"stateMutability":"nonpayable","type":"function"},{"inputs":[],"name":"hpSource","outputs":[{"internalType":"string","name":"","type":"string"}],"stateMutability":"view","type":"function"},{"inputs":[{"internalType":"address","name":"owner","type":"address"},{"internalType":"address","name":"operator","type":"address"}],"name":"isApprovedForAll","outputs":[{"internalType":"bool","name":"","type":"bool"}],"stateMutability":"view","type":"function"},{"inputs":[],"name":"isPaused","outputs":[{"internalType":"bool","name":"","type":"bool"}],"stateMutability":"view","type":"function"},{"inputs":[],"name":"lastFunctionCallbackStringResult","outputs":[{"internalType":"string","name":"","type":"string"}],"stateMutability":"view","type":"function"},{"inputs":[{"internalType":"address","name":"userWallet","type":"address"}],"name":"mintRandomNFTRequest","outputs":[],"stateMutability":"nonpayable","type":"function"},{"inputs":[{"internalType":"uint256","name":"","type":"uint256"}],"name":"multiverseApiSources","outputs":[{"internalType":"string","name":"","type":"string"}],"stateMutability":"view","type":"function"},{"inputs":[],"name":"name","outputs":[{"internalType":"string","name":"","type":"string"}],"stateMutability":"view","type":"function"},{"inputs":[],"name":"owner","outputs":[{"internalType":"address","name":"","type":"address"}],"stateMutability":"view","type":"function"},{"inputs":[{"internalType":"uint256","name":"tokenId","type":"uint256"}],"name":"ownerOf","outputs":[{"internalType":"address","name":"","type":"address"}],"stateMutability":"view","type":"function"},{"inputs":[],"name":"pause","outputs":[],"stateMutability":"nonpayable","type":"function"},{"inputs":[],"name":"pokeSource","outputs":[{"internalType":"string","name":"","type":"string"}],"stateMutability":"view","type":"function"},{"inputs":[{"internalType":"uint256","name":"requestId","type":"uint256"},{"internalType":"uint256[]","name":"randomWords","type":"uint256[]"}],"name":"rawFulfillRandomWords","outputs":[],"stateMutability":"nonpayable","type":"function"},{"inputs":[{"internalType":"uint256","name":"index","type":"uint256"}],"name":"removeApiSource","outputs":[],"stateMutability":"nonpayable","type":"function"},{"inputs":[],"name":"router","outputs":[{"internalType":"address","name":"","type":"address"}],"stateMutability":"view","type":"function"},{"inputs":[],"name":"s_vrfCoordinator","outputs":[{"internalType":"contract IVRFCoordinatorV2Plus","name":"","type":"address"}],"stateMutability":"view","type":"function"},{"inputs":[{"internalType":"address","name":"from","type":"address"},{"internalType":"address","name":"to","type":"address"},{"internalType":"uint256","name":"tokenId","type":"uint256"}],"name":"safeTransferFrom","outputs":[],"stateMutability":"nonpayable","type":"function"},{"inputs":[{"internalType":"address","name":"from","type":"address"},{"internalType":"address","name":"to","type":"address"},{"internalType":"uint256","name":"tokenId","type":"uint256"},{"internalType":"bytes","name":"data","type":"bytes"}],"name":"safeTransferFrom","outputs":[],"stateMutability":"nonpayable","type":"function"},{"inputs":[{"internalType":"address","name":"operator","type":"address"},{"internalType":"bool","name":"approved","type":"bool"}],"name":"setApprovalForAll","outputs":[],"stateMutability":"nonpayable","type":"function"},{"inputs":[{"internalType":"address","name":"_vrfCoordinator","type":"address"}],"name":"setCoordinator","outputs":[],"stateMutability":"nonpayable","type":"function"},{"inputs":[{"internalType":"bytes4","name":"interfaceId","type":"bytes4"}],"name":"supportsInterface","outputs":[{"internalType":"bool","name":"","type":"bool"}],"stateMutability":"view","type":"function"},{"inputs":[],"name":"symbol","outputs":[{"internalType":"string","name":"","type":"string"}],"stateMutability":"view","type":"function"},{"inputs":[],"name":"tokenIdCounter","outputs":[{"internalType":"uint256","name":"","type":"uint256"}],"stateMutability":"view","type":"function"},{"inputs":[{"internalType":"uint256","name":"","type":"uint256"}],"name":"tokenIdToNFTData","outputs":[{"internalType":"string","name":"","type":"string"}],"stateMutability":"view","type":"function"},{"inputs":[{"internalType":"uint256","name":"tokenId","type":"uint256"}],"name":"tokenURI","outputs":[{"internalType":"string","name":"","type":"string"}],"stateMutability":"view","type":"function"},{"inputs":[{"internalType":"address","name":"from","type":"address"},{"internalType":"address","name":"to","type":"address"},{"internalType":"uint256","name":"tokenId","type":"uint256"}],"name":"transferFrom","outputs":[],"stateMutability":"nonpayable","type":"function"},{"inputs":[{"internalType":"address","name":"to","type":"address"}],"name":"transferOwnership","outputs":[],"stateMutability":"nonpayable","type":"function"},{"inputs":[],"name":"unpause","outputs":[],"stateMutability":"nonpayable","type":"function"},{"inputs":[{"internalType":"uint256","name":"index","type":"uint256"},{"internalType":"string","name":"apiSource","type":"string"}],"name":"updateApiSource","outputs":[],"stateMutability":"nonpayable","type":"function"},{"inputs":[],"name":"vrfCallbackGasLimit","outputs":[{"internalType":"uint32","name":"","type":"uint32"}],"stateMutability":"view","type":"function"},{"inputs":[],"name":"vrfCoordinator","outputs":[{"internalType":"address","name":"","type":"address"}],"stateMutability":"view","type":"function"},{"inputs":[],"name":"vrfLastRequestId","outputs":[{"internalType":"uint256","name":"","type":"uint256"}],"stateMutability":"view","type":"function"},{"inputs":[],"name":"vrfNumWords","outputs":[{"internalType":"uint32","name":"","type":"uint32"}],"stateMutability":"view","type":"function"},{"inputs":[],"name":"vrfRequestConfirmations","outputs":[{"internalType":"uint16","name":"","type":"uint16"}],"stateMutability":"view","type":"function"},{"inputs":[{"internalType":"uint256","name":"","type":"uint256"}],"name":"vrfRequestIds","outputs":[{"internalType":"uint256","name":"","type":"uint256"}],"stateMutability":"view","type":"function"},{"inputs":[],"name":"vrfSubscriptionId","outputs":[{"internalType":"uint256","name":"","type":"uint256"}],"stateMutability":"view","type":"function"}],"devdoc":{"errors":{"ERC721IncorrectOwner(address,uint256,address)":[{"details":"Indicates an error related to the ownership over a particular token. Used in transfers.","params":{"owner":"Address of the current owner of a token.","sender":"Address whose tokens are being transferred.","tokenId":"Identifier number of a token."}}],"ERC721InsufficientApproval(address,uint256)":[{"details":"Indicates a failure with the `operator`’s approval. Used in transfers.","params":{"operator":"Address that may be allowed to operate on tokens without being their owner.","tokenId":"Identifier number of a token."}}],"ERC721InvalidApprover(address)":[{"details":"Indicates a failure with the `approver` of a token to be approved. Used in approvals.","params":{"approver":"Address initiating an approval operation."}}],"ERC721InvalidOperator(address)":[{"details":"Indicates a failure with the `operator` to be approved. Used in approvals.","params":{"operator":"Address that may be allowed to operate on tokens without being their owner."}}],"ERC721InvalidOwner(address)":[{"details":"Indicates that an address can't be an owner. For example, `address(0)` is a forbidden owner in EIP-20. Used in balance queries.","params":{"owner":"Address of the current owner of a token."}}],"ERC721InvalidReceiver(address)":[{"details":"Indicates a failure with the token `receiver`. Used in transfers.","params":{"receiver":"Address to which tokens are being transferred."}}],"ERC721InvalidSender(address)":[{"details":"Indicates a failure with the token `sender`. Used in transfers.","params":{"sender":"Address whose tokens are being transferred."}}],"ERC721NonexistentToken(uint256)":[{"details":"Indicates a `tokenId` whose `owner` is the zero address.","params":{"tokenId":"Identifier number of a token."}}]},"events":{"Approval(address,address,uint256)":{"details":"Emitted when `owner` enables `approved` to manage the `tokenId` token."},"ApprovalForAll(address,address,bool)":{"details":"Emitted when `owner` enables or disables (`approved`) `operator` to manage all of its assets."},"Transfer(address,address,uint256)":{"details":"Emitted when `tokenId` token is transferred from `from` to `to`."}},"kind":"dev","methods":{"approve(address,uint256)":{"details":"See {IERC721-approve}."},"balanceOf(address)":{"details":"See {IERC721-balanceOf}."},"getApproved(uint256)":{"details":"See {IERC721-getApproved}."},"handleOracleFulfillment(bytes32,bytes,bytes)":{"details":"Either response or error parameter will be set, but never both.","params":{"err":"Aggregated error either from the request's source code or from the execution pipeline.","requestId":"The requestId returned by FunctionsClient.sendRequest().","response":"Aggregated response from the request's source code."}},"isApprovedForAll(address,address)":{"details":"See {IERC721-isApprovedForAll}."},"name()":{"details":"See {IERC721Metadata-name}."},"ownerOf(uint256)":{"details":"See {IERC721-ownerOf}."},"safeTransferFrom(address,address,uint256)":{"details":"See {IERC721-safeTransferFrom}."},"safeTransferFrom(address,address,uint256,bytes)":{"details":"See {IERC721-safeTransferFrom}."},"setApprovalForAll(address,bool)":{"details":"See {IERC721-setApprovalForAll}."},"supportsInterface(bytes4)":{"details":"See {IERC165-supportsInterface}."},"symbol()":{"details":"See {IERC721Metadata-symbol}."},"tokenURI(uint256)":{"details":"See {IERC721Metadata-tokenURI}."},"transferFrom(address,address,uint256)":{"details":"See {IERC721-transferFrom}."}},"version":1},"evm":{"bytecode":{"linkReferences":{},"object":"600d80546001600160401b0319166043179055600f80546001600160a01b03191673234a5fb5bd614a7aa2ffab244d603abfa0ac5c5c1790557f66756e2d617262697472756d2d7365706f6c69612d31000000000000000000006010556014805463ffffffff1916620493e01790557f58de34bee78940f0673162df37bd0f493469af1e12e4df31fb7dba1c650a0a7f6015557f027f94ff1465b3525f9fc03e9ff7d6d2c0953482246dd6ae07570c45d6631414601755601880546201000165ffffffffffff19909116179055601b8054775ce8d5a2bc84beb22a398cca51996f7930313d61000186a06001600160c01b031990911617905561024060405261017a60a08181529062003b2860c039601c906200011d908262000539565b506040518061020001604052806101c28152602001620039666101c29139601d906200014a908262000539565b50604051806101c001604052806101918152602001620037d56101919139601e9062000177908262000539565b50604051806101a0016040528061016c815260200162003ca261016c9139601f90620001a4908262000539565b50348015620001b257600080fd5b50601b54600f54604080518082018252601381527f436861696e6c696e6b4d756c746976657273650000000000000000000000000060208083019190915282518084019093526003835262434c4d60e81b908301526001600160a01b036401000000009094048416933393849360009391909216918362000234838262000539565b50600162000243828262000539565b5050506001600160a01b039081166080528216620002a85760405162461bcd60e51b815260206004820152601860248201527f43616e6e6f7420736574206f776e657220746f207a65726f000000000000000060448201526064015b60405180910390fd5b600680546001600160a01b0319166001600160a01b0384811691909117909155811615620002db57620002db81620003e8565b5050506001600160a01b038116620003065760405163d92e233d60e01b815260040160405180910390fd5b600880546001600160a01b0319166001600160a01b0392909216919091179055600a8054600181018255600091909152600080516020620037b58339815191520162000354601c8262000605565b50600a8054600181018255600091909152600080516020620037b58339815191520162000383601d8262000605565b50600a8054600181018255600091909152600080516020620037b583398151915201620003b2601e8262000605565b50600a8054600181018255600091909152600080516020620037b583398151915201620003e1601f8262000605565b50620006ee565b336001600160a01b03821603620004425760405162461bcd60e51b815260206004820152601760248201527f43616e6e6f74207472616e7366657220746f2073656c6600000000000000000060448201526064016200029f565b600780546001600160a01b0319166001600160a01b03838116918217909255600654604051919216907fed8889f560326eb138920d842192f0eb3dd22b4f139c87a2c57538e05bae127890600090a350565b634e487b7160e01b600052604160045260246000fd5b600181811c90821680620004bf57607f821691505b602082108103620004e057634e487b7160e01b600052602260045260246000fd5b50919050565b601f8211156200053457600081815260208120601f850160051c810160208610156200050f5750805b601f850160051c820191505b8181101562000530578281556001016200051b565b5050505b505050565b81516001600160401b0381111562000555576200055562000494565b6200056d81620005668454620004aa565b84620004e6565b602080601f831160018114620005a557600084156200058c5750858301515b600019600386901b1c1916600185901b17855562000530565b600085815260208120601f198616915b82811015620005d657888601518255948401946001909101908401620005b5565b5085821015620005f55787850151600019600388901b60f8161c191681555b5050505050600190811b01905550565b81810362000611575050565b6200061d8254620004aa565b6001600160401b0381111562000637576200063762000494565b6200064881620005668454620004aa565b6000601f8211600181146200067f5760008315620006665750848201545b600019600385901b1c1916600184901b178455620006e7565b600085815260209020601f19841690600086815260209020845b83811015620006bb578286015482556001958601959091019060200162000699565b5085831015620006da5781850154600019600388901b60f8161c191681555b50505060018360011b0184555b5050505050565b6080516130a4620007116000396000818161081d0152611e0f01526130a46000f3fe608060405234801561001057600080fd5b50600436106102d65760003560e01c8063813ce42d11610182578063a969a403116100e9578063cfd30a6e116100a2578063ed647d211161007c578063ed647d2114610666578063f2fde38b1461066f578063f887ea4014610682578063ff712d021461069557600080fd5b8063cfd30a6e14610637578063e1e163791461064a578063e985e9c51461065357600080fd5b8063a969a403146105dd578063ab6eef52146105e5578063b187bd26146105ed578063b88d4fde14610601578063c87b56dd14610614578063cf2a1a0e1461062757600080fd5b80639443dec11161013b5780639443dec11461057857806395d89b411461058b57806398bdf6f5146105935780639eccacf61461059c578063a22cb465146105af578063a3e56fa8146105c257600080fd5b8063813ce42d146105295780638456cb591461053c578063849e0312146105445780638a0ec9d21461054c5780638da5cb5b146105545780638ea981171461056557600080fd5b8063425c9fa211610241578063598bc486116101fa5780636f2f418e116101d45780636f2f418e146104f257806370a082311461050557806379ba5097146105185780637d058d4f1461052057600080fd5b8063598bc486146104b65780636250fb2b146104d75780636352211e146104df57600080fd5b8063425c9fa2146103e557806342842e0e146103f857806348e9687a1461040b5780635151804a1461041e57806353cd456f146104345780635846d6821461044757600080fd5b806323b872dd1161029357806323b872dd1461037e578063265d1fa3146103915780632af605231461039957806335d46d5c146103b05780633b7ed734146103b85780633f4ba83a146103dd57600080fd5b806301ffc9a7146102db57806306fdde0314610303578063081812fc14610318578063095ea7b3146103435780630ca76175146103585780631fe543e31461036b575b600080fd5b6102ee6102e93660046126f8565b6106f6565b60405190151581526020015b60405180910390f35b61030b610748565b6040516102fa9190612765565b61032b610326366004612778565b6107da565b6040516001600160a01b0390911681526020016102fa565b6103566103513660046127ad565b610803565b005b610356610366366004612879565b610812565b6103566103793660046128e5565b610896565b61035661038c366004612963565b6108eb565b61030b610976565b6103a260175481565b6040519081526020016102fa565b61030b610a04565b601b546103c89063ffffffff1681565b60405163ffffffff90911681526020016102fa565b610356610a11565b6103a26103f3366004612778565b610a28565b610356610406366004612963565b610a49565b61035661041936600461299f565b610a64565b6018546103c89062010000900463ffffffff1681565b610356610442366004612778565b610cdb565b61048b610455366004612778565b60166020526000908152604090208054600182015460029092015460ff808316936101009093041691906001600160a01b031684565b6040805194151585529215156020850152918301526001600160a01b031660608201526080016102fa565b6018546104c49061ffff1681565b60405161ffff90911681526020016102fa565b61030b610db0565b61032b6104ed366004612778565b610dbd565b61030b610500366004612778565b610dc8565b6103a261051336600461299f565b610de1565b610356610e29565b6103a2601a5481565b6103566105373660046129ba565b610ed7565b610356610f50565b61030b610f6d565b61030b610f7a565b6006546001600160a01b031661032b565b61035661057336600461299f565b610f87565b610356610586366004612a00565b611079565b61030b6110bd565b6103a260095481565b60085461032b906001600160a01b031681565b6103566105bd366004612a34565b6110cc565b601b5461032b9064010000000090046001600160a01b031681565b61030b6110d7565b61030b6110e4565b6008546102ee90600160a01b900460ff1681565b61035661060f366004612a70565b6110f1565b61030b610622366004612778565b611108565b6014546103c89063ffffffff1681565b61030b610645366004612778565b61117d565b6103a260115481565b6102ee610661366004612ad7565b6111a8565b6103a260155481565b61035661067d36600461299f565b6111d6565b600f5461032b906001600160a01b031681565b6106d16106a3366004612778565b600e60205260009081526040902080546001909101546001600160a01b03811690600160a01b900460ff1683565b604080519384526001600160a01b0390921660208401521515908201526060016102fa565b60006001600160e01b031982166380ac58cd60e01b148061072757506001600160e01b03198216635b5e139f60e01b145b8061074257506301ffc9a760e01b6001600160e01b03198316145b92915050565b60606000805461075790612b0a565b80601f016020809104026020016040519081016040528092919081815260200182805461078390612b0a565b80156107d05780601f106107a5576101008083540402835291602001916107d0565b820191906000526020600020905b8154815290600101906020018083116107b357829003601f168201915b5050505050905090565b60006107e5826111ea565b506000828152600460205260409020546001600160a01b0316610742565b61080e828233611223565b5050565b336001600160a01b037f0000000000000000000000000000000000000000000000000000000000000000161461085b5760405163c6829f8360e01b815260040160405180910390fd5b610866838383611230565b60405183907f85e1543bf2f84fe80c6badbce3648c8539ad1df4d2b3d822938ca0538be727e690600090a2505050565b6008546001600160a01b031633146108db5760085460405163073e64fd60e21b81523360048201526001600160a01b0390911660248201526044015b60405180910390fd5b6108e6838383611317565b505050565b6001600160a01b03821661091557604051633250574960e11b8152600060048201526024016108d2565b6000610922838333611542565b9050836001600160a01b0316816001600160a01b031614610970576040516364283d7b60e01b81526001600160a01b03808616600483015260248201849052821660448201526064016108d2565b50505050565b6012805461098390612b0a565b80601f01602080910402602001604051908101604052809291908181526020018280546109af90612b0a565b80156109fc5780601f106109d1576101008083540402835291602001916109fc565b820191906000526020600020905b8154815290600101906020018083116109df57829003601f168201915b505050505081565b601e805461098390612b0a565b610a1961163b565b6008805460ff60a01b19169055565b60198181548110610a3857600080fd5b600091825260209091200154905081565b6108e6838383604051806020016040528060008152506110f1565b600854600160a01b900460ff1615610ab35760405162461bcd60e51b815260206004820152601260248201527110dbdb9d1c9858dd081a5cc81c185d5cd95960721b60448201526064016108d2565b60098054906000610ac383612b5a565b90915550506008546040805160c081018252601754815260155460208083019190915260185461ffff811683850152601b5463ffffffff90811660608501526201000090910416608083015282519081019092526000808352926001600160a01b031691639b1c385e919060a0820190610b3c90611690565b8152506040518263ffffffff1660e01b8152600401610b5b9190612b73565b6020604051808303816000875af1158015610b7a573d6000803e3d6000fd5b505050506040513d601f19601f82011682018060405250810190610b9e9190612bd0565b6040805160a0810182526000808252600160208084018281526009548587019081526001600160a01b038a81166060880190815288518781528086018a52608089019081528a8852601686529890962087518154945161ffff1990951690151561ff001916176101009415159490940293909317835590519382019390935592516002840180546001600160a01b03191691909316179091559251805194955091939092610c539260038501929101906125d8565b5050601980546001810182556000919091527f944998273e477b495144fb8794c914197f3ccb46be2900f4698fd0ef743c96950182905550601a819055601854604080518381526201000090920463ffffffff1660208301527fcc58b13ad3eab50626c6a6300b1d139cd6ebb1688a7cced9461c2f7e762665ee910160405180910390a15050565b610ce361163b565b600a548110610d2a5760405162461bcd60e51b8152602060048201526013602482015272496e646578206f7574206f6620626f756e647360681b60448201526064016108d2565b600a8054610d3a90600190612be9565b81548110610d4a57610d4a612bfc565b90600052602060002001600a8281548110610d6757610d67612bfc565b906000526020600020019081610d7d9190612c60565b50600a805480610d8f57610d8f612d3c565b600190038181906000526020600020016000610dab9190612623565b905550565b6013805461098390612b0a565b6000610742826111ea565b600c602052600090815260409020805461098390612b0a565b60006001600160a01b038216610e0d576040516322718ad960e21b8152600060048201526024016108d2565b506001600160a01b031660009081526003602052604090205490565b6007546001600160a01b03163314610e7c5760405162461bcd60e51b815260206004820152601660248201527526bab9ba10313290383937b837b9b2b21037bbb732b960511b60448201526064016108d2565b600680546001600160a01b0319808216339081179093556007805490911690556040516001600160a01b03909116919082907f8be0079c531659141344cd1fd0a4f28419497f9722a3daafe3b4186f6b6457e090600090a350565b610edf61163b565b600a548210610f265760405162461bcd60e51b8152602060048201526013602482015272496e646578206f7574206f6620626f756e647360681b60448201526064016108d2565b80600a8381548110610f3a57610f3a612bfc565b9060005260206000200190816108e69190612d52565b610f5861163b565b6008805460ff60a01b1916600160a01b179055565b600b805461098390612b0a565b601f805461098390612b0a565b6006546001600160a01b03163314801590610fad57506008546001600160a01b03163314155b15610ffe5733610fc56006546001600160a01b031690565b60085460405163061db9c160e01b81526001600160a01b03938416600482015291831660248301529190911660448201526064016108d2565b6001600160a01b0381166110255760405163d92e233d60e01b815260040160405180910390fd5b600880546001600160a01b0319166001600160a01b0383169081179091556040519081527fd1a6a14209a385a964d036e404cb5cfb71f4000cdb03c9366292430787261be69060200160405180910390a150565b61108161163b565b600a80546001810182556000919091527fc65a7bb8d6351c1cf70c95a316cc6a92839c986682d98bc35f958f4883f9d2a80161080e8282612d52565b60606001805461075790612b0a565b61080e338383611701565b601c805461098390612b0a565b601d805461098390612b0a565b6110fc8484846108eb565b610970848484846117a0565b6060611113826111ea565b50600061112b60408051602081019091526000815290565b9050600081511161114b5760405180602001604052806000815250611176565b80611155846118c9565b604051602001611166929190612e09565b6040516020818303038152906040525b9392505050565b600a818154811061118d57600080fd5b90600052602060002001600091509050805461098390612b0a565b6001600160a01b03918216600090815260056020908152604080832093909416825291909152205460ff1690565b6111de61163b565b6111e78161195b565b50565b6000818152600260205260408120546001600160a01b03168061074257604051637e27328960e01b8152600481018490526024016108d2565b6108e68383836001611a05565b6000838152600e60205260409020600190810154600160a01b900460ff161515146112925760405162461bcd60e51b8152602060048201526012602482015271125b9d985b1a59081c995c5d595cdd081a5960721b60448201526064016108d2565b601361129e8282612d52565b5060126112ab8382612d52565b50600b6112b88382612d52565b506000838152600e6020908152604080832060018101805460ff60a01b19169055548352600c90915290206112ee600b82612c60565b506000838152600e60205260409020600181015490546108e6916001600160a01b031690611b0b565b600083815260166020526040902061133360038201848461265d565b50805460ff19166001178155600a546000908484838161135557611355612bfc565b905060200201356113669190612e38565b90506000600a828154811061137d5761137d612bfc565b90600052602060002001805461139290612b0a565b80601f01602080910402602001604051908101604052809291908181526020018280546113be90612b0a565b801561140b5780601f106113e05761010080835404028352916020019161140b565b820191906000526020600020905b8154815290600101906020018083116113ee57829003601f168201915b505050505090506114536040805160e0810190915280600081526020016000815260200160008152602001606081526020016060815260200160608152602001606081525090565b61145d8183611b25565b61148c61146982611b32565b600d546014546010546001600160401b039092169163ffffffff90911690611e0a565b601181905560408051606081018252600180880154825260028801546001600160a01b0390811660208085019182528486018481526000978852600e90915295859020935184555192909101805494511515600160a01b026001600160a81b0319909516929091169190911792909217909155517ffe2e2d779dba245964d4e3ef9b994be63856fd568bf7d3ca9e224755cb1bd54d9061153190899089908990612e5a565b60405180910390a150505050505050565b6000828152600260205260408120546001600160a01b039081169083161561156f5761156f818486611edc565b6001600160a01b038116156115ad5761158c600085600080611a05565b6001600160a01b038116600090815260036020526040902080546000190190555b6001600160a01b038516156115dc576001600160a01b0385166000908152600360205260409020805460010190555b60008481526002602052604080822080546001600160a01b0319166001600160a01b0389811691821790925591518793918516917fddf252ad1be2c89b69c2b068fc378daa952ba7f163c4a11628f55a4df523b3ef91a4949350505050565b6006546001600160a01b0316331461168e5760405162461bcd60e51b815260206004820152601660248201527527b7363c9031b0b63630b1363290313c9037bbb732b960511b60448201526064016108d2565b565b60607f92fd13387c7fe7befbc38d303d6468778fb9731bc4583f17d92989c6fcfdeaaa826040516024016116c991511515815260200190565b60408051601f198184030181529190526020810180516001600160e01b03166001600160e01b03199093169290921790915292915050565b6001600160a01b03821661173357604051630b61174360e31b81526001600160a01b03831660048201526024016108d2565b6001600160a01b03838116600081815260056020908152604080832094871680845294825291829020805460ff191686151590811790915591519182527f17307eab39ab6107e8899845ad3d59bd9653f200f220920489ca2b5937696c31910160405180910390a3505050565b6001600160a01b0383163b1561097057604051630a85bd0160e11b81526001600160a01b0384169063150b7a02906117e2903390889087908790600401612e9b565b6020604051808303816000875af192505050801561181d575060408051601f3d908101601f1916820190925261181a91810190612ed8565b60015b611886573d80801561184b576040519150601f19603f3d011682016040523d82523d6000602084013e611850565b606091505b50805160000361187e57604051633250574960e11b81526001600160a01b03851660048201526024016108d2565b805181602001fd5b6001600160e01b03198116630a85bd0160e11b146118c257604051633250574960e11b81526001600160a01b03851660048201526024016108d2565b5050505050565b606060006118d683611f40565b60010190506000816001600160401b038111156118f5576118f56127d7565b6040519080825280601f01601f19166020018201604052801561191f576020820181803683370190505b5090508181016020015b600019016f181899199a1a9b1b9c1cb0b131b232b360811b600a86061a8153600a850494508461192957509392505050565b336001600160a01b038216036119b35760405162461bcd60e51b815260206004820152601760248201527f43616e6e6f74207472616e7366657220746f2073656c6600000000000000000060448201526064016108d2565b600780546001600160a01b0319166001600160a01b03838116918217909255600654604051919216907fed8889f560326eb138920d842192f0eb3dd22b4f139c87a2c57538e05bae127890600090a350565b8080611a1957506001600160a01b03821615155b15611adb576000611a29846111ea565b90506001600160a01b03831615801590611a555750826001600160a01b0316816001600160a01b031614155b8015611a685750611a6681846111a8565b155b15611a915760405163a9fbf51f60e01b81526001600160a01b03841660048201526024016108d2565b8115611ad95783856001600160a01b0316826001600160a01b03167f8c5be1e5ebec7d5bd14f71427d1e84f3dd0314c0f7b2291e5b200ac8c7c3b92560405160405180910390a45b505b5050600090815260046020526040902080546001600160a01b0319166001600160a01b0392909216919091179055565b61080e828260405180602001604052806000815250612018565b61080e826000808461202f565b60606000611b416101006120ad565b9050611b7a6040518060400160405280600c81526020016b31b7b232a637b1b0ba34b7b760a11b815250826120ce90919063ffffffff16565b8251611b98906002811115611b9157611b91612ef5565b82906120e7565b6040805180820190915260088152676c616e677561676560c01b6020820152611bc29082906120ce565b6040830151611bd9908015611b9157611b91612ef5565b604080518082019091526006815265736f7572636560d01b6020820152611c019082906120ce565b6060830151611c119082906120ce565b60a08301515115611ca5576040805180820190915260048152636172677360e01b6020820152611c429082906120ce565b611c4b81612120565b60005b8360a0015151811015611c9b57611c8b8460a001518281518110611c7457611c74612bfc565b6020026020010151836120ce90919063ffffffff16565b611c9481612b5a565b9050611c4e565b50611ca581612144565b60808301515115611d6957600083602001516002811115611cc857611cc8612ef5565b03611ce65760405163a80d31f760e01b815260040160405180910390fd5b60408051808201909152600f81526e39b2b1b932ba39a637b1b0ba34b7b760891b6020820152611d179082906120ce565b611d3083602001516002811115611b9157611b91612ef5565b6040805180820190915260078152667365637265747360c81b6020820152611d599082906120ce565b6080830151611d69908290612162565b60c08301515115611e025760408051808201909152600981526862797465734172677360b81b6020820152611d9f9082906120ce565b611da881612120565b60005b8360c0015151811015611df857611de88460c001518281518110611dd157611dd1612bfc565b60200260200101518361216290919063ffffffff16565b611df181612b5a565b9050611dab565b50611e0281612144565b515192915050565b6000807f00000000000000000000000000000000000000000000000000000000000000006001600160a01b031663461d27628688600188886040518663ffffffff1660e01b8152600401611e62959493929190612f0b565b6020604051808303816000875af1158015611e81573d6000803e3d6000fd5b505050506040513d601f19601f82011682018060405250810190611ea59190612bd0565b60405190915081907f1131472297a800fee664d1d89cfa8f7676ff07189ecc53f80bbb5f4969099db890600090a295945050505050565b611ee783838361216f565b6108e6576001600160a01b038316611f1557604051637e27328960e01b8152600481018290526024016108d2565b60405163177e802f60e01b81526001600160a01b0383166004820152602481018290526044016108d2565b60008072184f03e93ff9f4daa797ed6e38ed64bf6a1f0160401b8310611f7f5772184f03e93ff9f4daa797ed6e38ed64bf6a1f0160401b830492506040015b6d04ee2d6d415b85acef81000000008310611fab576d04ee2d6d415b85acef8100000000830492506020015b662386f26fc100008310611fc957662386f26fc10000830492506010015b6305f5e1008310611fe1576305f5e100830492506008015b6127108310611ff557612710830492506004015b60648310612007576064830492506002015b600a83106107425760010192915050565b61202283836121d5565b6108e660008484846117a0565b8051600003612051576040516322ce3edd60e01b815260040160405180910390fd5b8383600281111561206457612064612ef5565b9081600281111561207757612077612ef5565b9052506040840182801561208d5761208d612ef5565b9081801561209d5761209d612ef5565b9052506060909301929092525050565b6120b5612698565b80516120c1908361223a565b5060006020820152919050565b6120db82600383516122b1565b81516108e690826123ca565b81516120f49060c26123eb565b5061080e828260405160200161210c91815260200190565b604051602081830303815290604052612162565b61212b816004612454565b60018160200181815161213e9190612f54565b90525050565b61214f816007612454565b60018160200181815161213e9190612be9565b6120db82600283516122b1565b60006001600160a01b038316158015906121cd5750826001600160a01b0316846001600160a01b031614806121a957506121a984846111a8565b806121cd57506000828152600460205260409020546001600160a01b038481169116145b949350505050565b6001600160a01b0382166121ff57604051633250574960e11b8152600060048201526024016108d2565b600061220d83836000611542565b90506001600160a01b038116156108e6576040516339e3563760e11b8152600060048201526024016108d2565b60408051808201909152606081526000602082015261225a602083612e38565b156122825761226a602083612e38565b612275906020612be9565b61227f9083612f54565b91505b6020808401839052604051808552600081529081840101818110156122a657600080fd5b604052509192915050565b6017816001600160401b0316116122d75782516109709060e0600585901b1683176123eb565b60ff816001600160401b0316116123175782516122ff906018611fe0600586901b16176123eb565b508251610970906001600160401b038316600161246b565b61ffff816001600160401b031611612358578251612340906019611fe0600586901b16176123eb565b508251610970906001600160401b038316600261246b565b63ffffffff816001600160401b03161161239b57825161238390601a611fe0600586901b16176123eb565b508251610970906001600160401b038316600461246b565b82516123b290601b611fe0600586901b16176123eb565b508251610970906001600160401b038316600861246b565b604080518082019091526060815260006020820152611176838384516124f0565b6040805180820190915260608152600060208201528251516000612410826001612f54565b905084602001518210612431576124318561242c836002612f67565b6125c1565b845160208382010185815350805182111561244a578181525b5093949350505050565b81516108e690601f611fe0600585901b16176123eb565b604080518082019091526060815260006020820152835151600061248f8285612f54565b905085602001518111156124ac576124ac8661242c836002612f67565b600060016124bc86610100613062565b6124c69190612be9565b905086518281018783198251161781525080518311156124e4578281525b50959695505050505050565b604080518082019091526060815260006020820152825182111561251357600080fd5b83515160006125228483612f54565b9050856020015181111561253f5761253f8661242c836002612f67565b855180518382016020019160009180851115612559578482525b505050602086015b602086106125995780518252612578602083612f54565b9150612585602082612f54565b9050612592602087612be9565b9550612561565b51815160001960208890036101000a0190811690199190911617905250849150509392505050565b81516125cd838361223a565b5061097083826123ca565b828054828255906000526020600020908101928215612613579160200282015b828111156126135782518255916020019190600101906125f8565b5061261f9291506126cd565b5090565b50805461262f90612b0a565b6000825580601f1061263f575050565b601f0160209004906000526020600020908101906111e791906126cd565b828054828255906000526020600020908101928215612613579160200282015b8281111561261357823582559160200191906001019061267d565b60405180604001604052806126c0604051806040016040528060608152602001600081525090565b8152602001600081525090565b5b8082111561261f57600081556001016126ce565b6001600160e01b0319811681146111e757600080fd5b60006020828403121561270a57600080fd5b8135611176816126e2565b60005b83811015612730578181015183820152602001612718565b50506000910152565b60008151808452612751816020860160208601612715565b601f01601f19169290920160200192915050565b6020815260006111766020830184612739565b60006020828403121561278a57600080fd5b5035919050565b80356001600160a01b03811681146127a857600080fd5b919050565b600080604083850312156127c057600080fd5b6127c983612791565b946020939093013593505050565b634e487b7160e01b600052604160045260246000fd5b600082601f8301126127fe57600080fd5b81356001600160401b0380821115612818576128186127d7565b604051601f8301601f19908116603f01168101908282118183101715612840576128406127d7565b8160405283815286602085880101111561285957600080fd5b836020870160208301376000602085830101528094505050505092915050565b60008060006060848603121561288e57600080fd5b8335925060208401356001600160401b03808211156128ac57600080fd5b6128b8878388016127ed565b935060408601359150808211156128ce57600080fd5b506128db868287016127ed565b9150509250925092565b6000806000604084860312156128fa57600080fd5b8335925060208401356001600160401b038082111561291857600080fd5b818601915086601f83011261292c57600080fd5b81358181111561293b57600080fd5b8760208260051b850101111561295057600080fd5b6020830194508093505050509250925092565b60008060006060848603121561297857600080fd5b61298184612791565b925061298f60208501612791565b9150604084013590509250925092565b6000602082840312156129b157600080fd5b61117682612791565b600080604083850312156129cd57600080fd5b8235915060208301356001600160401b038111156129ea57600080fd5b6129f6858286016127ed565b9150509250929050565b600060208284031215612a1257600080fd5b81356001600160401b03811115612a2857600080fd5b6121cd848285016127ed565b60008060408385031215612a4757600080fd5b612a5083612791565b915060208301358015158114612a6557600080fd5b809150509250929050565b60008060008060808587031215612a8657600080fd5b612a8f85612791565b9350612a9d60208601612791565b92506040850135915060608501356001600160401b03811115612abf57600080fd5b612acb878288016127ed565b91505092959194509250565b60008060408385031215612aea57600080fd5b612af383612791565b9150612b0160208401612791565b90509250929050565b600181811c90821680612b1e57607f821691505b602082108103612b3e57634e487b7160e01b600052602260045260246000fd5b50919050565b634e487b7160e01b600052601160045260246000fd5b600060018201612b6c57612b6c612b44565b5060010190565b60208152815160208201526020820151604082015261ffff60408301511660608201526000606083015163ffffffff80821660808501528060808601511660a0850152505060a083015160c0808401526121cd60e0840182612739565b600060208284031215612be257600080fd5b5051919050565b8181038181111561074257610742612b44565b634e487b7160e01b600052603260045260246000fd5b601f8211156108e657600081815260208120601f850160051c81016020861015612c395750805b601f850160051c820191505b81811015612c5857828155600101612c45565b505050505050565b818103612c6b575050565b612c758254612b0a565b6001600160401b03811115612c8c57612c8c6127d7565b612ca081612c9a8454612b0a565b84612c12565b6000601f821160018114612cd45760008315612cbc5750848201545b600019600385901b1c1916600184901b1784556118c2565b600085815260209020601f19841690600086815260209020845b83811015612d0e5782860154825560019586019590910190602001612cee565b5085831015612d2c5781850154600019600388901b60f8161c191681555b5050505050600190811b01905550565b634e487b7160e01b600052603160045260246000fd5b81516001600160401b03811115612d6b57612d6b6127d7565b612d7981612c9a8454612b0a565b602080601f831160018114612dae5760008415612d965750858301515b600019600386901b1c1916600185901b178555612c58565b600085815260208120601f198616915b82811015612ddd57888601518255948401946001909101908401612dbe565b5085821015612d2c57939096015160001960f8600387901b161c19169092555050600190811b01905550565b60008351612e1b818460208801612715565b835190830190612e2f818360208801612715565b01949350505050565b600082612e5557634e487b7160e01b600052601260045260246000fd5b500690565b838152604060208201819052810182905260006001600160fb1b03831115612e8157600080fd5b8260051b8085606085013791909101606001949350505050565b6001600160a01b0385811682528416602082015260408101839052608060608201819052600090612ece90830184612739565b9695505050505050565b600060208284031215612eea57600080fd5b8151611176816126e2565b634e487b7160e01b600052602160045260246000fd5b6001600160401b038616815260a060208201526000612f2d60a0830187612739565b61ffff9590951660408301525063ffffffff92909216606083015260809091015292915050565b8082018082111561074257610742612b44565b808202811582820484141761074257610742612b44565b600181815b80851115612fb9578160001904821115612f9f57612f9f612b44565b80851615612fac57918102915b93841c9390800290612f83565b509250929050565b600082612fd057506001610742565b81612fdd57506000610742565b8160018114612ff35760028114612ffd57613019565b6001915050610742565b60ff84111561300e5761300e612b44565b50506001821b610742565b5060208310610133831016604e8410600b841016171561303c575081810a610742565b6130468383612f7e565b806000190482111561305a5761305a612b44565b029392505050565b60006111768383612fc156fea26469706673582212203d703086aa32693f1671be4d2ebcfbcb7033312761ae6da294f756defbade6f964736f6c63430008140033c65a7bb8d6351c1cf70c95a316cc6a92839c986682d98bc35f958f4883f9d2a8636f6e7374206469736e657955524c203d206068747470733a2f2f6170692e6469736e65796170692e6465762f636861726163746572603b636f6e73742072616e64203d204d6174682e666c6f6f72284d6174682e72616e646f6d2829202a203530293b636f6e7374206469736e657952657175657374203d2046756e6374696f6e732e6d616b654874747052657175657374287b75726c3a206469736e657955524c2c6d6574686f643a2060474554602c7d293b636f6e7374206469736e6579526573706f6e7365203d206177616974206469736e6579526571756573743b636f6e7374206469736e657944617461203d206469736e6579526573706f6e73652e646174612e646174613b636f6e7374206d7944617461203d207b6e616d653a206469736e6579446174615b72616e645d2e6e616d652c696d6167653a206469736e6579446174615b72616e645d2e696d61676555726c2c7d3b72657475726e2046756e6374696f6e732e656e636f6465537472696e67284a534f4e2e737472696e67696679286d794461746129293b636f6e737420706f6b6955524c203d206068747470733a2f2f706f6b656170692e636f2f6170692f76322f706f6b656d6f6e603b636f6e73742072616e64203d204d6174682e666c6f6f72284d6174682e72616e646f6d2829202a2031303030293b636f6e737420706f6b656d6f6e436861726163746572203d2072616e643b636f6e737420706f6b6952657175657374203d2046756e6374696f6e732e6d616b654874747052657175657374287b75726c3a2060247b706f6b6955524c7d2f247b706f6b656d6f6e4368617261637465727d602c6d6574686f643a2060474554602c7d293b636f6e737420706f6b69526573706f6e7365203d20617761697420706f6b69526571756573743b636f6e73742072657144617461203d20706f6b69526573706f6e73652e646174613b636f6e7374206d7944617461203d207b6e616d653a20726571446174612e737065636965732e6e616d652c696d6167653a20726571446174612e737072697465732e6f746865722e686f6d652e66726f6e745f64656661756c742c7d3b72657475726e2046756e6374696f6e732e656e636f6465537472696e67284a534f4e2e737472696e67696679286d794461746129293b636f6e737420676f7455524c203d206068747470733a2f2f7468726f6e65736170692e636f6d2f6170692f76322f43686172616374657273603b636f6e73742072616e64203d204d6174682e666c6f6f72284d6174682e72616e646f6d2829202a203530293b636f6e737420676f7452657175657374203d2046756e6374696f6e732e6d616b654874747052657175657374287b75726c3a20676f7455524c2c6d6574686f643a2060474554602c7d293b636f6e737420676f74526573706f6e7365203d20617761697420676f74526571756573743b636f6e737420676f7444617461203d20676f74526573706f6e73652e646174613b636f6e7374206d7944617461203d207b6e616d653a20676f74446174615b72616e645d2e66756c6c4e616d652c696d6167653a20676f74446174615b72616e645d2e696d61676555726c2c7d3b72657475726e2046756e6374696f6e732e656e636f6465537472696e67284a534f4e2e737472696e67696679286d794461746129293b636f6e737420687055524c203d206068747470733a2f2f68702d6170692e6f6e72656e6465722e636f6d2f6170692f63686172616374657273603b636f6e73742072616e64203d204d6174682e666c6f6f72284d6174682e72616e646f6d2829202a203230293b636f6e737420687052657175657374203d2046756e6374696f6e732e6d616b654874747052657175657374287b75726c3a20687055524c2c6d6574686f643a2060474554602c7d293b636f6e7374206870526573706f6e7365203d206177616974206870526571756573743b636f6e737420687044617461203d206870526573706f6e73652e646174613b636f6e7374206d7944617461203d207b6e616d653a206870446174615b72616e645d2e6e616d652c696d6167653a206870446174615b72616e645d2e696d6167652c7d3b72657475726e2046756e6374696f6e732e656e636f6465537472696e67284a534f4e2e737472696e67696679286d794461746129293b","opcodes":"PUSH1 0xD DUP1 SLOAD PUSH1 0x1 PUSH1 0x1 PUSH1 0x40 SHL SUB NOT AND PUSH1 0x43 OR SWAP1 SSTORE PUSH1 0xF DUP1 SLOAD PUSH1 0x1 PUSH1 0x1 PUSH1 0xA0 SHL SUB NOT AND PUSH20 0x234A5FB5BD614A7AA2FFAB244D603ABFA0AC5C5C OR SWAP1 SSTORE PUSH32 0x66756E2D617262697472756D2D7365706F6C69612D3100000000000000000000 PUSH1 0x10 SSTORE PUSH1 0x14 DUP1 SLOAD PUSH4 0xFFFFFFFF NOT AND PUSH3 0x493E0 OR SWAP1 SSTORE PUSH32 0x58DE34BEE78940F0673162DF37BD0F493469AF1E12E4DF31FB7DBA1C650A0A7F PUSH1 0x15 SSTORE PUSH32 0x27F94FF1465B3525F9FC03E9FF7D6D2C0953482246DD6AE07570C45D6631414 PUSH1 0x17 SSTORE PUSH1 0x18 DUP1 SLOAD PUSH3 0x10001 PUSH6 0xFFFFFFFFFFFF NOT SWAP1 SWAP2 AND OR SWAP1 SSTORE PUSH1 0x1B DUP1 SLOAD PUSH24 0x5CE8D5A2BC84BEB22A398CCA51996F7930313D61000186A0 PUSH1 0x1 PUSH1 0x1 PUSH1 0xC0 SHL SUB NOT SWAP1 SWAP2 AND OR SWAP1 SSTORE PUSH2 0x240 PUSH1 0x40 MSTORE PUSH2 0x17A PUSH1 0xA0 DUP2 DUP2 MSTORE SWAP1 PUSH3 0x3B28 PUSH1 0xC0 CODECOPY PUSH1 0x1C SWAP1 PUSH3 0x11D SWAP1 DUP3 PUSH3 0x539 JUMP JUMPDEST POP PUSH1 0x40 MLOAD DUP1 PUSH2 0x200 ADD PUSH1 0x40 MSTORE DUP1 PUSH2 0x1C2 DUP2 MSTORE PUSH1 0x20 ADD PUSH3 0x3966 PUSH2 0x1C2 SWAP2 CODECOPY PUSH1 0x1D SWAP1 PUSH3 0x14A SWAP1 DUP3 PUSH3 0x539 JUMP JUMPDEST POP PUSH1 0x40 MLOAD DUP1 PUSH2 0x1C0 ADD PUSH1 0x40 MSTORE DUP1 PUSH2 0x191 DUP2 MSTORE PUSH1 0x20 ADD PUSH3 0x37D5 PUSH2 0x191 SWAP2 CODECOPY PUSH1 0x1E SWAP1 PUSH3 0x177 SWAP1 DUP3 PUSH3 0x539 JUMP JUMPDEST POP PUSH1 0x40 MLOAD DUP1 PUSH2 0x1A0 ADD PUSH1 0x40 MSTORE DUP1 PUSH2 0x16C DUP2 MSTORE PUSH1 0x20 ADD PUSH3 0x3CA2 PUSH2 0x16C SWAP2 CODECOPY PUSH1 0x1F SWAP1 PUSH3 0x1A4 SWAP1 DUP3 PUSH3 0x539 JUMP JUMPDEST POP CALLVALUE DUP1 ISZERO PUSH3 0x1B2 JUMPI PUSH1 0x0 DUP1 REVERT JUMPDEST POP PUSH1 0x1B SLOAD PUSH1 0xF SLOAD PUSH1 0x40 DUP1 MLOAD DUP1 DUP3 ADD DUP3 MSTORE PUSH1 0x13 DUP2 MSTORE PUSH32 0x436861696E6C696E6B4D756C7469766572736500000000000000000000000000 PUSH1 0x20 DUP1 DUP4 ADD SWAP2 SWAP1 SWAP2 MSTORE DUP3 MLOAD DUP1 DUP5 ADD SWAP1 SWAP4 MSTORE PUSH1 0x3 DUP4 MSTORE PUSH3 0x434C4D PUSH1 0xE8 SHL SWAP1 DUP4 ADD MSTORE PUSH1 0x1 PUSH1 0x1 PUSH1 0xA0 SHL SUB PUSH5 0x100000000 SWAP1 SWAP5 DIV DUP5 AND SWAP4 CALLER SWAP4 DUP5 SWAP4 PUSH1 0x0 SWAP4 SWAP2 SWAP1 SWAP3 AND SWAP2 DUP4 PUSH3 0x234 DUP4 DUP3 PUSH3 0x539 JUMP JUMPDEST POP PUSH1 0x1 PUSH3 0x243 DUP3 DUP3 PUSH3 0x539 JUMP JUMPDEST POP POP POP PUSH1 0x1 PUSH1 0x1 PUSH1 0xA0 SHL SUB SWAP1 DUP2 AND PUSH1 0x80 MSTORE DUP3 AND PUSH3 0x2A8 JUMPI PUSH1 0x40 MLOAD PUSH3 0x461BCD PUSH1 0xE5 SHL DUP2 MSTORE PUSH1 0x20 PUSH1 0x4 DUP3 ADD MSTORE PUSH1 0x18 PUSH1 0x24 DUP3 ADD MSTORE PUSH32 0x43616E6E6F7420736574206F776E657220746F207A65726F0000000000000000 PUSH1 0x44 DUP3 ADD MSTORE PUSH1 0x64 ADD JUMPDEST PUSH1 0x40 MLOAD DUP1 SWAP2 SUB SWAP1 REVERT JUMPDEST PUSH1 0x6 DUP1 SLOAD PUSH1 0x1 PUSH1 0x1 PUSH1 0xA0 SHL SUB NOT AND PUSH1 0x1 PUSH1 0x1 PUSH1 0xA0 SHL SUB DUP5 DUP2 AND SWAP2 SWAP1 SWAP2 OR SWAP1 SWAP2 SSTORE DUP2 AND ISZERO PUSH3 0x2DB JUMPI PUSH3 0x2DB DUP2 PUSH3 0x3E8 JUMP JUMPDEST POP POP POP PUSH1 0x1 PUSH1 0x1 PUSH1 0xA0 SHL SUB DUP2 AND PUSH3 0x306 JUMPI PUSH1 0x40 MLOAD PUSH4 0xD92E233D PUSH1 0xE0 SHL DUP2 MSTORE PUSH1 0x4 ADD PUSH1 0x40 MLOAD DUP1 SWAP2 SUB SWAP1 REVERT JUMPDEST PUSH1 0x8 DUP1 SLOAD PUSH1 0x1 PUSH1 0x1 PUSH1 0xA0 SHL SUB NOT AND PUSH1 0x1 PUSH1 0x1 PUSH1 0xA0 SHL SUB SWAP3 SWAP1 SWAP3 AND SWAP2 SWAP1 SWAP2 OR SWAP1 SSTORE PUSH1 0xA DUP1 SLOAD PUSH1 0x1 DUP2 ADD DUP3 SSTORE PUSH1 0x0 SWAP2 SWAP1 SWAP2 MSTORE PUSH1 0x0 DUP1 MLOAD PUSH1 0x20 PUSH3 0x37B5 DUP4 CODECOPY DUP2 MLOAD SWAP2 MSTORE ADD PUSH3 0x354 PUSH1 0x1C DUP3 PUSH3 0x605 JUMP JUMPDEST POP PUSH1 0xA DUP1 SLOAD PUSH1 0x1 DUP2 ADD DUP3 SSTORE PUSH1 0x0 SWAP2 SWAP1 SWAP2 MSTORE PUSH1 0x0 DUP1 MLOAD PUSH1 0x20 PUSH3 0x37B5 DUP4 CODECOPY DUP2 MLOAD SWAP2 MSTORE ADD PUSH3 0x383 PUSH1 0x1D DUP3 PUSH3 0x605 JUMP JUMPDEST POP PUSH1 0xA DUP1 SLOAD PUSH1 0x1 DUP2 ADD DUP3 SSTORE PUSH1 0x0 SWAP2 SWAP1 SWAP2 MSTORE PUSH1 0x0 DUP1 MLOAD PUSH1 0x20 PUSH3 0x37B5 DUP4 CODECOPY DUP2 MLOAD SWAP2 MSTORE ADD PUSH3 0x3B2 PUSH1 0x1E DUP3 PUSH3 0x605 JUMP JUMPDEST POP PUSH1 0xA DUP1 SLOAD PUSH1 0x1 DUP2 ADD DUP3 SSTORE PUSH1 0x0 SWAP2 SWAP1 SWAP2 MSTORE PUSH1 0x0 DUP1 MLOAD PUSH1 0x20 PUSH3 0x37B5 DUP4 CODECOPY DUP2 MLOAD SWAP2 MSTORE ADD PUSH3 0x3E1 PUSH1 0x1F DUP3 PUSH3 0x605 JUMP JUMPDEST POP PUSH3 0x6EE JUMP JUMPDEST CALLER PUSH1 0x1 PUSH1 0x1 PUSH1 0xA0 SHL SUB DUP3 AND SUB PUSH3 0x442 JUMPI PUSH1 0x40 MLOAD PUSH3 0x461BCD PUSH1 0xE5 SHL DUP2 MSTORE PUSH1 0x20 PUSH1 0x4 DUP3 ADD MSTORE PUSH1 0x17 PUSH1 0x24 DUP3 ADD MSTORE PUSH32 0x43616E6E6F74207472616E7366657220746F2073656C66000000000000000000 PUSH1 0x44 DUP3 ADD MSTORE PUSH1 0x64 ADD PUSH3 0x29F JUMP JUMPDEST PUSH1 0x7 DUP1 SLOAD PUSH1 0x1 PUSH1 0x1 PUSH1 0xA0 SHL SUB NOT AND PUSH1 0x1 PUSH1 0x1 PUSH1 0xA0 SHL SUB DUP4 DUP2 AND SWAP2 DUP3 OR SWAP1 SWAP3 SSTORE PUSH1 0x6 SLOAD PUSH1 0x40 MLOAD SWAP2 SWAP3 AND SWAP1 PUSH32 0xED8889F560326EB138920D842192F0EB3DD22B4F139C87A2C57538E05BAE1278 SWAP1 PUSH1 0x0 SWAP1 LOG3 POP JUMP JUMPDEST PUSH4 0x4E487B71 PUSH1 0xE0 SHL PUSH1 0x0 MSTORE PUSH1 0x41 PUSH1 0x4 MSTORE PUSH1 0x24 PUSH1 0x0 REVERT JUMPDEST PUSH1 0x1 DUP2 DUP2 SHR SWAP1 DUP3 AND DUP1 PUSH3 0x4BF JUMPI PUSH1 0x7F DUP3 AND SWAP2 POP JUMPDEST PUSH1 0x20 DUP3 LT DUP2 SUB PUSH3 0x4E0 JUMPI PUSH4 0x4E487B71 PUSH1 0xE0 SHL PUSH1 0x0 MSTORE PUSH1 0x22 PUSH1 0x4 MSTORE PUSH1 0x24 PUSH1 0x0 REVERT JUMPDEST POP SWAP2 SWAP1 POP JUMP JUMPDEST PUSH1 0x1F DUP3 GT ISZERO PUSH3 0x534 JUMPI PUSH1 0x0 DUP2 DUP2 MSTORE PUSH1 0x20 DUP2 KECCAK256 PUSH1 0x1F DUP6 ADD PUSH1 0x5 SHR DUP2 ADD PUSH1 0x20 DUP7 LT ISZERO PUSH3 0x50F JUMPI POP DUP1 JUMPDEST PUSH1 0x1F DUP6 ADD PUSH1 0x5 SHR DUP3 ADD SWAP2 POP JUMPDEST DUP2 DUP2 LT ISZERO PUSH3 0x530 JUMPI DUP3 DUP2 SSTORE PUSH1 0x1 ADD PUSH3 0x51B JUMP JUMPDEST POP POP POP JUMPDEST POP POP POP JUMP JUMPDEST DUP2 MLOAD PUSH1 0x1 PUSH1 0x1 PUSH1 0x40 SHL SUB DUP2 GT ISZERO PUSH3 0x555 JUMPI PUSH3 0x555 PUSH3 0x494 JUMP JUMPDEST PUSH3 0x56D DUP2 PUSH3 0x566 DUP5 SLOAD PUSH3 0x4AA JUMP JUMPDEST DUP5 PUSH3 0x4E6 JUMP JUMPDEST PUSH1 0x20 DUP1 PUSH1 0x1F DUP4 GT PUSH1 0x1 DUP2 EQ PUSH3 0x5A5 JUMPI PUSH1 0x0 DUP5 ISZERO PUSH3 0x58C JUMPI POP DUP6 DUP4 ADD MLOAD JUMPDEST PUSH1 0x0 NOT PUSH1 0x3 DUP7 SWAP1 SHL SHR NOT AND PUSH1 0x1 DUP6 SWAP1 SHL OR DUP6 SSTORE PUSH3 0x530 JUMP JUMPDEST PUSH1 0x0 DUP6 DUP2 MSTORE PUSH1 0x20 DUP2 KECCAK256 PUSH1 0x1F NOT DUP7 AND SWAP2 JUMPDEST DUP3 DUP2 LT ISZERO PUSH3 0x5D6 JUMPI DUP9 DUP7 ADD MLOAD DUP3 SSTORE SWAP5 DUP5 ADD SWAP5 PUSH1 0x1 SWAP1 SWAP2 ADD SWAP1 DUP5 ADD PUSH3 0x5B5 JUMP JUMPDEST POP DUP6 DUP3 LT ISZERO PUSH3 0x5F5 JUMPI DUP8 DUP6 ADD MLOAD PUSH1 0x0 NOT PUSH1 0x3 DUP9 SWAP1 SHL PUSH1 0xF8 AND SHR NOT AND DUP2 SSTORE JUMPDEST POP POP POP POP POP PUSH1 0x1 SWAP1 DUP2 SHL ADD SWAP1 SSTORE POP JUMP JUMPDEST DUP2 DUP2 SUB PUSH3 0x611 JUMPI POP POP JUMP JUMPDEST PUSH3 0x61D DUP3 SLOAD PUSH3 0x4AA JUMP JUMPDEST PUSH1 0x1 PUSH1 0x1 PUSH1 0x40 SHL SUB DUP2 GT ISZERO PUSH3 0x637 JUMPI PUSH3 0x637 PUSH3 0x494 JUMP JUMPDEST PUSH3 0x648 DUP2 PUSH3 0x566 DUP5 SLOAD PUSH3 0x4AA JUMP JUMPDEST PUSH1 0x0 PUSH1 0x1F DUP3 GT PUSH1 0x1 DUP2 EQ PUSH3 0x67F JUMPI PUSH1 0x0 DUP4 ISZERO PUSH3 0x666 JUMPI POP DUP5 DUP3 ADD SLOAD JUMPDEST PUSH1 0x0 NOT PUSH1 0x3 DUP6 SWAP1 SHL SHR NOT AND PUSH1 0x1 DUP5 SWAP1 SHL OR DUP5 SSTORE PUSH3 0x6E7 JUMP JUMPDEST PUSH1 0x0 DUP6 DUP2 MSTORE PUSH1 0x20 SWAP1 KECCAK256 PUSH1 0x1F NOT DUP5 AND SWAP1 PUSH1 0x0 DUP7 DUP2 MSTORE PUSH1 0x20 SWAP1 KECCAK256 DUP5 JUMPDEST DUP4 DUP2 LT ISZERO PUSH3 0x6BB JUMPI DUP3 DUP7 ADD SLOAD DUP3 SSTORE PUSH1 0x1 SWAP6 DUP7 ADD SWAP6 SWAP1 SWAP2 ADD SWAP1 PUSH1 0x20 ADD PUSH3 0x699 JUMP JUMPDEST POP DUP6 DUP4 LT ISZERO PUSH3 0x6DA JUMPI DUP2 DUP6 ADD SLOAD PUSH1 0x0 NOT PUSH1 0x3 DUP9 SWAP1 SHL PUSH1 0xF8 AND SHR NOT AND DUP2 SSTORE JUMPDEST POP POP POP PUSH1 0x1 DUP4 PUSH1 0x1 SHL ADD DUP5 SSTORE JUMPDEST POP POP POP POP POP JUMP JUMPDEST PUSH1 0x80 MLOAD PUSH2 0x30A4 PUSH3 0x711 PUSH1 0x0 CODECOPY PUSH1 0x0 DUP2 DUP2 PUSH2 0x81D ADD MSTORE PUSH2 0x1E0F ADD MSTORE PUSH2 0x30A4 PUSH1 0x0 RETURN INVALID PUSH1 0x80 PUSH1 0x40 MSTORE CALLVALUE DUP1 ISZERO PUSH2 0x10 JUMPI PUSH1 0x0 DUP1 REVERT JUMPDEST POP PUSH1 0x4 CALLDATASIZE LT PUSH2 0x2D6 JUMPI PUSH1 0x0 CALLDATALOAD PUSH1 0xE0 SHR DUP1 PUSH4 0x813CE42D GT PUSH2 0x182 JUMPI DUP1 PUSH4 0xA969A403 GT PUSH2 0xE9 JUMPI DUP1 PUSH4 0xCFD30A6E GT PUSH2 0xA2 JUMPI DUP1 PUSH4 0xED647D21 GT PUSH2 0x7C JUMPI DUP1 PUSH4 0xED647D21 EQ PUSH2 0x666 JUMPI DUP1 PUSH4 0xF2FDE38B EQ PUSH2 0x66F JUMPI DUP1 PUSH4 0xF887EA40 EQ PUSH2 0x682 JUMPI DUP1 PUSH4 0xFF712D02 EQ PUSH2 0x695 JUMPI PUSH1 0x0 DUP1 REVERT JUMPDEST DUP1 PUSH4 0xCFD30A6E EQ PUSH2 0x637 JUMPI DUP1 PUSH4 0xE1E16379 EQ PUSH2 0x64A JUMPI DUP1 PUSH4 0xE985E9C5 EQ PUSH2 0x653 JUMPI PUSH1 0x0 DUP1 REVERT JUMPDEST DUP1 PUSH4 0xA969A403 EQ PUSH2 0x5DD JUMPI DUP1 PUSH4 0xAB6EEF52 EQ PUSH2 0x5E5 JUMPI DUP1 PUSH4 0xB187BD26 EQ PUSH2 0x5ED JUMPI DUP1 PUSH4 0xB88D4FDE EQ PUSH2 0x601 JUMPI DUP1 PUSH4 0xC87B56DD EQ PUSH2 0x614 JUMPI DUP1 PUSH4 0xCF2A1A0E EQ PUSH2 0x627 JUMPI PUSH1 0x0 DUP1 REVERT JUMPDEST DUP1 PUSH4 0x9443DEC1 GT PUSH2 0x13B JUMPI DUP1 PUSH4 0x9443DEC1 EQ PUSH2 0x578 JUMPI DUP1 PUSH4 0x95D89B41 EQ PUSH2 0x58B JUMPI DUP1 PUSH4 0x98BDF6F5 EQ PUSH2 0x593 JUMPI DUP1 PUSH4 0x9ECCACF6 EQ PUSH2 0x59C JUMPI DUP1 PUSH4 0xA22CB465 EQ PUSH2 0x5AF JUMPI DUP1 PUSH4 0xA3E56FA8 EQ PUSH2 0x5C2 JUMPI PUSH1 0x0 DUP1 REVERT JUMPDEST DUP1 PUSH4 0x813CE42D EQ PUSH2 0x529 JUMPI DUP1 PUSH4 0x8456CB59 EQ PUSH2 0x53C JUMPI DUP1 PUSH4 0x849E0312 EQ PUSH2 0x544 JUMPI DUP1 PUSH4 0x8A0EC9D2 EQ PUSH2 0x54C JUMPI DUP1 PUSH4 0x8DA5CB5B EQ PUSH2 0x554 JUMPI DUP1 PUSH4 0x8EA98117 EQ PUSH2 0x565 JUMPI PUSH1 0x0 DUP1 REVERT JUMPDEST DUP1 PUSH4 0x425C9FA2 GT PUSH2 0x241 JUMPI DUP1 PUSH4 0x598BC486 GT PUSH2 0x1FA JUMPI DUP1 PUSH4 0x6F2F418E GT PUSH2 0x1D4 JUMPI DUP1 PUSH4 0x6F2F418E EQ PUSH2 0x4F2 JUMPI DUP1 PUSH4 0x70A08231 EQ PUSH2 0x505 JUMPI DUP1 PUSH4 0x79BA5097 EQ PUSH2 0x518 JUMPI DUP1 PUSH4 0x7D058D4F EQ PUSH2 0x520 JUMPI PUSH1 0x0 DUP1 REVERT JUMPDEST DUP1 PUSH4 0x598BC486 EQ PUSH2 0x4B6 JUMPI DUP1 PUSH4 0x6250FB2B EQ PUSH2 0x4D7 JUMPI DUP1 PUSH4 0x6352211E EQ PUSH2 0x4DF JUMPI PUSH1 0x0 DUP1 REVERT JUMPDEST DUP1 PUSH4 0x425C9FA2 EQ PUSH2 0x3E5 JUMPI DUP1 PUSH4 0x42842E0E EQ PUSH2 0x3F8 JUMPI DUP1 PUSH4 0x48E9687A EQ PUSH2 0x40B JUMPI DUP1 PUSH4 0x5151804A EQ PUSH2 0x41E JUMPI DUP1 PUSH4 0x53CD456F EQ PUSH2 0x434 JUMPI DUP1 PUSH4 0x5846D682 EQ PUSH2 0x447 JUMPI PUSH1 0x0 DUP1 REVERT JUMPDEST DUP1 PUSH4 0x23B872DD GT PUSH2 0x293 JUMPI DUP1 PUSH4 0x23B872DD EQ PUSH2 0x37E JUMPI DUP1 PUSH4 0x265D1FA3 EQ PUSH2 0x391 JUMPI DUP1 PUSH4 0x2AF60523 EQ PUSH2 0x399 JUMPI DUP1 PUSH4 0x35D46D5C EQ PUSH2 0x3B0 JUMPI DUP1 PUSH4 0x3B7ED734 EQ PUSH2 0x3B8 JUMPI DUP1 PUSH4 0x3F4BA83A EQ PUSH2 0x3DD JUMPI PUSH1 0x0 DUP1 REVERT JUMPDEST DUP1 PUSH4 0x1FFC9A7 EQ PUSH2 0x2DB JUMPI DUP1 PUSH4 0x6FDDE03 EQ PUSH2 0x303 JUMPI DUP1 PUSH4 0x81812FC EQ PUSH2 0x318 JUMPI DUP1 PUSH4 0x95EA7B3 EQ PUSH2 0x343 JUMPI DUP1 PUSH4 0xCA76175 EQ PUSH2 0x358 JUMPI DUP1 PUSH4 0x1FE543E3 EQ PUSH2 0x36B JUMPI JUMPDEST PUSH1 0x0 DUP1 REVERT JUMPDEST PUSH2 0x2EE PUSH2 0x2E9 CALLDATASIZE PUSH1 0x4 PUSH2 0x26F8 JUMP JUMPDEST PUSH2 0x6F6 JUMP JUMPDEST PUSH1 0x40 MLOAD SWAP1 ISZERO ISZERO DUP2 MSTORE PUSH1 0x20 ADD JUMPDEST PUSH1 0x40 MLOAD DUP1 SWAP2 SUB SWAP1 RETURN JUMPDEST PUSH2 0x30B PUSH2 0x748 JUMP JUMPDEST PUSH1 0x40 MLOAD PUSH2 0x2FA SWAP2 SWAP1 PUSH2 0x2765 JUMP JUMPDEST PUSH2 0x32B PUSH2 0x326 CALLDATASIZE PUSH1 0x4 PUSH2 0x2778 JUMP JUMPDEST PUSH2 0x7DA JUMP JUMPDEST PUSH1 0x40 MLOAD PUSH1 0x1 PUSH1 0x1 PUSH1 0xA0 SHL SUB SWAP1 SWAP2 AND DUP2 MSTORE PUSH1 0x20 ADD PUSH2 0x2FA JUMP JUMPDEST PUSH2 0x356 PUSH2 0x351 CALLDATASIZE PUSH1 0x4 PUSH2 0x27AD JUMP JUMPDEST PUSH2 0x803 JUMP JUMPDEST STOP JUMPDEST PUSH2 0x356 PUSH2 0x366 CALLDATASIZE PUSH1 0x4 PUSH2 0x2879 JUMP JUMPDEST PUSH2 0x812 JUMP JUMPDEST PUSH2 0x356 PUSH2 0x379 CALLDATASIZE PUSH1 0x4 PUSH2 0x28E5 JUMP JUMPDEST PUSH2 0x896 JUMP JUMPDEST PUSH2 0x356 PUSH2 0x38C CALLDATASIZE PUSH1 0x4 PUSH2 0x2963 JUMP JUMPDEST PUSH2 0x8EB JUMP JUMPDEST PUSH2 0x30B PUSH2 0x976 JUMP JUMPDEST PUSH2 0x3A2 PUSH1 0x17 SLOAD DUP2 JUMP JUMPDEST PUSH1 0x40 MLOAD SWAP1 DUP2 MSTORE PUSH1 0x20 ADD PUSH2 0x2FA JUMP JUMPDEST PUSH2 0x30B PUSH2 0xA04 JUMP JUMPDEST PUSH1 0x1B SLOAD PUSH2 0x3C8 SWAP1 PUSH4 0xFFFFFFFF AND DUP2 JUMP JUMPDEST PUSH1 0x40 MLOAD PUSH4 0xFFFFFFFF SWAP1 SWAP2 AND DUP2 MSTORE PUSH1 0x20 ADD PUSH2 0x2FA JUMP JUMPDEST PUSH2 0x356 PUSH2 0xA11 JUMP JUMPDEST PUSH2 0x3A2 PUSH2 0x3F3 CALLDATASIZE PUSH1 0x4 PUSH2 0x2778 JUMP JUMPDEST PUSH2 0xA28 JUMP JUMPDEST PUSH2 0x356 PUSH2 0x406 CALLDATASIZE PUSH1 0x4 PUSH2 0x2963 JUMP JUMPDEST PUSH2 0xA49 JUMP JUMPDEST PUSH2 0x356 PUSH2 0x419 CALLDATASIZE PUSH1 0x4 PUSH2 0x299F JUMP JUMPDEST PUSH2 0xA64 JUMP JUMPDEST PUSH1 0x18 SLOAD PUSH2 0x3C8 SWAP1 PUSH3 0x10000 SWAP1 DIV PUSH4 0xFFFFFFFF AND DUP2 JUMP JUMPDEST PUSH2 0x356 PUSH2 0x442 CALLDATASIZE PUSH1 0x4 PUSH2 0x2778 JUMP JUMPDEST PUSH2 0xCDB JUMP JUMPDEST PUSH2 0x48B PUSH2 0x455 CALLDATASIZE PUSH1 0x4 PUSH2 0x2778 JUMP JUMPDEST PUSH1 0x16 PUSH1 0x20 MSTORE PUSH1 0x0 SWAP1 DUP2 MSTORE PUSH1 0x40 SWAP1 KECCAK256 DUP1 SLOAD PUSH1 0x1 DUP3 ADD SLOAD PUSH1 0x2 SWAP1 SWAP3 ADD SLOAD PUSH1 0xFF DUP1 DUP4 AND SWAP4 PUSH2 0x100 SWAP1 SWAP4 DIV AND SWAP2 SWAP1 PUSH1 0x1 PUSH1 0x1 PUSH1 0xA0 SHL SUB AND DUP5 JUMP JUMPDEST PUSH1 0x40 DUP1 MLOAD SWAP5 ISZERO ISZERO DUP6 MSTORE SWAP3 ISZERO ISZERO PUSH1 0x20 DUP6 ADD MSTORE SWAP2 DUP4 ADD MSTORE PUSH1 0x1 PUSH1 0x1 PUSH1 0xA0 SHL SUB AND PUSH1 0x60 DUP3 ADD MSTORE PUSH1 0x80 ADD PUSH2 0x2FA JUMP JUMPDEST PUSH1 0x18 SLOAD PUSH2 0x4C4 SWAP1 PUSH2 0xFFFF AND DUP2 JUMP JUMPDEST PUSH1 0x40 MLOAD PUSH2 0xFFFF SWAP1 SWAP2 AND DUP2 MSTORE PUSH1 0x20 ADD PUSH2 0x2FA JUMP JUMPDEST PUSH2 0x30B PUSH2 0xDB0 JUMP JUMPDEST PUSH2 0x32B PUSH2 0x4ED CALLDATASIZE PUSH1 0x4 PUSH2 0x2778 JUMP JUMPDEST PUSH2 0xDBD JUMP JUMPDEST PUSH2 0x30B PUSH2 0x500 CALLDATASIZE PUSH1 0x4 PUSH2 0x2778 JUMP JUMPDEST PUSH2 0xDC8 JUMP JUMPDEST PUSH2 0x3A2 PUSH2 0x513 CALLDATASIZE PUSH1 0x4 PUSH2 0x299F JUMP JUMPDEST PUSH2 0xDE1 JUMP JUMPDEST PUSH2 0x356 PUSH2 0xE29 JUMP JUMPDEST PUSH2 0x3A2 PUSH1 0x1A SLOAD DUP2 JUMP JUMPDEST PUSH2 0x356 PUSH2 0x537 CALLDATASIZE PUSH1 0x4 PUSH2 0x29BA JUMP JUMPDEST PUSH2 0xED7 JUMP JUMPDEST PUSH2 0x356 PUSH2 0xF50 JUMP JUMPDEST PUSH2 0x30B PUSH2 0xF6D JUMP JUMPDEST PUSH2 0x30B PUSH2 0xF7A JUMP JUMPDEST PUSH1 0x6 SLOAD PUSH1 0x1 PUSH1 0x1 PUSH1 0xA0 SHL SUB AND PUSH2 0x32B JUMP JUMPDEST PUSH2 0x356 PUSH2 0x573 CALLDATASIZE PUSH1 0x4 PUSH2 0x299F JUMP JUMPDEST PUSH2 0xF87 JUMP JUMPDEST PUSH2 0x356 PUSH2 0x586 CALLDATASIZE PUSH1 0x4 PUSH2 0x2A00 JUMP JUMPDEST PUSH2 0x1079 JUMP JUMPDEST PUSH2 0x30B PUSH2 0x10BD JUMP JUMPDEST PUSH2 0x3A2 PUSH1 0x9 SLOAD DUP2 JUMP JUMPDEST PUSH1 0x8 SLOAD PUSH2 0x32B SWAP1 PUSH1 0x1 PUSH1 0x1 PUSH1 0xA0 SHL SUB AND DUP2 JUMP JUMPDEST PUSH2 0x356 PUSH2 0x5BD CALLDATASIZE PUSH1 0x4 PUSH2 0x2A34 JUMP JUMPDEST PUSH2 0x10CC JUMP JUMPDEST PUSH1 0x1B SLOAD PUSH2 0x32B SWAP1 PUSH5 0x100000000 SWAP1 DIV PUSH1 0x1 PUSH1 0x1 PUSH1 0xA0 SHL SUB AND DUP2 JUMP JUMPDEST PUSH2 0x30B PUSH2 0x10D7 JUMP JUMPDEST PUSH2 0x30B PUSH2 0x10E4 JUMP JUMPDEST PUSH1 0x8 SLOAD PUSH2 0x2EE SWAP1 PUSH1 0x1 PUSH1 0xA0 SHL SWAP1 DIV PUSH1 0xFF AND DUP2 JUMP JUMPDEST PUSH2 0x356 PUSH2 0x60F CALLDATASIZE PUSH1 0x4 PUSH2 0x2A70 JUMP JUMPDEST PUSH2 0x10F1 JUMP JUMPDEST PUSH2 0x30B PUSH2 0x622 CALLDATASIZE PUSH1 0x4 PUSH2 0x2778 JUMP JUMPDEST PUSH2 0x1108 JUMP JUMPDEST PUSH1 0x14 SLOAD PUSH2 0x3C8 SWAP1 PUSH4 0xFFFFFFFF AND DUP2 JUMP JUMPDEST PUSH2 0x30B PUSH2 0x645 CALLDATASIZE PUSH1 0x4 PUSH2 0x2778 JUMP JUMPDEST PUSH2 0x117D JUMP JUMPDEST PUSH2 0x3A2 PUSH1 0x11 SLOAD DUP2 JUMP JUMPDEST PUSH2 0x2EE PUSH2 0x661 CALLDATASIZE PUSH1 0x4 PUSH2 0x2AD7 JUMP JUMPDEST PUSH2 0x11A8 JUMP JUMPDEST PUSH2 0x3A2 PUSH1 0x15 SLOAD DUP2 JUMP JUMPDEST PUSH2 0x356 PUSH2 0x67D CALLDATASIZE PUSH1 0x4 PUSH2 0x299F JUMP JUMPDEST PUSH2 0x11D6 JUMP JUMPDEST PUSH1 0xF SLOAD PUSH2 0x32B SWAP1 PUSH1 0x1 PUSH1 0x1 PUSH1 0xA0 SHL SUB AND DUP2 JUMP JUMPDEST PUSH2 0x6D1 PUSH2 0x6A3 CALLDATASIZE PUSH1 0x4 PUSH2 0x2778 JUMP JUMPDEST PUSH1 0xE PUSH1 0x20 MSTORE PUSH1 0x0 SWAP1 DUP2 MSTORE PUSH1 0x40 SWAP1 KECCAK256 DUP1 SLOAD PUSH1 0x1 SWAP1 SWAP2 ADD SLOAD PUSH1 0x1 PUSH1 0x1 PUSH1 0xA0 SHL SUB DUP2 AND SWAP1 PUSH1 0x1 PUSH1 0xA0 SHL SWAP1 DIV PUSH1 0xFF AND DUP4 JUMP JUMPDEST PUSH1 0x40 DUP1 MLOAD SWAP4 DUP5 MSTORE PUSH1 0x1 PUSH1 0x1 PUSH1 0xA0 SHL SUB SWAP1 SWAP3 AND PUSH1 0x20 DUP5 ADD MSTORE ISZERO ISZERO SWAP1 DUP3 ADD MSTORE PUSH1 0x60 ADD PUSH2 0x2FA JUMP JUMPDEST PUSH1 0x0 PUSH1 0x1 PUSH1 0x1 PUSH1 0xE0 SHL SUB NOT DUP3 AND PUSH4 0x80AC58CD PUSH1 0xE0 SHL EQ DUP1 PUSH2 0x727 JUMPI POP PUSH1 0x1 PUSH1 0x1 PUSH1 0xE0 SHL SUB NOT DUP3 AND PUSH4 0x5B5E139F PUSH1 0xE0 SHL EQ JUMPDEST DUP1 PUSH2 0x742 JUMPI POP PUSH4 0x1FFC9A7 PUSH1 0xE0 SHL PUSH1 0x1 PUSH1 0x1 PUSH1 0xE0 SHL SUB NOT DUP4 AND EQ JUMPDEST SWAP3 SWAP2 POP POP JUMP JUMPDEST PUSH1 0x60 PUSH1 0x0 DUP1 SLOAD PUSH2 0x757 SWAP1 PUSH2 0x2B0A JUMP JUMPDEST DUP1 PUSH1 0x1F ADD PUSH1 0x20 DUP1 SWAP2 DIV MUL PUSH1 0x20 ADD PUSH1 0x40 MLOAD SWAP1 DUP2 ADD PUSH1 0x40 MSTORE DUP1 SWAP3 SWAP2 SWAP1 DUP2 DUP2 MSTORE PUSH1 0x20 ADD DUP3 DUP1 SLOAD PUSH2 0x783 SWAP1 PUSH2 0x2B0A JUMP JUMPDEST DUP1 ISZERO PUSH2 0x7D0 JUMPI DUP1 PUSH1 0x1F LT PUSH2 0x7A5 JUMPI PUSH2 0x100 DUP1 DUP4 SLOAD DIV MUL DUP4 MSTORE SWAP2 PUSH1 0x20 ADD SWAP2 PUSH2 0x7D0 JUMP JUMPDEST DUP3 ADD SWAP2 SWAP1 PUSH1 0x0 MSTORE PUSH1 0x20 PUSH1 0x0 KECCAK256 SWAP1 JUMPDEST DUP2 SLOAD DUP2 MSTORE SWAP1 PUSH1 0x1 ADD SWAP1 PUSH1 0x20 ADD DUP1 DUP4 GT PUSH2 0x7B3 JUMPI DUP3 SWAP1 SUB PUSH1 0x1F AND DUP3 ADD SWAP2 JUMPDEST POP POP POP POP POP SWAP1 POP SWAP1 JUMP JUMPDEST PUSH1 0x0 PUSH2 0x7E5 DUP3 PUSH2 0x11EA JUMP JUMPDEST POP PUSH1 0x0 DUP3 DUP2 MSTORE PUSH1 0x4 PUSH1 0x20 MSTORE PUSH1 0x40 SWAP1 KECCAK256 SLOAD PUSH1 0x1 PUSH1 0x1 PUSH1 0xA0 SHL SUB AND PUSH2 0x742 JUMP JUMPDEST PUSH2 0x80E DUP3 DUP3 CALLER PUSH2 0x1223 JUMP JUMPDEST POP POP JUMP JUMPDEST CALLER PUSH1 0x1 PUSH1 0x1 PUSH1 0xA0 SHL SUB PUSH32 0x0 AND EQ PUSH2 0x85B JUMPI PUSH1 0x40 MLOAD PUSH4 0xC6829F83 PUSH1 0xE0 SHL DUP2 MSTORE PUSH1 0x4 ADD PUSH1 0x40 MLOAD DUP1 SWAP2 SUB SWAP1 REVERT JUMPDEST PUSH2 0x866 DUP4 DUP4 DUP4 PUSH2 0x1230 JUMP JUMPDEST PUSH1 0x40 MLOAD DUP4 SWAP1 PUSH32 0x85E1543BF2F84FE80C6BADBCE3648C8539AD1DF4D2B3D822938CA0538BE727E6 SWAP1 PUSH1 0x0 SWAP1 LOG2 POP POP POP JUMP JUMPDEST PUSH1 0x8 SLOAD PUSH1 0x1 PUSH1 0x1 PUSH1 0xA0 SHL SUB AND CALLER EQ PUSH2 0x8DB JUMPI PUSH1 0x8 SLOAD PUSH1 0x40 MLOAD PUSH4 0x73E64FD PUSH1 0xE2 SHL DUP2 MSTORE CALLER PUSH1 0x4 DUP3 ADD MSTORE PUSH1 0x1 PUSH1 0x1 PUSH1 0xA0 SHL SUB SWAP1 SWAP2 AND PUSH1 0x24 DUP3 ADD MSTORE PUSH1 0x44 ADD JUMPDEST PUSH1 0x40 MLOAD DUP1 SWAP2 SUB SWAP1 REVERT JUMPDEST PUSH2 0x8E6 DUP4 DUP4 DUP4 PUSH2 0x1317 JUMP JUMPDEST POP POP POP JUMP JUMPDEST PUSH1 0x1 PUSH1 0x1 PUSH1 0xA0 SHL SUB DUP3 AND PUSH2 0x915 JUMPI PUSH1 0x40 MLOAD PUSH4 0x32505749 PUSH1 0xE1 SHL DUP2 MSTORE PUSH1 0x0 PUSH1 0x4 DUP3 ADD MSTORE PUSH1 0x24 ADD PUSH2 0x8D2 JUMP JUMPDEST PUSH1 0x0 PUSH2 0x922 DUP4 DUP4 CALLER PUSH2 0x1542 JUMP JUMPDEST SWAP1 POP DUP4 PUSH1 0x1 PUSH1 0x1 PUSH1 0xA0 SHL SUB AND DUP2 PUSH1 0x1 PUSH1 0x1 PUSH1 0xA0 SHL SUB AND EQ PUSH2 0x970 JUMPI PUSH1 0x40 MLOAD PUSH4 0x64283D7B PUSH1 0xE0 SHL DUP2 MSTORE PUSH1 0x1 PUSH1 0x1 PUSH1 0xA0 SHL SUB DUP1 DUP7 AND PUSH1 0x4 DUP4 ADD MSTORE PUSH1 0x24 DUP3 ADD DUP5 SWAP1 MSTORE DUP3 AND PUSH1 0x44 DUP3 ADD MSTORE PUSH1 0x64 ADD PUSH2 0x8D2 JUMP JUMPDEST POP POP POP POP JUMP JUMPDEST PUSH1 0x12 DUP1 SLOAD PUSH2 0x983 SWAP1 PUSH2 0x2B0A JUMP JUMPDEST DUP1 PUSH1 0x1F ADD PUSH1 0x20 DUP1 SWAP2 DIV MUL PUSH1 0x20 ADD PUSH1 0x40 MLOAD SWAP1 DUP2 ADD PUSH1 0x40 MSTORE DUP1 SWAP3 SWAP2 SWAP1 DUP2 DUP2 MSTORE PUSH1 0x20 ADD DUP3 DUP1 SLOAD PUSH2 0x9AF SWAP1 PUSH2 0x2B0A JUMP JUMPDEST DUP1 ISZERO PUSH2 0x9FC JUMPI DUP1 PUSH1 0x1F LT PUSH2 0x9D1 JUMPI PUSH2 0x100 DUP1 DUP4 SLOAD DIV MUL DUP4 MSTORE SWAP2 PUSH1 0x20 ADD SWAP2 PUSH2 0x9FC JUMP JUMPDEST DUP3 ADD SWAP2 SWAP1 PUSH1 0x0 MSTORE PUSH1 0x20 PUSH1 0x0 KECCAK256 SWAP1 JUMPDEST DUP2 SLOAD DUP2 MSTORE SWAP1 PUSH1 0x1 ADD SWAP1 PUSH1 0x20 ADD DUP1 DUP4 GT PUSH2 0x9DF JUMPI DUP3 SWAP1 SUB PUSH1 0x1F AND DUP3 ADD SWAP2 JUMPDEST POP POP POP POP POP DUP2 JUMP JUMPDEST PUSH1 0x1E DUP1 SLOAD PUSH2 0x983 SWAP1 PUSH2 0x2B0A JUMP JUMPDEST PUSH2 0xA19 PUSH2 0x163B JUMP JUMPDEST PUSH1 0x8 DUP1 SLOAD PUSH1 0xFF PUSH1 0xA0 SHL NOT AND SWAP1 SSTORE JUMP JUMPDEST PUSH1 0x19 DUP2 DUP2 SLOAD DUP2 LT PUSH2 0xA38 JUMPI PUSH1 0x0 DUP1 REVERT JUMPDEST PUSH1 0x0 SWAP2 DUP3 MSTORE PUSH1 0x20 SWAP1 SWAP2 KECCAK256 ADD SLOAD SWAP1 POP DUP2 JUMP JUMPDEST PUSH2 0x8E6 DUP4 DUP4 DUP4 PUSH1 0x40 MLOAD DUP1 PUSH1 0x20 ADD PUSH1 0x40 MSTORE DUP1 PUSH1 0x0 DUP2 MSTORE POP PUSH2 0x10F1 JUMP JUMPDEST PUSH1 0x8 SLOAD PUSH1 0x1 PUSH1 0xA0 SHL SWAP1 DIV PUSH1 0xFF AND ISZERO PUSH2 0xAB3 JUMPI PUSH1 0x40 MLOAD PUSH3 0x461BCD PUSH1 0xE5 SHL DUP2 MSTORE PUSH1 0x20 PUSH1 0x4 DUP3 ADD MSTORE PUSH1 0x12 PUSH1 0x24 DUP3 ADD MSTORE PUSH18 0x10DBDB9D1C9858DD081A5CC81C185D5CD959 PUSH1 0x72 SHL PUSH1 0x44 DUP3 ADD MSTORE PUSH1 0x64 ADD PUSH2 0x8D2 JUMP JUMPDEST PUSH1 0x9 DUP1 SLOAD SWAP1 PUSH1 0x0 PUSH2 0xAC3 DUP4 PUSH2 0x2B5A JUMP JUMPDEST SWAP1 SWAP2 SSTORE POP POP PUSH1 0x8 SLOAD PUSH1 0x40 DUP1 MLOAD PUSH1 0xC0 DUP2 ADD DUP3 MSTORE PUSH1 0x17 SLOAD DUP2 MSTORE PUSH1 0x15 SLOAD PUSH1 0x20 DUP1 DUP4 ADD SWAP2 SWAP1 SWAP2 MSTORE PUSH1 0x18 SLOAD PUSH2 0xFFFF DUP2 AND DUP4 DUP6 ADD MSTORE PUSH1 0x1B SLOAD PUSH4 0xFFFFFFFF SWAP1 DUP2 AND PUSH1 0x60 DUP6 ADD MSTORE PUSH3 0x10000 SWAP1 SWAP2 DIV AND PUSH1 0x80 DUP4 ADD MSTORE DUP3 MLOAD SWAP1 DUP2 ADD SWAP1 SWAP3 MSTORE PUSH1 0x0 DUP1 DUP4 MSTORE SWAP3 PUSH1 0x1 PUSH1 0x1 PUSH1 0xA0 SHL SUB AND SWAP2 PUSH4 0x9B1C385E SWAP2 SWAP1 PUSH1 0xA0 DUP3 ADD SWAP1 PUSH2 0xB3C SWAP1 PUSH2 0x1690 JUMP JUMPDEST DUP2 MSTORE POP PUSH1 0x40 MLOAD DUP3 PUSH4 0xFFFFFFFF AND PUSH1 0xE0 SHL DUP2 MSTORE PUSH1 0x4 ADD PUSH2 0xB5B SWAP2 SWAP1 PUSH2 0x2B73 JUMP JUMPDEST PUSH1 0x20 PUSH1 0x40 MLOAD DUP1 DUP4 SUB DUP2 PUSH1 0x0 DUP8 GAS CALL ISZERO DUP1 ISZERO PUSH2 0xB7A JUMPI RETURNDATASIZE PUSH1 0x0 DUP1 RETURNDATACOPY RETURNDATASIZE PUSH1 0x0 REVERT JUMPDEST POP POP POP POP PUSH1 0x40 MLOAD RETURNDATASIZE PUSH1 0x1F NOT PUSH1 0x1F DUP3 ADD AND DUP3 ADD DUP1 PUSH1 0x40 MSTORE POP DUP2 ADD SWAP1 PUSH2 0xB9E SWAP2 SWAP1 PUSH2 0x2BD0 JUMP JUMPDEST PUSH1 0x40 DUP1 MLOAD PUSH1 0xA0 DUP2 ADD DUP3 MSTORE PUSH1 0x0 DUP1 DUP3 MSTORE PUSH1 0x1 PUSH1 0x20 DUP1 DUP5 ADD DUP3 DUP2 MSTORE PUSH1 0x9 SLOAD DUP6 DUP8 ADD SWAP1 DUP2 MSTORE PUSH1 0x1 PUSH1 0x1 PUSH1 0xA0 SHL SUB DUP11 DUP2 AND PUSH1 0x60 DUP9 ADD SWAP1 DUP2 MSTORE DUP9 MLOAD DUP8 DUP2 MSTORE DUP1 DUP7 ADD DUP11 MSTORE PUSH1 0x80 DUP10 ADD SWAP1 DUP2 MSTORE DUP11 DUP9 MSTORE PUSH1 0x16 DUP7 MSTORE SWAP9 SWAP1 SWAP7 KECCAK256 DUP8 MLOAD DUP2 SLOAD SWAP5 MLOAD PUSH2 0xFFFF NOT SWAP1 SWAP6 AND SWAP1 ISZERO ISZERO PUSH2 0xFF00 NOT AND OR PUSH2 0x100 SWAP5 ISZERO ISZERO SWAP5 SWAP1 SWAP5 MUL SWAP4 SWAP1 SWAP4 OR DUP4 SSTORE SWAP1 MLOAD SWAP4 DUP3 ADD SWAP4 SWAP1 SWAP4 SSTORE SWAP3 MLOAD PUSH1 0x2 DUP5 ADD DUP1 SLOAD PUSH1 0x1 PUSH1 0x1 PUSH1 0xA0 SHL SUB NOT AND SWAP2 SWAP1 SWAP4 AND OR SWAP1 SWAP2 SSTORE SWAP3 MLOAD DUP1 MLOAD SWAP5 SWAP6 POP SWAP2 SWAP4 SWAP1 SWAP3 PUSH2 0xC53 SWAP3 PUSH1 0x3 DUP6 ADD SWAP3 SWAP2 ADD SWAP1 PUSH2 0x25D8 JUMP JUMPDEST POP POP PUSH1 0x19 DUP1 SLOAD PUSH1 0x1 DUP2 ADD DUP3 SSTORE PUSH1 0x0 SWAP2 SWAP1 SWAP2 MSTORE PUSH32 0x944998273E477B495144FB8794C914197F3CCB46BE2900F4698FD0EF743C9695 ADD DUP3 SWAP1 SSTORE POP PUSH1 0x1A DUP2 SWAP1 SSTORE PUSH1 0x18 SLOAD PUSH1 0x40 DUP1 MLOAD DUP4 DUP2 MSTORE PUSH3 0x10000 SWAP1 SWAP3 DIV PUSH4 0xFFFFFFFF AND PUSH1 0x20 DUP4 ADD MSTORE PUSH32 0xCC58B13AD3EAB50626C6A6300B1D139CD6EBB1688A7CCED9461C2F7E762665EE SWAP2 ADD PUSH1 0x40 MLOAD DUP1 SWAP2 SUB SWAP1 LOG1 POP POP JUMP JUMPDEST PUSH2 0xCE3 PUSH2 0x163B JUMP JUMPDEST PUSH1 0xA SLOAD DUP2 LT PUSH2 0xD2A JUMPI PUSH1 0x40 MLOAD PUSH3 0x461BCD PUSH1 0xE5 SHL DUP2 MSTORE PUSH1 0x20 PUSH1 0x4 DUP3 ADD MSTORE PUSH1 0x13 PUSH1 0x24 DUP3 ADD MSTORE PUSH19 0x496E646578206F7574206F6620626F756E6473 PUSH1 0x68 SHL PUSH1 0x44 DUP3 ADD MSTORE PUSH1 0x64 ADD PUSH2 0x8D2 JUMP JUMPDEST PUSH1 0xA DUP1 SLOAD PUSH2 0xD3A SWAP1 PUSH1 0x1 SWAP1 PUSH2 0x2BE9 JUMP JUMPDEST DUP2 SLOAD DUP2 LT PUSH2 0xD4A JUMPI PUSH2 0xD4A PUSH2 0x2BFC JUMP JUMPDEST SWAP1 PUSH1 0x0 MSTORE PUSH1 0x20 PUSH1 0x0 KECCAK256 ADD PUSH1 0xA DUP3 DUP2 SLOAD DUP2 LT PUSH2 0xD67 JUMPI PUSH2 0xD67 PUSH2 0x2BFC JUMP JUMPDEST SWAP1 PUSH1 0x0 MSTORE PUSH1 0x20 PUSH1 0x0 KECCAK256 ADD SWAP1 DUP2 PUSH2 0xD7D SWAP2 SWAP1 PUSH2 0x2C60 JUMP JUMPDEST POP PUSH1 0xA DUP1 SLOAD DUP1 PUSH2 0xD8F JUMPI PUSH2 0xD8F PUSH2 0x2D3C JUMP JUMPDEST PUSH1 0x1 SWAP1 SUB DUP2 DUP2 SWAP1 PUSH1 0x0 MSTORE PUSH1 0x20 PUSH1 0x0 KECCAK256 ADD PUSH1 0x0 PUSH2 0xDAB SWAP2 SWAP1 PUSH2 0x2623 JUMP JUMPDEST SWAP1 SSTORE POP JUMP JUMPDEST PUSH1 0x13 DUP1 SLOAD PUSH2 0x983 SWAP1 PUSH2 0x2B0A JUMP JUMPDEST PUSH1 0x0 PUSH2 0x742 DUP3 PUSH2 0x11EA JUMP JUMPDEST PUSH1 0xC PUSH1 0x20 MSTORE PUSH1 0x0 SWAP1 DUP2 MSTORE PUSH1 0x40 SWAP1 KECCAK256 DUP1 SLOAD PUSH2 0x983 SWAP1 PUSH2 0x2B0A JUMP JUMPDEST PUSH1 0x0 PUSH1 0x1 PUSH1 0x1 PUSH1 0xA0 SHL SUB DUP3 AND PUSH2 0xE0D JUMPI PUSH1 0x40 MLOAD PUSH4 0x22718AD9 PUSH1 0xE2 SHL DUP2 MSTORE PUSH1 0x0 PUSH1 0x4 DUP3 ADD MSTORE PUSH1 0x24 ADD PUSH2 0x8D2 JUMP JUMPDEST POP PUSH1 0x1 PUSH1 0x1 PUSH1 0xA0 SHL SUB AND PUSH1 0x0 SWAP1 DUP2 MSTORE PUSH1 0x3 PUSH1 0x20 MSTORE PUSH1 0x40 SWAP1 KECCAK256 SLOAD SWAP1 JUMP JUMPDEST PUSH1 0x7 SLOAD PUSH1 0x1 PUSH1 0x1 PUSH1 0xA0 SHL SUB AND CALLER EQ PUSH2 0xE7C JUMPI PUSH1 0x40 MLOAD PUSH3 0x461BCD PUSH1 0xE5 SHL DUP2 MSTORE PUSH1 0x20 PUSH1 0x4 DUP3 ADD MSTORE PUSH1 0x16 PUSH1 0x24 DUP3 ADD MSTORE PUSH22 0x26BAB9BA10313290383937B837B9B2B21037BBB732B9 PUSH1 0x51 SHL PUSH1 0x44 DUP3 ADD MSTORE PUSH1 0x64 ADD PUSH2 0x8D2 JUMP JUMPDEST PUSH1 0x6 DUP1 SLOAD PUSH1 0x1 PUSH1 0x1 PUSH1 0xA0 SHL SUB NOT DUP1 DUP3 AND CALLER SWAP1 DUP2 OR SWAP1 SWAP4 SSTORE PUSH1 0x7 DUP1 SLOAD SWAP1 SWAP2 AND SWAP1 SSTORE PUSH1 0x40 MLOAD PUSH1 0x1 PUSH1 0x1 PUSH1 0xA0 SHL SUB SWAP1 SWAP2 AND SWAP2 SWAP1 DUP3 SWAP1 PUSH32 0x8BE0079C531659141344CD1FD0A4F28419497F9722A3DAAFE3B4186F6B6457E0 SWAP1 PUSH1 0x0 SWAP1 LOG3 POP JUMP JUMPDEST PUSH2 0xEDF PUSH2 0x163B JUMP JUMPDEST PUSH1 0xA SLOAD DUP3 LT PUSH2 0xF26 JUMPI PUSH1 0x40 MLOAD PUSH3 0x461BCD PUSH1 0xE5 SHL DUP2 MSTORE PUSH1 0x20 PUSH1 0x4 DUP3 ADD MSTORE PUSH1 0x13 PUSH1 0x24 DUP3 ADD MSTORE PUSH19 0x496E646578206F7574206F6620626F756E6473 PUSH1 0x68 SHL PUSH1 0x44 DUP3 ADD MSTORE PUSH1 0x64 ADD PUSH2 0x8D2 JUMP JUMPDEST DUP1 PUSH1 0xA DUP4 DUP2 SLOAD DUP2 LT PUSH2 0xF3A JUMPI PUSH2 0xF3A PUSH2 0x2BFC JUMP JUMPDEST SWAP1 PUSH1 0x0 MSTORE PUSH1 0x20 PUSH1 0x0 KECCAK256 ADD SWAP1 DUP2 PUSH2 0x8E6 SWAP2 SWAP1 PUSH2 0x2D52 JUMP JUMPDEST PUSH2 0xF58 PUSH2 0x163B JUMP JUMPDEST PUSH1 0x8 DUP1 SLOAD PUSH1 0xFF PUSH1 0xA0 SHL NOT AND PUSH1 0x1 PUSH1 0xA0 SHL OR SWAP1 SSTORE JUMP JUMPDEST PUSH1 0xB DUP1 SLOAD PUSH2 0x983 SWAP1 PUSH2 0x2B0A JUMP JUMPDEST PUSH1 0x1F DUP1 SLOAD PUSH2 0x983 SWAP1 PUSH2 0x2B0A JUMP JUMPDEST PUSH1 0x6 SLOAD PUSH1 0x1 PUSH1 0x1 PUSH1 0xA0 SHL SUB AND CALLER EQ DUP1 ISZERO SWAP1 PUSH2 0xFAD JUMPI POP PUSH1 0x8 SLOAD PUSH1 0x1 PUSH1 0x1 PUSH1 0xA0 SHL SUB AND CALLER EQ ISZERO JUMPDEST ISZERO PUSH2 0xFFE JUMPI CALLER PUSH2 0xFC5 PUSH1 0x6 SLOAD PUSH1 0x1 PUSH1 0x1 PUSH1 0xA0 SHL SUB AND SWAP1 JUMP JUMPDEST PUSH1 0x8 SLOAD PUSH1 0x40 MLOAD PUSH4 0x61DB9C1 PUSH1 0xE0 SHL DUP2 MSTORE PUSH1 0x1 PUSH1 0x1 PUSH1 0xA0 SHL SUB SWAP4 DUP5 AND PUSH1 0x4 DUP3 ADD MSTORE SWAP2 DUP4 AND PUSH1 0x24 DUP4 ADD MSTORE SWAP2 SWAP1 SWAP2 AND PUSH1 0x44 DUP3 ADD MSTORE PUSH1 0x64 ADD PUSH2 0x8D2 JUMP JUMPDEST PUSH1 0x1 PUSH1 0x1 PUSH1 0xA0 SHL SUB DUP2 AND PUSH2 0x1025 JUMPI PUSH1 0x40 MLOAD PUSH4 0xD92E233D PUSH1 0xE0 SHL DUP2 MSTORE PUSH1 0x4 ADD PUSH1 0x40 MLOAD DUP1 SWAP2 SUB SWAP1 REVERT JUMPDEST PUSH1 0x8 DUP1 SLOAD PUSH1 0x1 PUSH1 0x1 PUSH1 0xA0 SHL SUB NOT AND PUSH1 0x1 PUSH1 0x1 PUSH1 0xA0 SHL SUB DUP4 AND SWAP1 DUP2 OR SWAP1 SWAP2 SSTORE PUSH1 0x40 MLOAD SWAP1 DUP2 MSTORE PUSH32 0xD1A6A14209A385A964D036E404CB5CFB71F4000CDB03C9366292430787261BE6 SWAP1 PUSH1 0x20 ADD PUSH1 0x40 MLOAD DUP1 SWAP2 SUB SWAP1 LOG1 POP JUMP JUMPDEST PUSH2 0x1081 PUSH2 0x163B JUMP JUMPDEST PUSH1 0xA DUP1 SLOAD PUSH1 0x1 DUP2 ADD DUP3 SSTORE PUSH1 0x0 SWAP2 SWAP1 SWAP2 MSTORE PUSH32 0xC65A7BB8D6351C1CF70C95A316CC6A92839C986682D98BC35F958F4883F9D2A8 ADD PUSH2 0x80E DUP3 DUP3 PUSH2 0x2D52 JUMP JUMPDEST PUSH1 0x60 PUSH1 0x1 DUP1 SLOAD PUSH2 0x757 SWAP1 PUSH2 0x2B0A JUMP JUMPDEST PUSH2 0x80E CALLER DUP4 DUP4 PUSH2 0x1701 JUMP JUMPDEST PUSH1 0x1C DUP1 SLOAD PUSH2 0x983 SWAP1 PUSH2 0x2B0A JUMP JUMPDEST PUSH1 0x1D DUP1 SLOAD PUSH2 0x983 SWAP1 PUSH2 0x2B0A JUMP JUMPDEST PUSH2 0x10FC DUP5 DUP5 DUP5 PUSH2 0x8EB JUMP JUMPDEST PUSH2 0x970 DUP5 DUP5 DUP5 DUP5 PUSH2 0x17A0 JUMP JUMPDEST PUSH1 0x60 PUSH2 0x1113 DUP3 PUSH2 0x11EA JUMP JUMPDEST POP PUSH1 0x0 PUSH2 0x112B PUSH1 0x40 DUP1 MLOAD PUSH1 0x20 DUP2 ADD SWAP1 SWAP2 MSTORE PUSH1 0x0 DUP2 MSTORE SWAP1 JUMP JUMPDEST SWAP1 POP PUSH1 0x0 DUP2 MLOAD GT PUSH2 0x114B JUMPI PUSH1 0x40 MLOAD DUP1 PUSH1 0x20 ADD PUSH1 0x40 MSTORE DUP1 PUSH1 0x0 DUP2 MSTORE POP PUSH2 0x1176 JUMP JUMPDEST DUP1 PUSH2 0x1155 DUP5 PUSH2 0x18C9 JUMP JUMPDEST PUSH1 0x40 MLOAD PUSH1 0x20 ADD PUSH2 0x1166 SWAP3 SWAP2 SWAP1 PUSH2 0x2E09 JUMP JUMPDEST PUSH1 0x40 MLOAD PUSH1 0x20 DUP2 DUP4 SUB SUB DUP2 MSTORE SWAP1 PUSH1 0x40 MSTORE JUMPDEST SWAP4 SWAP3 POP POP POP JUMP JUMPDEST PUSH1 0xA DUP2 DUP2 SLOAD DUP2 LT PUSH2 0x118D JUMPI PUSH1 0x0 DUP1 REVERT JUMPDEST SWAP1 PUSH1 0x0 MSTORE PUSH1 0x20 PUSH1 0x0 KECCAK256 ADD PUSH1 0x0 SWAP2 POP SWAP1 POP DUP1 SLOAD PUSH2 0x983 SWAP1 PUSH2 0x2B0A JUMP JUMPDEST PUSH1 0x1 PUSH1 0x1 PUSH1 0xA0 SHL SUB SWAP2 DUP3 AND PUSH1 0x0 SWAP1 DUP2 MSTORE PUSH1 0x5 PUSH1 0x20 SWAP1 DUP2 MSTORE PUSH1 0x40 DUP1 DUP4 KECCAK256 SWAP4 SWAP1 SWAP5 AND DUP3 MSTORE SWAP2 SWAP1 SWAP2 MSTORE KECCAK256 SLOAD PUSH1 0xFF AND SWAP1 JUMP JUMPDEST PUSH2 0x11DE PUSH2 0x163B JUMP JUMPDEST PUSH2 0x11E7 DUP2 PUSH2 0x195B JUMP JUMPDEST POP JUMP JUMPDEST PUSH1 0x0 DUP2 DUP2 MSTORE PUSH1 0x2 PUSH1 0x20 MSTORE PUSH1 0x40 DUP2 KECCAK256 SLOAD PUSH1 0x1 PUSH1 0x1 PUSH1 0xA0 SHL SUB AND DUP1 PUSH2 0x742 JUMPI PUSH1 0x40 MLOAD PUSH4 0x7E273289 PUSH1 0xE0 SHL DUP2 MSTORE PUSH1 0x4 DUP2 ADD DUP5 SWAP1 MSTORE PUSH1 0x24 ADD PUSH2 0x8D2 JUMP JUMPDEST PUSH2 0x8E6 DUP4 DUP4 DUP4 PUSH1 0x1 PUSH2 0x1A05 JUMP JUMPDEST PUSH1 0x0 DUP4 DUP2 MSTORE PUSH1 0xE PUSH1 0x20 MSTORE PUSH1 0x40 SWAP1 KECCAK256 PUSH1 0x1 SWAP1 DUP2 ADD SLOAD PUSH1 0x1 PUSH1 0xA0 SHL SWAP1 DIV PUSH1 0xFF AND ISZERO ISZERO EQ PUSH2 0x1292 JUMPI PUSH1 0x40 MLOAD PUSH3 0x461BCD PUSH1 0xE5 SHL DUP2 MSTORE PUSH1 0x20 PUSH1 0x4 DUP3 ADD MSTORE PUSH1 0x12 PUSH1 0x24 DUP3 ADD MSTORE PUSH18 0x125B9D985B1A59081C995C5D595CDD081A59 PUSH1 0x72 SHL PUSH1 0x44 DUP3 ADD MSTORE PUSH1 0x64 ADD PUSH2 0x8D2 JUMP JUMPDEST PUSH1 0x13 PUSH2 0x129E DUP3 DUP3 PUSH2 0x2D52 JUMP JUMPDEST POP PUSH1 0x12 PUSH2 0x12AB DUP4 DUP3 PUSH2 0x2D52 JUMP JUMPDEST POP PUSH1 0xB PUSH2 0x12B8 DUP4 DUP3 PUSH2 0x2D52 JUMP JUMPDEST POP PUSH1 0x0 DUP4 DUP2 MSTORE PUSH1 0xE PUSH1 0x20 SWAP1 DUP2 MSTORE PUSH1 0x40 DUP1 DUP4 KECCAK256 PUSH1 0x1 DUP2 ADD DUP1 SLOAD PUSH1 0xFF PUSH1 0xA0 SHL NOT AND SWAP1 SSTORE SLOAD DUP4 MSTORE PUSH1 0xC SWAP1 SWAP2 MSTORE SWAP1 KECCAK256 PUSH2 0x12EE PUSH1 0xB DUP3 PUSH2 0x2C60 JUMP JUMPDEST POP PUSH1 0x0 DUP4 DUP2 MSTORE PUSH1 0xE PUSH1 0x20 MSTORE PUSH1 0x40 SWAP1 KECCAK256 PUSH1 0x1 DUP2 ADD SLOAD SWAP1 SLOAD PUSH2 0x8E6 SWAP2 PUSH1 0x1 PUSH1 0x1 PUSH1 0xA0 SHL SUB AND SWAP1 PUSH2 0x1B0B JUMP JUMPDEST PUSH1 0x0 DUP4 DUP2 MSTORE PUSH1 0x16 PUSH1 0x20 MSTORE PUSH1 0x40 SWAP1 KECCAK256 PUSH2 0x1333 PUSH1 0x3 DUP3 ADD DUP5 DUP5 PUSH2 0x265D JUMP JUMPDEST POP DUP1 SLOAD PUSH1 0xFF NOT AND PUSH1 0x1 OR DUP2 SSTORE PUSH1 0xA SLOAD PUSH1 0x0 SWAP1 DUP5 DUP5 DUP4 DUP2 PUSH2 0x1355 JUMPI PUSH2 0x1355 PUSH2 0x2BFC JUMP JUMPDEST SWAP1 POP PUSH1 0x20 MUL ADD CALLDATALOAD PUSH2 0x1366 SWAP2 SWAP1 PUSH2 0x2E38 JUMP JUMPDEST SWAP1 POP PUSH1 0x0 PUSH1 0xA DUP3 DUP2 SLOAD DUP2 LT PUSH2 0x137D JUMPI PUSH2 0x137D PUSH2 0x2BFC JUMP JUMPDEST SWAP1 PUSH1 0x0 MSTORE PUSH1 0x20 PUSH1 0x0 KECCAK256 ADD DUP1 SLOAD PUSH2 0x1392 SWAP1 PUSH2 0x2B0A JUMP JUMPDEST DUP1 PUSH1 0x1F ADD PUSH1 0x20 DUP1 SWAP2 DIV MUL PUSH1 0x20 ADD PUSH1 0x40 MLOAD SWAP1 DUP2 ADD PUSH1 0x40 MSTORE DUP1 SWAP3 SWAP2 SWAP1 DUP2 DUP2 MSTORE PUSH1 0x20 ADD DUP3 DUP1 SLOAD PUSH2 0x13BE SWAP1 PUSH2 0x2B0A JUMP JUMPDEST DUP1 ISZERO PUSH2 0x140B JUMPI DUP1 PUSH1 0x1F LT PUSH2 0x13E0 JUMPI PUSH2 0x100 DUP1 DUP4 SLOAD DIV MUL DUP4 MSTORE SWAP2 PUSH1 0x20 ADD SWAP2 PUSH2 0x140B JUMP JUMPDEST DUP3 ADD SWAP2 SWAP1 PUSH1 0x0 MSTORE PUSH1 0x20 PUSH1 0x0 KECCAK256 SWAP1 JUMPDEST DUP2 SLOAD DUP2 MSTORE SWAP1 PUSH1 0x1 ADD SWAP1 PUSH1 0x20 ADD DUP1 DUP4 GT PUSH2 0x13EE JUMPI DUP3 SWAP1 SUB PUSH1 0x1F AND DUP3 ADD SWAP2 JUMPDEST POP POP POP POP POP SWAP1 POP PUSH2 0x1453 PUSH1 0x40 DUP1 MLOAD PUSH1 0xE0 DUP2 ADD SWAP1 SWAP2 MSTORE DUP1 PUSH1 0x0 DUP2 MSTORE PUSH1 0x20 ADD PUSH1 0x0 DUP2 MSTORE PUSH1 0x20 ADD PUSH1 0x0 DUP2 MSTORE PUSH1 0x20 ADD PUSH1 0x60 DUP2 MSTORE PUSH1 0x20 ADD PUSH1 0x60 DUP2 MSTORE PUSH1 0x20 ADD PUSH1 0x60 DUP2 MSTORE PUSH1 0x20 ADD PUSH1 0x60 DUP2 MSTORE POP SWAP1 JUMP JUMPDEST PUSH2 0x145D DUP2 DUP4 PUSH2 0x1B25 JUMP JUMPDEST PUSH2 0x148C PUSH2 0x1469 DUP3 PUSH2 0x1B32 JUMP JUMPDEST PUSH1 0xD SLOAD PUSH1 0x14 SLOAD PUSH1 0x10 SLOAD PUSH1 0x1 PUSH1 0x1 PUSH1 0x40 SHL SUB SWAP1 SWAP3 AND SWAP2 PUSH4 0xFFFFFFFF SWAP1 SWAP2 AND SWAP1 PUSH2 0x1E0A JUMP JUMPDEST PUSH1 0x11 DUP2 SWAP1 SSTORE PUSH1 0x40 DUP1 MLOAD PUSH1 0x60 DUP2 ADD DUP3 MSTORE PUSH1 0x1 DUP1 DUP9 ADD SLOAD DUP3 MSTORE PUSH1 0x2 DUP9 ADD SLOAD PUSH1 0x1 PUSH1 0x1 PUSH1 0xA0 SHL SUB SWAP1 DUP2 AND PUSH1 0x20 DUP1 DUP6 ADD SWAP2 DUP3 MSTORE DUP5 DUP7 ADD DUP5 DUP2 MSTORE PUSH1 0x0 SWAP8 DUP9 MSTORE PUSH1 0xE SWAP1 SWAP2 MSTORE SWAP6 DUP6 SWAP1 KECCAK256 SWAP4 MLOAD DUP5 SSTORE MLOAD SWAP3 SWAP1 SWAP2 ADD DUP1 SLOAD SWAP5 MLOAD ISZERO ISZERO PUSH1 0x1 PUSH1 0xA0 SHL MUL PUSH1 0x1 PUSH1 0x1 PUSH1 0xA8 SHL SUB NOT SWAP1 SWAP6 AND SWAP3 SWAP1 SWAP2 AND SWAP2 SWAP1 SWAP2 OR SWAP3 SWAP1 SWAP3 OR SWAP1 SWAP2 SSTORE MLOAD PUSH32 0xFE2E2D779DBA245964D4E3EF9B994BE63856FD568BF7D3CA9E224755CB1BD54D SWAP1 PUSH2 0x1531 SWAP1 DUP10 SWAP1 DUP10 SWAP1 DUP10 SWAP1 PUSH2 0x2E5A JUMP JUMPDEST PUSH1 0x40 MLOAD DUP1 SWAP2 SUB SWAP1 LOG1 POP POP POP POP POP POP POP JUMP JUMPDEST PUSH1 0x0 DUP3 DUP2 MSTORE PUSH1 0x2 PUSH1 0x20 MSTORE PUSH1 0x40 DUP2 KECCAK256 SLOAD PUSH1 0x1 PUSH1 0x1 PUSH1 0xA0 SHL SUB SWAP1 DUP2 AND SWAP1 DUP4 AND ISZERO PUSH2 0x156F JUMPI PUSH2 0x156F DUP2 DUP5 DUP7 PUSH2 0x1EDC JUMP JUMPDEST PUSH1 0x1 PUSH1 0x1 PUSH1 0xA0 SHL SUB DUP2 AND ISZERO PUSH2 0x15AD JUMPI PUSH2 0x158C PUSH1 0x0 DUP6 PUSH1 0x0 DUP1 PUSH2 0x1A05 JUMP JUMPDEST PUSH1 0x1 PUSH1 0x1 PUSH1 0xA0 SHL SUB DUP2 AND PUSH1 0x0 SWAP1 DUP2 MSTORE PUSH1 0x3 PUSH1 0x20 MSTORE PUSH1 0x40 SWAP1 KECCAK256 DUP1 SLOAD PUSH1 0x0 NOT ADD SWAP1 SSTORE JUMPDEST PUSH1 0x1 PUSH1 0x1 PUSH1 0xA0 SHL SUB DUP6 AND ISZERO PUSH2 0x15DC JUMPI PUSH1 0x1 PUSH1 0x1 PUSH1 0xA0 SHL SUB DUP6 AND PUSH1 0x0 SWAP1 DUP2 MSTORE PUSH1 0x3 PUSH1 0x20 MSTORE PUSH1 0x40 SWAP1 KECCAK256 DUP1 SLOAD PUSH1 0x1 ADD SWAP1 SSTORE JUMPDEST PUSH1 0x0 DUP5 DUP2 MSTORE PUSH1 0x2 PUSH1 0x20 MSTORE PUSH1 0x40 DUP1 DUP3 KECCAK256 DUP1 SLOAD PUSH1 0x1 PUSH1 0x1 PUSH1 0xA0 SHL SUB NOT AND PUSH1 0x1 PUSH1 0x1 PUSH1 0xA0 SHL SUB DUP10 DUP2 AND SWAP2 DUP3 OR SWAP1 SWAP3 SSTORE SWAP2 MLOAD DUP8 SWAP4 SWAP2 DUP6 AND SWAP2 PUSH32 0xDDF252AD1BE2C89B69C2B068FC378DAA952BA7F163C4A11628F55A4DF523B3EF SWAP2 LOG4 SWAP5 SWAP4 POP POP POP POP JUMP JUMPDEST PUSH1 0x6 SLOAD PUSH1 0x1 PUSH1 0x1 PUSH1 0xA0 SHL SUB AND CALLER EQ PUSH2 0x168E JUMPI PUSH1 0x40 MLOAD PUSH3 0x461BCD PUSH1 0xE5 SHL DUP2 MSTORE PUSH1 0x20 PUSH1 0x4 DUP3 ADD MSTORE PUSH1 0x16 PUSH1 0x24 DUP3 ADD MSTORE PUSH22 0x27B7363C9031B0B63630B1363290313C9037BBB732B9 PUSH1 0x51 SHL PUSH1 0x44 DUP3 ADD MSTORE PUSH1 0x64 ADD PUSH2 0x8D2 JUMP JUMPDEST JUMP JUMPDEST PUSH1 0x60 PUSH32 0x92FD13387C7FE7BEFBC38D303D6468778FB9731BC4583F17D92989C6FCFDEAAA DUP3 PUSH1 0x40 MLOAD PUSH1 0x24 ADD PUSH2 0x16C9 SWAP2 MLOAD ISZERO ISZERO DUP2 MSTORE PUSH1 0x20 ADD SWAP1 JUMP JUMPDEST PUSH1 0x40 DUP1 MLOAD PUSH1 0x1F NOT DUP2 DUP5 SUB ADD DUP2 MSTORE SWAP2 SWAP1 MSTORE PUSH1 0x20 DUP2 ADD DUP1 MLOAD PUSH1 0x1 PUSH1 0x1 PUSH1 0xE0 SHL SUB AND PUSH1 0x1 PUSH1 0x1 PUSH1 0xE0 SHL SUB NOT SWAP1 SWAP4 AND SWAP3 SWAP1 SWAP3 OR SWAP1 SWAP2 MSTORE SWAP3 SWAP2 POP POP JUMP JUMPDEST PUSH1 0x1 PUSH1 0x1 PUSH1 0xA0 SHL SUB DUP3 AND PUSH2 0x1733 JUMPI PUSH1 0x40 MLOAD PUSH4 0xB611743 PUSH1 0xE3 SHL DUP2 MSTORE PUSH1 0x1 PUSH1 0x1 PUSH1 0xA0 SHL SUB DUP4 AND PUSH1 0x4 DUP3 ADD MSTORE PUSH1 0x24 ADD PUSH2 0x8D2 JUMP JUMPDEST PUSH1 0x1 PUSH1 0x1 PUSH1 0xA0 SHL SUB DUP4 DUP2 AND PUSH1 0x0 DUP2 DUP2 MSTORE PUSH1 0x5 PUSH1 0x20 SWAP1 DUP2 MSTORE PUSH1 0x40 DUP1 DUP4 KECCAK256 SWAP5 DUP8 AND DUP1 DUP5 MSTORE SWAP5 DUP3 MSTORE SWAP2 DUP3 SWAP1 KECCAK256 DUP1 SLOAD PUSH1 0xFF NOT AND DUP7 ISZERO ISZERO SWAP1 DUP2 OR SWAP1 SWAP2 SSTORE SWAP2 MLOAD SWAP2 DUP3 MSTORE PUSH32 0x17307EAB39AB6107E8899845AD3D59BD9653F200F220920489CA2B5937696C31 SWAP2 ADD PUSH1 0x40 MLOAD DUP1 SWAP2 SUB SWAP1 LOG3 POP POP POP JUMP JUMPDEST PUSH1 0x1 PUSH1 0x1 PUSH1 0xA0 SHL SUB DUP4 AND EXTCODESIZE ISZERO PUSH2 0x970 JUMPI PUSH1 0x40 MLOAD PUSH4 0xA85BD01 PUSH1 0xE1 SHL DUP2 MSTORE PUSH1 0x1 PUSH1 0x1 PUSH1 0xA0 SHL SUB DUP5 AND SWAP1 PUSH4 0x150B7A02 SWAP1 PUSH2 0x17E2 SWAP1 CALLER SWAP1 DUP9 SWAP1 DUP8 SWAP1 DUP8 SWAP1 PUSH1 0x4 ADD PUSH2 0x2E9B JUMP JUMPDEST PUSH1 0x20 PUSH1 0x40 MLOAD DUP1 DUP4 SUB DUP2 PUSH1 0x0 DUP8 GAS CALL SWAP3 POP POP POP DUP1 ISZERO PUSH2 0x181D JUMPI POP PUSH1 0x40 DUP1 MLOAD PUSH1 0x1F RETURNDATASIZE SWAP1 DUP2 ADD PUSH1 0x1F NOT AND DUP3 ADD SWAP1 SWAP3 MSTORE PUSH2 0x181A SWAP2 DUP2 ADD SWAP1 PUSH2 0x2ED8 JUMP JUMPDEST PUSH1 0x1 JUMPDEST PUSH2 0x1886 JUMPI RETURNDATASIZE DUP1 DUP1 ISZERO PUSH2 0x184B JUMPI PUSH1 0x40 MLOAD SWAP2 POP PUSH1 0x1F NOT PUSH1 0x3F RETURNDATASIZE ADD AND DUP3 ADD PUSH1 0x40 MSTORE RETURNDATASIZE DUP3 MSTORE RETURNDATASIZE PUSH1 0x0 PUSH1 0x20 DUP5 ADD RETURNDATACOPY PUSH2 0x1850 JUMP JUMPDEST PUSH1 0x60 SWAP2 POP JUMPDEST POP DUP1 MLOAD PUSH1 0x0 SUB PUSH2 0x187E JUMPI PUSH1 0x40 MLOAD PUSH4 0x32505749 PUSH1 0xE1 SHL DUP2 MSTORE PUSH1 0x1 PUSH1 0x1 PUSH1 0xA0 SHL SUB DUP6 AND PUSH1 0x4 DUP3 ADD MSTORE PUSH1 0x24 ADD PUSH2 0x8D2 JUMP JUMPDEST DUP1 MLOAD DUP2 PUSH1 0x20 ADD REVERT JUMPDEST PUSH1 0x1 PUSH1 0x1 PUSH1 0xE0 SHL SUB NOT DUP2 AND PUSH4 0xA85BD01 PUSH1 0xE1 SHL EQ PUSH2 0x18C2 JUMPI PUSH1 0x40 MLOAD PUSH4 0x32505749 PUSH1 0xE1 SHL DUP2 MSTORE PUSH1 0x1 PUSH1 0x1 PUSH1 0xA0 SHL SUB DUP6 AND PUSH1 0x4 DUP3 ADD MSTORE PUSH1 0x24 ADD PUSH2 0x8D2 JUMP JUMPDEST POP POP POP POP POP JUMP JUMPDEST PUSH1 0x60 PUSH1 0x0 PUSH2 0x18D6 DUP4 PUSH2 0x1F40 JUMP JUMPDEST PUSH1 0x1 ADD SWAP1 POP PUSH1 0x0 DUP2 PUSH1 0x1 PUSH1 0x1 PUSH1 0x40 SHL SUB DUP2 GT ISZERO PUSH2 0x18F5 JUMPI PUSH2 0x18F5 PUSH2 0x27D7 JUMP JUMPDEST PUSH1 0x40 MLOAD SWAP1 DUP1 DUP3 MSTORE DUP1 PUSH1 0x1F ADD PUSH1 0x1F NOT AND PUSH1 0x20 ADD DUP3 ADD PUSH1 0x40 MSTORE DUP1 ISZERO PUSH2 0x191F JUMPI PUSH1 0x20 DUP3 ADD DUP2 DUP1 CALLDATASIZE DUP4 CALLDATACOPY ADD SWAP1 POP JUMPDEST POP SWAP1 POP DUP2 DUP2 ADD PUSH1 0x20 ADD JUMPDEST PUSH1 0x0 NOT ADD PUSH16 0x181899199A1A9B1B9C1CB0B131B232B3 PUSH1 0x81 SHL PUSH1 0xA DUP7 MOD BYTE DUP2 MSTORE8 PUSH1 0xA DUP6 DIV SWAP5 POP DUP5 PUSH2 0x1929 JUMPI POP SWAP4 SWAP3 POP POP POP JUMP JUMPDEST CALLER PUSH1 0x1 PUSH1 0x1 PUSH1 0xA0 SHL SUB DUP3 AND SUB PUSH2 0x19B3 JUMPI PUSH1 0x40 MLOAD PUSH3 0x461BCD PUSH1 0xE5 SHL DUP2 MSTORE PUSH1 0x20 PUSH1 0x4 DUP3 ADD MSTORE PUSH1 0x17 PUSH1 0x24 DUP3 ADD MSTORE PUSH32 0x43616E6E6F74207472616E7366657220746F2073656C66000000000000000000 PUSH1 0x44 DUP3 ADD MSTORE PUSH1 0x64 ADD PUSH2 0x8D2 JUMP JUMPDEST PUSH1 0x7 DUP1 SLOAD PUSH1 0x1 PUSH1 0x1 PUSH1 0xA0 SHL SUB NOT AND PUSH1 0x1 PUSH1 0x1 PUSH1 0xA0 SHL SUB DUP4 DUP2 AND SWAP2 DUP3 OR SWAP1 SWAP3 SSTORE PUSH1 0x6 SLOAD PUSH1 0x40 MLOAD SWAP2 SWAP3 AND SWAP1 PUSH32 0xED8889F560326EB138920D842192F0EB3DD22B4F139C87A2C57538E05BAE1278 SWAP1 PUSH1 0x0 SWAP1 LOG3 POP JUMP JUMPDEST DUP1 DUP1 PUSH2 0x1A19 JUMPI POP PUSH1 0x1 PUSH1 0x1 PUSH1 0xA0 SHL SUB DUP3 AND ISZERO ISZERO JUMPDEST ISZERO PUSH2 0x1ADB JUMPI PUSH1 0x0 PUSH2 0x1A29 DUP5 PUSH2 0x11EA JUMP JUMPDEST SWAP1 POP PUSH1 0x1 PUSH1 0x1 PUSH1 0xA0 SHL SUB DUP4 AND ISZERO DUP1 ISZERO SWAP1 PUSH2 0x1A55 JUMPI POP DUP3 PUSH1 0x1 PUSH1 0x1 PUSH1 0xA0 SHL SUB AND DUP2 PUSH1 0x1 PUSH1 0x1 PUSH1 0xA0 SHL SUB AND EQ ISZERO JUMPDEST DUP1 ISZERO PUSH2 0x1A68 JUMPI POP PUSH2 0x1A66 DUP2 DUP5 PUSH2 0x11A8 JUMP JUMPDEST ISZERO JUMPDEST ISZERO PUSH2 0x1A91 JUMPI PUSH1 0x40 MLOAD PUSH4 0xA9FBF51F PUSH1 0xE0 SHL DUP2 MSTORE PUSH1 0x1 PUSH1 0x1 PUSH1 0xA0 SHL SUB DUP5 AND PUSH1 0x4 DUP3 ADD MSTORE PUSH1 0x24 ADD PUSH2 0x8D2 JUMP JUMPDEST DUP2 ISZERO PUSH2 0x1AD9 JUMPI DUP4 DUP6 PUSH1 0x1 PUSH1 0x1 PUSH1 0xA0 SHL SUB AND DUP3 PUSH1 0x1 PUSH1 0x1 PUSH1 0xA0 SHL SUB AND PUSH32 0x8C5BE1E5EBEC7D5BD14F71427D1E84F3DD0314C0F7B2291E5B200AC8C7C3B925 PUSH1 0x40 MLOAD PUSH1 0x40 MLOAD DUP1 SWAP2 SUB SWAP1 LOG4 JUMPDEST POP JUMPDEST POP POP PUSH1 0x0 SWAP1 DUP2 MSTORE PUSH1 0x4 PUSH1 0x20 MSTORE PUSH1 0x40 SWAP1 KECCAK256 DUP1 SLOAD PUSH1 0x1 PUSH1 0x1 PUSH1 0xA0 SHL SUB NOT AND PUSH1 0x1 PUSH1 0x1 PUSH1 0xA0 SHL SUB SWAP3 SWAP1 SWAP3 AND SWAP2 SWAP1 SWAP2 OR SWAP1 SSTORE JUMP JUMPDEST PUSH2 0x80E DUP3 DUP3 PUSH1 0x40 MLOAD DUP1 PUSH1 0x20 ADD PUSH1 0x40 MSTORE DUP1 PUSH1 0x0 DUP2 MSTORE POP PUSH2 0x2018 JUMP JUMPDEST PUSH2 0x80E DUP3 PUSH1 0x0 DUP1 DUP5 PUSH2 0x202F JUMP JUMPDEST PUSH1 0x60 PUSH1 0x0 PUSH2 0x1B41 PUSH2 0x100 PUSH2 0x20AD JUMP JUMPDEST SWAP1 POP PUSH2 0x1B7A PUSH1 0x40 MLOAD DUP1 PUSH1 0x40 ADD PUSH1 0x40 MSTORE DUP1 PUSH1 0xC DUP2 MSTORE PUSH1 0x20 ADD PUSH12 0x31B7B232A637B1B0BA34B7B7 PUSH1 0xA1 SHL DUP2 MSTORE POP DUP3 PUSH2 0x20CE SWAP1 SWAP2 SWAP1 PUSH4 0xFFFFFFFF AND JUMP JUMPDEST DUP3 MLOAD PUSH2 0x1B98 SWAP1 PUSH1 0x2 DUP2 GT ISZERO PUSH2 0x1B91 JUMPI PUSH2 0x1B91 PUSH2 0x2EF5 JUMP JUMPDEST DUP3 SWAP1 PUSH2 0x20E7 JUMP JUMPDEST PUSH1 0x40 DUP1 MLOAD DUP1 DUP3 ADD SWAP1 SWAP2 MSTORE PUSH1 0x8 DUP2 MSTORE PUSH8 0x6C616E6775616765 PUSH1 0xC0 SHL PUSH1 0x20 DUP3 ADD MSTORE PUSH2 0x1BC2 SWAP1 DUP3 SWAP1 PUSH2 0x20CE JUMP JUMPDEST PUSH1 0x40 DUP4 ADD MLOAD PUSH2 0x1BD9 SWAP1 DUP1 ISZERO PUSH2 0x1B91 JUMPI PUSH2 0x1B91 PUSH2 0x2EF5 JUMP JUMPDEST PUSH1 0x40 DUP1 MLOAD DUP1 DUP3 ADD SWAP1 SWAP2 MSTORE PUSH1 0x6 DUP2 MSTORE PUSH6 0x736F75726365 PUSH1 0xD0 SHL PUSH1 0x20 DUP3 ADD MSTORE PUSH2 0x1C01 SWAP1 DUP3 SWAP1 PUSH2 0x20CE JUMP JUMPDEST PUSH1 0x60 DUP4 ADD MLOAD PUSH2 0x1C11 SWAP1 DUP3 SWAP1 PUSH2 0x20CE JUMP JUMPDEST PUSH1 0xA0 DUP4 ADD MLOAD MLOAD ISZERO PUSH2 0x1CA5 JUMPI PUSH1 0x40 DUP1 MLOAD DUP1 DUP3 ADD SWAP1 SWAP2 MSTORE PUSH1 0x4 DUP2 MSTORE PUSH4 0x61726773 PUSH1 0xE0 SHL PUSH1 0x20 DUP3 ADD MSTORE PUSH2 0x1C42 SWAP1 DUP3 SWAP1 PUSH2 0x20CE JUMP JUMPDEST PUSH2 0x1C4B DUP2 PUSH2 0x2120 JUMP JUMPDEST PUSH1 0x0 JUMPDEST DUP4 PUSH1 0xA0 ADD MLOAD MLOAD DUP2 LT ISZERO PUSH2 0x1C9B JUMPI PUSH2 0x1C8B DUP5 PUSH1 0xA0 ADD MLOAD DUP3 DUP2 MLOAD DUP2 LT PUSH2 0x1C74 JUMPI PUSH2 0x1C74 PUSH2 0x2BFC JUMP JUMPDEST PUSH1 0x20 MUL PUSH1 0x20 ADD ADD MLOAD DUP4 PUSH2 0x20CE SWAP1 SWAP2 SWAP1 PUSH4 0xFFFFFFFF AND JUMP JUMPDEST PUSH2 0x1C94 DUP2 PUSH2 0x2B5A JUMP JUMPDEST SWAP1 POP PUSH2 0x1C4E JUMP JUMPDEST POP PUSH2 0x1CA5 DUP2 PUSH2 0x2144 JUMP JUMPDEST PUSH1 0x80 DUP4 ADD MLOAD MLOAD ISZERO PUSH2 0x1D69 JUMPI PUSH1 0x0 DUP4 PUSH1 0x20 ADD MLOAD PUSH1 0x2 DUP2 GT ISZERO PUSH2 0x1CC8 JUMPI PUSH2 0x1CC8 PUSH2 0x2EF5 JUMP JUMPDEST SUB PUSH2 0x1CE6 JUMPI PUSH1 0x40 MLOAD PUSH4 0xA80D31F7 PUSH1 0xE0 SHL DUP2 MSTORE PUSH1 0x4 ADD PUSH1 0x40 MLOAD DUP1 SWAP2 SUB SWAP1 REVERT JUMPDEST PUSH1 0x40 DUP1 MLOAD DUP1 DUP3 ADD SWAP1 SWAP2 MSTORE PUSH1 0xF DUP2 MSTORE PUSH15 0x39B2B1B932BA39A637B1B0BA34B7B7 PUSH1 0x89 SHL PUSH1 0x20 DUP3 ADD MSTORE PUSH2 0x1D17 SWAP1 DUP3 SWAP1 PUSH2 0x20CE JUMP JUMPDEST PUSH2 0x1D30 DUP4 PUSH1 0x20 ADD MLOAD PUSH1 0x2 DUP2 GT ISZERO PUSH2 0x1B91 JUMPI PUSH2 0x1B91 PUSH2 0x2EF5 JUMP JUMPDEST PUSH1 0x40 DUP1 MLOAD DUP1 DUP3 ADD SWAP1 SWAP2 MSTORE PUSH1 0x7 DUP2 MSTORE PUSH7 0x73656372657473 PUSH1 0xC8 SHL PUSH1 0x20 DUP3 ADD MSTORE PUSH2 0x1D59 SWAP1 DUP3 SWAP1 PUSH2 0x20CE JUMP JUMPDEST PUSH1 0x80 DUP4 ADD MLOAD PUSH2 0x1D69 SWAP1 DUP3 SWAP1 PUSH2 0x2162 JUMP JUMPDEST PUSH1 0xC0 DUP4 ADD MLOAD MLOAD ISZERO PUSH2 0x1E02 JUMPI PUSH1 0x40 DUP1 MLOAD DUP1 DUP3 ADD SWAP1 SWAP2 MSTORE PUSH1 0x9 DUP2 MSTORE PUSH9 0x627974657341726773 PUSH1 0xB8 SHL PUSH1 0x20 DUP3 ADD MSTORE PUSH2 0x1D9F SWAP1 DUP3 SWAP1 PUSH2 0x20CE JUMP JUMPDEST PUSH2 0x1DA8 DUP2 PUSH2 0x2120 JUMP JUMPDEST PUSH1 0x0 JUMPDEST DUP4 PUSH1 0xC0 ADD MLOAD MLOAD DUP2 LT ISZERO PUSH2 0x1DF8 JUMPI PUSH2 0x1DE8 DUP5 PUSH1 0xC0 ADD MLOAD DUP3 DUP2 MLOAD DUP2 LT PUSH2 0x1DD1 JUMPI PUSH2 0x1DD1 PUSH2 0x2BFC JUMP JUMPDEST PUSH1 0x20 MUL PUSH1 0x20 ADD ADD MLOAD DUP4 PUSH2 0x2162 SWAP1 SWAP2 SWAP1 PUSH4 0xFFFFFFFF AND JUMP JUMPDEST PUSH2 0x1DF1 DUP2 PUSH2 0x2B5A JUMP JUMPDEST SWAP1 POP PUSH2 0x1DAB JUMP JUMPDEST POP PUSH2 0x1E02 DUP2 PUSH2 0x2144 JUMP JUMPDEST MLOAD MLOAD SWAP3 SWAP2 POP POP JUMP JUMPDEST PUSH1 0x0 DUP1 PUSH32 0x0 PUSH1 0x1 PUSH1 0x1 PUSH1 0xA0 SHL SUB AND PUSH4 0x461D2762 DUP7 DUP9 PUSH1 0x1 DUP9 DUP9 PUSH1 0x40 MLOAD DUP7 PUSH4 0xFFFFFFFF AND PUSH1 0xE0 SHL DUP2 MSTORE PUSH1 0x4 ADD PUSH2 0x1E62 SWAP6 SWAP5 SWAP4 SWAP3 SWAP2 SWAP1 PUSH2 0x2F0B JUMP JUMPDEST PUSH1 0x20 PUSH1 0x40 MLOAD DUP1 DUP4 SUB DUP2 PUSH1 0x0 DUP8 GAS CALL ISZERO DUP1 ISZERO PUSH2 0x1E81 JUMPI RETURNDATASIZE PUSH1 0x0 DUP1 RETURNDATACOPY RETURNDATASIZE PUSH1 0x0 REVERT JUMPDEST POP POP POP POP PUSH1 0x40 MLOAD RETURNDATASIZE PUSH1 0x1F NOT PUSH1 0x1F DUP3 ADD AND DUP3 ADD DUP1 PUSH1 0x40 MSTORE POP DUP2 ADD SWAP1 PUSH2 0x1EA5 SWAP2 SWAP1 PUSH2 0x2BD0 JUMP JUMPDEST PUSH1 0x40 MLOAD SWAP1 SWAP2 POP DUP2 SWAP1 PUSH32 0x1131472297A800FEE664D1D89CFA8F7676FF07189ECC53F80BBB5F4969099DB8 SWAP1 PUSH1 0x0 SWAP1 LOG2 SWAP6 SWAP5 POP POP POP POP POP JUMP JUMPDEST PUSH2 0x1EE7 DUP4 DUP4 DUP4 PUSH2 0x216F JUMP JUMPDEST PUSH2 0x8E6 JUMPI PUSH1 0x1 PUSH1 0x1 PUSH1 0xA0 SHL SUB DUP4 AND PUSH2 0x1F15 JUMPI PUSH1 0x40 MLOAD PUSH4 0x7E273289 PUSH1 0xE0 SHL DUP2 MSTORE PUSH1 0x4 DUP2 ADD DUP3 SWAP1 MSTORE PUSH1 0x24 ADD PUSH2 0x8D2 JUMP JUMPDEST PUSH1 0x40 MLOAD PUSH4 0x177E802F PUSH1 0xE0 SHL DUP2 MSTORE PUSH1 0x1 PUSH1 0x1 PUSH1 0xA0 SHL SUB DUP4 AND PUSH1 0x4 DUP3 ADD MSTORE PUSH1 0x24 DUP2 ADD DUP3 SWAP1 MSTORE PUSH1 0x44 ADD PUSH2 0x8D2 JUMP JUMPDEST PUSH1 0x0 DUP1 PUSH19 0x184F03E93FF9F4DAA797ED6E38ED64BF6A1F01 PUSH1 0x40 SHL DUP4 LT PUSH2 0x1F7F JUMPI PUSH19 0x184F03E93FF9F4DAA797ED6E38ED64BF6A1F01 PUSH1 0x40 SHL DUP4 DIV SWAP3 POP PUSH1 0x40 ADD JUMPDEST PUSH14 0x4EE2D6D415B85ACEF8100000000 DUP4 LT PUSH2 0x1FAB JUMPI PUSH14 0x4EE2D6D415B85ACEF8100000000 DUP4 DIV SWAP3 POP PUSH1 0x20 ADD JUMPDEST PUSH7 0x2386F26FC10000 DUP4 LT PUSH2 0x1FC9 JUMPI PUSH7 0x2386F26FC10000 DUP4 DIV SWAP3 POP PUSH1 0x10 ADD JUMPDEST PUSH4 0x5F5E100 DUP4 LT PUSH2 0x1FE1 JUMPI PUSH4 0x5F5E100 DUP4 DIV SWAP3 POP PUSH1 0x8 ADD JUMPDEST PUSH2 0x2710 DUP4 LT PUSH2 0x1FF5 JUMPI PUSH2 0x2710 DUP4 DIV SWAP3 POP PUSH1 0x4 ADD JUMPDEST PUSH1 0x64 DUP4 LT PUSH2 0x2007 JUMPI PUSH1 0x64 DUP4 DIV SWAP3 POP PUSH1 0x2 ADD JUMPDEST PUSH1 0xA DUP4 LT PUSH2 0x742 JUMPI PUSH1 0x1 ADD SWAP3 SWAP2 POP POP JUMP JUMPDEST PUSH2 0x2022 DUP4 DUP4 PUSH2 0x21D5 JUMP JUMPDEST PUSH2 0x8E6 PUSH1 0x0 DUP5 DUP5 DUP5 PUSH2 0x17A0 JUMP JUMPDEST DUP1 MLOAD PUSH1 0x0 SUB PUSH2 0x2051 JUMPI PUSH1 0x40 MLOAD PUSH4 0x22CE3EDD PUSH1 0xE0 SHL DUP2 MSTORE PUSH1 0x4 ADD PUSH1 0x40 MLOAD DUP1 SWAP2 SUB SWAP1 REVERT JUMPDEST DUP4 DUP4 PUSH1 0x2 DUP2 GT ISZERO PUSH2 0x2064 JUMPI PUSH2 0x2064 PUSH2 0x2EF5 JUMP JUMPDEST SWAP1 DUP2 PUSH1 0x2 DUP2 GT ISZERO PUSH2 0x2077 JUMPI PUSH2 0x2077 PUSH2 0x2EF5 JUMP JUMPDEST SWAP1 MSTORE POP PUSH1 0x40 DUP5 ADD DUP3 DUP1 ISZERO PUSH2 0x208D JUMPI PUSH2 0x208D PUSH2 0x2EF5 JUMP JUMPDEST SWAP1 DUP2 DUP1 ISZERO PUSH2 0x209D JUMPI PUSH2 0x209D PUSH2 0x2EF5 JUMP JUMPDEST SWAP1 MSTORE POP PUSH1 0x60 SWAP1 SWAP4 ADD SWAP3 SWAP1 SWAP3 MSTORE POP POP JUMP JUMPDEST PUSH2 0x20B5 PUSH2 0x2698 JUMP JUMPDEST DUP1 MLOAD PUSH2 0x20C1 SWAP1 DUP4 PUSH2 0x223A JUMP JUMPDEST POP PUSH1 0x0 PUSH1 0x20 DUP3 ADD MSTORE SWAP2 SWAP1 POP JUMP JUMPDEST PUSH2 0x20DB DUP3 PUSH1 0x3 DUP4 MLOAD PUSH2 0x22B1 JUMP JUMPDEST DUP2 MLOAD PUSH2 0x8E6 SWAP1 DUP3 PUSH2 0x23CA JUMP JUMPDEST DUP2 MLOAD PUSH2 0x20F4 SWAP1 PUSH1 0xC2 PUSH2 0x23EB JUMP JUMPDEST POP PUSH2 0x80E DUP3 DUP3 PUSH1 0x40 MLOAD PUSH1 0x20 ADD PUSH2 0x210C SWAP2 DUP2 MSTORE PUSH1 0x20 ADD SWAP1 JUMP JUMPDEST PUSH1 0x40 MLOAD PUSH1 0x20 DUP2 DUP4 SUB SUB DUP2 MSTORE SWAP1 PUSH1 0x40 MSTORE PUSH2 0x2162 JUMP JUMPDEST PUSH2 0x212B DUP2 PUSH1 0x4 PUSH2 0x2454 JUMP JUMPDEST PUSH1 0x1 DUP2 PUSH1 0x20 ADD DUP2 DUP2 MLOAD PUSH2 0x213E SWAP2 SWAP1 PUSH2 0x2F54 JUMP JUMPDEST SWAP1 MSTORE POP POP JUMP JUMPDEST PUSH2 0x214F DUP2 PUSH1 0x7 PUSH2 0x2454 JUMP JUMPDEST PUSH1 0x1 DUP2 PUSH1 0x20 ADD DUP2 DUP2 MLOAD PUSH2 0x213E SWAP2 SWAP1 PUSH2 0x2BE9 JUMP JUMPDEST PUSH2 0x20DB DUP3 PUSH1 0x2 DUP4 MLOAD PUSH2 0x22B1 JUMP JUMPDEST PUSH1 0x0 PUSH1 0x1 PUSH1 0x1 PUSH1 0xA0 SHL SUB DUP4 AND ISZERO DUP1 ISZERO SWAP1 PUSH2 0x21CD JUMPI POP DUP3 PUSH1 0x1 PUSH1 0x1 PUSH1 0xA0 SHL SUB AND DUP5 PUSH1 0x1 PUSH1 0x1 PUSH1 0xA0 SHL SUB AND EQ DUP1 PUSH2 0x21A9 JUMPI POP PUSH2 0x21A9 DUP5 DUP5 PUSH2 0x11A8 JUMP JUMPDEST DUP1 PUSH2 0x21CD JUMPI POP PUSH1 0x0 DUP3 DUP2 MSTORE PUSH1 0x4 PUSH1 0x20 MSTORE PUSH1 0x40 SWAP1 KECCAK256 SLOAD PUSH1 0x1 PUSH1 0x1 PUSH1 0xA0 SHL SUB DUP5 DUP2 AND SWAP2 AND EQ JUMPDEST SWAP5 SWAP4 POP POP POP POP JUMP JUMPDEST PUSH1 0x1 PUSH1 0x1 PUSH1 0xA0 SHL SUB DUP3 AND PUSH2 0x21FF JUMPI PUSH1 0x40 MLOAD PUSH4 0x32505749 PUSH1 0xE1 SHL DUP2 MSTORE PUSH1 0x0 PUSH1 0x4 DUP3 ADD MSTORE PUSH1 0x24 ADD PUSH2 0x8D2 JUMP JUMPDEST PUSH1 0x0 PUSH2 0x220D DUP4 DUP4 PUSH1 0x0 PUSH2 0x1542 JUMP JUMPDEST SWAP1 POP PUSH1 0x1 PUSH1 0x1 PUSH1 0xA0 SHL SUB DUP2 AND ISZERO PUSH2 0x8E6 JUMPI PUSH1 0x40 MLOAD PUSH4 0x39E35637 PUSH1 0xE1 SHL DUP2 MSTORE PUSH1 0x0 PUSH1 0x4 DUP3 ADD MSTORE PUSH1 0x24 ADD PUSH2 0x8D2 JUMP JUMPDEST PUSH1 0x40 DUP1 MLOAD DUP1 DUP3 ADD SWAP1 SWAP2 MSTORE PUSH1 0x60 DUP2 MSTORE PUSH1 0x0 PUSH1 0x20 DUP3 ADD MSTORE PUSH2 0x225A PUSH1 0x20 DUP4 PUSH2 0x2E38 JUMP JUMPDEST ISZERO PUSH2 0x2282 JUMPI PUSH2 0x226A PUSH1 0x20 DUP4 PUSH2 0x2E38 JUMP JUMPDEST PUSH2 0x2275 SWAP1 PUSH1 0x20 PUSH2 0x2BE9 JUMP JUMPDEST PUSH2 0x227F SWAP1 DUP4 PUSH2 0x2F54 JUMP JUMPDEST SWAP2 POP JUMPDEST PUSH1 0x20 DUP1 DUP5 ADD DUP4 SWAP1 MSTORE PUSH1 0x40 MLOAD DUP1 DUP6 MSTORE PUSH1 0x0 DUP2 MSTORE SWAP1 DUP2 DUP5 ADD ADD DUP2 DUP2 LT ISZERO PUSH2 0x22A6 JUMPI PUSH1 0x0 DUP1 REVERT JUMPDEST PUSH1 0x40 MSTORE POP SWAP2 SWAP3 SWAP2 POP POP JUMP JUMPDEST PUSH1 0x17 DUP2 PUSH1 0x1 PUSH1 0x1 PUSH1 0x40 SHL SUB AND GT PUSH2 0x22D7 JUMPI DUP3 MLOAD PUSH2 0x970 SWAP1 PUSH1 0xE0 PUSH1 0x5 DUP6 SWAP1 SHL AND DUP4 OR PUSH2 0x23EB JUMP JUMPDEST PUSH1 0xFF DUP2 PUSH1 0x1 PUSH1 0x1 PUSH1 0x40 SHL SUB AND GT PUSH2 0x2317 JUMPI DUP3 MLOAD PUSH2 0x22FF SWAP1 PUSH1 0x18 PUSH2 0x1FE0 PUSH1 0x5 DUP7 SWAP1 SHL AND OR PUSH2 0x23EB JUMP JUMPDEST POP DUP3 MLOAD PUSH2 0x970 SWAP1 PUSH1 0x1 PUSH1 0x1 PUSH1 0x40 SHL SUB DUP4 AND PUSH1 0x1 PUSH2 0x246B JUMP JUMPDEST PUSH2 0xFFFF DUP2 PUSH1 0x1 PUSH1 0x1 PUSH1 0x40 SHL SUB AND GT PUSH2 0x2358 JUMPI DUP3 MLOAD PUSH2 0x2340 SWAP1 PUSH1 0x19 PUSH2 0x1FE0 PUSH1 0x5 DUP7 SWAP1 SHL AND OR PUSH2 0x23EB JUMP JUMPDEST POP DUP3 MLOAD PUSH2 0x970 SWAP1 PUSH1 0x1 PUSH1 0x1 PUSH1 0x40 SHL SUB DUP4 AND PUSH1 0x2 PUSH2 0x246B JUMP JUMPDEST PUSH4 0xFFFFFFFF DUP2 PUSH1 0x1 PUSH1 0x1 PUSH1 0x40 SHL SUB AND GT PUSH2 0x239B JUMPI DUP3 MLOAD PUSH2 0x2383 SWAP1 PUSH1 0x1A PUSH2 0x1FE0 PUSH1 0x5 DUP7 SWAP1 SHL AND OR PUSH2 0x23EB JUMP JUMPDEST POP DUP3 MLOAD PUSH2 0x970 SWAP1 PUSH1 0x1 PUSH1 0x1 PUSH1 0x40 SHL SUB DUP4 AND PUSH1 0x4 PUSH2 0x246B JUMP JUMPDEST DUP3 MLOAD PUSH2 0x23B2 SWAP1 PUSH1 0x1B PUSH2 0x1FE0 PUSH1 0x5 DUP7 SWAP1 SHL AND OR PUSH2 0x23EB JUMP JUMPDEST POP DUP3 MLOAD PUSH2 0x970 SWAP1 PUSH1 0x1 PUSH1 0x1 PUSH1 0x40 SHL SUB DUP4 AND PUSH1 0x8 PUSH2 0x246B JUMP JUMPDEST PUSH1 0x40 DUP1 MLOAD DUP1 DUP3 ADD SWAP1 SWAP2 MSTORE PUSH1 0x60 DUP2 MSTORE PUSH1 0x0 PUSH1 0x20 DUP3 ADD MSTORE PUSH2 0x1176 DUP4 DUP4 DUP5 MLOAD PUSH2 0x24F0 JUMP JUMPDEST PUSH1 0x40 DUP1 MLOAD DUP1 DUP3 ADD SWAP1 SWAP2 MSTORE PUSH1 0x60 DUP2 MSTORE PUSH1 0x0 PUSH1 0x20 DUP3 ADD MSTORE DUP3 MLOAD MLOAD PUSH1 0x0 PUSH2 0x2410 DUP3 PUSH1 0x1 PUSH2 0x2F54 JUMP JUMPDEST SWAP1 POP DUP5 PUSH1 0x20 ADD MLOAD DUP3 LT PUSH2 0x2431 JUMPI PUSH2 0x2431 DUP6 PUSH2 0x242C DUP4 PUSH1 0x2 PUSH2 0x2F67 JUMP JUMPDEST PUSH2 0x25C1 JUMP JUMPDEST DUP5 MLOAD PUSH1 0x20 DUP4 DUP3 ADD ADD DUP6 DUP2 MSTORE8 POP DUP1 MLOAD DUP3 GT ISZERO PUSH2 0x244A JUMPI DUP2 DUP2 MSTORE JUMPDEST POP SWAP4 SWAP5 SWAP4 POP POP POP POP JUMP JUMPDEST DUP2 MLOAD PUSH2 0x8E6 SWAP1 PUSH1 0x1F PUSH2 0x1FE0 PUSH1 0x5 DUP6 SWAP1 SHL AND OR PUSH2 0x23EB JUMP JUMPDEST PUSH1 0x40 DUP1 MLOAD DUP1 DUP3 ADD SWAP1 SWAP2 MSTORE PUSH1 0x60 DUP2 MSTORE PUSH1 0x0 PUSH1 0x20 DUP3 ADD MSTORE DUP4 MLOAD MLOAD PUSH1 0x0 PUSH2 0x248F DUP3 DUP6 PUSH2 0x2F54 JUMP JUMPDEST SWAP1 POP DUP6 PUSH1 0x20 ADD MLOAD DUP2 GT ISZERO PUSH2 0x24AC JUMPI PUSH2 0x24AC DUP7 PUSH2 0x242C DUP4 PUSH1 0x2 PUSH2 0x2F67 JUMP JUMPDEST PUSH1 0x0 PUSH1 0x1 PUSH2 0x24BC DUP7 PUSH2 0x100 PUSH2 0x3062 JUMP JUMPDEST PUSH2 0x24C6 SWAP2 SWAP1 PUSH2 0x2BE9 JUMP JUMPDEST SWAP1 POP DUP7 MLOAD DUP3 DUP2 ADD DUP8 DUP4 NOT DUP3 MLOAD AND OR DUP2 MSTORE POP DUP1 MLOAD DUP4 GT ISZERO PUSH2 0x24E4 JUMPI DUP3 DUP2 MSTORE JUMPDEST POP SWAP6 SWAP7 SWAP6 POP POP POP POP POP POP JUMP JUMPDEST PUSH1 0x40 DUP1 MLOAD DUP1 DUP3 ADD SWAP1 SWAP2 MSTORE PUSH1 0x60 DUP2 MSTORE PUSH1 0x0 PUSH1 0x20 DUP3 ADD MSTORE DUP3 MLOAD DUP3 GT ISZERO PUSH2 0x2513 JUMPI PUSH1 0x0 DUP1 REVERT JUMPDEST DUP4 MLOAD MLOAD PUSH1 0x0 PUSH2 0x2522 DUP5 DUP4 PUSH2 0x2F54 JUMP JUMPDEST SWAP1 POP DUP6 PUSH1 0x20 ADD MLOAD DUP2 GT ISZERO PUSH2 0x253F JUMPI PUSH2 0x253F DUP7 PUSH2 0x242C DUP4 PUSH1 0x2 PUSH2 0x2F67 JUMP JUMPDEST DUP6 MLOAD DUP1 MLOAD DUP4 DUP3 ADD PUSH1 0x20 ADD SWAP2 PUSH1 0x0 SWAP2 DUP1 DUP6 GT ISZERO PUSH2 0x2559 JUMPI DUP5 DUP3 MSTORE JUMPDEST POP POP POP PUSH1 0x20 DUP7 ADD JUMPDEST PUSH1 0x20 DUP7 LT PUSH2 0x2599 JUMPI DUP1 MLOAD DUP3 MSTORE PUSH2 0x2578 PUSH1 0x20 DUP4 PUSH2 0x2F54 JUMP JUMPDEST SWAP2 POP PUSH2 0x2585 PUSH1 0x20 DUP3 PUSH2 0x2F54 JUMP JUMPDEST SWAP1 POP PUSH2 0x2592 PUSH1 0x20 DUP8 PUSH2 0x2BE9 JUMP JUMPDEST SWAP6 POP PUSH2 0x2561 JUMP JUMPDEST MLOAD DUP2 MLOAD PUSH1 0x0 NOT PUSH1 0x20 DUP9 SWAP1 SUB PUSH2 0x100 EXP ADD SWAP1 DUP2 AND SWAP1 NOT SWAP2 SWAP1 SWAP2 AND OR SWAP1 MSTORE POP DUP5 SWAP2 POP POP SWAP4 SWAP3 POP POP POP JUMP JUMPDEST DUP2 MLOAD PUSH2 0x25CD DUP4 DUP4 PUSH2 0x223A JUMP JUMPDEST POP PUSH2 0x970 DUP4 DUP3 PUSH2 0x23CA JUMP JUMPDEST DUP3 DUP1 SLOAD DUP3 DUP3 SSTORE SWAP1 PUSH1 0x0 MSTORE PUSH1 0x20 PUSH1 0x0 KECCAK256 SWAP1 DUP2 ADD SWAP3 DUP3 ISZERO PUSH2 0x2613 JUMPI SWAP2 PUSH1 0x20 MUL DUP3 ADD JUMPDEST DUP3 DUP2 GT ISZERO PUSH2 0x2613 JUMPI DUP3 MLOAD DUP3 SSTORE SWAP2 PUSH1 0x20 ADD SWAP2 SWAP1 PUSH1 0x1 ADD SWAP1 PUSH2 0x25F8 JUMP JUMPDEST POP PUSH2 0x261F SWAP3 SWAP2 POP PUSH2 0x26CD JUMP JUMPDEST POP SWAP1 JUMP JUMPDEST POP DUP1 SLOAD PUSH2 0x262F SWAP1 PUSH2 0x2B0A JUMP JUMPDEST PUSH1 0x0 DUP3 SSTORE DUP1 PUSH1 0x1F LT PUSH2 0x263F JUMPI POP POP JUMP JUMPDEST PUSH1 0x1F ADD PUSH1 0x20 SWAP1 DIV SWAP1 PUSH1 0x0 MSTORE PUSH1 0x20 PUSH1 0x0 KECCAK256 SWAP1 DUP2 ADD SWAP1 PUSH2 0x11E7 SWAP2 SWAP1 PUSH2 0x26CD JUMP JUMPDEST DUP3 DUP1 SLOAD DUP3 DUP3 SSTORE SWAP1 PUSH1 0x0 MSTORE PUSH1 0x20 PUSH1 0x0 KECCAK256 SWAP1 DUP2 ADD SWAP3 DUP3 ISZERO PUSH2 0x2613 JUMPI SWAP2 PUSH1 0x20 MUL DUP3 ADD JUMPDEST DUP3 DUP2 GT ISZERO PUSH2 0x2613 JUMPI DUP3 CALLDATALOAD DUP3 SSTORE SWAP2 PUSH1 0x20 ADD SWAP2 SWAP1 PUSH1 0x1 ADD SWAP1 PUSH2 0x267D JUMP JUMPDEST PUSH1 0x40 MLOAD DUP1 PUSH1 0x40 ADD PUSH1 0x40 MSTORE DUP1 PUSH2 0x26C0 PUSH1 0x40 MLOAD DUP1 PUSH1 0x40 ADD PUSH1 0x40 MSTORE DUP1 PUSH1 0x60 DUP2 MSTORE PUSH1 0x20 ADD PUSH1 0x0 DUP2 MSTORE POP SWAP1 JUMP JUMPDEST DUP2 MSTORE PUSH1 0x20 ADD PUSH1 0x0 DUP2 MSTORE POP SWAP1 JUMP JUMPDEST JUMPDEST DUP1 DUP3 GT ISZERO PUSH2 0x261F JUMPI PUSH1 0x0 DUP2 SSTORE PUSH1 0x1 ADD PUSH2 0x26CE JUMP JUMPDEST PUSH1 0x1 PUSH1 0x1 PUSH1 0xE0 SHL SUB NOT DUP2 AND DUP2 EQ PUSH2 0x11E7 JUMPI PUSH1 0x0 DUP1 REVERT JUMPDEST PUSH1 0x0 PUSH1 0x20 DUP3 DUP5 SUB SLT ISZERO PUSH2 0x270A JUMPI PUSH1 0x0 DUP1 REVERT JUMPDEST DUP2 CALLDATALOAD PUSH2 0x1176 DUP2 PUSH2 0x26E2 JUMP JUMPDEST PUSH1 0x0 JUMPDEST DUP4 DUP2 LT ISZERO PUSH2 0x2730 JUMPI DUP2 DUP2 ADD MLOAD DUP4 DUP3 ADD MSTORE PUSH1 0x20 ADD PUSH2 0x2718 JUMP JUMPDEST POP POP PUSH1 0x0 SWAP2 ADD MSTORE JUMP JUMPDEST PUSH1 0x0 DUP2 MLOAD DUP1 DUP5 MSTORE PUSH2 0x2751 DUP2 PUSH1 0x20 DUP7 ADD PUSH1 0x20 DUP7 ADD PUSH2 0x2715 JUMP JUMPDEST PUSH1 0x1F ADD PUSH1 0x1F NOT AND SWAP3 SWAP1 SWAP3 ADD PUSH1 0x20 ADD SWAP3 SWAP2 POP POP JUMP JUMPDEST PUSH1 0x20 DUP2 MSTORE PUSH1 0x0 PUSH2 0x1176 PUSH1 0x20 DUP4 ADD DUP5 PUSH2 0x2739 JUMP JUMPDEST PUSH1 0x0 PUSH1 0x20 DUP3 DUP5 SUB SLT ISZERO PUSH2 0x278A JUMPI PUSH1 0x0 DUP1 REVERT JUMPDEST POP CALLDATALOAD SWAP2 SWAP1 POP JUMP JUMPDEST DUP1 CALLDATALOAD PUSH1 0x1 PUSH1 0x1 PUSH1 0xA0 SHL SUB DUP2 AND DUP2 EQ PUSH2 0x27A8 JUMPI PUSH1 0x0 DUP1 REVERT JUMPDEST SWAP2 SWAP1 POP JUMP JUMPDEST PUSH1 0x0 DUP1 PUSH1 0x40 DUP4 DUP6 SUB SLT ISZERO PUSH2 0x27C0 JUMPI PUSH1 0x0 DUP1 REVERT JUMPDEST PUSH2 0x27C9 DUP4 PUSH2 0x2791 JUMP JUMPDEST SWAP5 PUSH1 0x20 SWAP4 SWAP1 SWAP4 ADD CALLDATALOAD SWAP4 POP POP POP JUMP JUMPDEST PUSH4 0x4E487B71 PUSH1 0xE0 SHL PUSH1 0x0 MSTORE PUSH1 0x41 PUSH1 0x4 MSTORE PUSH1 0x24 PUSH1 0x0 REVERT JUMPDEST PUSH1 0x0 DUP3 PUSH1 0x1F DUP4 ADD SLT PUSH2 0x27FE JUMPI PUSH1 0x0 DUP1 REVERT JUMPDEST DUP2 CALLDATALOAD PUSH1 0x1 PUSH1 0x1 PUSH1 0x40 SHL SUB DUP1 DUP3 GT ISZERO PUSH2 0x2818 JUMPI PUSH2 0x2818 PUSH2 0x27D7 JUMP JUMPDEST PUSH1 0x40 MLOAD PUSH1 0x1F DUP4 ADD PUSH1 0x1F NOT SWAP1 DUP2 AND PUSH1 0x3F ADD AND DUP2 ADD SWAP1 DUP3 DUP3 GT DUP2 DUP4 LT OR ISZERO PUSH2 0x2840 JUMPI PUSH2 0x2840 PUSH2 0x27D7 JUMP JUMPDEST DUP2 PUSH1 0x40 MSTORE DUP4 DUP2 MSTORE DUP7 PUSH1 0x20 DUP6 DUP9 ADD ADD GT ISZERO PUSH2 0x2859 JUMPI PUSH1 0x0 DUP1 REVERT JUMPDEST DUP4 PUSH1 0x20 DUP8 ADD PUSH1 0x20 DUP4 ADD CALLDATACOPY PUSH1 0x0 PUSH1 0x20 DUP6 DUP4 ADD ADD MSTORE DUP1 SWAP5 POP POP POP POP POP SWAP3 SWAP2 POP POP JUMP JUMPDEST PUSH1 0x0 DUP1 PUSH1 0x0 PUSH1 0x60 DUP5 DUP7 SUB SLT ISZERO PUSH2 0x288E JUMPI PUSH1 0x0 DUP1 REVERT JUMPDEST DUP4 CALLDATALOAD SWAP3 POP PUSH1 0x20 DUP5 ADD CALLDATALOAD PUSH1 0x1 PUSH1 0x1 PUSH1 0x40 SHL SUB DUP1 DUP3 GT ISZERO PUSH2 0x28AC JUMPI PUSH1 0x0 DUP1 REVERT JUMPDEST PUSH2 0x28B8 DUP8 DUP4 DUP9 ADD PUSH2 0x27ED JUMP JUMPDEST SWAP4 POP PUSH1 0x40 DUP7 ADD CALLDATALOAD SWAP2 POP DUP1 DUP3 GT ISZERO PUSH2 0x28CE JUMPI PUSH1 0x0 DUP1 REVERT JUMPDEST POP PUSH2 0x28DB DUP7 DUP3 DUP8 ADD PUSH2 0x27ED JUMP JUMPDEST SWAP2 POP POP SWAP3 POP SWAP3 POP SWAP3 JUMP JUMPDEST PUSH1 0x0 DUP1 PUSH1 0x0 PUSH1 0x40 DUP5 DUP7 SUB SLT ISZERO PUSH2 0x28FA JUMPI PUSH1 0x0 DUP1 REVERT JUMPDEST DUP4 CALLDATALOAD SWAP3 POP PUSH1 0x20 DUP5 ADD CALLDATALOAD PUSH1 0x1 PUSH1 0x1 PUSH1 0x40 SHL SUB DUP1 DUP3 GT ISZERO PUSH2 0x2918 JUMPI PUSH1 0x0 DUP1 REVERT JUMPDEST DUP2 DUP7 ADD SWAP2 POP DUP7 PUSH1 0x1F DUP4 ADD SLT PUSH2 0x292C JUMPI PUSH1 0x0 DUP1 REVERT JUMPDEST DUP2 CALLDATALOAD DUP2 DUP2 GT ISZERO PUSH2 0x293B JUMPI PUSH1 0x0 DUP1 REVERT JUMPDEST DUP8 PUSH1 0x20 DUP3 PUSH1 0x5 SHL DUP6 ADD ADD GT ISZERO PUSH2 0x2950 JUMPI PUSH1 0x0 DUP1 REVERT JUMPDEST PUSH1 0x20 DUP4 ADD SWAP5 POP DUP1 SWAP4 POP POP POP POP SWAP3 POP SWAP3 POP SWAP3 JUMP JUMPDEST PUSH1 0x0 DUP1 PUSH1 0x0 PUSH1 0x60 DUP5 DUP7 SUB SLT ISZERO PUSH2 0x2978 JUMPI PUSH1 0x0 DUP1 REVERT JUMPDEST PUSH2 0x2981 DUP5 PUSH2 0x2791 JUMP JUMPDEST SWAP3 POP PUSH2 0x298F PUSH1 0x20 DUP6 ADD PUSH2 0x2791 JUMP JUMPDEST SWAP2 POP PUSH1 0x40 DUP5 ADD CALLDATALOAD SWAP1 POP SWAP3 POP SWAP3 POP SWAP3 JUMP JUMPDEST PUSH1 0x0 PUSH1 0x20 DUP3 DUP5 SUB SLT ISZERO PUSH2 0x29B1 JUMPI PUSH1 0x0 DUP1 REVERT JUMPDEST PUSH2 0x1176 DUP3 PUSH2 0x2791 JUMP JUMPDEST PUSH1 0x0 DUP1 PUSH1 0x40 DUP4 DUP6 SUB SLT ISZERO PUSH2 0x29CD JUMPI PUSH1 0x0 DUP1 REVERT JUMPDEST DUP3 CALLDATALOAD SWAP2 POP PUSH1 0x20 DUP4 ADD CALLDATALOAD PUSH1 0x1 PUSH1 0x1 PUSH1 0x40 SHL SUB DUP2 GT ISZERO PUSH2 0x29EA JUMPI PUSH1 0x0 DUP1 REVERT JUMPDEST PUSH2 0x29F6 DUP6 DUP3 DUP7 ADD PUSH2 0x27ED JUMP JUMPDEST SWAP2 POP POP SWAP3 POP SWAP3 SWAP1 POP JUMP JUMPDEST PUSH1 0x0 PUSH1 0x20 DUP3 DUP5 SUB SLT ISZERO PUSH2 0x2A12 JUMPI PUSH1 0x0 DUP1 REVERT JUMPDEST DUP2 CALLDATALOAD PUSH1 0x1 PUSH1 0x1 PUSH1 0x40 SHL SUB DUP2 GT ISZERO PUSH2 0x2A28 JUMPI PUSH1 0x0 DUP1 REVERT JUMPDEST PUSH2 0x21CD DUP5 DUP3 DUP6 ADD PUSH2 0x27ED JUMP JUMPDEST PUSH1 0x0 DUP1 PUSH1 0x40 DUP4 DUP6 SUB SLT ISZERO PUSH2 0x2A47 JUMPI PUSH1 0x0 DUP1 REVERT JUMPDEST PUSH2 0x2A50 DUP4 PUSH2 0x2791 JUMP JUMPDEST SWAP2 POP PUSH1 0x20 DUP4 ADD CALLDATALOAD DUP1 ISZERO ISZERO DUP2 EQ PUSH2 0x2A65 JUMPI PUSH1 0x0 DUP1 REVERT JUMPDEST DUP1 SWAP2 POP POP SWAP3 POP SWAP3 SWAP1 POP JUMP JUMPDEST PUSH1 0x0 DUP1 PUSH1 0x0 DUP1 PUSH1 0x80 DUP6 DUP8 SUB SLT ISZERO PUSH2 0x2A86 JUMPI PUSH1 0x0 DUP1 REVERT JUMPDEST PUSH2 0x2A8F DUP6 PUSH2 0x2791 JUMP JUMPDEST SWAP4 POP PUSH2 0x2A9D PUSH1 0x20 DUP7 ADD PUSH2 0x2791 JUMP JUMPDEST SWAP3 POP PUSH1 0x40 DUP6 ADD CALLDATALOAD SWAP2 POP PUSH1 0x60 DUP6 ADD CALLDATALOAD PUSH1 0x1 PUSH1 0x1 PUSH1 0x40 SHL SUB DUP2 GT ISZERO PUSH2 0x2ABF JUMPI PUSH1 0x0 DUP1 REVERT JUMPDEST PUSH2 0x2ACB DUP8 DUP3 DUP9 ADD PUSH2 0x27ED JUMP JUMPDEST SWAP2 POP POP SWAP3 SWAP6 SWAP2 SWAP5 POP SWAP3 POP JUMP JUMPDEST PUSH1 0x0 DUP1 PUSH1 0x40 DUP4 DUP6 SUB SLT ISZERO PUSH2 0x2AEA JUMPI PUSH1 0x0 DUP1 REVERT JUMPDEST PUSH2 0x2AF3 DUP4 PUSH2 0x2791 JUMP JUMPDEST SWAP2 POP PUSH2 0x2B01 PUSH1 0x20 DUP5 ADD PUSH2 0x2791 JUMP JUMPDEST SWAP1 POP SWAP3 POP SWAP3 SWAP1 POP JUMP JUMPDEST PUSH1 0x1 DUP2 DUP2 SHR SWAP1 DUP3 AND DUP1 PUSH2 0x2B1E JUMPI PUSH1 0x7F DUP3 AND SWAP2 POP JUMPDEST PUSH1 0x20 DUP3 LT DUP2 SUB PUSH2 0x2B3E JUMPI PUSH4 0x4E487B71 PUSH1 0xE0 SHL PUSH1 0x0 MSTORE PUSH1 0x22 PUSH1 0x4 MSTORE PUSH1 0x24 PUSH1 0x0 REVERT JUMPDEST POP SWAP2 SWAP1 POP JUMP JUMPDEST PUSH4 0x4E487B71 PUSH1 0xE0 SHL PUSH1 0x0 MSTORE PUSH1 0x11 PUSH1 0x4 MSTORE PUSH1 0x24 PUSH1 0x0 REVERT JUMPDEST PUSH1 0x0 PUSH1 0x1 DUP3 ADD PUSH2 0x2B6C JUMPI PUSH2 0x2B6C PUSH2 0x2B44 JUMP JUMPDEST POP PUSH1 0x1 ADD SWAP1 JUMP JUMPDEST PUSH1 0x20 DUP2 MSTORE DUP2 MLOAD PUSH1 0x20 DUP3 ADD MSTORE PUSH1 0x20 DUP3 ADD MLOAD PUSH1 0x40 DUP3 ADD MSTORE PUSH2 0xFFFF PUSH1 0x40 DUP4 ADD MLOAD AND PUSH1 0x60 DUP3 ADD MSTORE PUSH1 0x0 PUSH1 0x60 DUP4 ADD MLOAD PUSH4 0xFFFFFFFF DUP1 DUP3 AND PUSH1 0x80 DUP6 ADD MSTORE DUP1 PUSH1 0x80 DUP7 ADD MLOAD AND PUSH1 0xA0 DUP6 ADD MSTORE POP POP PUSH1 0xA0 DUP4 ADD MLOAD PUSH1 0xC0 DUP1 DUP5 ADD MSTORE PUSH2 0x21CD PUSH1 0xE0 DUP5 ADD DUP3 PUSH2 0x2739 JUMP JUMPDEST PUSH1 0x0 PUSH1 0x20 DUP3 DUP5 SUB SLT ISZERO PUSH2 0x2BE2 JUMPI PUSH1 0x0 DUP1 REVERT JUMPDEST POP MLOAD SWAP2 SWAP1 POP JUMP JUMPDEST DUP2 DUP2 SUB DUP2 DUP2 GT ISZERO PUSH2 0x742 JUMPI PUSH2 0x742 PUSH2 0x2B44 JUMP JUMPDEST PUSH4 0x4E487B71 PUSH1 0xE0 SHL PUSH1 0x0 MSTORE PUSH1 0x32 PUSH1 0x4 MSTORE PUSH1 0x24 PUSH1 0x0 REVERT JUMPDEST PUSH1 0x1F DUP3 GT ISZERO PUSH2 0x8E6 JUMPI PUSH1 0x0 DUP2 DUP2 MSTORE PUSH1 0x20 DUP2 KECCAK256 PUSH1 0x1F DUP6 ADD PUSH1 0x5 SHR DUP2 ADD PUSH1 0x20 DUP7 LT ISZERO PUSH2 0x2C39 JUMPI POP DUP1 JUMPDEST PUSH1 0x1F DUP6 ADD PUSH1 0x5 SHR DUP3 ADD SWAP2 POP JUMPDEST DUP2 DUP2 LT ISZERO PUSH2 0x2C58 JUMPI DUP3 DUP2 SSTORE PUSH1 0x1 ADD PUSH2 0x2C45 JUMP JUMPDEST POP POP POP POP POP POP JUMP JUMPDEST DUP2 DUP2 SUB PUSH2 0x2C6B JUMPI POP POP JUMP JUMPDEST PUSH2 0x2C75 DUP3 SLOAD PUSH2 0x2B0A JUMP JUMPDEST PUSH1 0x1 PUSH1 0x1 PUSH1 0x40 SHL SUB DUP2 GT ISZERO PUSH2 0x2C8C JUMPI PUSH2 0x2C8C PUSH2 0x27D7 JUMP JUMPDEST PUSH2 0x2CA0 DUP2 PUSH2 0x2C9A DUP5 SLOAD PUSH2 0x2B0A JUMP JUMPDEST DUP5 PUSH2 0x2C12 JUMP JUMPDEST PUSH1 0x0 PUSH1 0x1F DUP3 GT PUSH1 0x1 DUP2 EQ PUSH2 0x2CD4 JUMPI PUSH1 0x0 DUP4 ISZERO PUSH2 0x2CBC JUMPI POP DUP5 DUP3 ADD SLOAD JUMPDEST PUSH1 0x0 NOT PUSH1 0x3 DUP6 SWAP1 SHL SHR NOT AND PUSH1 0x1 DUP5 SWAP1 SHL OR DUP5 SSTORE PUSH2 0x18C2 JUMP JUMPDEST PUSH1 0x0 DUP6 DUP2 MSTORE PUSH1 0x20 SWAP1 KECCAK256 PUSH1 0x1F NOT DUP5 AND SWAP1 PUSH1 0x0 DUP7 DUP2 MSTORE PUSH1 0x20 SWAP1 KECCAK256 DUP5 JUMPDEST DUP4 DUP2 LT ISZERO PUSH2 0x2D0E JUMPI DUP3 DUP7 ADD SLOAD DUP3 SSTORE PUSH1 0x1 SWAP6 DUP7 ADD SWAP6 SWAP1 SWAP2 ADD SWAP1 PUSH1 0x20 ADD PUSH2 0x2CEE JUMP JUMPDEST POP DUP6 DUP4 LT ISZERO PUSH2 0x2D2C JUMPI DUP2 DUP6 ADD SLOAD PUSH1 0x0 NOT PUSH1 0x3 DUP9 SWAP1 SHL PUSH1 0xF8 AND SHR NOT AND DUP2 SSTORE JUMPDEST POP POP POP POP POP PUSH1 0x1 SWAP1 DUP2 SHL ADD SWAP1 SSTORE POP JUMP JUMPDEST PUSH4 0x4E487B71 PUSH1 0xE0 SHL PUSH1 0x0 MSTORE PUSH1 0x31 PUSH1 0x4 MSTORE PUSH1 0x24 PUSH1 0x0 REVERT JUMPDEST DUP2 MLOAD PUSH1 0x1 PUSH1 0x1 PUSH1 0x40 SHL SUB DUP2 GT ISZERO PUSH2 0x2D6B JUMPI PUSH2 0x2D6B PUSH2 0x27D7 JUMP JUMPDEST PUSH2 0x2D79 DUP2 PUSH2 0x2C9A DUP5 SLOAD PUSH2 0x2B0A JUMP JUMPDEST PUSH1 0x20 DUP1 PUSH1 0x1F DUP4 GT PUSH1 0x1 DUP2 EQ PUSH2 0x2DAE JUMPI PUSH1 0x0 DUP5 ISZERO PUSH2 0x2D96 JUMPI POP DUP6 DUP4 ADD MLOAD JUMPDEST PUSH1 0x0 NOT PUSH1 0x3 DUP7 SWAP1 SHL SHR NOT AND PUSH1 0x1 DUP6 SWAP1 SHL OR DUP6 SSTORE PUSH2 0x2C58 JUMP JUMPDEST PUSH1 0x0 DUP6 DUP2 MSTORE PUSH1 0x20 DUP2 KECCAK256 PUSH1 0x1F NOT DUP7 AND SWAP2 JUMPDEST DUP3 DUP2 LT ISZERO PUSH2 0x2DDD JUMPI DUP9 DUP7 ADD MLOAD DUP3 SSTORE SWAP5 DUP5 ADD SWAP5 PUSH1 0x1 SWAP1 SWAP2 ADD SWAP1 DUP5 ADD PUSH2 0x2DBE JUMP JUMPDEST POP DUP6 DUP3 LT ISZERO PUSH2 0x2D2C JUMPI SWAP4 SWAP1 SWAP7 ADD MLOAD PUSH1 0x0 NOT PUSH1 0xF8 PUSH1 0x3 DUP8 SWAP1 SHL AND SHR NOT AND SWAP1 SWAP3 SSTORE POP POP PUSH1 0x1 SWAP1 DUP2 SHL ADD SWAP1 SSTORE POP JUMP JUMPDEST PUSH1 0x0 DUP4 MLOAD PUSH2 0x2E1B DUP2 DUP5 PUSH1 0x20 DUP9 ADD PUSH2 0x2715 JUMP JUMPDEST DUP4 MLOAD SWAP1 DUP4 ADD SWAP1 PUSH2 0x2E2F DUP2 DUP4 PUSH1 0x20 DUP9 ADD PUSH2 0x2715 JUMP JUMPDEST ADD SWAP5 SWAP4 POP POP POP POP JUMP JUMPDEST PUSH1 0x0 DUP3 PUSH2 0x2E55 JUMPI PUSH4 0x4E487B71 PUSH1 0xE0 SHL PUSH1 0x0 MSTORE PUSH1 0x12 PUSH1 0x4 MSTORE PUSH1 0x24 PUSH1 0x0 REVERT JUMPDEST POP MOD SWAP1 JUMP JUMPDEST DUP4 DUP2 MSTORE PUSH1 0x40 PUSH1 0x20 DUP3 ADD DUP2 SWAP1 MSTORE DUP2 ADD DUP3 SWAP1 MSTORE PUSH1 0x0 PUSH1 0x1 PUSH1 0x1 PUSH1 0xFB SHL SUB DUP4 GT ISZERO PUSH2 0x2E81 JUMPI PUSH1 0x0 DUP1 REVERT JUMPDEST DUP3 PUSH1 0x5 SHL DUP1 DUP6 PUSH1 0x60 DUP6 ADD CALLDATACOPY SWAP2 SWAP1 SWAP2 ADD PUSH1 0x60 ADD SWAP5 SWAP4 POP POP POP POP JUMP JUMPDEST PUSH1 0x1 PUSH1 0x1 PUSH1 0xA0 SHL SUB DUP6 DUP2 AND DUP3 MSTORE DUP5 AND PUSH1 0x20 DUP3 ADD MSTORE PUSH1 0x40 DUP2 ADD DUP4 SWAP1 MSTORE PUSH1 0x80 PUSH1 0x60 DUP3 ADD DUP2 SWAP1 MSTORE PUSH1 0x0 SWAP1 PUSH2 0x2ECE SWAP1 DUP4 ADD DUP5 PUSH2 0x2739 JUMP JUMPDEST SWAP7 SWAP6 POP POP POP POP POP POP JUMP JUMPDEST PUSH1 0x0 PUSH1 0x20 DUP3 DUP5 SUB SLT ISZERO PUSH2 0x2EEA JUMPI PUSH1 0x0 DUP1 REVERT JUMPDEST DUP2 MLOAD PUSH2 0x1176 DUP2 PUSH2 0x26E2 JUMP JUMPDEST PUSH4 0x4E487B71 PUSH1 0xE0 SHL PUSH1 0x0 MSTORE PUSH1 0x21 PUSH1 0x4 MSTORE PUSH1 0x24 PUSH1 0x0 REVERT JUMPDEST PUSH1 0x1 PUSH1 0x1 PUSH1 0x40 SHL SUB DUP7 AND DUP2 MSTORE PUSH1 0xA0 PUSH1 0x20 DUP3 ADD MSTORE PUSH1 0x0 PUSH2 0x2F2D PUSH1 0xA0 DUP4 ADD DUP8 PUSH2 0x2739 JUMP JUMPDEST PUSH2 0xFFFF SWAP6 SWAP1 SWAP6 AND PUSH1 0x40 DUP4 ADD MSTORE POP PUSH4 0xFFFFFFFF SWAP3 SWAP1 SWAP3 AND PUSH1 0x60 DUP4 ADD MSTORE PUSH1 0x80 SWAP1 SWAP2 ADD MSTORE SWAP3 SWAP2 POP POP JUMP JUMPDEST DUP1 DUP3 ADD DUP1 DUP3 GT ISZERO PUSH2 0x742 JUMPI PUSH2 0x742 PUSH2 0x2B44 JUMP JUMPDEST DUP1 DUP3 MUL DUP2 ISZERO DUP3 DUP3 DIV DUP5 EQ OR PUSH2 0x742 JUMPI PUSH2 0x742 PUSH2 0x2B44 JUMP JUMPDEST PUSH1 0x1 DUP2 DUP2 JUMPDEST DUP1 DUP6 GT ISZERO PUSH2 0x2FB9 JUMPI DUP2 PUSH1 0x0 NOT DIV DUP3 GT ISZERO PUSH2 0x2F9F JUMPI PUSH2 0x2F9F PUSH2 0x2B44 JUMP JUMPDEST DUP1 DUP6 AND ISZERO PUSH2 0x2FAC JUMPI SWAP2 DUP2 MUL SWAP2 JUMPDEST SWAP4 DUP5 SHR SWAP4 SWAP1 DUP1 MUL SWAP1 PUSH2 0x2F83 JUMP JUMPDEST POP SWAP3 POP SWAP3 SWAP1 POP JUMP JUMPDEST PUSH1 0x0 DUP3 PUSH2 0x2FD0 JUMPI POP PUSH1 0x1 PUSH2 0x742 JUMP JUMPDEST DUP2 PUSH2 0x2FDD JUMPI POP PUSH1 0x0 PUSH2 0x742 JUMP JUMPDEST DUP2 PUSH1 0x1 DUP2 EQ PUSH2 0x2FF3 JUMPI PUSH1 0x2 DUP2 EQ PUSH2 0x2FFD JUMPI PUSH2 0x3019 JUMP JUMPDEST PUSH1 0x1 SWAP2 POP POP PUSH2 0x742 JUMP JUMPDEST PUSH1 0xFF DUP5 GT ISZERO PUSH2 0x300E JUMPI PUSH2 0x300E PUSH2 0x2B44 JUMP JUMPDEST POP POP PUSH1 0x1 DUP3 SHL PUSH2 0x742 JUMP JUMPDEST POP PUSH1 0x20 DUP4 LT PUSH2 0x133 DUP4 LT AND PUSH1 0x4E DUP5 LT PUSH1 0xB DUP5 LT AND OR ISZERO PUSH2 0x303C JUMPI POP DUP2 DUP2 EXP PUSH2 0x742 JUMP JUMPDEST PUSH2 0x3046 DUP4 DUP4 PUSH2 0x2F7E JUMP JUMPDEST DUP1 PUSH1 0x0 NOT DIV DUP3 GT ISZERO PUSH2 0x305A JUMPI PUSH2 0x305A PUSH2 0x2B44 JUMP JUMPDEST MUL SWAP4 SWAP3 POP POP POP JUMP JUMPDEST PUSH1 0x0 PUSH2 0x1176 DUP4 DUP4 PUSH2 0x2FC1 JUMP INVALID LOG2 PUSH5 0x6970667358 0x22 SLT KECCAK256 RETURNDATASIZE PUSH17 0x3086AA32693F1671BE4D2EBCFBCB703331 0x27 PUSH2 0xAE6D LOG2 SWAP5 0xF7 JUMP 0xDE 0xFB 0xAD 0xE6 0xF9 PUSH5 0x736F6C6343 STOP ADDMOD EQ STOP CALLER 0xC6 GAS PUSH28 0xB8D6351C1CF70C95A316CC6A92839C986682D98BC35F958F4883F9D2 0xA8 PUSH4 0x6F6E7374 KECCAK256 PUSH5 0x69736E6579 SSTORE MSTORE 0x4C KECCAK256 RETURNDATASIZE KECCAK256 PUSH1 0x68 PUSH21 0x7470733A2F2F6170692E6469736E65796170692E64 PUSH6 0x762F63686172 PUSH2 0x6374 PUSH6 0x72603B636F6E PUSH20 0x742072616E64203D204D6174682E666C6F6F7228 0x4D PUSH2 0x7468 0x2E PUSH19 0x616E646F6D2829202A203530293B636F6E7374 KECCAK256 PUSH5 0x69736E6579 MSTORE PUSH6 0x717565737420 RETURNDATASIZE KECCAK256 CHAINID PUSH22 0x6E6374696F6E732E6D616B6548747470526571756573 PUSH21 0x287B75726C3A206469736E657955524C2C6D657468 PUSH16 0x643A2060474554602C7D293B636F6E73 PUSH21 0x206469736E6579526573706F6E7365203D20617761 PUSH10 0x74206469736E65795265 PUSH18 0x756573743B636F6E7374206469736E657944 PUSH2 0x7461 KECCAK256 RETURNDATASIZE KECCAK256 PUSH5 0x69736E6579 MSTORE PUSH6 0x73706F6E7365 0x2E PUSH5 0x6174612E64 PUSH2 0x7461 EXTCODESIZE PUSH4 0x6F6E7374 KECCAK256 PUSH14 0x7944617461203D207B6E616D653A KECCAK256 PUSH5 0x69736E6579 PREVRANDAO PUSH2 0x7461 JUMPDEST PUSH19 0x616E645D2E6E616D652C696D6167653A206469 PUSH20 0x6E6579446174615B72616E645D2E696D61676555 PUSH19 0x6C2C7D3B72657475726E2046756E6374696F6E PUSH20 0x2E656E636F6465537472696E67284A534F4E2E73 PUSH21 0x72696E67696679286D794461746129293B636F6E73 PUSH21 0x20706F6B6955524C203D206068747470733A2F2F70 PUSH16 0x6B656170692E636F2F6170692F76322F PUSH17 0x6F6B656D6F6E603B636F6E73742072616E PUSH5 0x203D204D61 PUSH21 0x682E666C6F6F72284D6174682E72616E646F6D2829 KECCAK256 0x2A KECCAK256 BALANCE ADDRESS ADDRESS ADDRESS 0x29 EXTCODESIZE PUSH4 0x6F6E7374 KECCAK256 PUSH17 0x6F6B656D6F6E436861726163746572203D KECCAK256 PUSH19 0x616E643B636F6E737420706F6B695265717565 PUSH20 0x74203D2046756E6374696F6E732E6D616B654874 PUSH21 0x7052657175657374287B75726C3A2060247B706F6B PUSH10 0x55524C7D2F247B706F6B PUSH6 0x6D6F6E436861 PUSH19 0x61637465727D602C6D6574686F643A20604745 SLOAD PUSH1 0x2C PUSH30 0x293B636F6E737420706F6B69526573706F6E7365203D2061776169742070 PUSH16 0x6B69526571756573743B636F6E737420 PUSH19 0x657144617461203D20706F6B69526573706F6E PUSH20 0x652E646174613B636F6E7374206D794461746120 RETURNDATASIZE KECCAK256 PUSH28 0x6E616D653A20726571446174612E737065636965732E6E616D652C69 PUSH14 0x6167653A20726571446174612E73 PUSH17 0x72697465732E6F746865722E686F6D652E PUSH7 0x726F6E745F6465 PUSH7 0x61756C742C7D3B PUSH19 0x657475726E2046756E6374696F6E732E656E63 PUSH16 0x6465537472696E67284A534F4E2E7374 PUSH19 0x696E67696679286D794461746129293B636F6E PUSH20 0x7420676F7455524C203D206068747470733A2F2F PUSH21 0x68726F6E65736170692E636F6D2F6170692F76322F NUMBER PUSH9 0x617261637465727360 EXTCODESIZE PUSH4 0x6F6E7374 KECCAK256 PUSH19 0x616E64203D204D6174682E666C6F6F72284D61 PUSH21 0x682E72616E646F6D2829202A203530293B636F6E73 PUSH21 0x20676F7452657175657374203D2046756E6374696F PUSH15 0x732E6D616B65487474705265717565 PUSH20 0x74287B75726C3A20676F7455524C2C6D6574686F PUSH5 0x3A20604745 SLOAD PUSH1 0x2C PUSH30 0x293B636F6E737420676F74526573706F6E7365203D20617761697420676F PUSH21 0x526571756573743B636F6E737420676F7444617461 KECCAK256 RETURNDATASIZE KECCAK256 PUSH8 0x6F74526573706F6E PUSH20 0x652E646174613B636F6E7374206D794461746120 RETURNDATASIZE KECCAK256 PUSH28 0x6E616D653A20676F74446174615B72616E645D2E66756C6C4E616D65 0x2C PUSH10 0x6D6167653A20676F7444 PUSH2 0x7461 JUMPDEST PUSH19 0x616E645D2E696D61676555726C2C7D3B726574 PUSH22 0x726E2046756E6374696F6E732E656E636F6465537472 PUSH10 0x6E67284A534F4E2E7374 PUSH19 0x696E67696679286D794461746129293B636F6E PUSH20 0x7420687055524C203D206068747470733A2F2F68 PUSH17 0x2D6170692E6F6E72656E6465722E636F6D 0x2F PUSH2 0x7069 0x2F PUSH4 0x68617261 PUSH4 0x74657273 PUSH1 0x3B PUSH4 0x6F6E7374 KECCAK256 PUSH19 0x616E64203D204D6174682E666C6F6F72284D61 PUSH21 0x682E72616E646F6D2829202A203230293B636F6E73 PUSH21 0x20687052657175657374203D2046756E6374696F6E PUSH20 0x2E6D616B654874747052657175657374287B7572 PUSH13 0x3A20687055524C2C6D6574686F PUSH5 0x3A20604745 SLOAD PUSH1 0x2C PUSH30 0x293B636F6E7374206870526573706F6E7365203D20617761697420687052 PUSH6 0x71756573743B PUSH4 0x6F6E7374 KECCAK256 PUSH9 0x7044617461203D2068 PUSH17 0x526573706F6E73652E646174613B636F6E PUSH20 0x74206D7944617461203D207B6E616D653A206870 PREVRANDAO PUSH2 0x7461 JUMPDEST PUSH19 0x616E645D2E6E616D652C696D6167653A206870 PREVRANDAO PUSH2 0x7461 JUMPDEST PUSH19 0x616E645D2E696D6167652C7D3B72657475726E KECCAK256 CHAINID PUSH22 0x6E6374696F6E732E656E636F6465537472696E67284A MSTORE8 0x4F 0x4E 0x2E PUSH20 0x7472696E67696679286D794461746129293B0000 "},"gasEstimates":{"creation":{"codeDepositCost":"2490400","executionCost":"infinite","totalCost":"infinite"},"external":{"acceptOwnership()":"52419","appendApiSource(string)":"infinite","approve(address,uint256)":"31560","arbitrumSepoliaKeyHash()":"2385","balanceOf(address)":"2678","chainlinkFunctionsRequestIdTracker(bytes32)":"4795","chainlinkVRFRequestIdTracker(uint256)":"6955","disneySource()":"infinite","functionCallbackLastError()":"infinite","functionCallbackLastRequestId()":"2384","functionCallbackLastResponse()":"infinite","functionGasLimit()":"2468","gameOfThronesSource()":"infinite","getApproved(uint256)":"infinite","handleOracleFulfillment(bytes32,bytes,bytes)":"infinite","hpSource()":"infinite","isApprovedForAll(address,address)":"infinite","isPaused()":"2405","lastFunctionCallbackStringResult()":"infinite","mintRandomNFTRequest(address)":"infinite","multiverseApiSources(uint256)":"infinite","name()":"infinite","owner()":"2465","ownerOf(uint256)":"infinite","pause()":"26612","pokeSource()":"infinite","rawFulfillRandomWords(uint256,uint256[])":"infinite","removeApiSource(uint256)":"infinite","router()":"2447","s_vrfCoordinator()":"2448","safeTransferFrom(address,address,uint256)":"infinite","safeTransferFrom(address,address,uint256,bytes)":"infinite","setApprovalForAll(address,bool)":"26792","setCoordinator(address)":"30112","supportsInterface(bytes4)":"557","symbol()":"infinite","tokenIdCounter()":"2384","tokenIdToNFTData(uint256)":"infinite","tokenURI(uint256)":"infinite","transferFrom(address,address,uint256)":"infinite","transferOwnership(address)":"30524","unpause()":"26688","updateApiSource(uint256,string)":"infinite","vrfCallbackGasLimit()":"2447","vrfCoordinator()":"2503","vrfLastRequestId()":"2428","vrfNumWords()":"2436","vrfRequestConfirmations()":"2381","vrfRequestIds(uint256)":"4621","vrfSubscriptionId()":"2361"},"internal":{"fulfillRandomWords(uint256,uint256[] calldata)":"infinite","fulfillRequest(bytes32,bytes memory,bytes memory)":"infinite"}},"methodIdentifiers":{"acceptOwnership()":"79ba5097","appendApiSource(string)":"9443dec1","approve(address,uint256)":"095ea7b3","arbitrumSepoliaKeyHash()":"2af60523","balanceOf(address)":"70a08231","chainlinkFunctionsRequestIdTracker(bytes32)":"ff712d02","chainlinkVRFRequestIdTracker(uint256)":"5846d682","disneySource()":"35d46d5c","functionCallbackLastError()":"6250fb2b","functionCallbackLastRequestId()":"e1e16379","functionCallbackLastResponse()":"265d1fa3","functionGasLimit()":"cf2a1a0e","gameOfThronesSource()":"a969a403","getApproved(uint256)":"081812fc","handleOracleFulfillment(bytes32,bytes,bytes)":"0ca76175","hpSource()":"8a0ec9d2","isApprovedForAll(address,address)":"e985e9c5","isPaused()":"b187bd26","lastFunctionCallbackStringResult()":"849e0312","mintRandomNFTRequest(address)":"48e9687a","multiverseApiSources(uint256)":"cfd30a6e","name()":"06fdde03","owner()":"8da5cb5b","ownerOf(uint256)":"6352211e","pause()":"8456cb59","pokeSource()":"ab6eef52","rawFulfillRandomWords(uint256,uint256[])":"1fe543e3","removeApiSource(uint256)":"53cd456f","router()":"f887ea40","s_vrfCoordinator()":"9eccacf6","safeTransferFrom(address,address,uint256)":"42842e0e","safeTransferFrom(address,address,uint256,bytes)":"b88d4fde","setApprovalForAll(address,bool)":"a22cb465","setCoordinator(address)":"8ea98117","supportsInterface(bytes4)":"01ffc9a7","symbol()":"95d89b41","tokenIdCounter()":"98bdf6f5","tokenIdToNFTData(uint256)":"6f2f418e","tokenURI(uint256)":"c87b56dd","transferFrom(address,address,uint256)":"23b872dd","transferOwnership(address)":"f2fde38b","unpause()":"3f4ba83a","updateApiSource(uint256,string)":"813ce42d","vrfCallbackGasLimit()":"3b7ed734","vrfCoordinator()":"a3e56fa8","vrfLastRequestId()":"7d058d4f","vrfNumWords()":"5151804a","vrfRequestConfirmations()":"598bc486","vrfRequestIds(uint256)":"425c9fa2","vrfSubscriptionId()":"ed647d21"}},"storageLayout":{"storage":[{"astId":2763,"contract":"contracts/EnterTheChainlinkNFTMultiverse.sol:EnterTheChainlinkNFTMultiverse","label":"_name","offset":0,"slot":"0","type":"t_string_storage"},{"astId":2765,"contract":"contracts/EnterTheChainlinkNFTMultiverse.sol:EnterTheChainlinkNFTMultiverse","label":"_symbol","offset":0,"slot":"1","type":"t_string_storage"},{"astId":2769,"contract":"contracts/EnterTheChainlinkNFTMultiverse.sol:EnterTheChainlinkNFTMultiverse","label":"_owners","offset":0,"slot":"2","type":"t_mapping(t_uint256,t_address)"},{"astId":2773,"contract":"contracts/EnterTheChainlinkNFTMultiverse.sol:EnterTheChainlinkNFTMultiverse","label":"_balances","offset":0,"slot":"3","type":"t_mapping(t_address,t_uint256)"},{"astId":2777,"contract":"contracts/EnterTheChainlinkNFTMultiverse.sol:EnterTheChainlinkNFTMultiverse","label":"_tokenApprovals","offset":0,"slot":"4","type":"t_mapping(t_uint256,t_address)"},{"astId":2783,"contract":"contracts/EnterTheChainlinkNFTMultiverse.sol:EnterTheChainlinkNFTMultiverse","label":"_operatorApprovals","offset":0,"slot":"5","type":"t_mapping(t_address,t_mapping(t_address,t_bool))"},{"astId":816,"contract":"contracts/EnterTheChainlinkNFTMultiverse.sol:EnterTheChainlinkNFTMultiverse","label":"s_owner","offset":0,"slot":"6","type":"t_address"},{"astId":818,"contract":"contracts/EnterTheChainlinkNFTMultiverse.sol:EnterTheChainlinkNFTMultiverse","label":"s_pendingOwner","offset":0,"slot":"7","type":"t_address"},{"astId":2299,"contract":"contracts/EnterTheChainlinkNFTMultiverse.sol:EnterTheChainlinkNFTMultiverse","label":"s_vrfCoordinator","offset":0,"slot":"8","type":"t_contract(IVRFCoordinatorV2Plus)2448"},{"astId":5428,"contract":"contracts/EnterTheChainlinkNFTMultiverse.sol:EnterTheChainlinkNFTMultiverse","label":"isPaused","offset":20,"slot":"8","type":"t_bool"},{"astId":5430,"contract":"contracts/EnterTheChainlinkNFTMultiverse.sol:EnterTheChainlinkNFTMultiverse","label":"tokenIdCounter","offset":0,"slot":"9","type":"t_uint256"},{"astId":5433,"contract":"contracts/EnterTheChainlinkNFTMultiverse.sol:EnterTheChainlinkNFTMultiverse","label":"multiverseApiSources","offset":0,"slot":"10","type":"t_array(t_string_storage)dyn_storage"},{"astId":5435,"contract":"contracts/EnterTheChainlinkNFTMultiverse.sol:EnterTheChainlinkNFTMultiverse","label":"lastFunctionCallbackStringResult","offset":0,"slot":"11","type":"t_string_storage"},{"astId":5439,"contract":"contracts/EnterTheChainlinkNFTMultiverse.sol:EnterTheChainlinkNFTMultiverse","label":"tokenIdToNFTData","offset":0,"slot":"12","type":"t_mapping(t_uint256,t_string_storage)"},{"astId":5443,"contract":"contracts/EnterTheChainlinkNFTMultiverse.sol:EnterTheChainlinkNFTMultiverse","label":"functionsSubscriptionId","offset":0,"slot":"13","type":"t_uint64"},{"astId":5448,"contract":"contracts/EnterTheChainlinkNFTMultiverse.sol:EnterTheChainlinkNFTMultiverse","label":"chainlinkFunctionsRequestIdTracker","offset":0,"slot":"14","type":"t_mapping(t_bytes32,t_struct(FunctionsRequestInfo)5425_storage)"},{"astId":5451,"contract":"contracts/EnterTheChainlinkNFTMultiverse.sol:EnterTheChainlinkNFTMultiverse","label":"router","offset":0,"slot":"15","type":"t_address"},{"astId":5454,"contract":"contracts/EnterTheChainlinkNFTMultiverse.sol:EnterTheChainlinkNFTMultiverse","label":"donId","offset":0,"slot":"16","type":"t_bytes32"},{"astId":5456,"contract":"contracts/EnterTheChainlinkNFTMultiverse.sol:EnterTheChainlinkNFTMultiverse","label":"functionCallbackLastRequestId","offset":0,"slot":"17","type":"t_bytes32"},{"astId":5458,"contract":"contracts/EnterTheChainlinkNFTMultiverse.sol:EnterTheChainlinkNFTMultiverse","label":"functionCallbackLastResponse","offset":0,"slot":"18","type":"t_bytes_storage"},{"astId":5460,"contract":"contracts/EnterTheChainlinkNFTMultiverse.sol:EnterTheChainlinkNFTMultiverse","label":"functionCallbackLastError","offset":0,"slot":"19","type":"t_bytes_storage"},{"astId":5463,"contract":"contracts/EnterTheChainlinkNFTMultiverse.sol:EnterTheChainlinkNFTMultiverse","label":"functionGasLimit","offset":0,"slot":"20","type":"t_uint32"},{"astId":5467,"contract":"contracts/EnterTheChainlinkNFTMultiverse.sol:EnterTheChainlinkNFTMultiverse","label":"vrfSubscriptionId","offset":0,"slot":"21","type":"t_uint256"},{"astId":5472,"contract":"contracts/EnterTheChainlinkNFTMultiverse.sol:EnterTheChainlinkNFTMultiverse","label":"chainlinkVRFRequestIdTracker","offset":0,"slot":"22","type":"t_mapping(t_uint256,t_struct(VRFRequestStatus)5418_storage)"},{"astId":5475,"contract":"contracts/EnterTheChainlinkNFTMultiverse.sol:EnterTheChainlinkNFTMultiverse","label":"arbitrumSepoliaKeyHash","offset":0,"slot":"23","type":"t_bytes32"},{"astId":5478,"contract":"contracts/EnterTheChainlinkNFTMultiverse.sol:EnterTheChainlinkNFTMultiverse","label":"vrfRequestConfirmations","offset":0,"slot":"24","type":"t_uint16"},{"astId":5481,"contract":"contracts/EnterTheChainlinkNFTMultiverse.sol:EnterTheChainlinkNFTMultiverse","label":"vrfNumWords","offset":2,"slot":"24","type":"t_uint32"},{"astId":5484,"contract":"contracts/EnterTheChainlinkNFTMultiverse.sol:EnterTheChainlinkNFTMultiverse","label":"vrfRequestIds","offset":0,"slot":"25","type":"t_array(t_uint256)dyn_storage"},{"astId":5486,"contract":"contracts/EnterTheChainlinkNFTMultiverse.sol:EnterTheChainlinkNFTMultiverse","label":"vrfLastRequestId","offset":0,"slot":"26","type":"t_uint256"},{"astId":5489,"contract":"contracts/EnterTheChainlinkNFTMultiverse.sol:EnterTheChainlinkNFTMultiverse","label":"vrfCallbackGasLimit","offset":0,"slot":"27","type":"t_uint32"},{"astId":5492,"contract":"contracts/EnterTheChainlinkNFTMultiverse.sol:EnterTheChainlinkNFTMultiverse","label":"vrfCoordinator","offset":4,"slot":"27","type":"t_address"},{"astId":5515,"contract":"contracts/EnterTheChainlinkNFTMultiverse.sol:EnterTheChainlinkNFTMultiverse","label":"gameOfThronesSource","offset":0,"slot":"28","type":"t_string_storage"},{"astId":5518,"contract":"contracts/EnterTheChainlinkNFTMultiverse.sol:EnterTheChainlinkNFTMultiverse","label":"pokeSource","offset":0,"slot":"29","type":"t_string_storage"},{"astId":5521,"contract":"contracts/EnterTheChainlinkNFTMultiverse.sol:EnterTheChainlinkNFTMultiverse","label":"disneySource","offset":0,"slot":"30","type":"t_string_storage"},{"astId":5524,"contract":"contracts/EnterTheChainlinkNFTMultiverse.sol:EnterTheChainlinkNFTMultiverse","label":"hpSource","offset":0,"slot":"31","type":"t_string_storage"}],"types":{"t_address":{"encoding":"inplace","label":"address","numberOfBytes":"20"},"t_array(t_string_storage)dyn_storage":{"base":"t_string_storage","encoding":"dynamic_array","label":"string[]","numberOfBytes":"32"},"t_array(t_uint256)dyn_storage":{"base":"t_uint256","encoding":"dynamic_array","label":"uint256[]","numberOfBytes":"32"},"t_bool":{"encoding":"inplace","label":"bool","numberOfBytes":"1"},"t_bytes32":{"encoding":"inplace","label":"bytes32","numberOfBytes":"32"},"t_bytes_storage":{"encoding":"bytes","label":"bytes","numberOfBytes":"32"},"t_contract(IVRFCoordinatorV2Plus)2448":{"encoding":"inplace","label":"contract IVRFCoordinatorV2Plus","numberOfBytes":"20"},"t_mapping(t_address,t_bool)":{"encoding":"mapping","key":"t_address","label":"mapping(address => bool)","numberOfBytes":"32","value":"t_bool"},"t_mapping(t_address,t_mapping(t_address,t_bool))":{"encoding":"mapping","key":"t_address","label":"mapping(address => mapping(address => bool))","numberOfBytes":"32","value":"t_mapping(t_address,t_bool)"},"t_mapping(t_address,t_uint256)":{"encoding":"mapping","key":"t_address","label":"mapping(address => uint256)","numberOfBytes":"32","value":"t_uint256"},"t_mapping(t_bytes32,t_struct(FunctionsRequestInfo)5425_storage)":{"encoding":"mapping","key":"t_bytes32","label":"mapping(bytes32 => struct EnterTheChainlinkNFTMultiverse.FunctionsRequestInfo)","numberOfBytes":"32","value":"t_struct(FunctionsRequestInfo)5425_storage"},"t_mapping(t_uint256,t_address)":{"encoding":"mapping","key":"t_uint256","label":"mapping(uint256 => address)","numberOfBytes":"32","value":"t_address"},"t_mapping(t_uint256,t_string_storage)":{"encoding":"mapping","key":"t_uint256","label":"mapping(uint256 => string)","numberOfBytes":"32","value":"t_string_storage"},"t_mapping(t_uint256,t_struct(VRFRequestStatus)5418_storage)":{"encoding":"mapping","key":"t_uint256","label":"mapping(uint256 => struct EnterTheChainlinkNFTMultiverse.VRFRequestStatus)","numberOfBytes":"32","value":"t_struct(VRFRequestStatus)5418_storage"},"t_string_storage":{"encoding":"bytes","label":"string","numberOfBytes":"32"},"t_struct(FunctionsRequestInfo)5425_storage":{"encoding":"inplace","label":"struct EnterTheChainlinkNFTMultiverse.FunctionsRequestInfo","members":[{"astId":5420,"contract":"contracts/EnterTheChainlinkNFTMultiverse.sol:EnterTheChainlinkNFTMultiverse","label":"tokenId","offset":0,"slot":"0","type":"t_uint256"},{"astId":5422,"contract":"contracts/EnterTheChainlinkNFTMultiverse.sol:EnterTheChainlinkNFTMultiverse","label":"userWallet","offset":0,"slot":"1","type":"t_address"},{"astId":5424,"contract":"contracts/EnterTheChainlinkNFTMultiverse.sol:EnterTheChainlinkNFTMultiverse","label":"isPending","offset":20,"slot":"1","type":"t_bool"}],"numberOfBytes":"64"},"t_struct(VRFRequestStatus)5418_storage":{"encoding":"inplace","label":"struct EnterTheChainlinkNFTMultiverse.VRFRequestStatus","members":[{"astId":5408,"contract":"contracts/EnterTheChainlinkNFTMultiverse.sol:EnterTheChainlinkNFTMultiverse","label":"fulfilled","offset":0,"slot":"0","type":"t_bool"},{"astId":5410,"contract":"contracts/EnterTheChainlinkNFTMultiverse.sol:EnterTheChainlinkNFTMultiverse","label":"exists","offset":1,"slot":"0","type":"t_bool"},{"astId":5412,"contract":"contracts/EnterTheChainlinkNFTMultiverse.sol:EnterTheChainlinkNFTMultiverse","label":"tokenId","offset":0,"slot":"1","type":"t_uint256"},{"astId":5414,"contract":"contracts/EnterTheChainlinkNFTMultiverse.sol:EnterTheChainlinkNFTMultiverse","label":"userWallet","offset":0,"slot":"2","type":"t_address"},{"astId":5417,"contract":"contracts/EnterTheChainlinkNFTMultiverse.sol:EnterTheChainlinkNFTMultiverse","label":"randomWords","offset":0,"slot":"3","type":"t_array(t_uint256)dyn_storage"}],"numberOfBytes":"128"},"t_uint16":{"encoding":"inplace","label":"uint16","numberOfBytes":"2"},"t_uint256":{"encoding":"inplace","label":"uint256","numberOfBytes":"32"},"t_uint32":{"encoding":"inplace","label":"uint32","numberOfBytes":"4"},"t_uint64":{"encoding":"inplace","label":"uint64","numberOfBytes":"8"}}},"userdoc":{"errors":{"UnexpectedRequestID(bytes32)":[{"notice":"ERRORS "}]},"events":{"RequestSent(uint256,uint32)":{"notice":"CHAINLINK VRF EVENTS "}},"kind":"user","methods":{"acceptOwnership()":{"notice":"Allows an ownership transfer to be completed by the recipient."},"appendApiSource(string)":{"notice":"Add an API source to the multiverseApiSources array"},"constructor":{"notice":"CONSTRUCTOR "},"gameOfThronesSource()":{"notice":"API Sources , hardcoded but can be updated through helpers "},"handleOracleFulfillment(bytes32,bytes,bytes)":{"notice":"Chainlink Functions response handler called by the Functions Router during fullilment from the designated transmitter node in an OCR round."},"isPaused()":{"notice":"NFT VARIABLES "},"mintRandomNFTRequest(address)":{"notice":"Entry point for the user to mint an NFT, will kick off the VRF request"},"owner()":{"notice":"Get the current owner"},"pause()":{"notice":"Pause the contract"},"removeApiSource(uint256)":{"notice":"Remove an API source at a specific index"},"setCoordinator(address)":{"notice":"Sets the VRF Coordinator addressThis method should only be callable by the coordinator or contract owner"},"transferOwnership(address)":{"notice":"Allows an owner to begin transferring ownership to a new address."},"unpause()":{"notice":"Unpause the contract"},"updateApiSource(uint256,string)":{"notice":"Update an API source at a specific index"},"vrfSubscriptionId()":{"notice":"CHAINLINK VRF VARIABLES "}},"version":1}}}}