{"contracts/ChainlinkMultiverse.sol":{"EnterTheChainlinkMultiverse":{"abi":[{"inputs":[],"stateMutability":"nonpayable","type":"constructor"},{"inputs":[],"name":"EmptySource","type":"error"},{"inputs":[],"name":"NoInlineSecrets","type":"error"},{"inputs":[{"internalType":"address","name":"have","type":"address"},{"internalType":"address","name":"want","type":"address"}],"name":"OnlyCoordinatorCanFulfill","type":"error"},{"inputs":[{"internalType":"address","name":"have","type":"address"},{"internalType":"address","name":"owner","type":"address"},{"internalType":"address","name":"coordinator","type":"address"}],"name":"OnlyOwnerOrCoordinator","type":"error"},{"inputs":[],"name":"OnlyRouterCanFulfill","type":"error"},{"inputs":[{"internalType":"bytes32","name":"requestId","type":"bytes32"}],"name":"UnexpectedRequestID","type":"error"},{"inputs":[],"name":"ZeroAddress","type":"error"},{"anonymous":false,"inputs":[{"indexed":false,"internalType":"address","name":"vrfCoordinator","type":"address"}],"name":"CoordinatorSet","type":"event"},{"anonymous":false,"inputs":[{"indexed":true,"internalType":"address","name":"from","type":"address"},{"indexed":true,"internalType":"address","name":"to","type":"address"}],"name":"OwnershipTransferRequested","type":"event"},{"anonymous":false,"inputs":[{"indexed":true,"internalType":"address","name":"from","type":"address"},{"indexed":true,"internalType":"address","name":"to","type":"address"}],"name":"OwnershipTransferred","type":"event"},{"anonymous":false,"inputs":[{"indexed":true,"internalType":"bytes32","name":"id","type":"bytes32"}],"name":"RequestFulfilled","type":"event"},{"anonymous":false,"inputs":[{"indexed":false,"internalType":"uint256","name":"requestId","type":"uint256"},{"indexed":false,"internalType":"uint256[]","name":"randomWords","type":"uint256[]"}],"name":"RequestFulfilled","type":"event"},{"anonymous":false,"inputs":[{"indexed":true,"internalType":"bytes32","name":"id","type":"bytes32"}],"name":"RequestSent","type":"event"},{"anonymous":false,"inputs":[{"indexed":false,"internalType":"uint256","name":"requestId","type":"uint256"},{"indexed":false,"internalType":"uint32","name":"numWords","type":"uint32"}],"name":"RequestSent","type":"event"},{"inputs":[],"name":"acceptOwnership","outputs":[],"stateMutability":"nonpayable","type":"function"},{"inputs":[],"name":"arbitrumSepoliaVRF","outputs":[{"internalType":"address","name":"","type":"address"}],"stateMutability":"view","type":"function"},{"inputs":[],"name":"callbackGasLimit","outputs":[{"internalType":"uint32","name":"","type":"uint32"}],"stateMutability":"view","type":"function"},{"inputs":[],"name":"gasLimit","outputs":[{"internalType":"uint32","name":"","type":"uint32"}],"stateMutability":"view","type":"function"},{"inputs":[{"internalType":"bytes32","name":"requestId","type":"bytes32"},{"internalType":"bytes","name":"response","type":"bytes"},{"internalType":"bytes","name":"err","type":"bytes"}],"name":"handleOracleFulfillment","outputs":[],"stateMutability":"nonpayable","type":"function"},{"inputs":[],"name":"keyHash","outputs":[{"internalType":"bytes32","name":"","type":"bytes32"}],"stateMutability":"view","type":"function"},{"inputs":[],"name":"lastRequestId","outputs":[{"internalType":"uint256","name":"","type":"uint256"}],"stateMutability":"view","type":"function"},{"inputs":[],"name":"makeRandomRequest","outputs":[{"internalType":"uint256","name":"requestId","type":"uint256"}],"stateMutability":"nonpayable","type":"function"},{"inputs":[{"internalType":"uint256","name":"","type":"uint256"}],"name":"multiverseApiSources","outputs":[{"internalType":"string","name":"","type":"string"}],"stateMutability":"view","type":"function"},{"inputs":[],"name":"numWords","outputs":[{"internalType":"uint32","name":"","type":"uint32"}],"stateMutability":"view","type":"function"},{"inputs":[],"name":"owner","outputs":[{"internalType":"address","name":"","type":"address"}],"stateMutability":"view","type":"function"},{"inputs":[],"name":"pokesource","outputs":[{"internalType":"string","name":"","type":"string"}],"stateMutability":"view","type":"function"},{"inputs":[{"internalType":"uint256","name":"requestId","type":"uint256"},{"internalType":"uint256[]","name":"randomWords","type":"uint256[]"}],"name":"rawFulfillRandomWords","outputs":[],"stateMutability":"nonpayable","type":"function"},{"inputs":[],"name":"requestConfirmations","outputs":[{"internalType":"uint16","name":"","type":"uint16"}],"stateMutability":"view","type":"function"},{"inputs":[{"internalType":"bytes32","name":"","type":"bytes32"}],"name":"requestIdPending","outputs":[{"internalType":"address","name":"userWallet","type":"address"},{"internalType":"bool","name":"isPending","type":"bool"}],"stateMutability":"view","type":"function"},{"inputs":[{"internalType":"uint256","name":"","type":"uint256"}],"name":"requestIds","outputs":[{"internalType":"uint256","name":"","type":"uint256"}],"stateMutability":"view","type":"function"},{"inputs":[],"name":"result","outputs":[{"internalType":"string","name":"","type":"string"}],"stateMutability":"view","type":"function"},{"inputs":[],"name":"router","outputs":[{"internalType":"address","name":"","type":"address"}],"stateMutability":"view","type":"function"},{"inputs":[],"name":"s_lastError","outputs":[{"internalType":"bytes","name":"","type":"bytes"}],"stateMutability":"view","type":"function"},{"inputs":[],"name":"s_lastRequestId","outputs":[{"internalType":"bytes32","name":"","type":"bytes32"}],"stateMutability":"view","type":"function"},{"inputs":[],"name":"s_lastResponse","outputs":[{"internalType":"bytes","name":"","type":"bytes"}],"stateMutability":"view","type":"function"},{"inputs":[{"internalType":"uint256","name":"","type":"uint256"}],"name":"s_requests","outputs":[{"internalType":"bool","name":"fulfilled","type":"bool"},{"internalType":"bool","name":"exists","type":"bool"}],"stateMutability":"view","type":"function"},{"inputs":[],"name":"s_vrfCoordinator","outputs":[{"internalType":"contract IVRFCoordinatorV2Plus","name":"","type":"address"}],"stateMutability":"view","type":"function"},{"inputs":[{"internalType":"address","name":"userWallet","type":"address"}],"name":"sendRequest","outputs":[{"internalType":"bytes32","name":"requestId","type":"bytes32"}],"stateMutability":"nonpayable","type":"function"},{"inputs":[{"internalType":"address","name":"_vrfCoordinator","type":"address"}],"name":"setCoordinator","outputs":[],"stateMutability":"nonpayable","type":"function"},{"inputs":[],"name":"subscriptionId","outputs":[{"internalType":"uint64","name":"","type":"uint64"}],"stateMutability":"view","type":"function"},{"inputs":[{"internalType":"address","name":"to","type":"address"}],"name":"transferOwnership","outputs":[],"stateMutability":"nonpayable","type":"function"},{"inputs":[{"internalType":"string","name":"s","type":"string"}],"name":"updatePokeSource","outputs":[],"stateMutability":"nonpayable","type":"function"},{"inputs":[{"internalType":"address","name":"","type":"address"}],"name":"userToRequestResult","outputs":[{"internalType":"string","name":"","type":"string"}],"stateMutability":"view","type":"function"}],"devdoc":{"kind":"dev","methods":{"handleOracleFulfillment(bytes32,bytes,bytes)":{"details":"Either response or error parameter will be set, but never both.","params":{"err":"Aggregated error either from the request's source code or from the execution pipeline.","requestId":"The requestId returned by FunctionsClient.sendRequest().","response":"Aggregated response from the request's source code."}}},"version":1},"evm":{"bytecode":{"linkReferences":{},"object":"60028054600160a01b600160e01b031916604360a01b1790556006805473234a5fb5bd614a7aa2ffab244d603abfa0ac5c5c6001600160a01b03199091161790557f66756e2d617262697472756d2d7365706f6c69612d310000000000000000000060075560088054620493e063ffffffff199091161790557f787d74caea10b2b357790d5b5247c2f63d1d91572a9846f780606e4d953677ae600e55600f805465ffffffffffff191662010001179055601280546001600160c01b0319167750d47e4142598e3411aa864e08a44284e471ac6f000186a01790556103a06040526102d760a0818152906200229c60c039601390620000ff908262000357565b503480156200010d57600080fd5b506012546006546001600160a01b03908116608052640100000000909104163380600081620001835760405162461bcd60e51b815260206004820152601860248201527f43616e6e6f7420736574206f776e657220746f207a65726f000000000000000060448201526064015b60405180910390fd5b600080546001600160a01b0319166001600160a01b0384811691909117909155811615620001b657620001b68162000207565b5050506001600160a01b038116620001e15760405163d92e233d60e01b815260040160405180910390fd5b600280546001600160a01b0319166001600160a01b039290921691909117905562000423565b336001600160a01b03821603620002615760405162461bcd60e51b815260206004820152601760248201527f43616e6e6f74207472616e7366657220746f2073656c6600000000000000000060448201526064016200017a565b600180546001600160a01b0319166001600160a01b0383811691821790925560008054604051929316917fed8889f560326eb138920d842192f0eb3dd22b4f139c87a2c57538e05bae12789190a350565b634e487b7160e01b600052604160045260246000fd5b600181811c90821680620002dd57607f821691505b602082108103620002fe57634e487b7160e01b600052602260045260246000fd5b50919050565b601f8211156200035257600081815260208120601f850160051c810160208610156200032d5750805b601f850160051c820191505b818110156200034e5782815560010162000339565b5050505b505050565b81516001600160401b03811115620003735762000373620002b2565b6200038b81620003848454620002c8565b8462000304565b602080601f831160018114620003c35760008415620003aa5750858301515b600019600386901b1c1916600185901b1785556200034e565b600085815260208120601f198616915b82811015620003f457888601518255948401946001909101908401620003d3565b5085821015620004135787850151600019600388901b60f8161c191681555b5050505050600190811b01905550565b608051611e56620004466000396000818161052401526110230152611e566000f3fe608060405234801561001057600080fd5b50600436106101cf5760003560e01c806385e1b15b11610104578063a321ccaa116100a2578063f2fde38b11610071578063f2fde38b1461044c578063f68016b71461045f578063f887ea401461046f578063fc2a88c31461048257600080fd5b8063a321ccaa146103f4578063b0fb162f1461040f578063b1e2174914610430578063cfd30a6e1461043957600080fd5b80638e84737f116100de5780638e84737f146103375780638ea981171461038b5780639eccacf61461039e578063a168fa89146103b157600080fd5b806385e1b15b146102ec5780638796ba8c146102ff5780638da5cb5b1461031257600080fd5b80633944ea3a11610171578063653721471161014b57806365372147146102b357806377452a2c146102bb57806379ba5097146102ce5780637ccfd7fc146102d657600080fd5b80633944ea3a1461029a5780634b0795a8146102a257806361728f39146102aa57600080fd5b80631ab0f2b3116101ad5780631ab0f2b3146102395780631fe543e31461024f57806324f74697146102625780632e0a58901461028757600080fd5b8063020dbb9b146101d457806309c1ba2e146101f25780630ca7617514610224575b600080fd5b6101dc61048b565b6040516101e9919061175c565b60405180910390f35b60025461020c90600160a01b90046001600160401b031681565b6040516001600160401b0390911681526020016101e9565b61023761023236600461181a565b610519565b005b61024161059d565b6040519081526020016101e9565b61023761025d366004611886565b610785565b6012546102729063ffffffff1681565b60405163ffffffff90911681526020016101e9565b6101dc610295366004611904565b6107cf565b6101dc6107e8565b6101dc6107f5565b610241600e5481565b6101dc610802565b6102376102c936600461192d565b61080f565b610237610827565b600f546102729062010000900463ffffffff1681565b6102416102fa366004611904565b6108d1565b61024161030d36600461197d565b610a4d565b6000546001600160a01b03165b6040516001600160a01b0390911681526020016101e9565b61036c61034536600461197d565b6004602052600090815260409020546001600160a01b03811690600160a01b900460ff1682565b604080516001600160a01b0390931683529015156020830152016101e9565b610237610399366004611904565b610a6e565b60025461031f906001600160a01b031681565b6103dd6103bf36600461197d565b600d6020526000908152604090205460ff8082169161010090041682565b6040805192151583529015156020830152016101e9565b60125461031f9064010000000090046001600160a01b031681565b600f5461041d9061ffff1681565b60405161ffff90911681526020016101e9565b61024160095481565b6101dc61044736600461197d565b610b60565b61023761045a366004611904565b610b8b565b6008546102729063ffffffff1681565b60065461031f906001600160a01b031681565b61024160115481565b6013805461049890611996565b80601f01602080910402602001604051908101604052809291908181526020018280546104c490611996565b80156105115780601f106104e657610100808354040283529160200191610511565b820191906000526020600020905b8154815290600101906020018083116104f457829003601f168201915b505050505081565b336001600160a01b037f000000000000000000000000000000000000000000000000000000000000000016146105625760405163c6829f8360e01b815260040160405180910390fd5b61056d838383610b9f565b60405183907f85e1543bf2f84fe80c6badbce3648c8539ad1df4d2b3d822938ca0538be727e690600090a2505050565b60006105a7610c73565b6002546040805160c081018252600e5481526001600160401b03600160a01b840416602080830191909152600f5461ffff81168385015260125463ffffffff9081166060850152620100009091041660808301528251908101909252600082526001600160a01b0390921691639b1c385e9160a082019061062790610cc8565b8152506040518263ffffffff1660e01b815260040161064691906119d0565b6020604051808303816000875af1158015610665573d6000803e3d6000fd5b505050506040513d601f19601f820116820180604052508101906106899190611a2d565b6040805160608101825260008082526001602080840182815285518481528083018752858701908152878552600d83529590932084518154945161ffff1990951690151561ff001916176101009415159490940293909317835593518051959650929491936106fe9391850192910190611681565b5050601080546001810182556000919091527f1b6847dc741a1b0cd08d278845f9d819d87b734759afb55fe2de5cb82a9ae67201829055506011819055600f54604080518381526201000090920463ffffffff1660208301527fcc58b13ad3eab50626c6a6300b1d139cd6ebb1688a7cced9461c2f7e762665ee910160405180910390a190565b6002546001600160a01b031633146107ca5760025460405163073e64fd60e21b81523360048201526001600160a01b0390911660248201526044015b60405180910390fd5b505050565b6005602052600090815260409020805461049890611996565b600a805461049890611996565b600b805461049890611996565b600c805461049890611996565b610817610c73565b60136108238282611a94565b5050565b6001546001600160a01b0316331461087a5760405162461bcd60e51b815260206004820152601660248201527526bab9ba10313290383937b837b9b2b21037bbb732b960511b60448201526064016107c1565b60008054336001600160a01b0319808316821784556001805490911690556040516001600160a01b0390921692909183917f8be0079c531659141344cd1fd0a4f28419497f9722a3daafe3b4186f6b6457e091a350565b60006108db610c73565b61091c6040805160e0810190915280600081526020016000815260200160008152602001606081526020016060815260200160608152602001606081525090565b6109b96013805461092c90611996565b80601f016020809104026020016040519081016040528092919081815260200182805461095890611996565b80156109a55780601f1061097a576101008083540402835291602001916109a5565b820191906000526020600020905b81548152906001019060200180831161098857829003601f168201915b505050505082610d3990919063ffffffff16565b6109ee6109c582610d46565b600254600854600754600160a01b9092046001600160401b03169163ffffffff9091169061101e565b60098181556040805180820182526001600160a01b03808816825260016020808401918252600096875260049052929094209051815492511515600160a01b026001600160a81b03199093169416939093171790915554915050919050565b60108181548110610a5d57600080fd5b600091825260209091200154905081565b6000546001600160a01b03163314801590610a9457506002546001600160a01b03163314155b15610ae55733610aac6000546001600160a01b031690565b60025460405163061db9c160e01b81526001600160a01b03938416600482015291831660248301529190911660448201526064016107c1565b6001600160a01b038116610b0c5760405163d92e233d60e01b815260040160405180910390fd5b600280546001600160a01b0319166001600160a01b0383169081179091556040519081527fd1a6a14209a385a964d036e404cb5cfb71f4000cdb03c9366292430787261be69060200160405180910390a150565b60038181548110610b7057600080fd5b90600052602060002001600091509050805461049890611996565b610b93610c73565b610b9c816110f0565b50565b600083815260046020526040902054600160a01b900460ff161515600114610bfe5760405162461bcd60e51b8152602060048201526012602482015271125b9d985b1a59081c995c5d595cdd081a5960721b60448201526064016107c1565b600b610c0a8282611a94565b506000838152600460205260409020805460ff60a01b19169055600a610c308382611a94565b50600c610c3d8382611a94565b506000838152600460209081526040808320546001600160a01b0316835260059091529020610c6d600c82611b53565b50505050565b6000546001600160a01b03163314610cc65760405162461bcd60e51b815260206004820152601660248201527527b7363c9031b0b63630b1363290313c9037bbb732b960511b60448201526064016107c1565b565b60607f92fd13387c7fe7befbc38d303d6468778fb9731bc4583f17d92989c6fcfdeaaa82604051602401610d0191511515815260200190565b60408051601f198184030181529190526020810180516001600160e01b03166001600160e01b03199093169290921790915292915050565b6108238260008084611199565b60606000610d55610100611217565b9050610d8e6040518060400160405280600c81526020016b31b7b232a637b1b0ba34b7b760a11b8152508261123890919063ffffffff16565b8251610dac906002811115610da557610da5611c2d565b8290611251565b6040805180820190915260088152676c616e677561676560c01b6020820152610dd6908290611238565b6040830151610ded908015610da557610da5611c2d565b604080518082019091526006815265736f7572636560d01b6020820152610e15908290611238565b6060830151610e25908290611238565b60a08301515115610eb9576040805180820190915260048152636172677360e01b6020820152610e56908290611238565b610e5f8161128a565b60005b8360a0015151811015610eaf57610e9f8460a001518281518110610e8857610e88611c43565b60200260200101518361123890919063ffffffff16565b610ea881611c6f565b9050610e62565b50610eb9816112ae565b60808301515115610f7d57600083602001516002811115610edc57610edc611c2d565b03610efa5760405163a80d31f760e01b815260040160405180910390fd5b60408051808201909152600f81526e39b2b1b932ba39a637b1b0ba34b7b760891b6020820152610f2b908290611238565b610f4483602001516002811115610da557610da5611c2d565b6040805180820190915260078152667365637265747360c81b6020820152610f6d908290611238565b6080830151610f7d9082906112cc565b60c083015151156110165760408051808201909152600981526862797465734172677360b81b6020820152610fb3908290611238565b610fbc8161128a565b60005b8360c001515181101561100c57610ffc8460c001518281518110610fe557610fe5611c43565b6020026020010151836112cc90919063ffffffff16565b61100581611c6f565b9050610fbf565b50611016816112ae565b515192915050565b6000807f00000000000000000000000000000000000000000000000000000000000000006001600160a01b031663461d27628688600188886040518663ffffffff1660e01b8152600401611076959493929190611c88565b6020604051808303816000875af1158015611095573d6000803e3d6000fd5b505050506040513d601f19601f820116820180604052508101906110b99190611a2d565b60405190915081907f1131472297a800fee664d1d89cfa8f7676ff07189ecc53f80bbb5f4969099db890600090a295945050505050565b336001600160a01b038216036111485760405162461bcd60e51b815260206004820152601760248201527f43616e6e6f74207472616e7366657220746f2073656c6600000000000000000060448201526064016107c1565b600180546001600160a01b0319166001600160a01b0383811691821790925560008054604051929316917fed8889f560326eb138920d842192f0eb3dd22b4f139c87a2c57538e05bae12789190a350565b80516000036111bb576040516322ce3edd60e01b815260040160405180910390fd5b838360028111156111ce576111ce611c2d565b908160028111156111e1576111e1611c2d565b905250604084018280156111f7576111f7611c2d565b9081801561120757611207611c2d565b9052506060909301929092525050565b61121f6116cc565b805161122b90836112d9565b5060006020820152919050565b6112458260038351611353565b81516107ca908261146c565b815161125e9060c2611494565b50610823828260405160200161127691815260200190565b6040516020818303038152906040526112cc565b6112958160046114fd565b6001816020018181516112a89190611cd1565b90525050565b6112b98160076114fd565b6001816020018181516112a89190611ce4565b6112458260028351611353565b6040805180820190915260608152600060208201526112f9602083611cf7565b1561132157611309602083611cf7565b611314906020611ce4565b61131e9083611cd1565b91505b60208084018390526040518085526000815290818401018181101561134557600080fd5b604052508290505b92915050565b6017816001600160401b031611611379578251610c6d9060e0600585901b168317611494565b60ff816001600160401b0316116113b95782516113a1906018611fe0600586901b1617611494565b508251610c6d906001600160401b0383166001611514565b61ffff816001600160401b0316116113fa5782516113e2906019611fe0600586901b1617611494565b508251610c6d906001600160401b0383166002611514565b63ffffffff816001600160401b03161161143d57825161142590601a611fe0600586901b1617611494565b508251610c6d906001600160401b0383166004611514565b825161145490601b611fe0600586901b1617611494565b508251610c6d906001600160401b0383166008611514565b60408051808201909152606081526000602082015261148d83838451611599565b9392505050565b60408051808201909152606081526000602082015282515160006114b9826001611cd1565b9050846020015182106114da576114da856114d5836002611d19565b61166a565b84516020838201018581535080518211156114f3578181525b5093949350505050565b81516107ca90601f611fe0600585901b1617611494565b60408051808201909152606081526000602082015283515160006115388285611cd1565b9050856020015181111561155557611555866114d5836002611d19565b6000600161156586610100611e14565b61156f9190611ce4565b9050865182810187831982511617815250805183111561158d578281525b50959695505050505050565b60408051808201909152606081526000602082015282518211156115bc57600080fd5b83515160006115cb8483611cd1565b905085602001518111156115e8576115e8866114d5836002611d19565b855180518382016020019160009180851115611602578482525b505050602086015b602086106116425780518252611621602083611cd1565b915061162e602082611cd1565b905061163b602087611ce4565b955061160a565b51815160001960208890036101000a0190811690199190911617905250849150509392505050565b815161167683836112d9565b50610c6d838261146c565b8280548282559060005260206000209081019282156116bc579160200282015b828111156116bc5782518255916020019190600101906116a1565b506116c8929150611701565b5090565b60405180604001604052806116f4604051806040016040528060608152602001600081525090565b8152602001600081525090565b5b808211156116c85760008155600101611702565b6000815180845260005b8181101561173c57602081850181015186830182015201611720565b506000602082860101526020601f19601f83011685010191505092915050565b60208152600061148d6020830184611716565b634e487b7160e01b600052604160045260246000fd5b60006001600160401b038084111561179f5761179f61176f565b604051601f8501601f19908116603f011681019082821181831017156117c7576117c761176f565b816040528093508581528686860111156117e057600080fd5b858560208301376000602087830101525050509392505050565b600082601f83011261180b57600080fd5b61148d83833560208501611785565b60008060006060848603121561182f57600080fd5b8335925060208401356001600160401b038082111561184d57600080fd5b611859878388016117fa565b9350604086013591508082111561186f57600080fd5b5061187c868287016117fa565b9150509250925092565b60008060006040848603121561189b57600080fd5b8335925060208401356001600160401b03808211156118b957600080fd5b818601915086601f8301126118cd57600080fd5b8135818111156118dc57600080fd5b8760208260051b85010111156118f157600080fd5b6020830194508093505050509250925092565b60006020828403121561191657600080fd5b81356001600160a01b038116811461148d57600080fd5b60006020828403121561193f57600080fd5b81356001600160401b0381111561195557600080fd5b8201601f8101841361196657600080fd5b61197584823560208401611785565b949350505050565b60006020828403121561198f57600080fd5b5035919050565b600181811c908216806119aa57607f821691505b6020821081036119ca57634e487b7160e01b600052602260045260246000fd5b50919050565b60208152815160208201526020820151604082015261ffff60408301511660608201526000606083015163ffffffff80821660808501528060808601511660a0850152505060a083015160c08084015261197560e0840182611716565b600060208284031215611a3f57600080fd5b5051919050565b601f8211156107ca57600081815260208120601f850160051c81016020861015611a6d5750805b601f850160051c820191505b81811015611a8c57828155600101611a79565b505050505050565b81516001600160401b03811115611aad57611aad61176f565b611ac181611abb8454611996565b84611a46565b602080601f831160018114611af65760008415611ade5750858301515b600019600386901b1c1916600185901b178555611a8c565b600085815260208120601f198616915b82811015611b2557888601518255948401946001909101908401611b06565b5085821015611b435787850151600019600388901b60f8161c191681555b5050505050600190811b01905550565b818103611b5e575050565b611b688254611996565b6001600160401b03811115611b7f57611b7f61176f565b611b8d81611abb8454611996565b6000601f821160018114611bc15760008315611ba95750848201545b600019600385901b1c1916600184901b178455611c26565b600085815260209020601f19841690600086815260209020845b83811015611bfb5782860154825560019586019590910190602001611bdb565b5085831015611c195781850154600019600388901b60f8161c191681555b50505060018360011b0184555b5050505050565b634e487b7160e01b600052602160045260246000fd5b634e487b7160e01b600052603260045260246000fd5b634e487b7160e01b600052601160045260246000fd5b600060018201611c8157611c81611c59565b5060010190565b6001600160401b038616815260a060208201526000611caa60a0830187611716565b61ffff9590951660408301525063ffffffff92909216606083015260809091015292915050565b8082018082111561134d5761134d611c59565b8181038181111561134d5761134d611c59565b600082611d1457634e487b7160e01b600052601260045260246000fd5b500690565b808202811582820484141761134d5761134d611c59565b600181815b80851115611d6b578160001904821115611d5157611d51611c59565b80851615611d5e57918102915b93841c9390800290611d35565b509250929050565b600082611d825750600161134d565b81611d8f5750600061134d565b8160018114611da55760028114611daf57611dcb565b600191505061134d565b60ff841115611dc057611dc0611c59565b50506001821b61134d565b5060208310610133831016604e8410600b8410161715611dee575081810a61134d565b611df88383611d30565b8060001904821115611e0c57611e0c611c59565b029392505050565b600061148d8383611d7356fea2646970667358221220702b8ac0223405455c0e737665d3801969ce04a0aad32afac97648c8d82098b364736f6c63430008140033636f6e737420706f6b6955524c203d206068747470733a2f2f706f6b656170692e636f2f6170692f76322f706f6b656d6f6e603b636f6e737420687055524c203d206068747470733a2f2f77697a6172642d776f726c642d6170692e6865726f6b756170702e636f6d2f486f75736573603b636f6e737420706f6b656d6f6e436861726163746572203d20313b636f6e736f6c652e6c6f67286053656e64696e672048545450207265717565737420746f20247b706f6b6955524c7d2f247b706f6b656d6f6e4368617261637465727d2f60293b636f6e737420706f6b6952657175657374203d2046756e6374696f6e732e6d616b654874747052657175657374287b75726c3a2060247b706f6b6955524c7d2f247b706f6b656d6f6e4368617261637465727d602c6d6574686f643a2060474554602c7d293b636f6e737420687052657175657374203d2046756e6374696f6e732e6d616b654874747052657175657374287b75726c3a20687055524c2c6d6574686f643a2060474554602c7d293b636f6e737420706f6b69526573706f6e7365203d20617761697420706f6b69526571756573743b636f6e7374206870526573706f6e7365203d206177616974206870526571756573743b636f6e73742072657144617461203d20706f6b69526573706f6e73652e646174613b636f6e737420687044617461203d206870526573706f6e73652e646174613b636f6e7374206d7944617461203d207b706f6b656d6f6e547970653a20726571446174612e74797065735b305d2e747970652e6e616d652c706f6b656d6f6e4e616d653a20726571446174612e737065636965732e6e616d652c706f6b656d6f6e496d6167653a20726571446174612e737072697465732e6f746865722e686f6d652e66726f6e745f64656661756c742c7d3b72657475726e2046756e6374696f6e732e656e636f6465537472696e67284a534f4e2e737472696e67696679286d794461746129293b","opcodes":"PUSH1 0x2 DUP1 SLOAD PUSH1 0x1 PUSH1 0xA0 SHL PUSH1 0x1 PUSH1 0xE0 SHL SUB NOT AND PUSH1 0x43 PUSH1 0xA0 SHL OR SWAP1 SSTORE PUSH1 0x6 DUP1 SLOAD PUSH20 0x234A5FB5BD614A7AA2FFAB244D603ABFA0AC5C5C PUSH1 0x1 PUSH1 0x1 PUSH1 0xA0 SHL SUB NOT SWAP1 SWAP2 AND OR SWAP1 SSTORE PUSH32 0x66756E2D617262697472756D2D7365706F6C69612D3100000000000000000000 PUSH1 0x7 SSTORE PUSH1 0x8 DUP1 SLOAD PUSH3 0x493E0 PUSH4 0xFFFFFFFF NOT SWAP1 SWAP2 AND OR SWAP1 SSTORE PUSH32 0x787D74CAEA10B2B357790D5B5247C2F63D1D91572A9846F780606E4D953677AE PUSH1 0xE SSTORE PUSH1 0xF DUP1 SLOAD PUSH6 0xFFFFFFFFFFFF NOT AND PUSH3 0x10001 OR SWAP1 SSTORE PUSH1 0x12 DUP1 SLOAD PUSH1 0x1 PUSH1 0x1 PUSH1 0xC0 SHL SUB NOT AND PUSH24 0x50D47E4142598E3411AA864E08A44284E471AC6F000186A0 OR SWAP1 SSTORE PUSH2 0x3A0 PUSH1 0x40 MSTORE PUSH2 0x2D7 PUSH1 0xA0 DUP2 DUP2 MSTORE SWAP1 PUSH3 0x229C PUSH1 0xC0 CODECOPY PUSH1 0x13 SWAP1 PUSH3 0xFF SWAP1 DUP3 PUSH3 0x357 JUMP JUMPDEST POP CALLVALUE DUP1 ISZERO PUSH3 0x10D JUMPI PUSH1 0x0 DUP1 REVERT JUMPDEST POP PUSH1 0x12 SLOAD PUSH1 0x6 SLOAD PUSH1 0x1 PUSH1 0x1 PUSH1 0xA0 SHL SUB SWAP1 DUP2 AND PUSH1 0x80 MSTORE PUSH5 0x100000000 SWAP1 SWAP2 DIV AND CALLER DUP1 PUSH1 0x0 DUP2 PUSH3 0x183 JUMPI PUSH1 0x40 MLOAD PUSH3 0x461BCD PUSH1 0xE5 SHL DUP2 MSTORE PUSH1 0x20 PUSH1 0x4 DUP3 ADD MSTORE PUSH1 0x18 PUSH1 0x24 DUP3 ADD MSTORE PUSH32 0x43616E6E6F7420736574206F776E657220746F207A65726F0000000000000000 PUSH1 0x44 DUP3 ADD MSTORE PUSH1 0x64 ADD JUMPDEST PUSH1 0x40 MLOAD DUP1 SWAP2 SUB SWAP1 REVERT JUMPDEST PUSH1 0x0 DUP1 SLOAD PUSH1 0x1 PUSH1 0x1 PUSH1 0xA0 SHL SUB NOT AND PUSH1 0x1 PUSH1 0x1 PUSH1 0xA0 SHL SUB DUP5 DUP2 AND SWAP2 SWAP1 SWAP2 OR SWAP1 SWAP2 SSTORE DUP2 AND ISZERO PUSH3 0x1B6 JUMPI PUSH3 0x1B6 DUP2 PUSH3 0x207 JUMP JUMPDEST POP POP POP PUSH1 0x1 PUSH1 0x1 PUSH1 0xA0 SHL SUB DUP2 AND PUSH3 0x1E1 JUMPI PUSH1 0x40 MLOAD PUSH4 0xD92E233D PUSH1 0xE0 SHL DUP2 MSTORE PUSH1 0x4 ADD PUSH1 0x40 MLOAD DUP1 SWAP2 SUB SWAP1 REVERT JUMPDEST PUSH1 0x2 DUP1 SLOAD PUSH1 0x1 PUSH1 0x1 PUSH1 0xA0 SHL SUB NOT AND PUSH1 0x1 PUSH1 0x1 PUSH1 0xA0 SHL SUB SWAP3 SWAP1 SWAP3 AND SWAP2 SWAP1 SWAP2 OR SWAP1 SSTORE PUSH3 0x423 JUMP JUMPDEST CALLER PUSH1 0x1 PUSH1 0x1 PUSH1 0xA0 SHL SUB DUP3 AND SUB PUSH3 0x261 JUMPI PUSH1 0x40 MLOAD PUSH3 0x461BCD PUSH1 0xE5 SHL DUP2 MSTORE PUSH1 0x20 PUSH1 0x4 DUP3 ADD MSTORE PUSH1 0x17 PUSH1 0x24 DUP3 ADD MSTORE PUSH32 0x43616E6E6F74207472616E7366657220746F2073656C66000000000000000000 PUSH1 0x44 DUP3 ADD MSTORE PUSH1 0x64 ADD PUSH3 0x17A JUMP JUMPDEST PUSH1 0x1 DUP1 SLOAD PUSH1 0x1 PUSH1 0x1 PUSH1 0xA0 SHL SUB NOT AND PUSH1 0x1 PUSH1 0x1 PUSH1 0xA0 SHL SUB DUP4 DUP2 AND SWAP2 DUP3 OR SWAP1 SWAP3 SSTORE PUSH1 0x0 DUP1 SLOAD PUSH1 0x40 MLOAD SWAP3 SWAP4 AND SWAP2 PUSH32 0xED8889F560326EB138920D842192F0EB3DD22B4F139C87A2C57538E05BAE1278 SWAP2 SWAP1 LOG3 POP JUMP JUMPDEST PUSH4 0x4E487B71 PUSH1 0xE0 SHL PUSH1 0x0 MSTORE PUSH1 0x41 PUSH1 0x4 MSTORE PUSH1 0x24 PUSH1 0x0 REVERT JUMPDEST PUSH1 0x1 DUP2 DUP2 SHR SWAP1 DUP3 AND DUP1 PUSH3 0x2DD JUMPI PUSH1 0x7F DUP3 AND SWAP2 POP JUMPDEST PUSH1 0x20 DUP3 LT DUP2 SUB PUSH3 0x2FE JUMPI PUSH4 0x4E487B71 PUSH1 0xE0 SHL PUSH1 0x0 MSTORE PUSH1 0x22 PUSH1 0x4 MSTORE PUSH1 0x24 PUSH1 0x0 REVERT JUMPDEST POP SWAP2 SWAP1 POP JUMP JUMPDEST PUSH1 0x1F DUP3 GT ISZERO PUSH3 0x352 JUMPI PUSH1 0x0 DUP2 DUP2 MSTORE PUSH1 0x20 DUP2 KECCAK256 PUSH1 0x1F DUP6 ADD PUSH1 0x5 SHR DUP2 ADD PUSH1 0x20 DUP7 LT ISZERO PUSH3 0x32D JUMPI POP DUP1 JUMPDEST PUSH1 0x1F DUP6 ADD PUSH1 0x5 SHR DUP3 ADD SWAP2 POP JUMPDEST DUP2 DUP2 LT ISZERO PUSH3 0x34E JUMPI DUP3 DUP2 SSTORE PUSH1 0x1 ADD PUSH3 0x339 JUMP JUMPDEST POP POP POP JUMPDEST POP POP POP JUMP JUMPDEST DUP2 MLOAD PUSH1 0x1 PUSH1 0x1 PUSH1 0x40 SHL SUB DUP2 GT ISZERO PUSH3 0x373 JUMPI PUSH3 0x373 PUSH3 0x2B2 JUMP JUMPDEST PUSH3 0x38B DUP2 PUSH3 0x384 DUP5 SLOAD PUSH3 0x2C8 JUMP JUMPDEST DUP5 PUSH3 0x304 JUMP JUMPDEST PUSH1 0x20 DUP1 PUSH1 0x1F DUP4 GT PUSH1 0x1 DUP2 EQ PUSH3 0x3C3 JUMPI PUSH1 0x0 DUP5 ISZERO PUSH3 0x3AA JUMPI POP DUP6 DUP4 ADD MLOAD JUMPDEST PUSH1 0x0 NOT PUSH1 0x3 DUP7 SWAP1 SHL SHR NOT AND PUSH1 0x1 DUP6 SWAP1 SHL OR DUP6 SSTORE PUSH3 0x34E JUMP JUMPDEST PUSH1 0x0 DUP6 DUP2 MSTORE PUSH1 0x20 DUP2 KECCAK256 PUSH1 0x1F NOT DUP7 AND SWAP2 JUMPDEST DUP3 DUP2 LT ISZERO PUSH3 0x3F4 JUMPI DUP9 DUP7 ADD MLOAD DUP3 SSTORE SWAP5 DUP5 ADD SWAP5 PUSH1 0x1 SWAP1 SWAP2 ADD SWAP1 DUP5 ADD PUSH3 0x3D3 JUMP JUMPDEST POP DUP6 DUP3 LT ISZERO PUSH3 0x413 JUMPI DUP8 DUP6 ADD MLOAD PUSH1 0x0 NOT PUSH1 0x3 DUP9 SWAP1 SHL PUSH1 0xF8 AND SHR NOT AND DUP2 SSTORE JUMPDEST POP POP POP POP POP PUSH1 0x1 SWAP1 DUP2 SHL ADD SWAP1 SSTORE POP JUMP JUMPDEST PUSH1 0x80 MLOAD PUSH2 0x1E56 PUSH3 0x446 PUSH1 0x0 CODECOPY PUSH1 0x0 DUP2 DUP2 PUSH2 0x524 ADD MSTORE PUSH2 0x1023 ADD MSTORE PUSH2 0x1E56 PUSH1 0x0 RETURN INVALID PUSH1 0x80 PUSH1 0x40 MSTORE CALLVALUE DUP1 ISZERO PUSH2 0x10 JUMPI PUSH1 0x0 DUP1 REVERT JUMPDEST POP PUSH1 0x4 CALLDATASIZE LT PUSH2 0x1CF JUMPI PUSH1 0x0 CALLDATALOAD PUSH1 0xE0 SHR DUP1 PUSH4 0x85E1B15B GT PUSH2 0x104 JUMPI DUP1 PUSH4 0xA321CCAA GT PUSH2 0xA2 JUMPI DUP1 PUSH4 0xF2FDE38B GT PUSH2 0x71 JUMPI DUP1 PUSH4 0xF2FDE38B EQ PUSH2 0x44C JUMPI DUP1 PUSH4 0xF68016B7 EQ PUSH2 0x45F JUMPI DUP1 PUSH4 0xF887EA40 EQ PUSH2 0x46F JUMPI DUP1 PUSH4 0xFC2A88C3 EQ PUSH2 0x482 JUMPI PUSH1 0x0 DUP1 REVERT JUMPDEST DUP1 PUSH4 0xA321CCAA EQ PUSH2 0x3F4 JUMPI DUP1 PUSH4 0xB0FB162F EQ PUSH2 0x40F JUMPI DUP1 PUSH4 0xB1E21749 EQ PUSH2 0x430 JUMPI DUP1 PUSH4 0xCFD30A6E EQ PUSH2 0x439 JUMPI PUSH1 0x0 DUP1 REVERT JUMPDEST DUP1 PUSH4 0x8E84737F GT PUSH2 0xDE JUMPI DUP1 PUSH4 0x8E84737F EQ PUSH2 0x337 JUMPI DUP1 PUSH4 0x8EA98117 EQ PUSH2 0x38B JUMPI DUP1 PUSH4 0x9ECCACF6 EQ PUSH2 0x39E JUMPI DUP1 PUSH4 0xA168FA89 EQ PUSH2 0x3B1 JUMPI PUSH1 0x0 DUP1 REVERT JUMPDEST DUP1 PUSH4 0x85E1B15B EQ PUSH2 0x2EC JUMPI DUP1 PUSH4 0x8796BA8C EQ PUSH2 0x2FF JUMPI DUP1 PUSH4 0x8DA5CB5B EQ PUSH2 0x312 JUMPI PUSH1 0x0 DUP1 REVERT JUMPDEST DUP1 PUSH4 0x3944EA3A GT PUSH2 0x171 JUMPI DUP1 PUSH4 0x65372147 GT PUSH2 0x14B JUMPI DUP1 PUSH4 0x65372147 EQ PUSH2 0x2B3 JUMPI DUP1 PUSH4 0x77452A2C EQ PUSH2 0x2BB JUMPI DUP1 PUSH4 0x79BA5097 EQ PUSH2 0x2CE JUMPI DUP1 PUSH4 0x7CCFD7FC EQ PUSH2 0x2D6 JUMPI PUSH1 0x0 DUP1 REVERT JUMPDEST DUP1 PUSH4 0x3944EA3A EQ PUSH2 0x29A JUMPI DUP1 PUSH4 0x4B0795A8 EQ PUSH2 0x2A2 JUMPI DUP1 PUSH4 0x61728F39 EQ PUSH2 0x2AA JUMPI PUSH1 0x0 DUP1 REVERT JUMPDEST DUP1 PUSH4 0x1AB0F2B3 GT PUSH2 0x1AD JUMPI DUP1 PUSH4 0x1AB0F2B3 EQ PUSH2 0x239 JUMPI DUP1 PUSH4 0x1FE543E3 EQ PUSH2 0x24F JUMPI DUP1 PUSH4 0x24F74697 EQ PUSH2 0x262 JUMPI DUP1 PUSH4 0x2E0A5890 EQ PUSH2 0x287 JUMPI PUSH1 0x0 DUP1 REVERT JUMPDEST DUP1 PUSH4 0x20DBB9B EQ PUSH2 0x1D4 JUMPI DUP1 PUSH4 0x9C1BA2E EQ PUSH2 0x1F2 JUMPI DUP1 PUSH4 0xCA76175 EQ PUSH2 0x224 JUMPI JUMPDEST PUSH1 0x0 DUP1 REVERT JUMPDEST PUSH2 0x1DC PUSH2 0x48B JUMP JUMPDEST PUSH1 0x40 MLOAD PUSH2 0x1E9 SWAP2 SWAP1 PUSH2 0x175C JUMP JUMPDEST PUSH1 0x40 MLOAD DUP1 SWAP2 SUB SWAP1 RETURN JUMPDEST PUSH1 0x2 SLOAD PUSH2 0x20C SWAP1 PUSH1 0x1 PUSH1 0xA0 SHL SWAP1 DIV PUSH1 0x1 PUSH1 0x1 PUSH1 0x40 SHL SUB AND DUP2 JUMP JUMPDEST PUSH1 0x40 MLOAD PUSH1 0x1 PUSH1 0x1 PUSH1 0x40 SHL SUB SWAP1 SWAP2 AND DUP2 MSTORE PUSH1 0x20 ADD PUSH2 0x1E9 JUMP JUMPDEST PUSH2 0x237 PUSH2 0x232 CALLDATASIZE PUSH1 0x4 PUSH2 0x181A JUMP JUMPDEST PUSH2 0x519 JUMP JUMPDEST STOP JUMPDEST PUSH2 0x241 PUSH2 0x59D JUMP JUMPDEST PUSH1 0x40 MLOAD SWAP1 DUP2 MSTORE PUSH1 0x20 ADD PUSH2 0x1E9 JUMP JUMPDEST PUSH2 0x237 PUSH2 0x25D CALLDATASIZE PUSH1 0x4 PUSH2 0x1886 JUMP JUMPDEST PUSH2 0x785 JUMP JUMPDEST PUSH1 0x12 SLOAD PUSH2 0x272 SWAP1 PUSH4 0xFFFFFFFF AND DUP2 JUMP JUMPDEST PUSH1 0x40 MLOAD PUSH4 0xFFFFFFFF SWAP1 SWAP2 AND DUP2 MSTORE PUSH1 0x20 ADD PUSH2 0x1E9 JUMP JUMPDEST PUSH2 0x1DC PUSH2 0x295 CALLDATASIZE PUSH1 0x4 PUSH2 0x1904 JUMP JUMPDEST PUSH2 0x7CF JUMP JUMPDEST PUSH2 0x1DC PUSH2 0x7E8 JUMP JUMPDEST PUSH2 0x1DC PUSH2 0x7F5 JUMP JUMPDEST PUSH2 0x241 PUSH1 0xE SLOAD DUP2 JUMP JUMPDEST PUSH2 0x1DC PUSH2 0x802 JUMP JUMPDEST PUSH2 0x237 PUSH2 0x2C9 CALLDATASIZE PUSH1 0x4 PUSH2 0x192D JUMP JUMPDEST PUSH2 0x80F JUMP JUMPDEST PUSH2 0x237 PUSH2 0x827 JUMP JUMPDEST PUSH1 0xF SLOAD PUSH2 0x272 SWAP1 PUSH3 0x10000 SWAP1 DIV PUSH4 0xFFFFFFFF AND DUP2 JUMP JUMPDEST PUSH2 0x241 PUSH2 0x2FA CALLDATASIZE PUSH1 0x4 PUSH2 0x1904 JUMP JUMPDEST PUSH2 0x8D1 JUMP JUMPDEST PUSH2 0x241 PUSH2 0x30D CALLDATASIZE PUSH1 0x4 PUSH2 0x197D JUMP JUMPDEST PUSH2 0xA4D JUMP JUMPDEST PUSH1 0x0 SLOAD PUSH1 0x1 PUSH1 0x1 PUSH1 0xA0 SHL SUB AND JUMPDEST PUSH1 0x40 MLOAD PUSH1 0x1 PUSH1 0x1 PUSH1 0xA0 SHL SUB SWAP1 SWAP2 AND DUP2 MSTORE PUSH1 0x20 ADD PUSH2 0x1E9 JUMP JUMPDEST PUSH2 0x36C PUSH2 0x345 CALLDATASIZE PUSH1 0x4 PUSH2 0x197D JUMP JUMPDEST PUSH1 0x4 PUSH1 0x20 MSTORE PUSH1 0x0 SWAP1 DUP2 MSTORE PUSH1 0x40 SWAP1 KECCAK256 SLOAD PUSH1 0x1 PUSH1 0x1 PUSH1 0xA0 SHL SUB DUP2 AND SWAP1 PUSH1 0x1 PUSH1 0xA0 SHL SWAP1 DIV PUSH1 0xFF AND DUP3 JUMP JUMPDEST PUSH1 0x40 DUP1 MLOAD PUSH1 0x1 PUSH1 0x1 PUSH1 0xA0 SHL SUB SWAP1 SWAP4 AND DUP4 MSTORE SWAP1 ISZERO ISZERO PUSH1 0x20 DUP4 ADD MSTORE ADD PUSH2 0x1E9 JUMP JUMPDEST PUSH2 0x237 PUSH2 0x399 CALLDATASIZE PUSH1 0x4 PUSH2 0x1904 JUMP JUMPDEST PUSH2 0xA6E JUMP JUMPDEST PUSH1 0x2 SLOAD PUSH2 0x31F SWAP1 PUSH1 0x1 PUSH1 0x1 PUSH1 0xA0 SHL SUB AND DUP2 JUMP JUMPDEST PUSH2 0x3DD PUSH2 0x3BF CALLDATASIZE PUSH1 0x4 PUSH2 0x197D JUMP JUMPDEST PUSH1 0xD PUSH1 0x20 MSTORE PUSH1 0x0 SWAP1 DUP2 MSTORE PUSH1 0x40 SWAP1 KECCAK256 SLOAD PUSH1 0xFF DUP1 DUP3 AND SWAP2 PUSH2 0x100 SWAP1 DIV AND DUP3 JUMP JUMPDEST PUSH1 0x40 DUP1 MLOAD SWAP3 ISZERO ISZERO DUP4 MSTORE SWAP1 ISZERO ISZERO PUSH1 0x20 DUP4 ADD MSTORE ADD PUSH2 0x1E9 JUMP JUMPDEST PUSH1 0x12 SLOAD PUSH2 0x31F SWAP1 PUSH5 0x100000000 SWAP1 DIV PUSH1 0x1 PUSH1 0x1 PUSH1 0xA0 SHL SUB AND DUP2 JUMP JUMPDEST PUSH1 0xF SLOAD PUSH2 0x41D SWAP1 PUSH2 0xFFFF AND DUP2 JUMP JUMPDEST PUSH1 0x40 MLOAD PUSH2 0xFFFF SWAP1 SWAP2 AND DUP2 MSTORE PUSH1 0x20 ADD PUSH2 0x1E9 JUMP JUMPDEST PUSH2 0x241 PUSH1 0x9 SLOAD DUP2 JUMP JUMPDEST PUSH2 0x1DC PUSH2 0x447 CALLDATASIZE PUSH1 0x4 PUSH2 0x197D JUMP JUMPDEST PUSH2 0xB60 JUMP JUMPDEST PUSH2 0x237 PUSH2 0x45A CALLDATASIZE PUSH1 0x4 PUSH2 0x1904 JUMP JUMPDEST PUSH2 0xB8B JUMP JUMPDEST PUSH1 0x8 SLOAD PUSH2 0x272 SWAP1 PUSH4 0xFFFFFFFF AND DUP2 JUMP JUMPDEST PUSH1 0x6 SLOAD PUSH2 0x31F SWAP1 PUSH1 0x1 PUSH1 0x1 PUSH1 0xA0 SHL SUB AND DUP2 JUMP JUMPDEST PUSH2 0x241 PUSH1 0x11 SLOAD DUP2 JUMP JUMPDEST PUSH1 0x13 DUP1 SLOAD PUSH2 0x498 SWAP1 PUSH2 0x1996 JUMP JUMPDEST DUP1 PUSH1 0x1F ADD PUSH1 0x20 DUP1 SWAP2 DIV MUL PUSH1 0x20 ADD PUSH1 0x40 MLOAD SWAP1 DUP2 ADD PUSH1 0x40 MSTORE DUP1 SWAP3 SWAP2 SWAP1 DUP2 DUP2 MSTORE PUSH1 0x20 ADD DUP3 DUP1 SLOAD PUSH2 0x4C4 SWAP1 PUSH2 0x1996 JUMP JUMPDEST DUP1 ISZERO PUSH2 0x511 JUMPI DUP1 PUSH1 0x1F LT PUSH2 0x4E6 JUMPI PUSH2 0x100 DUP1 DUP4 SLOAD DIV MUL DUP4 MSTORE SWAP2 PUSH1 0x20 ADD SWAP2 PUSH2 0x511 JUMP JUMPDEST DUP3 ADD SWAP2 SWAP1 PUSH1 0x0 MSTORE PUSH1 0x20 PUSH1 0x0 KECCAK256 SWAP1 JUMPDEST DUP2 SLOAD DUP2 MSTORE SWAP1 PUSH1 0x1 ADD SWAP1 PUSH1 0x20 ADD DUP1 DUP4 GT PUSH2 0x4F4 JUMPI DUP3 SWAP1 SUB PUSH1 0x1F AND DUP3 ADD SWAP2 JUMPDEST POP POP POP POP POP DUP2 JUMP JUMPDEST CALLER PUSH1 0x1 PUSH1 0x1 PUSH1 0xA0 SHL SUB PUSH32 0x0 AND EQ PUSH2 0x562 JUMPI PUSH1 0x40 MLOAD PUSH4 0xC6829F83 PUSH1 0xE0 SHL DUP2 MSTORE PUSH1 0x4 ADD PUSH1 0x40 MLOAD DUP1 SWAP2 SUB SWAP1 REVERT JUMPDEST PUSH2 0x56D DUP4 DUP4 DUP4 PUSH2 0xB9F JUMP JUMPDEST PUSH1 0x40 MLOAD DUP4 SWAP1 PUSH32 0x85E1543BF2F84FE80C6BADBCE3648C8539AD1DF4D2B3D822938CA0538BE727E6 SWAP1 PUSH1 0x0 SWAP1 LOG2 POP POP POP JUMP JUMPDEST PUSH1 0x0 PUSH2 0x5A7 PUSH2 0xC73 JUMP JUMPDEST PUSH1 0x2 SLOAD PUSH1 0x40 DUP1 MLOAD PUSH1 0xC0 DUP2 ADD DUP3 MSTORE PUSH1 0xE SLOAD DUP2 MSTORE PUSH1 0x1 PUSH1 0x1 PUSH1 0x40 SHL SUB PUSH1 0x1 PUSH1 0xA0 SHL DUP5 DIV AND PUSH1 0x20 DUP1 DUP4 ADD SWAP2 SWAP1 SWAP2 MSTORE PUSH1 0xF SLOAD PUSH2 0xFFFF DUP2 AND DUP4 DUP6 ADD MSTORE PUSH1 0x12 SLOAD PUSH4 0xFFFFFFFF SWAP1 DUP2 AND PUSH1 0x60 DUP6 ADD MSTORE PUSH3 0x10000 SWAP1 SWAP2 DIV AND PUSH1 0x80 DUP4 ADD MSTORE DUP3 MLOAD SWAP1 DUP2 ADD SWAP1 SWAP3 MSTORE PUSH1 0x0 DUP3 MSTORE PUSH1 0x1 PUSH1 0x1 PUSH1 0xA0 SHL SUB SWAP1 SWAP3 AND SWAP2 PUSH4 0x9B1C385E SWAP2 PUSH1 0xA0 DUP3 ADD SWAP1 PUSH2 0x627 SWAP1 PUSH2 0xCC8 JUMP JUMPDEST DUP2 MSTORE POP PUSH1 0x40 MLOAD DUP3 PUSH4 0xFFFFFFFF AND PUSH1 0xE0 SHL DUP2 MSTORE PUSH1 0x4 ADD PUSH2 0x646 SWAP2 SWAP1 PUSH2 0x19D0 JUMP JUMPDEST PUSH1 0x20 PUSH1 0x40 MLOAD DUP1 DUP4 SUB DUP2 PUSH1 0x0 DUP8 GAS CALL ISZERO DUP1 ISZERO PUSH2 0x665 JUMPI RETURNDATASIZE PUSH1 0x0 DUP1 RETURNDATACOPY RETURNDATASIZE PUSH1 0x0 REVERT JUMPDEST POP POP POP POP PUSH1 0x40 MLOAD RETURNDATASIZE PUSH1 0x1F NOT PUSH1 0x1F DUP3 ADD AND DUP3 ADD DUP1 PUSH1 0x40 MSTORE POP DUP2 ADD SWAP1 PUSH2 0x689 SWAP2 SWAP1 PUSH2 0x1A2D JUMP JUMPDEST PUSH1 0x40 DUP1 MLOAD PUSH1 0x60 DUP2 ADD DUP3 MSTORE PUSH1 0x0 DUP1 DUP3 MSTORE PUSH1 0x1 PUSH1 0x20 DUP1 DUP5 ADD DUP3 DUP2 MSTORE DUP6 MLOAD DUP5 DUP2 MSTORE DUP1 DUP4 ADD DUP8 MSTORE DUP6 DUP8 ADD SWAP1 DUP2 MSTORE DUP8 DUP6 MSTORE PUSH1 0xD DUP4 MSTORE SWAP6 SWAP1 SWAP4 KECCAK256 DUP5 MLOAD DUP2 SLOAD SWAP5 MLOAD PUSH2 0xFFFF NOT SWAP1 SWAP6 AND SWAP1 ISZERO ISZERO PUSH2 0xFF00 NOT AND OR PUSH2 0x100 SWAP5 ISZERO ISZERO SWAP5 SWAP1 SWAP5 MUL SWAP4 SWAP1 SWAP4 OR DUP4 SSTORE SWAP4 MLOAD DUP1 MLOAD SWAP6 SWAP7 POP SWAP3 SWAP5 SWAP2 SWAP4 PUSH2 0x6FE SWAP4 SWAP2 DUP6 ADD SWAP3 SWAP2 ADD SWAP1 PUSH2 0x1681 JUMP JUMPDEST POP POP PUSH1 0x10 DUP1 SLOAD PUSH1 0x1 DUP2 ADD DUP3 SSTORE PUSH1 0x0 SWAP2 SWAP1 SWAP2 MSTORE PUSH32 0x1B6847DC741A1B0CD08D278845F9D819D87B734759AFB55FE2DE5CB82A9AE672 ADD DUP3 SWAP1 SSTORE POP PUSH1 0x11 DUP2 SWAP1 SSTORE PUSH1 0xF SLOAD PUSH1 0x40 DUP1 MLOAD DUP4 DUP2 MSTORE PUSH3 0x10000 SWAP1 SWAP3 DIV PUSH4 0xFFFFFFFF AND PUSH1 0x20 DUP4 ADD MSTORE PUSH32 0xCC58B13AD3EAB50626C6A6300B1D139CD6EBB1688A7CCED9461C2F7E762665EE SWAP2 ADD PUSH1 0x40 MLOAD DUP1 SWAP2 SUB SWAP1 LOG1 SWAP1 JUMP JUMPDEST PUSH1 0x2 SLOAD PUSH1 0x1 PUSH1 0x1 PUSH1 0xA0 SHL SUB AND CALLER EQ PUSH2 0x7CA JUMPI PUSH1 0x2 SLOAD PUSH1 0x40 MLOAD PUSH4 0x73E64FD PUSH1 0xE2 SHL DUP2 MSTORE CALLER PUSH1 0x4 DUP3 ADD MSTORE PUSH1 0x1 PUSH1 0x1 PUSH1 0xA0 SHL SUB SWAP1 SWAP2 AND PUSH1 0x24 DUP3 ADD MSTORE PUSH1 0x44 ADD JUMPDEST PUSH1 0x40 MLOAD DUP1 SWAP2 SUB SWAP1 REVERT JUMPDEST POP POP POP JUMP JUMPDEST PUSH1 0x5 PUSH1 0x20 MSTORE PUSH1 0x0 SWAP1 DUP2 MSTORE PUSH1 0x40 SWAP1 KECCAK256 DUP1 SLOAD PUSH2 0x498 SWAP1 PUSH2 0x1996 JUMP JUMPDEST PUSH1 0xA DUP1 SLOAD PUSH2 0x498 SWAP1 PUSH2 0x1996 JUMP JUMPDEST PUSH1 0xB DUP1 SLOAD PUSH2 0x498 SWAP1 PUSH2 0x1996 JUMP JUMPDEST PUSH1 0xC DUP1 SLOAD PUSH2 0x498 SWAP1 PUSH2 0x1996 JUMP JUMPDEST PUSH2 0x817 PUSH2 0xC73 JUMP JUMPDEST PUSH1 0x13 PUSH2 0x823 DUP3 DUP3 PUSH2 0x1A94 JUMP JUMPDEST POP POP JUMP JUMPDEST PUSH1 0x1 SLOAD PUSH1 0x1 PUSH1 0x1 PUSH1 0xA0 SHL SUB AND CALLER EQ PUSH2 0x87A JUMPI PUSH1 0x40 MLOAD PUSH3 0x461BCD PUSH1 0xE5 SHL DUP2 MSTORE PUSH1 0x20 PUSH1 0x4 DUP3 ADD MSTORE PUSH1 0x16 PUSH1 0x24 DUP3 ADD MSTORE PUSH22 0x26BAB9BA10313290383937B837B9B2B21037BBB732B9 PUSH1 0x51 SHL PUSH1 0x44 DUP3 ADD MSTORE PUSH1 0x64 ADD PUSH2 0x7C1 JUMP JUMPDEST PUSH1 0x0 DUP1 SLOAD CALLER PUSH1 0x1 PUSH1 0x1 PUSH1 0xA0 SHL SUB NOT DUP1 DUP4 AND DUP3 OR DUP5 SSTORE PUSH1 0x1 DUP1 SLOAD SWAP1 SWAP2 AND SWAP1 SSTORE PUSH1 0x40 MLOAD PUSH1 0x1 PUSH1 0x1 PUSH1 0xA0 SHL SUB SWAP1 SWAP3 AND SWAP3 SWAP1 SWAP2 DUP4 SWAP2 PUSH32 0x8BE0079C531659141344CD1FD0A4F28419497F9722A3DAAFE3B4186F6B6457E0 SWAP2 LOG3 POP JUMP JUMPDEST PUSH1 0x0 PUSH2 0x8DB PUSH2 0xC73 JUMP JUMPDEST PUSH2 0x91C PUSH1 0x40 DUP1 MLOAD PUSH1 0xE0 DUP2 ADD SWAP1 SWAP2 MSTORE DUP1 PUSH1 0x0 DUP2 MSTORE PUSH1 0x20 ADD PUSH1 0x0 DUP2 MSTORE PUSH1 0x20 ADD PUSH1 0x0 DUP2 MSTORE PUSH1 0x20 ADD PUSH1 0x60 DUP2 MSTORE PUSH1 0x20 ADD PUSH1 0x60 DUP2 MSTORE PUSH1 0x20 ADD PUSH1 0x60 DUP2 MSTORE PUSH1 0x20 ADD PUSH1 0x60 DUP2 MSTORE POP SWAP1 JUMP JUMPDEST PUSH2 0x9B9 PUSH1 0x13 DUP1 SLOAD PUSH2 0x92C SWAP1 PUSH2 0x1996 JUMP JUMPDEST DUP1 PUSH1 0x1F ADD PUSH1 0x20 DUP1 SWAP2 DIV MUL PUSH1 0x20 ADD PUSH1 0x40 MLOAD SWAP1 DUP2 ADD PUSH1 0x40 MSTORE DUP1 SWAP3 SWAP2 SWAP1 DUP2 DUP2 MSTORE PUSH1 0x20 ADD DUP3 DUP1 SLOAD PUSH2 0x958 SWAP1 PUSH2 0x1996 JUMP JUMPDEST DUP1 ISZERO PUSH2 0x9A5 JUMPI DUP1 PUSH1 0x1F LT PUSH2 0x97A JUMPI PUSH2 0x100 DUP1 DUP4 SLOAD DIV MUL DUP4 MSTORE SWAP2 PUSH1 0x20 ADD SWAP2 PUSH2 0x9A5 JUMP JUMPDEST DUP3 ADD SWAP2 SWAP1 PUSH1 0x0 MSTORE PUSH1 0x20 PUSH1 0x0 KECCAK256 SWAP1 JUMPDEST DUP2 SLOAD DUP2 MSTORE SWAP1 PUSH1 0x1 ADD SWAP1 PUSH1 0x20 ADD DUP1 DUP4 GT PUSH2 0x988 JUMPI DUP3 SWAP1 SUB PUSH1 0x1F AND DUP3 ADD SWAP2 JUMPDEST POP POP POP POP POP DUP3 PUSH2 0xD39 SWAP1 SWAP2 SWAP1 PUSH4 0xFFFFFFFF AND JUMP JUMPDEST PUSH2 0x9EE PUSH2 0x9C5 DUP3 PUSH2 0xD46 JUMP JUMPDEST PUSH1 0x2 SLOAD PUSH1 0x8 SLOAD PUSH1 0x7 SLOAD PUSH1 0x1 PUSH1 0xA0 SHL SWAP1 SWAP3 DIV PUSH1 0x1 PUSH1 0x1 PUSH1 0x40 SHL SUB AND SWAP2 PUSH4 0xFFFFFFFF SWAP1 SWAP2 AND SWAP1 PUSH2 0x101E JUMP JUMPDEST PUSH1 0x9 DUP2 DUP2 SSTORE PUSH1 0x40 DUP1 MLOAD DUP1 DUP3 ADD DUP3 MSTORE PUSH1 0x1 PUSH1 0x1 PUSH1 0xA0 SHL SUB DUP1 DUP9 AND DUP3 MSTORE PUSH1 0x1 PUSH1 0x20 DUP1 DUP5 ADD SWAP2 DUP3 MSTORE PUSH1 0x0 SWAP7 DUP8 MSTORE PUSH1 0x4 SWAP1 MSTORE SWAP3 SWAP1 SWAP5 KECCAK256 SWAP1 MLOAD DUP2 SLOAD SWAP3 MLOAD ISZERO ISZERO PUSH1 0x1 PUSH1 0xA0 SHL MUL PUSH1 0x1 PUSH1 0x1 PUSH1 0xA8 SHL SUB NOT SWAP1 SWAP4 AND SWAP5 AND SWAP4 SWAP1 SWAP4 OR OR SWAP1 SWAP2 SSTORE SLOAD SWAP2 POP POP SWAP2 SWAP1 POP JUMP JUMPDEST PUSH1 0x10 DUP2 DUP2 SLOAD DUP2 LT PUSH2 0xA5D JUMPI PUSH1 0x0 DUP1 REVERT JUMPDEST PUSH1 0x0 SWAP2 DUP3 MSTORE PUSH1 0x20 SWAP1 SWAP2 KECCAK256 ADD SLOAD SWAP1 POP DUP2 JUMP JUMPDEST PUSH1 0x0 SLOAD PUSH1 0x1 PUSH1 0x1 PUSH1 0xA0 SHL SUB AND CALLER EQ DUP1 ISZERO SWAP1 PUSH2 0xA94 JUMPI POP PUSH1 0x2 SLOAD PUSH1 0x1 PUSH1 0x1 PUSH1 0xA0 SHL SUB AND CALLER EQ ISZERO JUMPDEST ISZERO PUSH2 0xAE5 JUMPI CALLER PUSH2 0xAAC PUSH1 0x0 SLOAD PUSH1 0x1 PUSH1 0x1 PUSH1 0xA0 SHL SUB AND SWAP1 JUMP JUMPDEST PUSH1 0x2 SLOAD PUSH1 0x40 MLOAD PUSH4 0x61DB9C1 PUSH1 0xE0 SHL DUP2 MSTORE PUSH1 0x1 PUSH1 0x1 PUSH1 0xA0 SHL SUB SWAP4 DUP5 AND PUSH1 0x4 DUP3 ADD MSTORE SWAP2 DUP4 AND PUSH1 0x24 DUP4 ADD MSTORE SWAP2 SWAP1 SWAP2 AND PUSH1 0x44 DUP3 ADD MSTORE PUSH1 0x64 ADD PUSH2 0x7C1 JUMP JUMPDEST PUSH1 0x1 PUSH1 0x1 PUSH1 0xA0 SHL SUB DUP2 AND PUSH2 0xB0C JUMPI PUSH1 0x40 MLOAD PUSH4 0xD92E233D PUSH1 0xE0 SHL DUP2 MSTORE PUSH1 0x4 ADD PUSH1 0x40 MLOAD DUP1 SWAP2 SUB SWAP1 REVERT JUMPDEST PUSH1 0x2 DUP1 SLOAD PUSH1 0x1 PUSH1 0x1 PUSH1 0xA0 SHL SUB NOT AND PUSH1 0x1 PUSH1 0x1 PUSH1 0xA0 SHL SUB DUP4 AND SWAP1 DUP2 OR SWAP1 SWAP2 SSTORE PUSH1 0x40 MLOAD SWAP1 DUP2 MSTORE PUSH32 0xD1A6A14209A385A964D036E404CB5CFB71F4000CDB03C9366292430787261BE6 SWAP1 PUSH1 0x20 ADD PUSH1 0x40 MLOAD DUP1 SWAP2 SUB SWAP1 LOG1 POP JUMP JUMPDEST PUSH1 0x3 DUP2 DUP2 SLOAD DUP2 LT PUSH2 0xB70 JUMPI PUSH1 0x0 DUP1 REVERT JUMPDEST SWAP1 PUSH1 0x0 MSTORE PUSH1 0x20 PUSH1 0x0 KECCAK256 ADD PUSH1 0x0 SWAP2 POP SWAP1 POP DUP1 SLOAD PUSH2 0x498 SWAP1 PUSH2 0x1996 JUMP JUMPDEST PUSH2 0xB93 PUSH2 0xC73 JUMP JUMPDEST PUSH2 0xB9C DUP2 PUSH2 0x10F0 JUMP JUMPDEST POP JUMP JUMPDEST PUSH1 0x0 DUP4 DUP2 MSTORE PUSH1 0x4 PUSH1 0x20 MSTORE PUSH1 0x40 SWAP1 KECCAK256 SLOAD PUSH1 0x1 PUSH1 0xA0 SHL SWAP1 DIV PUSH1 0xFF AND ISZERO ISZERO PUSH1 0x1 EQ PUSH2 0xBFE JUMPI PUSH1 0x40 MLOAD PUSH3 0x461BCD PUSH1 0xE5 SHL DUP2 MSTORE PUSH1 0x20 PUSH1 0x4 DUP3 ADD MSTORE PUSH1 0x12 PUSH1 0x24 DUP3 ADD MSTORE PUSH18 0x125B9D985B1A59081C995C5D595CDD081A59 PUSH1 0x72 SHL PUSH1 0x44 DUP3 ADD MSTORE PUSH1 0x64 ADD PUSH2 0x7C1 JUMP JUMPDEST PUSH1 0xB PUSH2 0xC0A DUP3 DUP3 PUSH2 0x1A94 JUMP JUMPDEST POP PUSH1 0x0 DUP4 DUP2 MSTORE PUSH1 0x4 PUSH1 0x20 MSTORE PUSH1 0x40 SWAP1 KECCAK256 DUP1 SLOAD PUSH1 0xFF PUSH1 0xA0 SHL NOT AND SWAP1 SSTORE PUSH1 0xA PUSH2 0xC30 DUP4 DUP3 PUSH2 0x1A94 JUMP JUMPDEST POP PUSH1 0xC PUSH2 0xC3D DUP4 DUP3 PUSH2 0x1A94 JUMP JUMPDEST POP PUSH1 0x0 DUP4 DUP2 MSTORE PUSH1 0x4 PUSH1 0x20 SWAP1 DUP2 MSTORE PUSH1 0x40 DUP1 DUP4 KECCAK256 SLOAD PUSH1 0x1 PUSH1 0x1 PUSH1 0xA0 SHL SUB AND DUP4 MSTORE PUSH1 0x5 SWAP1 SWAP2 MSTORE SWAP1 KECCAK256 PUSH2 0xC6D PUSH1 0xC DUP3 PUSH2 0x1B53 JUMP JUMPDEST POP POP POP POP JUMP JUMPDEST PUSH1 0x0 SLOAD PUSH1 0x1 PUSH1 0x1 PUSH1 0xA0 SHL SUB AND CALLER EQ PUSH2 0xCC6 JUMPI PUSH1 0x40 MLOAD PUSH3 0x461BCD PUSH1 0xE5 SHL DUP2 MSTORE PUSH1 0x20 PUSH1 0x4 DUP3 ADD MSTORE PUSH1 0x16 PUSH1 0x24 DUP3 ADD MSTORE PUSH22 0x27B7363C9031B0B63630B1363290313C9037BBB732B9 PUSH1 0x51 SHL PUSH1 0x44 DUP3 ADD MSTORE PUSH1 0x64 ADD PUSH2 0x7C1 JUMP JUMPDEST JUMP JUMPDEST PUSH1 0x60 PUSH32 0x92FD13387C7FE7BEFBC38D303D6468778FB9731BC4583F17D92989C6FCFDEAAA DUP3 PUSH1 0x40 MLOAD PUSH1 0x24 ADD PUSH2 0xD01 SWAP2 MLOAD ISZERO ISZERO DUP2 MSTORE PUSH1 0x20 ADD SWAP1 JUMP JUMPDEST PUSH1 0x40 DUP1 MLOAD PUSH1 0x1F NOT DUP2 DUP5 SUB ADD DUP2 MSTORE SWAP2 SWAP1 MSTORE PUSH1 0x20 DUP2 ADD DUP1 MLOAD PUSH1 0x1 PUSH1 0x1 PUSH1 0xE0 SHL SUB AND PUSH1 0x1 PUSH1 0x1 PUSH1 0xE0 SHL SUB NOT SWAP1 SWAP4 AND SWAP3 SWAP1 SWAP3 OR SWAP1 SWAP2 MSTORE SWAP3 SWAP2 POP POP JUMP JUMPDEST PUSH2 0x823 DUP3 PUSH1 0x0 DUP1 DUP5 PUSH2 0x1199 JUMP JUMPDEST PUSH1 0x60 PUSH1 0x0 PUSH2 0xD55 PUSH2 0x100 PUSH2 0x1217 JUMP JUMPDEST SWAP1 POP PUSH2 0xD8E PUSH1 0x40 MLOAD DUP1 PUSH1 0x40 ADD PUSH1 0x40 MSTORE DUP1 PUSH1 0xC DUP2 MSTORE PUSH1 0x20 ADD PUSH12 0x31B7B232A637B1B0BA34B7B7 PUSH1 0xA1 SHL DUP2 MSTORE POP DUP3 PUSH2 0x1238 SWAP1 SWAP2 SWAP1 PUSH4 0xFFFFFFFF AND JUMP JUMPDEST DUP3 MLOAD PUSH2 0xDAC SWAP1 PUSH1 0x2 DUP2 GT ISZERO PUSH2 0xDA5 JUMPI PUSH2 0xDA5 PUSH2 0x1C2D JUMP JUMPDEST DUP3 SWAP1 PUSH2 0x1251 JUMP JUMPDEST PUSH1 0x40 DUP1 MLOAD DUP1 DUP3 ADD SWAP1 SWAP2 MSTORE PUSH1 0x8 DUP2 MSTORE PUSH8 0x6C616E6775616765 PUSH1 0xC0 SHL PUSH1 0x20 DUP3 ADD MSTORE PUSH2 0xDD6 SWAP1 DUP3 SWAP1 PUSH2 0x1238 JUMP JUMPDEST PUSH1 0x40 DUP4 ADD MLOAD PUSH2 0xDED SWAP1 DUP1 ISZERO PUSH2 0xDA5 JUMPI PUSH2 0xDA5 PUSH2 0x1C2D JUMP JUMPDEST PUSH1 0x40 DUP1 MLOAD DUP1 DUP3 ADD SWAP1 SWAP2 MSTORE PUSH1 0x6 DUP2 MSTORE PUSH6 0x736F75726365 PUSH1 0xD0 SHL PUSH1 0x20 DUP3 ADD MSTORE PUSH2 0xE15 SWAP1 DUP3 SWAP1 PUSH2 0x1238 JUMP JUMPDEST PUSH1 0x60 DUP4 ADD MLOAD PUSH2 0xE25 SWAP1 DUP3 SWAP1 PUSH2 0x1238 JUMP JUMPDEST PUSH1 0xA0 DUP4 ADD MLOAD MLOAD ISZERO PUSH2 0xEB9 JUMPI PUSH1 0x40 DUP1 MLOAD DUP1 DUP3 ADD SWAP1 SWAP2 MSTORE PUSH1 0x4 DUP2 MSTORE PUSH4 0x61726773 PUSH1 0xE0 SHL PUSH1 0x20 DUP3 ADD MSTORE PUSH2 0xE56 SWAP1 DUP3 SWAP1 PUSH2 0x1238 JUMP JUMPDEST PUSH2 0xE5F DUP2 PUSH2 0x128A JUMP JUMPDEST PUSH1 0x0 JUMPDEST DUP4 PUSH1 0xA0 ADD MLOAD MLOAD DUP2 LT ISZERO PUSH2 0xEAF JUMPI PUSH2 0xE9F DUP5 PUSH1 0xA0 ADD MLOAD DUP3 DUP2 MLOAD DUP2 LT PUSH2 0xE88 JUMPI PUSH2 0xE88 PUSH2 0x1C43 JUMP JUMPDEST PUSH1 0x20 MUL PUSH1 0x20 ADD ADD MLOAD DUP4 PUSH2 0x1238 SWAP1 SWAP2 SWAP1 PUSH4 0xFFFFFFFF AND JUMP JUMPDEST PUSH2 0xEA8 DUP2 PUSH2 0x1C6F JUMP JUMPDEST SWAP1 POP PUSH2 0xE62 JUMP JUMPDEST POP PUSH2 0xEB9 DUP2 PUSH2 0x12AE JUMP JUMPDEST PUSH1 0x80 DUP4 ADD MLOAD MLOAD ISZERO PUSH2 0xF7D JUMPI PUSH1 0x0 DUP4 PUSH1 0x20 ADD MLOAD PUSH1 0x2 DUP2 GT ISZERO PUSH2 0xEDC JUMPI PUSH2 0xEDC PUSH2 0x1C2D JUMP JUMPDEST SUB PUSH2 0xEFA JUMPI PUSH1 0x40 MLOAD PUSH4 0xA80D31F7 PUSH1 0xE0 SHL DUP2 MSTORE PUSH1 0x4 ADD PUSH1 0x40 MLOAD DUP1 SWAP2 SUB SWAP1 REVERT JUMPDEST PUSH1 0x40 DUP1 MLOAD DUP1 DUP3 ADD SWAP1 SWAP2 MSTORE PUSH1 0xF DUP2 MSTORE PUSH15 0x39B2B1B932BA39A637B1B0BA34B7B7 PUSH1 0x89 SHL PUSH1 0x20 DUP3 ADD MSTORE PUSH2 0xF2B SWAP1 DUP3 SWAP1 PUSH2 0x1238 JUMP JUMPDEST PUSH2 0xF44 DUP4 PUSH1 0x20 ADD MLOAD PUSH1 0x2 DUP2 GT ISZERO PUSH2 0xDA5 JUMPI PUSH2 0xDA5 PUSH2 0x1C2D JUMP JUMPDEST PUSH1 0x40 DUP1 MLOAD DUP1 DUP3 ADD SWAP1 SWAP2 MSTORE PUSH1 0x7 DUP2 MSTORE PUSH7 0x73656372657473 PUSH1 0xC8 SHL PUSH1 0x20 DUP3 ADD MSTORE PUSH2 0xF6D SWAP1 DUP3 SWAP1 PUSH2 0x1238 JUMP JUMPDEST PUSH1 0x80 DUP4 ADD MLOAD PUSH2 0xF7D SWAP1 DUP3 SWAP1 PUSH2 0x12CC JUMP JUMPDEST PUSH1 0xC0 DUP4 ADD MLOAD MLOAD ISZERO PUSH2 0x1016 JUMPI PUSH1 0x40 DUP1 MLOAD DUP1 DUP3 ADD SWAP1 SWAP2 MSTORE PUSH1 0x9 DUP2 MSTORE PUSH9 0x627974657341726773 PUSH1 0xB8 SHL PUSH1 0x20 DUP3 ADD MSTORE PUSH2 0xFB3 SWAP1 DUP3 SWAP1 PUSH2 0x1238 JUMP JUMPDEST PUSH2 0xFBC DUP2 PUSH2 0x128A JUMP JUMPDEST PUSH1 0x0 JUMPDEST DUP4 PUSH1 0xC0 ADD MLOAD MLOAD DUP2 LT ISZERO PUSH2 0x100C JUMPI PUSH2 0xFFC DUP5 PUSH1 0xC0 ADD MLOAD DUP3 DUP2 MLOAD DUP2 LT PUSH2 0xFE5 JUMPI PUSH2 0xFE5 PUSH2 0x1C43 JUMP JUMPDEST PUSH1 0x20 MUL PUSH1 0x20 ADD ADD MLOAD DUP4 PUSH2 0x12CC SWAP1 SWAP2 SWAP1 PUSH4 0xFFFFFFFF AND JUMP JUMPDEST PUSH2 0x1005 DUP2 PUSH2 0x1C6F JUMP JUMPDEST SWAP1 POP PUSH2 0xFBF JUMP JUMPDEST POP PUSH2 0x1016 DUP2 PUSH2 0x12AE JUMP JUMPDEST MLOAD MLOAD SWAP3 SWAP2 POP POP JUMP JUMPDEST PUSH1 0x0 DUP1 PUSH32 0x0 PUSH1 0x1 PUSH1 0x1 PUSH1 0xA0 SHL SUB AND PUSH4 0x461D2762 DUP7 DUP9 PUSH1 0x1 DUP9 DUP9 PUSH1 0x40 MLOAD DUP7 PUSH4 0xFFFFFFFF AND PUSH1 0xE0 SHL DUP2 MSTORE PUSH1 0x4 ADD PUSH2 0x1076 SWAP6 SWAP5 SWAP4 SWAP3 SWAP2 SWAP1 PUSH2 0x1C88 JUMP JUMPDEST PUSH1 0x20 PUSH1 0x40 MLOAD DUP1 DUP4 SUB DUP2 PUSH1 0x0 DUP8 GAS CALL ISZERO DUP1 ISZERO PUSH2 0x1095 JUMPI RETURNDATASIZE PUSH1 0x0 DUP1 RETURNDATACOPY RETURNDATASIZE PUSH1 0x0 REVERT JUMPDEST POP POP POP POP PUSH1 0x40 MLOAD RETURNDATASIZE PUSH1 0x1F NOT PUSH1 0x1F DUP3 ADD AND DUP3 ADD DUP1 PUSH1 0x40 MSTORE POP DUP2 ADD SWAP1 PUSH2 0x10B9 SWAP2 SWAP1 PUSH2 0x1A2D JUMP JUMPDEST PUSH1 0x40 MLOAD SWAP1 SWAP2 POP DUP2 SWAP1 PUSH32 0x1131472297A800FEE664D1D89CFA8F7676FF07189ECC53F80BBB5F4969099DB8 SWAP1 PUSH1 0x0 SWAP1 LOG2 SWAP6 SWAP5 POP POP POP POP POP JUMP JUMPDEST CALLER PUSH1 0x1 PUSH1 0x1 PUSH1 0xA0 SHL SUB DUP3 AND SUB PUSH2 0x1148 JUMPI PUSH1 0x40 MLOAD PUSH3 0x461BCD PUSH1 0xE5 SHL DUP2 MSTORE PUSH1 0x20 PUSH1 0x4 DUP3 ADD MSTORE PUSH1 0x17 PUSH1 0x24 DUP3 ADD MSTORE PUSH32 0x43616E6E6F74207472616E7366657220746F2073656C66000000000000000000 PUSH1 0x44 DUP3 ADD MSTORE PUSH1 0x64 ADD PUSH2 0x7C1 JUMP JUMPDEST PUSH1 0x1 DUP1 SLOAD PUSH1 0x1 PUSH1 0x1 PUSH1 0xA0 SHL SUB NOT AND PUSH1 0x1 PUSH1 0x1 PUSH1 0xA0 SHL SUB DUP4 DUP2 AND SWAP2 DUP3 OR SWAP1 SWAP3 SSTORE PUSH1 0x0 DUP1 SLOAD PUSH1 0x40 MLOAD SWAP3 SWAP4 AND SWAP2 PUSH32 0xED8889F560326EB138920D842192F0EB3DD22B4F139C87A2C57538E05BAE1278 SWAP2 SWAP1 LOG3 POP JUMP JUMPDEST DUP1 MLOAD PUSH1 0x0 SUB PUSH2 0x11BB JUMPI PUSH1 0x40 MLOAD PUSH4 0x22CE3EDD PUSH1 0xE0 SHL DUP2 MSTORE PUSH1 0x4 ADD PUSH1 0x40 MLOAD DUP1 SWAP2 SUB SWAP1 REVERT JUMPDEST DUP4 DUP4 PUSH1 0x2 DUP2 GT ISZERO PUSH2 0x11CE JUMPI PUSH2 0x11CE PUSH2 0x1C2D JUMP JUMPDEST SWAP1 DUP2 PUSH1 0x2 DUP2 GT ISZERO PUSH2 0x11E1 JUMPI PUSH2 0x11E1 PUSH2 0x1C2D JUMP JUMPDEST SWAP1 MSTORE POP PUSH1 0x40 DUP5 ADD DUP3 DUP1 ISZERO PUSH2 0x11F7 JUMPI PUSH2 0x11F7 PUSH2 0x1C2D JUMP JUMPDEST SWAP1 DUP2 DUP1 ISZERO PUSH2 0x1207 JUMPI PUSH2 0x1207 PUSH2 0x1C2D JUMP JUMPDEST SWAP1 MSTORE POP PUSH1 0x60 SWAP1 SWAP4 ADD SWAP3 SWAP1 SWAP3 MSTORE POP POP JUMP JUMPDEST PUSH2 0x121F PUSH2 0x16CC JUMP JUMPDEST DUP1 MLOAD PUSH2 0x122B SWAP1 DUP4 PUSH2 0x12D9 JUMP JUMPDEST POP PUSH1 0x0 PUSH1 0x20 DUP3 ADD MSTORE SWAP2 SWAP1 POP JUMP JUMPDEST PUSH2 0x1245 DUP3 PUSH1 0x3 DUP4 MLOAD PUSH2 0x1353 JUMP JUMPDEST DUP2 MLOAD PUSH2 0x7CA SWAP1 DUP3 PUSH2 0x146C JUMP JUMPDEST DUP2 MLOAD PUSH2 0x125E SWAP1 PUSH1 0xC2 PUSH2 0x1494 JUMP JUMPDEST POP PUSH2 0x823 DUP3 DUP3 PUSH1 0x40 MLOAD PUSH1 0x20 ADD PUSH2 0x1276 SWAP2 DUP2 MSTORE PUSH1 0x20 ADD SWAP1 JUMP JUMPDEST PUSH1 0x40 MLOAD PUSH1 0x20 DUP2 DUP4 SUB SUB DUP2 MSTORE SWAP1 PUSH1 0x40 MSTORE PUSH2 0x12CC JUMP JUMPDEST PUSH2 0x1295 DUP2 PUSH1 0x4 PUSH2 0x14FD JUMP JUMPDEST PUSH1 0x1 DUP2 PUSH1 0x20 ADD DUP2 DUP2 MLOAD PUSH2 0x12A8 SWAP2 SWAP1 PUSH2 0x1CD1 JUMP JUMPDEST SWAP1 MSTORE POP POP JUMP JUMPDEST PUSH2 0x12B9 DUP2 PUSH1 0x7 PUSH2 0x14FD JUMP JUMPDEST PUSH1 0x1 DUP2 PUSH1 0x20 ADD DUP2 DUP2 MLOAD PUSH2 0x12A8 SWAP2 SWAP1 PUSH2 0x1CE4 JUMP JUMPDEST PUSH2 0x1245 DUP3 PUSH1 0x2 DUP4 MLOAD PUSH2 0x1353 JUMP JUMPDEST PUSH1 0x40 DUP1 MLOAD DUP1 DUP3 ADD SWAP1 SWAP2 MSTORE PUSH1 0x60 DUP2 MSTORE PUSH1 0x0 PUSH1 0x20 DUP3 ADD MSTORE PUSH2 0x12F9 PUSH1 0x20 DUP4 PUSH2 0x1CF7 JUMP JUMPDEST ISZERO PUSH2 0x1321 JUMPI PUSH2 0x1309 PUSH1 0x20 DUP4 PUSH2 0x1CF7 JUMP JUMPDEST PUSH2 0x1314 SWAP1 PUSH1 0x20 PUSH2 0x1CE4 JUMP JUMPDEST PUSH2 0x131E SWAP1 DUP4 PUSH2 0x1CD1 JUMP JUMPDEST SWAP2 POP JUMPDEST PUSH1 0x20 DUP1 DUP5 ADD DUP4 SWAP1 MSTORE PUSH1 0x40 MLOAD DUP1 DUP6 MSTORE PUSH1 0x0 DUP2 MSTORE SWAP1 DUP2 DUP5 ADD ADD DUP2 DUP2 LT ISZERO PUSH2 0x1345 JUMPI PUSH1 0x0 DUP1 REVERT JUMPDEST PUSH1 0x40 MSTORE POP DUP3 SWAP1 POP JUMPDEST SWAP3 SWAP2 POP POP JUMP JUMPDEST PUSH1 0x17 DUP2 PUSH1 0x1 PUSH1 0x1 PUSH1 0x40 SHL SUB AND GT PUSH2 0x1379 JUMPI DUP3 MLOAD PUSH2 0xC6D SWAP1 PUSH1 0xE0 PUSH1 0x5 DUP6 SWAP1 SHL AND DUP4 OR PUSH2 0x1494 JUMP JUMPDEST PUSH1 0xFF DUP2 PUSH1 0x1 PUSH1 0x1 PUSH1 0x40 SHL SUB AND GT PUSH2 0x13B9 JUMPI DUP3 MLOAD PUSH2 0x13A1 SWAP1 PUSH1 0x18 PUSH2 0x1FE0 PUSH1 0x5 DUP7 SWAP1 SHL AND OR PUSH2 0x1494 JUMP JUMPDEST POP DUP3 MLOAD PUSH2 0xC6D SWAP1 PUSH1 0x1 PUSH1 0x1 PUSH1 0x40 SHL SUB DUP4 AND PUSH1 0x1 PUSH2 0x1514 JUMP JUMPDEST PUSH2 0xFFFF DUP2 PUSH1 0x1 PUSH1 0x1 PUSH1 0x40 SHL SUB AND GT PUSH2 0x13FA JUMPI DUP3 MLOAD PUSH2 0x13E2 SWAP1 PUSH1 0x19 PUSH2 0x1FE0 PUSH1 0x5 DUP7 SWAP1 SHL AND OR PUSH2 0x1494 JUMP JUMPDEST POP DUP3 MLOAD PUSH2 0xC6D SWAP1 PUSH1 0x1 PUSH1 0x1 PUSH1 0x40 SHL SUB DUP4 AND PUSH1 0x2 PUSH2 0x1514 JUMP JUMPDEST PUSH4 0xFFFFFFFF DUP2 PUSH1 0x1 PUSH1 0x1 PUSH1 0x40 SHL SUB AND GT PUSH2 0x143D JUMPI DUP3 MLOAD PUSH2 0x1425 SWAP1 PUSH1 0x1A PUSH2 0x1FE0 PUSH1 0x5 DUP7 SWAP1 SHL AND OR PUSH2 0x1494 JUMP JUMPDEST POP DUP3 MLOAD PUSH2 0xC6D SWAP1 PUSH1 0x1 PUSH1 0x1 PUSH1 0x40 SHL SUB DUP4 AND PUSH1 0x4 PUSH2 0x1514 JUMP JUMPDEST DUP3 MLOAD PUSH2 0x1454 SWAP1 PUSH1 0x1B PUSH2 0x1FE0 PUSH1 0x5 DUP7 SWAP1 SHL AND OR PUSH2 0x1494 JUMP JUMPDEST POP DUP3 MLOAD PUSH2 0xC6D SWAP1 PUSH1 0x1 PUSH1 0x1 PUSH1 0x40 SHL SUB DUP4 AND PUSH1 0x8 PUSH2 0x1514 JUMP JUMPDEST PUSH1 0x40 DUP1 MLOAD DUP1 DUP3 ADD SWAP1 SWAP2 MSTORE PUSH1 0x60 DUP2 MSTORE PUSH1 0x0 PUSH1 0x20 DUP3 ADD MSTORE PUSH2 0x148D DUP4 DUP4 DUP5 MLOAD PUSH2 0x1599 JUMP JUMPDEST SWAP4 SWAP3 POP POP POP JUMP JUMPDEST PUSH1 0x40 DUP1 MLOAD DUP1 DUP3 ADD SWAP1 SWAP2 MSTORE PUSH1 0x60 DUP2 MSTORE PUSH1 0x0 PUSH1 0x20 DUP3 ADD MSTORE DUP3 MLOAD MLOAD PUSH1 0x0 PUSH2 0x14B9 DUP3 PUSH1 0x1 PUSH2 0x1CD1 JUMP JUMPDEST SWAP1 POP DUP5 PUSH1 0x20 ADD MLOAD DUP3 LT PUSH2 0x14DA JUMPI PUSH2 0x14DA DUP6 PUSH2 0x14D5 DUP4 PUSH1 0x2 PUSH2 0x1D19 JUMP JUMPDEST PUSH2 0x166A JUMP JUMPDEST DUP5 MLOAD PUSH1 0x20 DUP4 DUP3 ADD ADD DUP6 DUP2 MSTORE8 POP DUP1 MLOAD DUP3 GT ISZERO PUSH2 0x14F3 JUMPI DUP2 DUP2 MSTORE JUMPDEST POP SWAP4 SWAP5 SWAP4 POP POP POP POP JUMP JUMPDEST DUP2 MLOAD PUSH2 0x7CA SWAP1 PUSH1 0x1F PUSH2 0x1FE0 PUSH1 0x5 DUP6 SWAP1 SHL AND OR PUSH2 0x1494 JUMP JUMPDEST PUSH1 0x40 DUP1 MLOAD DUP1 DUP3 ADD SWAP1 SWAP2 MSTORE PUSH1 0x60 DUP2 MSTORE PUSH1 0x0 PUSH1 0x20 DUP3 ADD MSTORE DUP4 MLOAD MLOAD PUSH1 0x0 PUSH2 0x1538 DUP3 DUP6 PUSH2 0x1CD1 JUMP JUMPDEST SWAP1 POP DUP6 PUSH1 0x20 ADD MLOAD DUP2 GT ISZERO PUSH2 0x1555 JUMPI PUSH2 0x1555 DUP7 PUSH2 0x14D5 DUP4 PUSH1 0x2 PUSH2 0x1D19 JUMP JUMPDEST PUSH1 0x0 PUSH1 0x1 PUSH2 0x1565 DUP7 PUSH2 0x100 PUSH2 0x1E14 JUMP JUMPDEST PUSH2 0x156F SWAP2 SWAP1 PUSH2 0x1CE4 JUMP JUMPDEST SWAP1 POP DUP7 MLOAD DUP3 DUP2 ADD DUP8 DUP4 NOT DUP3 MLOAD AND OR DUP2 MSTORE POP DUP1 MLOAD DUP4 GT ISZERO PUSH2 0x158D JUMPI DUP3 DUP2 MSTORE JUMPDEST POP SWAP6 SWAP7 SWAP6 POP POP POP POP POP POP JUMP JUMPDEST PUSH1 0x40 DUP1 MLOAD DUP1 DUP3 ADD SWAP1 SWAP2 MSTORE PUSH1 0x60 DUP2 MSTORE PUSH1 0x0 PUSH1 0x20 DUP3 ADD MSTORE DUP3 MLOAD DUP3 GT ISZERO PUSH2 0x15BC JUMPI PUSH1 0x0 DUP1 REVERT JUMPDEST DUP4 MLOAD MLOAD PUSH1 0x0 PUSH2 0x15CB DUP5 DUP4 PUSH2 0x1CD1 JUMP JUMPDEST SWAP1 POP DUP6 PUSH1 0x20 ADD MLOAD DUP2 GT ISZERO PUSH2 0x15E8 JUMPI PUSH2 0x15E8 DUP7 PUSH2 0x14D5 DUP4 PUSH1 0x2 PUSH2 0x1D19 JUMP JUMPDEST DUP6 MLOAD DUP1 MLOAD DUP4 DUP3 ADD PUSH1 0x20 ADD SWAP2 PUSH1 0x0 SWAP2 DUP1 DUP6 GT ISZERO PUSH2 0x1602 JUMPI DUP5 DUP3 MSTORE JUMPDEST POP POP POP PUSH1 0x20 DUP7 ADD JUMPDEST PUSH1 0x20 DUP7 LT PUSH2 0x1642 JUMPI DUP1 MLOAD DUP3 MSTORE PUSH2 0x1621 PUSH1 0x20 DUP4 PUSH2 0x1CD1 JUMP JUMPDEST SWAP2 POP PUSH2 0x162E PUSH1 0x20 DUP3 PUSH2 0x1CD1 JUMP JUMPDEST SWAP1 POP PUSH2 0x163B PUSH1 0x20 DUP8 PUSH2 0x1CE4 JUMP JUMPDEST SWAP6 POP PUSH2 0x160A JUMP JUMPDEST MLOAD DUP2 MLOAD PUSH1 0x0 NOT PUSH1 0x20 DUP9 SWAP1 SUB PUSH2 0x100 EXP ADD SWAP1 DUP2 AND SWAP1 NOT SWAP2 SWAP1 SWAP2 AND OR SWAP1 MSTORE POP DUP5 SWAP2 POP POP SWAP4 SWAP3 POP POP POP JUMP JUMPDEST DUP2 MLOAD PUSH2 0x1676 DUP4 DUP4 PUSH2 0x12D9 JUMP JUMPDEST POP PUSH2 0xC6D DUP4 DUP3 PUSH2 0x146C JUMP JUMPDEST DUP3 DUP1 SLOAD DUP3 DUP3 SSTORE SWAP1 PUSH1 0x0 MSTORE PUSH1 0x20 PUSH1 0x0 KECCAK256 SWAP1 DUP2 ADD SWAP3 DUP3 ISZERO PUSH2 0x16BC JUMPI SWAP2 PUSH1 0x20 MUL DUP3 ADD JUMPDEST DUP3 DUP2 GT ISZERO PUSH2 0x16BC JUMPI DUP3 MLOAD DUP3 SSTORE SWAP2 PUSH1 0x20 ADD SWAP2 SWAP1 PUSH1 0x1 ADD SWAP1 PUSH2 0x16A1 JUMP JUMPDEST POP PUSH2 0x16C8 SWAP3 SWAP2 POP PUSH2 0x1701 JUMP JUMPDEST POP SWAP1 JUMP JUMPDEST PUSH1 0x40 MLOAD DUP1 PUSH1 0x40 ADD PUSH1 0x40 MSTORE DUP1 PUSH2 0x16F4 PUSH1 0x40 MLOAD DUP1 PUSH1 0x40 ADD PUSH1 0x40 MSTORE DUP1 PUSH1 0x60 DUP2 MSTORE PUSH1 0x20 ADD PUSH1 0x0 DUP2 MSTORE POP SWAP1 JUMP JUMPDEST DUP2 MSTORE PUSH1 0x20 ADD PUSH1 0x0 DUP2 MSTORE POP SWAP1 JUMP JUMPDEST JUMPDEST DUP1 DUP3 GT ISZERO PUSH2 0x16C8 JUMPI PUSH1 0x0 DUP2 SSTORE PUSH1 0x1 ADD PUSH2 0x1702 JUMP JUMPDEST PUSH1 0x0 DUP2 MLOAD DUP1 DUP5 MSTORE PUSH1 0x0 JUMPDEST DUP2 DUP2 LT ISZERO PUSH2 0x173C JUMPI PUSH1 0x20 DUP2 DUP6 ADD DUP2 ADD MLOAD DUP7 DUP4 ADD DUP3 ADD MSTORE ADD PUSH2 0x1720 JUMP JUMPDEST POP PUSH1 0x0 PUSH1 0x20 DUP3 DUP7 ADD ADD MSTORE PUSH1 0x20 PUSH1 0x1F NOT PUSH1 0x1F DUP4 ADD AND DUP6 ADD ADD SWAP2 POP POP SWAP3 SWAP2 POP POP JUMP JUMPDEST PUSH1 0x20 DUP2 MSTORE PUSH1 0x0 PUSH2 0x148D PUSH1 0x20 DUP4 ADD DUP5 PUSH2 0x1716 JUMP JUMPDEST PUSH4 0x4E487B71 PUSH1 0xE0 SHL PUSH1 0x0 MSTORE PUSH1 0x41 PUSH1 0x4 MSTORE PUSH1 0x24 PUSH1 0x0 REVERT JUMPDEST PUSH1 0x0 PUSH1 0x1 PUSH1 0x1 PUSH1 0x40 SHL SUB DUP1 DUP5 GT ISZERO PUSH2 0x179F JUMPI PUSH2 0x179F PUSH2 0x176F JUMP JUMPDEST PUSH1 0x40 MLOAD PUSH1 0x1F DUP6 ADD PUSH1 0x1F NOT SWAP1 DUP2 AND PUSH1 0x3F ADD AND DUP2 ADD SWAP1 DUP3 DUP3 GT DUP2 DUP4 LT OR ISZERO PUSH2 0x17C7 JUMPI PUSH2 0x17C7 PUSH2 0x176F JUMP JUMPDEST DUP2 PUSH1 0x40 MSTORE DUP1 SWAP4 POP DUP6 DUP2 MSTORE DUP7 DUP7 DUP7 ADD GT ISZERO PUSH2 0x17E0 JUMPI PUSH1 0x0 DUP1 REVERT JUMPDEST DUP6 DUP6 PUSH1 0x20 DUP4 ADD CALLDATACOPY PUSH1 0x0 PUSH1 0x20 DUP8 DUP4 ADD ADD MSTORE POP POP POP SWAP4 SWAP3 POP POP POP JUMP JUMPDEST PUSH1 0x0 DUP3 PUSH1 0x1F DUP4 ADD SLT PUSH2 0x180B JUMPI PUSH1 0x0 DUP1 REVERT JUMPDEST PUSH2 0x148D DUP4 DUP4 CALLDATALOAD PUSH1 0x20 DUP6 ADD PUSH2 0x1785 JUMP JUMPDEST PUSH1 0x0 DUP1 PUSH1 0x0 PUSH1 0x60 DUP5 DUP7 SUB SLT ISZERO PUSH2 0x182F JUMPI PUSH1 0x0 DUP1 REVERT JUMPDEST DUP4 CALLDATALOAD SWAP3 POP PUSH1 0x20 DUP5 ADD CALLDATALOAD PUSH1 0x1 PUSH1 0x1 PUSH1 0x40 SHL SUB DUP1 DUP3 GT ISZERO PUSH2 0x184D JUMPI PUSH1 0x0 DUP1 REVERT JUMPDEST PUSH2 0x1859 DUP8 DUP4 DUP9 ADD PUSH2 0x17FA JUMP JUMPDEST SWAP4 POP PUSH1 0x40 DUP7 ADD CALLDATALOAD SWAP2 POP DUP1 DUP3 GT ISZERO PUSH2 0x186F JUMPI PUSH1 0x0 DUP1 REVERT JUMPDEST POP PUSH2 0x187C DUP7 DUP3 DUP8 ADD PUSH2 0x17FA JUMP JUMPDEST SWAP2 POP POP SWAP3 POP SWAP3 POP SWAP3 JUMP JUMPDEST PUSH1 0x0 DUP1 PUSH1 0x0 PUSH1 0x40 DUP5 DUP7 SUB SLT ISZERO PUSH2 0x189B JUMPI PUSH1 0x0 DUP1 REVERT JUMPDEST DUP4 CALLDATALOAD SWAP3 POP PUSH1 0x20 DUP5 ADD CALLDATALOAD PUSH1 0x1 PUSH1 0x1 PUSH1 0x40 SHL SUB DUP1 DUP3 GT ISZERO PUSH2 0x18B9 JUMPI PUSH1 0x0 DUP1 REVERT JUMPDEST DUP2 DUP7 ADD SWAP2 POP DUP7 PUSH1 0x1F DUP4 ADD SLT PUSH2 0x18CD JUMPI PUSH1 0x0 DUP1 REVERT JUMPDEST DUP2 CALLDATALOAD DUP2 DUP2 GT ISZERO PUSH2 0x18DC JUMPI PUSH1 0x0 DUP1 REVERT JUMPDEST DUP8 PUSH1 0x20 DUP3 PUSH1 0x5 SHL DUP6 ADD ADD GT ISZERO PUSH2 0x18F1 JUMPI PUSH1 0x0 DUP1 REVERT JUMPDEST PUSH1 0x20 DUP4 ADD SWAP5 POP DUP1 SWAP4 POP POP POP POP SWAP3 POP SWAP3 POP SWAP3 JUMP JUMPDEST PUSH1 0x0 PUSH1 0x20 DUP3 DUP5 SUB SLT ISZERO PUSH2 0x1916 JUMPI PUSH1 0x0 DUP1 REVERT JUMPDEST DUP2 CALLDATALOAD PUSH1 0x1 PUSH1 0x1 PUSH1 0xA0 SHL SUB DUP2 AND DUP2 EQ PUSH2 0x148D JUMPI PUSH1 0x0 DUP1 REVERT JUMPDEST PUSH1 0x0 PUSH1 0x20 DUP3 DUP5 SUB SLT ISZERO PUSH2 0x193F JUMPI PUSH1 0x0 DUP1 REVERT JUMPDEST DUP2 CALLDATALOAD PUSH1 0x1 PUSH1 0x1 PUSH1 0x40 SHL SUB DUP2 GT ISZERO PUSH2 0x1955 JUMPI PUSH1 0x0 DUP1 REVERT JUMPDEST DUP3 ADD PUSH1 0x1F DUP2 ADD DUP5 SGT PUSH2 0x1966 JUMPI PUSH1 0x0 DUP1 REVERT JUMPDEST PUSH2 0x1975 DUP5 DUP3 CALLDATALOAD PUSH1 0x20 DUP5 ADD PUSH2 0x1785 JUMP JUMPDEST SWAP5 SWAP4 POP POP POP POP JUMP JUMPDEST PUSH1 0x0 PUSH1 0x20 DUP3 DUP5 SUB SLT ISZERO PUSH2 0x198F JUMPI PUSH1 0x0 DUP1 REVERT JUMPDEST POP CALLDATALOAD SWAP2 SWAP1 POP JUMP JUMPDEST PUSH1 0x1 DUP2 DUP2 SHR SWAP1 DUP3 AND DUP1 PUSH2 0x19AA JUMPI PUSH1 0x7F DUP3 AND SWAP2 POP JUMPDEST PUSH1 0x20 DUP3 LT DUP2 SUB PUSH2 0x19CA JUMPI PUSH4 0x4E487B71 PUSH1 0xE0 SHL PUSH1 0x0 MSTORE PUSH1 0x22 PUSH1 0x4 MSTORE PUSH1 0x24 PUSH1 0x0 REVERT JUMPDEST POP SWAP2 SWAP1 POP JUMP JUMPDEST PUSH1 0x20 DUP2 MSTORE DUP2 MLOAD PUSH1 0x20 DUP3 ADD MSTORE PUSH1 0x20 DUP3 ADD MLOAD PUSH1 0x40 DUP3 ADD MSTORE PUSH2 0xFFFF PUSH1 0x40 DUP4 ADD MLOAD AND PUSH1 0x60 DUP3 ADD MSTORE PUSH1 0x0 PUSH1 0x60 DUP4 ADD MLOAD PUSH4 0xFFFFFFFF DUP1 DUP3 AND PUSH1 0x80 DUP6 ADD MSTORE DUP1 PUSH1 0x80 DUP7 ADD MLOAD AND PUSH1 0xA0 DUP6 ADD MSTORE POP POP PUSH1 0xA0 DUP4 ADD MLOAD PUSH1 0xC0 DUP1 DUP5 ADD MSTORE PUSH2 0x1975 PUSH1 0xE0 DUP5 ADD DUP3 PUSH2 0x1716 JUMP JUMPDEST PUSH1 0x0 PUSH1 0x20 DUP3 DUP5 SUB SLT ISZERO PUSH2 0x1A3F JUMPI PUSH1 0x0 DUP1 REVERT JUMPDEST POP MLOAD SWAP2 SWAP1 POP JUMP JUMPDEST PUSH1 0x1F DUP3 GT ISZERO PUSH2 0x7CA JUMPI PUSH1 0x0 DUP2 DUP2 MSTORE PUSH1 0x20 DUP2 KECCAK256 PUSH1 0x1F DUP6 ADD PUSH1 0x5 SHR DUP2 ADD PUSH1 0x20 DUP7 LT ISZERO PUSH2 0x1A6D JUMPI POP DUP1 JUMPDEST PUSH1 0x1F DUP6 ADD PUSH1 0x5 SHR DUP3 ADD SWAP2 POP JUMPDEST DUP2 DUP2 LT ISZERO PUSH2 0x1A8C JUMPI DUP3 DUP2 SSTORE PUSH1 0x1 ADD PUSH2 0x1A79 JUMP JUMPDEST POP POP POP POP POP POP JUMP JUMPDEST DUP2 MLOAD PUSH1 0x1 PUSH1 0x1 PUSH1 0x40 SHL SUB DUP2 GT ISZERO PUSH2 0x1AAD JUMPI PUSH2 0x1AAD PUSH2 0x176F JUMP JUMPDEST PUSH2 0x1AC1 DUP2 PUSH2 0x1ABB DUP5 SLOAD PUSH2 0x1996 JUMP JUMPDEST DUP5 PUSH2 0x1A46 JUMP JUMPDEST PUSH1 0x20 DUP1 PUSH1 0x1F DUP4 GT PUSH1 0x1 DUP2 EQ PUSH2 0x1AF6 JUMPI PUSH1 0x0 DUP5 ISZERO PUSH2 0x1ADE JUMPI POP DUP6 DUP4 ADD MLOAD JUMPDEST PUSH1 0x0 NOT PUSH1 0x3 DUP7 SWAP1 SHL SHR NOT AND PUSH1 0x1 DUP6 SWAP1 SHL OR DUP6 SSTORE PUSH2 0x1A8C JUMP JUMPDEST PUSH1 0x0 DUP6 DUP2 MSTORE PUSH1 0x20 DUP2 KECCAK256 PUSH1 0x1F NOT DUP7 AND SWAP2 JUMPDEST DUP3 DUP2 LT ISZERO PUSH2 0x1B25 JUMPI DUP9 DUP7 ADD MLOAD DUP3 SSTORE SWAP5 DUP5 ADD SWAP5 PUSH1 0x1 SWAP1 SWAP2 ADD SWAP1 DUP5 ADD PUSH2 0x1B06 JUMP JUMPDEST POP DUP6 DUP3 LT ISZERO PUSH2 0x1B43 JUMPI DUP8 DUP6 ADD MLOAD PUSH1 0x0 NOT PUSH1 0x3 DUP9 SWAP1 SHL PUSH1 0xF8 AND SHR NOT AND DUP2 SSTORE JUMPDEST POP POP POP POP POP PUSH1 0x1 SWAP1 DUP2 SHL ADD SWAP1 SSTORE POP JUMP JUMPDEST DUP2 DUP2 SUB PUSH2 0x1B5E JUMPI POP POP JUMP JUMPDEST PUSH2 0x1B68 DUP3 SLOAD PUSH2 0x1996 JUMP JUMPDEST PUSH1 0x1 PUSH1 0x1 PUSH1 0x40 SHL SUB DUP2 GT ISZERO PUSH2 0x1B7F JUMPI PUSH2 0x1B7F PUSH2 0x176F JUMP JUMPDEST PUSH2 0x1B8D DUP2 PUSH2 0x1ABB DUP5 SLOAD PUSH2 0x1996 JUMP JUMPDEST PUSH1 0x0 PUSH1 0x1F DUP3 GT PUSH1 0x1 DUP2 EQ PUSH2 0x1BC1 JUMPI PUSH1 0x0 DUP4 ISZERO PUSH2 0x1BA9 JUMPI POP DUP5 DUP3 ADD SLOAD JUMPDEST PUSH1 0x0 NOT PUSH1 0x3 DUP6 SWAP1 SHL SHR NOT AND PUSH1 0x1 DUP5 SWAP1 SHL OR DUP5 SSTORE PUSH2 0x1C26 JUMP JUMPDEST PUSH1 0x0 DUP6 DUP2 MSTORE PUSH1 0x20 SWAP1 KECCAK256 PUSH1 0x1F NOT DUP5 AND SWAP1 PUSH1 0x0 DUP7 DUP2 MSTORE PUSH1 0x20 SWAP1 KECCAK256 DUP5 JUMPDEST DUP4 DUP2 LT ISZERO PUSH2 0x1BFB JUMPI DUP3 DUP7 ADD SLOAD DUP3 SSTORE PUSH1 0x1 SWAP6 DUP7 ADD SWAP6 SWAP1 SWAP2 ADD SWAP1 PUSH1 0x20 ADD PUSH2 0x1BDB JUMP JUMPDEST POP DUP6 DUP4 LT ISZERO PUSH2 0x1C19 JUMPI DUP2 DUP6 ADD SLOAD PUSH1 0x0 NOT PUSH1 0x3 DUP9 SWAP1 SHL PUSH1 0xF8 AND SHR NOT AND DUP2 SSTORE JUMPDEST POP POP POP PUSH1 0x1 DUP4 PUSH1 0x1 SHL ADD DUP5 SSTORE JUMPDEST POP POP POP POP POP JUMP JUMPDEST PUSH4 0x4E487B71 PUSH1 0xE0 SHL PUSH1 0x0 MSTORE PUSH1 0x21 PUSH1 0x4 MSTORE PUSH1 0x24 PUSH1 0x0 REVERT JUMPDEST PUSH4 0x4E487B71 PUSH1 0xE0 SHL PUSH1 0x0 MSTORE PUSH1 0x32 PUSH1 0x4 MSTORE PUSH1 0x24 PUSH1 0x0 REVERT JUMPDEST PUSH4 0x4E487B71 PUSH1 0xE0 SHL PUSH1 0x0 MSTORE PUSH1 0x11 PUSH1 0x4 MSTORE PUSH1 0x24 PUSH1 0x0 REVERT JUMPDEST PUSH1 0x0 PUSH1 0x1 DUP3 ADD PUSH2 0x1C81 JUMPI PUSH2 0x1C81 PUSH2 0x1C59 JUMP JUMPDEST POP PUSH1 0x1 ADD SWAP1 JUMP JUMPDEST PUSH1 0x1 PUSH1 0x1 PUSH1 0x40 SHL SUB DUP7 AND DUP2 MSTORE PUSH1 0xA0 PUSH1 0x20 DUP3 ADD MSTORE PUSH1 0x0 PUSH2 0x1CAA PUSH1 0xA0 DUP4 ADD DUP8 PUSH2 0x1716 JUMP JUMPDEST PUSH2 0xFFFF SWAP6 SWAP1 SWAP6 AND PUSH1 0x40 DUP4 ADD MSTORE POP PUSH4 0xFFFFFFFF SWAP3 SWAP1 SWAP3 AND PUSH1 0x60 DUP4 ADD MSTORE PUSH1 0x80 SWAP1 SWAP2 ADD MSTORE SWAP3 SWAP2 POP POP JUMP JUMPDEST DUP1 DUP3 ADD DUP1 DUP3 GT ISZERO PUSH2 0x134D JUMPI PUSH2 0x134D PUSH2 0x1C59 JUMP JUMPDEST DUP2 DUP2 SUB DUP2 DUP2 GT ISZERO PUSH2 0x134D JUMPI PUSH2 0x134D PUSH2 0x1C59 JUMP JUMPDEST PUSH1 0x0 DUP3 PUSH2 0x1D14 JUMPI PUSH4 0x4E487B71 PUSH1 0xE0 SHL PUSH1 0x0 MSTORE PUSH1 0x12 PUSH1 0x4 MSTORE PUSH1 0x24 PUSH1 0x0 REVERT JUMPDEST POP MOD SWAP1 JUMP JUMPDEST DUP1 DUP3 MUL DUP2 ISZERO DUP3 DUP3 DIV DUP5 EQ OR PUSH2 0x134D JUMPI PUSH2 0x134D PUSH2 0x1C59 JUMP JUMPDEST PUSH1 0x1 DUP2 DUP2 JUMPDEST DUP1 DUP6 GT ISZERO PUSH2 0x1D6B JUMPI DUP2 PUSH1 0x0 NOT DIV DUP3 GT ISZERO PUSH2 0x1D51 JUMPI PUSH2 0x1D51 PUSH2 0x1C59 JUMP JUMPDEST DUP1 DUP6 AND ISZERO PUSH2 0x1D5E JUMPI SWAP2 DUP2 MUL SWAP2 JUMPDEST SWAP4 DUP5 SHR SWAP4 SWAP1 DUP1 MUL SWAP1 PUSH2 0x1D35 JUMP JUMPDEST POP SWAP3 POP SWAP3 SWAP1 POP JUMP JUMPDEST PUSH1 0x0 DUP3 PUSH2 0x1D82 JUMPI POP PUSH1 0x1 PUSH2 0x134D JUMP JUMPDEST DUP2 PUSH2 0x1D8F JUMPI POP PUSH1 0x0 PUSH2 0x134D JUMP JUMPDEST DUP2 PUSH1 0x1 DUP2 EQ PUSH2 0x1DA5 JUMPI PUSH1 0x2 DUP2 EQ PUSH2 0x1DAF JUMPI PUSH2 0x1DCB JUMP JUMPDEST PUSH1 0x1 SWAP2 POP POP PUSH2 0x134D JUMP JUMPDEST PUSH1 0xFF DUP5 GT ISZERO PUSH2 0x1DC0 JUMPI PUSH2 0x1DC0 PUSH2 0x1C59 JUMP JUMPDEST POP POP PUSH1 0x1 DUP3 SHL PUSH2 0x134D JUMP JUMPDEST POP PUSH1 0x20 DUP4 LT PUSH2 0x133 DUP4 LT AND PUSH1 0x4E DUP5 LT PUSH1 0xB DUP5 LT AND OR ISZERO PUSH2 0x1DEE JUMPI POP DUP2 DUP2 EXP PUSH2 0x134D JUMP JUMPDEST PUSH2 0x1DF8 DUP4 DUP4 PUSH2 0x1D30 JUMP JUMPDEST DUP1 PUSH1 0x0 NOT DIV DUP3 GT ISZERO PUSH2 0x1E0C JUMPI PUSH2 0x1E0C PUSH2 0x1C59 JUMP JUMPDEST MUL SWAP4 SWAP3 POP POP POP JUMP JUMPDEST PUSH1 0x0 PUSH2 0x148D DUP4 DUP4 PUSH2 0x1D73 JUMP INVALID LOG2 PUSH5 0x6970667358 0x22 SLT KECCAK256 PUSH17 0x2B8AC0223405455C0E737665D3801969CE DIV LOG0 0xAA 0xD3 0x2A STATICCALL 0xC9 PUSH23 0x48C8D82098B364736F6C63430008140033636F6E737420 PUSH17 0x6F6B6955524C203D206068747470733A2F 0x2F PUSH17 0x6F6B656170692E636F2F6170692F76322F PUSH17 0x6F6B656D6F6E603B636F6E737420687055 MSTORE 0x4C KECCAK256 RETURNDATASIZE KECCAK256 PUSH1 0x68 PUSH21 0x7470733A2F2F77697A6172642D776F726C642D6170 PUSH10 0x2E6865726F6B75617070 0x2E PUSH4 0x6F6D2F48 PUSH16 0x75736573603B636F6E737420706F6B65 PUSH14 0x6F6E436861726163746572203D20 BALANCE EXTCODESIZE PUSH4 0x6F6E736F PUSH13 0x652E6C6F67286053656E64696E PUSH8 0x2048545450207265 PUSH18 0x7565737420746F20247B706F6B6955524C7D 0x2F 0x24 PUSH28 0x706F6B656D6F6E4368617261637465727D2F60293B636F6E73742070 PUSH16 0x6B6952657175657374203D2046756E63 PUSH21 0x696F6E732E6D616B65487474705265717565737428 PUSH28 0x75726C3A2060247B706F6B6955524C7D2F247B706F6B656D6F6E4368 PUSH2 0x7261 PUSH4 0x7465727D PUSH1 0x2C PUSH14 0x6574686F643A2060474554602C7D 0x29 EXTCODESIZE PUSH4 0x6F6E7374 KECCAK256 PUSH9 0x705265717565737420 RETURNDATASIZE KECCAK256 CHAINID PUSH22 0x6E6374696F6E732E6D616B6548747470526571756573 PUSH21 0x287B75726C3A20687055524C2C6D6574686F643A20 PUSH1 0x47 GASLIMIT SLOAD PUSH1 0x2C PUSH30 0x293B636F6E737420706F6B69526573706F6E7365203D2061776169742070 PUSH16 0x6B69526571756573743B636F6E737420 PUSH9 0x70526573706F6E7365 KECCAK256 RETURNDATASIZE KECCAK256 PUSH2 0x7761 PUSH10 0x74206870526571756573 PUSH21 0x3B636F6E73742072657144617461203D20706F6B69 MSTORE PUSH6 0x73706F6E7365 0x2E PUSH5 0x6174613B63 PUSH16 0x6E737420687044617461203D20687052 PUSH6 0x73706F6E7365 0x2E PUSH5 0x6174613B63 PUSH16 0x6E7374206D7944617461203D207B706F PUSH12 0x656D6F6E547970653A207265 PUSH18 0x446174612E74797065735B305D2E74797065 0x2E PUSH15 0x616D652C706F6B656D6F6E4E616D65 GASPRICE KECCAK256 PUSH19 0x6571446174612E737065636965732E6E616D65 0x2C PUSH17 0x6F6B656D6F6E496D6167653A2072657144 PUSH2 0x7461 0x2E PUSH20 0x7072697465732E6F746865722E686F6D652E6672 PUSH16 0x6E745F64656661756C742C7D3B726574 PUSH22 0x726E2046756E6374696F6E732E656E636F6465537472 PUSH10 0x6E67284A534F4E2E7374 PUSH19 0x696E67696679286D794461746129293B000000 "},"gasEstimates":{"creation":{"codeDepositCost":"1553200","executionCost":"infinite","totalCost":"infinite"},"external":{"acceptOwnership()":"52388","arbitrumSepoliaVRF()":"2393","callbackGasLimit()":"2403","gasLimit()":"2379","handleOracleFulfillment(bytes32,bytes,bytes)":"infinite","keyHash()":"2385","lastRequestId()":"2405","makeRandomRequest()":"infinite","multiverseApiSources(uint256)":"infinite","numWords()":"2435","owner()":"2410","pokesource()":"infinite","rawFulfillRandomWords(uint256,uint256[])":"4847","requestConfirmations()":"2380","requestIdPending(bytes32)":"2575","requestIds(uint256)":"4643","result()":"infinite","router()":"2425","s_lastError()":"infinite","s_lastRequestId()":"2384","s_lastResponse()":"infinite","s_requests(uint256)":"2608","s_vrfCoordinator()":"2426","sendRequest(address)":"infinite","setCoordinator(address)":"29988","subscriptionId()":"2423","transferOwnership(address)":"30445","updatePokeSource(string)":"infinite","userToRequestResult(address)":"infinite"},"internal":{"fulfillRandomWords(uint256,uint256[] calldata)":"infinite","fulfillRequest(bytes32,bytes memory,bytes memory)":"infinite"}},"methodIdentifiers":{"acceptOwnership()":"79ba5097","arbitrumSepoliaVRF()":"a321ccaa","callbackGasLimit()":"24f74697","gasLimit()":"f68016b7","handleOracleFulfillment(bytes32,bytes,bytes)":"0ca76175","keyHash()":"61728f39","lastRequestId()":"fc2a88c3","makeRandomRequest()":"1ab0f2b3","multiverseApiSources(uint256)":"cfd30a6e","numWords()":"7ccfd7fc","owner()":"8da5cb5b","pokesource()":"020dbb9b","rawFulfillRandomWords(uint256,uint256[])":"1fe543e3","requestConfirmations()":"b0fb162f","requestIdPending(bytes32)":"8e84737f","requestIds(uint256)":"8796ba8c","result()":"65372147","router()":"f887ea40","s_lastError()":"4b0795a8","s_lastRequestId()":"b1e21749","s_lastResponse()":"3944ea3a","s_requests(uint256)":"a168fa89","s_vrfCoordinator()":"9eccacf6","sendRequest(address)":"85e1b15b","setCoordinator(address)":"8ea98117","subscriptionId()":"09c1ba2e","transferOwnership(address)":"f2fde38b","updatePokeSource(string)":"77452a2c","userToRequestResult(address)":"2e0a5890"}},"storageLayout":{"storage":[{"astId":816,"contract":"contracts/ChainlinkMultiverse.sol:EnterTheChainlinkMultiverse","label":"s_owner","offset":0,"slot":"0","type":"t_address"},{"astId":818,"contract":"contracts/ChainlinkMultiverse.sol:EnterTheChainlinkMultiverse","label":"s_pendingOwner","offset":0,"slot":"1","type":"t_address"},{"astId":2299,"contract":"contracts/ChainlinkMultiverse.sol:EnterTheChainlinkMultiverse","label":"s_vrfCoordinator","offset":0,"slot":"2","type":"t_contract(IVRFCoordinatorV2Plus)2448"},{"astId":2630,"contract":"contracts/ChainlinkMultiverse.sol:EnterTheChainlinkMultiverse","label":"subscriptionId","offset":20,"slot":"2","type":"t_uint64"},{"astId":2634,"contract":"contracts/ChainlinkMultiverse.sol:EnterTheChainlinkMultiverse","label":"multiverseApiSources","offset":0,"slot":"3","type":"t_array(t_string_storage)dyn_storage"},{"astId":2639,"contract":"contracts/ChainlinkMultiverse.sol:EnterTheChainlinkMultiverse","label":"requestIdPending","offset":0,"slot":"4","type":"t_mapping(t_bytes32,t_struct(MultiverseFunctionRequest)2626_storage)"},{"astId":2643,"contract":"contracts/ChainlinkMultiverse.sol:EnterTheChainlinkMultiverse","label":"userToRequestResult","offset":0,"slot":"5","type":"t_mapping(t_address,t_string_storage)"},{"astId":2646,"contract":"contracts/ChainlinkMultiverse.sol:EnterTheChainlinkMultiverse","label":"router","offset":0,"slot":"6","type":"t_address"},{"astId":2649,"contract":"contracts/ChainlinkMultiverse.sol:EnterTheChainlinkMultiverse","label":"donId","offset":0,"slot":"7","type":"t_bytes32"},{"astId":2652,"contract":"contracts/ChainlinkMultiverse.sol:EnterTheChainlinkMultiverse","label":"gasLimit","offset":0,"slot":"8","type":"t_uint32"},{"astId":2654,"contract":"contracts/ChainlinkMultiverse.sol:EnterTheChainlinkMultiverse","label":"s_lastRequestId","offset":0,"slot":"9","type":"t_bytes32"},{"astId":2656,"contract":"contracts/ChainlinkMultiverse.sol:EnterTheChainlinkMultiverse","label":"s_lastResponse","offset":0,"slot":"10","type":"t_bytes_storage"},{"astId":2658,"contract":"contracts/ChainlinkMultiverse.sol:EnterTheChainlinkMultiverse","label":"s_lastError","offset":0,"slot":"11","type":"t_bytes_storage"},{"astId":2660,"contract":"contracts/ChainlinkMultiverse.sol:EnterTheChainlinkMultiverse","label":"result","offset":0,"slot":"12","type":"t_string_storage"},{"astId":2666,"contract":"contracts/ChainlinkMultiverse.sol:EnterTheChainlinkMultiverse","label":"s_requests","offset":0,"slot":"13","type":"t_mapping(t_uint256,t_struct(RequestStatus)2621_storage)"},{"astId":2669,"contract":"contracts/ChainlinkMultiverse.sol:EnterTheChainlinkMultiverse","label":"keyHash","offset":0,"slot":"14","type":"t_bytes32"},{"astId":2672,"contract":"contracts/ChainlinkMultiverse.sol:EnterTheChainlinkMultiverse","label":"requestConfirmations","offset":0,"slot":"15","type":"t_uint16"},{"astId":2675,"contract":"contracts/ChainlinkMultiverse.sol:EnterTheChainlinkMultiverse","label":"numWords","offset":2,"slot":"15","type":"t_uint32"},{"astId":2678,"contract":"contracts/ChainlinkMultiverse.sol:EnterTheChainlinkMultiverse","label":"requestIds","offset":0,"slot":"16","type":"t_array(t_uint256)dyn_storage"},{"astId":2680,"contract":"contracts/ChainlinkMultiverse.sol:EnterTheChainlinkMultiverse","label":"lastRequestId","offset":0,"slot":"17","type":"t_uint256"},{"astId":2683,"contract":"contracts/ChainlinkMultiverse.sol:EnterTheChainlinkMultiverse","label":"callbackGasLimit","offset":0,"slot":"18","type":"t_uint32"},{"astId":2686,"contract":"contracts/ChainlinkMultiverse.sol:EnterTheChainlinkMultiverse","label":"arbitrumSepoliaVRF","offset":4,"slot":"18","type":"t_address"},{"astId":2708,"contract":"contracts/ChainlinkMultiverse.sol:EnterTheChainlinkMultiverse","label":"pokesource","offset":0,"slot":"19","type":"t_string_storage"}],"types":{"t_address":{"encoding":"inplace","label":"address","numberOfBytes":"20"},"t_array(t_string_storage)dyn_storage":{"base":"t_string_storage","encoding":"dynamic_array","label":"string[]","numberOfBytes":"32"},"t_array(t_uint256)dyn_storage":{"base":"t_uint256","encoding":"dynamic_array","label":"uint256[]","numberOfBytes":"32"},"t_bool":{"encoding":"inplace","label":"bool","numberOfBytes":"1"},"t_bytes32":{"encoding":"inplace","label":"bytes32","numberOfBytes":"32"},"t_bytes_storage":{"encoding":"bytes","label":"bytes","numberOfBytes":"32"},"t_contract(IVRFCoordinatorV2Plus)2448":{"encoding":"inplace","label":"contract IVRFCoordinatorV2Plus","numberOfBytes":"20"},"t_mapping(t_address,t_string_storage)":{"encoding":"mapping","key":"t_address","label":"mapping(address => string)","numberOfBytes":"32","value":"t_string_storage"},"t_mapping(t_bytes32,t_struct(MultiverseFunctionRequest)2626_storage)":{"encoding":"mapping","key":"t_bytes32","label":"mapping(bytes32 => struct EnterTheChainlinkMultiverse.MultiverseFunctionRequest)","numberOfBytes":"32","value":"t_struct(MultiverseFunctionRequest)2626_storage"},"t_mapping(t_uint256,t_struct(RequestStatus)2621_storage)":{"encoding":"mapping","key":"t_uint256","label":"mapping(uint256 => struct EnterTheChainlinkMultiverse.RequestStatus)","numberOfBytes":"32","value":"t_struct(RequestStatus)2621_storage"},"t_string_storage":{"encoding":"bytes","label":"string","numberOfBytes":"32"},"t_struct(MultiverseFunctionRequest)2626_storage":{"encoding":"inplace","label":"struct EnterTheChainlinkMultiverse.MultiverseFunctionRequest","members":[{"astId":2623,"contract":"contracts/ChainlinkMultiverse.sol:EnterTheChainlinkMultiverse","label":"userWallet","offset":0,"slot":"0","type":"t_address"},{"astId":2625,"contract":"contracts/ChainlinkMultiverse.sol:EnterTheChainlinkMultiverse","label":"isPending","offset":20,"slot":"0","type":"t_bool"}],"numberOfBytes":"32"},"t_struct(RequestStatus)2621_storage":{"encoding":"inplace","label":"struct EnterTheChainlinkMultiverse.RequestStatus","members":[{"astId":2615,"contract":"contracts/ChainlinkMultiverse.sol:EnterTheChainlinkMultiverse","label":"fulfilled","offset":0,"slot":"0","type":"t_bool"},{"astId":2617,"contract":"contracts/ChainlinkMultiverse.sol:EnterTheChainlinkMultiverse","label":"exists","offset":1,"slot":"0","type":"t_bool"},{"astId":2620,"contract":"contracts/ChainlinkMultiverse.sol:EnterTheChainlinkMultiverse","label":"randomWords","offset":0,"slot":"1","type":"t_array(t_uint256)dyn_storage"}],"numberOfBytes":"64"},"t_uint16":{"encoding":"inplace","label":"uint16","numberOfBytes":"2"},"t_uint256":{"encoding":"inplace","label":"uint256","numberOfBytes":"32"},"t_uint32":{"encoding":"inplace","label":"uint32","numberOfBytes":"4"},"t_uint64":{"encoding":"inplace","label":"uint64","numberOfBytes":"8"}}},"userdoc":{"errors":{"UnexpectedRequestID(bytes32)":[{"notice":"ERRORS "}]},"events":{"RequestSent(uint256,uint32)":{"notice":"CHAINLINK VRF EVENTS "}},"kind":"user","methods":{"acceptOwnership()":{"notice":"Allows an ownership transfer to be completed by the recipient."},"handleOracleFulfillment(bytes32,bytes,bytes)":{"notice":"Chainlink Functions response handler called by the Functions Router during fullilment from the designated transmitter node in an OCR round."},"multiverseApiSources(uint256)":{"notice":"CHAINLINK FUNCTIONS VARIABLES "},"owner()":{"notice":"Get the current owner"},"s_requests(uint256)":{"notice":"CHAINLINK VRF VARIABLES "},"setCoordinator(address)":{"notice":"Sets the VRF Coordinator addressThis method should only be callable by the coordinator or contract owner"},"subscriptionId()":{"notice":"CHAINLINK SHARED VARIABLES "},"transferOwnership(address)":{"notice":"Allows an owner to begin transferring ownership to a new address."}},"version":1}}}}