{"@chainlink/contracts/src/v0.8/functions/v1_0_0/libraries/FunctionsRequest.sol":{"FunctionsRequest":{"abi":[{"inputs":[],"name":"EmptyArgs","type":"error"},{"inputs":[],"name":"EmptySecrets","type":"error"},{"inputs":[],"name":"EmptySource","type":"error"},{"inputs":[],"name":"NoInlineSecrets","type":"error"},{"inputs":[],"name":"REQUEST_DATA_VERSION","outputs":[{"internalType":"uint16","name":"","type":"uint16"}],"stateMutability":"view","type":"function"}],"devdoc":{"kind":"dev","methods":{},"title":"Library for encoding the input data of a Functions request into CBOR","version":1},"evm":{"bytecode":{"linkReferences":{},"object":"608c610038600b82828239805160001a607314602b57634e487b7160e01b600052600060045260246000fd5b30600052607381538281f3fe730000000000000000000000000000000000000000301460806040526004361060335760003560e01c80635d641dfc146038575b600080fd5b603f600181565b60405161ffff909116815260200160405180910390f3fea264697066735822122000ca6cb2b1ca6b2f1777462c6e43bf527457f5638cf66b482170e84da8737e7164736f6c63430008140033","opcodes":"PUSH1 0x8C PUSH2 0x38 PUSH1 0xB DUP3 DUP3 DUP3 CODECOPY DUP1 MLOAD PUSH1 0x0 BYTE PUSH1 0x73 EQ PUSH1 0x2B JUMPI PUSH4 0x4E487B71 PUSH1 0xE0 SHL PUSH1 0x0 MSTORE PUSH1 0x0 PUSH1 0x4 MSTORE PUSH1 0x24 PUSH1 0x0 REVERT JUMPDEST ADDRESS PUSH1 0x0 MSTORE PUSH1 0x73 DUP2 MSTORE8 DUP3 DUP2 RETURN INVALID PUSH20 0x0 ADDRESS EQ PUSH1 0x80 PUSH1 0x40 MSTORE PUSH1 0x4 CALLDATASIZE LT PUSH1 0x33 JUMPI PUSH1 0x0 CALLDATALOAD PUSH1 0xE0 SHR DUP1 PUSH4 0x5D641DFC EQ PUSH1 0x38 JUMPI JUMPDEST PUSH1 0x0 DUP1 REVERT JUMPDEST PUSH1 0x3F PUSH1 0x1 DUP2 JUMP JUMPDEST PUSH1 0x40 MLOAD PUSH2 0xFFFF SWAP1 SWAP2 AND DUP2 MSTORE PUSH1 0x20 ADD PUSH1 0x40 MLOAD DUP1 SWAP2 SUB SWAP1 RETURN INVALID LOG2 PUSH5 0x6970667358 0x22 SLT KECCAK256 STOP 0xCA PUSH13 0xB2B1CA6B2F1777462C6E43BF52 PUSH21 0x57F5638CF66B482170E84DA8737E7164736F6C6343 STOP ADDMOD EQ STOP CALLER "},"gasEstimates":{"creation":{"codeDepositCost":"28000","executionCost":"112","totalCost":"28112"},"external":{"REQUEST_DATA_VERSION()":"154"},"internal":{"addDONHostedSecrets(struct FunctionsRequest.Request memory,uint8,uint64)":"infinite","addSecretsReference(struct FunctionsRequest.Request memory,bytes memory)":"infinite","encodeCBOR(struct FunctionsRequest.Request memory)":"infinite","initializeRequest(struct FunctionsRequest.Request memory,enum FunctionsRequest.Location,enum FunctionsRequest.CodeLanguage,string memory)":"infinite","initializeRequestForInlineJavaScript(struct FunctionsRequest.Request memory,string memory)":"infinite","setArgs(struct FunctionsRequest.Request memory,string memory[] memory)":"infinite","setBytesArgs(struct FunctionsRequest.Request memory,bytes memory[] memory)":"infinite"}},"methodIdentifiers":{"REQUEST_DATA_VERSION()":"5d641dfc"}},"storageLayout":{"storage":[],"types":null},"userdoc":{"kind":"user","methods":{},"version":1}}}}